S0250000454B5F5241364D345F4D6963726F524F535F5553425F546872656164582E7372656321
S31500000000B8960020598700008585000055870000B6
S31500000010558700005587000055870000558700006A
S3150000002000000000000000000000000055870000EE
S315000000305587000000000000A537000021380000A9
S315000000409D8200006D4B0000A14B0000D54B0000C7
S31500000050F94B000000000000000000000000000056
S31500000060000000000000000000000000000000008A
S31500000070000000000000000000000000000000007A
S31500000080000000000000000000000000000000006A
S31500000090000000000000000000000000000000005A
S315000000A0000000000000000000000000000000004A
S315000000B0000000000000000000000000000000003A
S315000000C0000000000000000000000000000000002A
S315000000D0000000000000000000000000000000001A
S315000000E0000000000000000000000000000000000A
S315000000F000000000000000000000000000000000FA
S3150000010000000000000000000000000000000000E9
S3150000011000000000000000000000000000000000D9
S3150000012000000000000000000000000000000000C9
S3150000013000000000000000000000000000000000B9
S3150000014000000000000000000000000000000000A9
S315000001500000000000000000000000000000000099
S315000001600000000000000000000000000000000089
S315000001700000000000000000000000000000000079
S315000001800000000000000000000000000000000069
S315000001900000000000000000000000000000000059
S315000001A00000000000000000000000000000000049
S315000001B00000000000000000000000000000000039
S315000001C0FFFFFFFFFFFFFFFFFFFFFFFFFFFFFFFF39
S315000001D0FFFFFFFFFFFFFFFFFFFFFFFFFFFFFFFF29
S315000001E0FFFFFFFFFFFFFFFFFFFFFFFFFFFFFFFF19
S315000001F0FFFFFFFFFFFFFFFFFFFFFFFFFFFFFFFF09
S3150000020010B5054C237833B9044B13B1044800E00C
S3150000021000BF0123237010BDA001002000000000D4
S31500000220988A010008B5034B1BB10349034800E057
S3150000023000BF08BD00000000A4010020988A01004C
S315000002402DE9F843D0E90295A9EB05089045044647
S31500000250164609D94068284415F0F0FCBFF35F8FB5
S315000002603544E560BDE8F8830F46406842462844B9
S315000002703544A5EB090515F0E1FC2A46606807EB55
S31500000280080115F0DBFCBFF35F8FE560BDE8F8837E
S315000002902DE9F8434FF00009064617468846D0E98F
S315000002A0021433690D1B9C4203F1FF3224BF03F194
S315000002B0FF325218BD4228BF3D46121B954228BF49
S315000002C01546706841462A46204415F0B7FCB168C9
S315000002D02C44A14208BF0024A944A8447F1BBFF3B5
S315000002E05F8FF460002FDCD14846BDE8F88300BF7D
S315000002F0F0B4002203244FF4806610251249134BF4
S315000003000868134F1349C3F8070013481C615C6162
S315000003109961DF611E629A625A62DA6219665866EC
S315000003209D661A67DA665A67BFF35F8F0B4A92E8D3
S31500000330030018609980BFF35F8F20229A71BFF384
S315000003405F8FF0BC704700BFA4750100BC010020A0
S31500000350740200209875010064020020A87501004F
S3150000036038B5204B00EB400403EBC40EDEF82C40FE
S31500000370013000EB4000012C8C46154603EBC00013
S3150000038005D0022C29D0ACB10024204638BDDEF8B9
S315000003902830DEF8242093429CBFDEF820401B194B
S315000003A0013B9C1AAC4228BF2C462246FFF748FF69
S315000003B0204638BDDEF82830DEF8242093429CBF64
S315000003C0DEF820105B18013B9B1A9D42DDD82A46B9
S315000003D06146FFF735FF2C46D7E7BDE83840FFF703
S315000003E057BF00BFBC01002030B50C4B0C461B7834
S315000003F083B063B1EFF311854FF0200181F31188CB
S315000004002146FFF7ADFF85F3118803B030BDCDE976
S315000004100002FFF76DFFDDE90002EBE7BC010020FB
S31500000420D0E9012310B50446581C904207D822682B
S31500000430D1540346E16862680131C4E902019A4277
S3150000044000D010BD21682069FFF7CEFFA36898424F
S3150000045015BF4FF0FF330023E360A36010BD00BF5C
S315000004602DE9F84F91420F46DDE90A941546834679
S315000004701E4660D30B464FF00108B3FBF5F39D42D1
S3150000048008F10108F9D9B04538BFB04614F0010AA1
S3150000049002D1B9F1000F35D1DBF80C30002B2FDB80
S315000004A0012402E0013E05FB04F4012EFAD8B7FB55
S315000004B0F4F39D42F7D9214E06E0AC42B4FBF5F3C6
S315000004C00CD31C46B7FBF3F3F156584604FB1377DF
S315000004D0FFF7A6FFDBF80C30002BEEDABAF1000FBF
S315000004E00ED0B9F1000F0BD0C84509F1FF3907D27C
S315000004F020215846FFF794FFDBF80C30002BF0DA8A
S31500000500BDE8F88FA30711D420240CE021465846F5
S31500000510FFF786FFDBF80C3009F1FF39002BEFDB24
S31500000520B9F1000FBCD0C845F0D3B5E7002E0CBF1B
S3150000053030242024F7E74FF00108A4E7B075010046
S315000005402DE9F04F002340249BB00DF1280A804688
S315000005500D461746CDE905A4CDE90733DFF8A49289
S31500000560099005E005A8FFF75BFF0898002866DB01
S3150000057015F9011B002965D02529F3D12946002646
S315000005800D4611F9013BA3F123020D2A08D8DFE835
S3150000059002F0480707070707070745074B07074203
S315000005A0A3F13002D2B2092A4FF000040BD804EBB3
S315000005B0840403EB440415F9013F303CA3F13002F7
S315000005C0D2B2092AF3D92E2B00F0CB80002395F95D
S315000005D0001001E015F9011F21F00402682AF9D084
S315000005E0252924D05839CAB2202A23D8202921D82F
S315000005F0DFE801F03320202020202020202020AD1D
S315000006006020202020202020202020205220204250
S31500000610203F2020330046F00206B1E746F00406EC
S31500000620AEE746F00806ABE746F00106A8E705A8E0
S31500000630FFF7F6FE0898002805F1010598DA1BB0C9
S31500000640BDE8F08F08980028F9DD079A002A40F0E7
S31500000650A08010441BB0BDE8F08F102238680168F6
S315000006600430CDE90046386005A8FFF7F9FE089882
S31500000670E1E70A223868F2E73B681A1D3A601C680F
S3150000068005E005A8FFF7CCFE08980028D3DB14F98F
S31500000690011B0029F5D1CDE7082300243868102274
S315000006A001680430386005A8CDE90034FFF7D8FEAC
S315000006B00898C0E73A680120D2F800B004323A60E0
S315000006C08BEAEB72A2EBEB72092A08DD1146A9FB55
S315000006D002C2632900F101004FEAD202F6DC984219
S315000006E0024638BF1A46039264B3BBF1000F58DBCB
S315000006F0710756D4B20700D523B3F00722D40CB342
S31500000700039AA2421ED205A820210293FFF788FE73
S31500000710089A013C002A10468DDB029B002CEFD183
S31500000720BBF1000F3FDB71074BD406F00301022932
S315000007304ED005A859460A22CDE90046FFF790FE9D
S31500000740089878E7089A002A1046E9DA73E73B68C2
S3150000075005A81A1D93F900103A60FFF761FE089884
S3150000076069E795F901100135A1F13003DBB2092BD8
S315000007704FF000033FF630AF03EB830301EB430377
S3150000078015F9011F303BA1F13002D2B2092AF3D983
S3150000079022E751464046FFF727FEDDE907201044D1
S315000007A058E7013CA6E72D2105A80293FFF738FE7E
S315000007B0029BCBF1000B089A002A1046FFF63BAFCE
S315000007C0B3E72B2105A80293FFF72AFE029BF2E767
S315000007D0002BAED1A4B10399A1420CD205A83021B9
S315000007E00293FFF71DFE089A013C002A1046FFF609
S315000007F022AF029BEEE7002A1046FFF61CAF98E7F1
S31500000800002496E7CDCCCCCC0EB400B582B003ABB9
S3150000081053F8041B01AA0193FFF792FE02B05DF89C
S3150000082004EB03B0704700BF2B4B2DE9F0471E8841
S31500000830002E4FD000254FF0010A5F68DFF8A48034
S31500000840DFF8A490254C07EB4606EFF310828AF3F7
S315000008501088D8F8003023B9402189F8033089F888
S315000008600310D8F800300133C8F8003082F310883E
S3150000087039461B4831F8022B130A1B0153FA82F240
S3150000088054F822308E4203EA000343EA050343F09C
S31500000890040344F82230EDD1EFF310828AF3108876
S315000008A0D8F8003023B1D8F80030013BC8F8003042
S315000008B0D8F8003023B9802189F8033089F803106D
S315000008C082F310884FF47A70C5F10105EDB201F09C
S315000008D01BFFBAE7FEE700BFF07C010000080840F6
S315000008E0FE3FFEFFF0280020000D0840022800D041
S315000008F07047024B0248596807F09EBB58780100C2
S31500000900480B002015F07AB915F080B915F040BBF8
S315000009100B46012103FB00F015F01AB908B5034692
S3150000092004491A680020FFF76FFF0122024B1A7074
S3150000093008BD00BFC0750100740600202DE9F04314
S315000009400024BDB008A808F0EFFF1AA8CDE90244BC
S3150000095008F0FAFB2246214608AB0DA8CDE904446F
S3150000096008F0BEFEAF4AB0490DAB06A808F002FF7C
S31500000970054690B30246AD492046FFF745FF0125DF
S31500000980AB4CDFF8F492AB4FDFF8F082AA4E85F05D
S315000009900105EFF31082012383F31088236813B94E
S315000009A04021FB70F97023680133236082F31088BD
S315000009B0D9F804304FF47A719A886420130A1B011F
S315000009C053FA82F258F8223033402B4343F00403A3
S315000009D048F8223007F0A2FDD9E79849FFF714FF3F
S315000009E009F06AFD964B024606A902A808F0FEFE2B
S315000009F0044690B3024693492846FFF705FF0127B0
S31500000A008B4CDFF874928B4EDFF870828A4D87F03C
S31500000A100107EFF31082012383F31088236813B9CB
S31500000A204021F370F17023680133236082F310884C
S31500000A30D9F804304FF47A719A886420130A1B019E
S31500000A4053FA82F258F822302B403B4343F004031A
S31500000A5048F8223007F062FDD9E77B49FFF7D4FE5C
S31500000A6009F02AFD794B024606A903A808F0F2FE12
S31500000A70054600283ED17649FFF7C6FE012208AB9F
S31500000A800DA91AA808F06CFB0446002865D002469A
S31500000A9070492846FFF7B8FE0127654CDFF8D89164
S31500000AA0644EDFF8D881644D87F00107EFF31082BA
S31500000AB0012383F31088236813B94021F370F17082
S31500000AC023680133236082F31088D9F804304FF489
S31500000AD07A719A886420130A1B0153FA82F258F835
S31500000AE022302B403B4343F0040348F8223007F002
S31500000AF015FDD9E7024658492046FFF785FE01272E
S31500000B004B4CDFF874914B4EDFF870814A4D87F0FD
S31500000B100107EFF31082012383F31088236813B9CA
S31500000B204021F370F17023680133236082F310884B
S31500000B30D9F804304FF47A719A886420130A1B019D
S31500000B4053FA82F258F822302B403B4343F0040319
S31500000B5048F8223007F0E2FCD9E74049FFF754FE97
S31500000B603F4B03A900941AA805AA08F065FB804626
S31500000B7028BB3C49FFF748FE00253B4E3B4F3C4C0B
S31500000B8022462B461AA808F073FD3378002204A9E2
S31500000B9002A81BB1059B86F80080049307F044FF6A
S31500000BA0024618B139460020FFF72EFE049B4FF48B
S31500000BB07A7101336420049307F0B0FCE0E7024643
S31500000BC02C492046FFF720FE0127194CDFF8A89094
S31500000BD0184EDFF8A880184D87F00107EFF3108252
S31500000BE0012383F31088236813B94021F370F17051
S31500000BF023680133236082F31088D9F804304FF458
S31500000C007A719A886420130A1B0153FA82F258F803
S31500000C1022302B403B4343F0040348F8223007F0D0
S31500000C207DFCD9E71C780100D0750100E075010054
S31500000C30F0280020000D0840FE3FFEFF1876010058
S31500000C403C7601004C7601008C760100B4760100FA
S31500000C500477010030770100C47601006477010053
S31500000C601D090000C477010074060020F07701001A
S31500000C7040420F0084770100F07C01000008084024
S31500000C8010B52348234C88B00021CDE90004224B3F
S31500000C90224A012008F0E8FE03A808F017FE204CBF
S31500000CA02049214A214B03A8CDE90341CDE905237B
S31500000CB008F01CFE30B3EFF31081012383F3108894
S31500000CC01B4B1A681AB940241A48C270C4701A68B5
S31500000CD001321A6081F31088174B18495B681A882D
S31500000CE0130A1B0153FA82F251F8223023F0011342
S31500000CF023F4404343F0050341F82230FFF71EFE7C
S31500000D0008B010BD22210E4815F0BEF8D3E700BF8B
S31500000D10BD0F0000C50F0000AD0F0000950F0000CD
S31500000D2005090000090900000D090000110900006D
S31500000D30F0280020000D0840F07C01000008084063
S31500000D4020780100044AD2E90031013341F1000163
S31500000D50C2E90031704700BF88060020FFFFFFFF91
S31500000D602DE9F0433A4E0D46337883B0002B35D04B
S31500000D70384B394F5E68394C6946394807F0DCF91B
S31500000D80D4E90002D7E900370099711A354ED6E941
S31500000D90004604FB02F200FB0622A3FB0136A4FB7D
S31500000DA0004001FB07661C19024446EB020620467A
S31500000DB021A3D3E90023314614F0FCFC03462B6043
S31500000DC0DB176B6031461CA3D3E90023204614F0E1
S31500000DD0F1FC0020AA6003B0BDE8F0834FF00109E2
S31500000DE0DFF870801E48414607F0B8F91C4807F046
S31500000DF087F998F80800184F09FA00F014F00EFA6F
S31500000E000FA3D3E9002314F09DFB0FA3D3E900231E
S31500000E1014F06EFA14F0E6FC86F80090D8F8046038
S31500000E203860A6FB000306FB01330C4C796020609A
S31500000E306360A1E7AFF3008000CA9A3B00000000A0
S31500000E400000000084D787410000000065CDCD4139
S31500000E5090060020647801008006002078060020B5
S31500000E60500B0020880600202DE9F04F002483B0A7
S31500000E7001288DF80740804692461C4670D002280D
S31500000E8074D007F0D3FC05460F463D4EDFF8F490CC
S31500000E90DFF8FCB0631C09D007F0C8FC401B61EB0F
S31500000EA00701E317A04271EB030345DA30460DF163
S31500000EB0070106F045FD00283ED19DF80730033BAB
S31500000EC0072BE7D801A252F823F000BFED0E000071
S31500000ED0950E0000950E0000950E00000B0F000009
S31500000EE0950E0000FB0E0000ED0E0000B8F1010F9C
S31500000EF0D0D1504603B0BDE8F08FB8F1020FC9D18A
S31500000F001F4B986803B0BDE8F08F30461D4906F0C8
S31500000F101BFDB9F8003003F47F43B3F5005F0FD033
S31500000F20B3F5045F14D0B3F5085FB3D100213046A2
S31500000F3006F0F6FE0028ADD0002003B0BDE8F08F25
S31500000F4007225946304606F0A3FE0028A2D0F3E752
S31500000F5007225946304606F0BFFE00289AD0EBE736
S31500000F60094B07481B7806F069FE8AE7064B4FF4E3
S31500000F707A721B780549024806F036FE81E700BF03
S31500000F80900B0020900A00209C060020A00600205E
S31500000F909406002008B50349034806F0DDFC01204D
S31500000FA008BD00BFB0780100900B002008B50248CC
S31500000FB006F054FD012008BD900B0020642301209B
S31500000FC0FFF752BFF8B5194D0C462E681746F6B115
S31500000FD017490B68B34225D237B3E019421E154FA5
S31500000FE004F1FF3C01E0944510D06046FB5C023002
S31500000FF00CF8013F0B682E680133B3420B60A0EB7F
S315000010000400F0D39E4201D100232B60F8BD314687
S3150000101032460220FFF728FF054933460E60286056
S315000010200646D7E70020EDE73846F8BD8C0A0020D3
S31500001030880A0020A006002008B500F065F8BDE883
S315000010400840FFF7F1BB00BFB021012202234FF495
S31500001050806030B50E4D89B02C6806910D49CDE9FA
S315000010600422CDE90010CDE90233013400230A4AF7
S315000010700A490B482C6002F083F808B909B030BD64
S315000010800021074809B0BDE8304000F011B800BFA4
S315000010908C0B0020B896002039100000487801001B
S315000010A0980A0020704700BFFFF7FCBF704700BFDB
S315000010B000BE7047F8B500250F4F104E04461C239E
S315000010C001220F490F483D60357001F0C3FF38B962
S315000010D0FFF7BAFF00F058F82046FFF7E7FFF8BD24
S315000010E029460848FFF7E4FFFFF7AEFF00F04CF88B
S315000010F02046FFF7DBFFF8BD8C0B00206C0B0020B1
S315000011008C780100700B002038B54FF0FF31144881
S3150000111002F006F8F0B9134B1A7802B138BD012275
S31500001120114C1A70FFF7C0FF2368013B2360002BA8
S31500001130F4D00B4D04E02368013B2360002BEDD077
S31500001140284602F011F80028F5D000212846FFF7BE
S31500001150AFFFF0E700210248FFF7AAFFDBE700BF79
S31500001160700B00206C0B00208C0B002008B500F0E3
S31500001170E7FD002008BD00BF08B5FFF7C5FFBDE8C5
S315000011800840FFF77DBD00BF012110B5B0204FF428
S3150000119000640E4A88B013680B4413600C4ACDE90C
S315000011A00510CDE90311009202910023094A0A496C
S315000011B00A48019401F0E4FF08B908B010BD002107
S315000011C0064808B0BDE81040FFF772BF8C0B002040
S315000011D0B89A002079110000A0780100B40B002015
S315000011E02DE9F04FDFF810829FB0D8F80060336A1F
S315000011F0032B40F0BB80D6F8105182468B4625B9AA
S31500001200BCE02D6B002D00F0B9806B695345F8D119
S31500001210AB695B4500F0AE80D6E94A49B9F1000FEB
S3150000122000F0A080724904E0B9EB07093C4400F0E5
S31500001230998063782778022BF6D1082202AB2046E4
S3150000124000F0DCFB069AD6F8EC3069499A42EBD1FD
S31500001250049F002F00F08680664903E0B7EB09077C
S315000012604C447FD0637894F80090042BF6D10AABF7
S315000012702046092200F0C2FB0C9B5E495345EDD186
S315000012800D9B5B45EAD1D5F83490B9F1000F18D023
S315000012904B464FF0000AA1461C462621204600F088
S315000012A087FB2246B3690F21304698472346646A76
S315000012B0C3E900AAC3E909AAC3F82CA0002CECD103
S315000012C04C4600236B632378FF1A1C4471D006F149
S315000012D02003A146CDE90073DFF820B107E0022B19
S315000012E067D0009BD144B3EB0A03009361D099F811
S315000012F0013099F800A0042B5BD0052BEFD1D6E97D
S315000013004743002B41D0009F03E0013B04F19004CA
S315000013103BD02268002AF8D12346009701270622EF
S31500001320594643F80C7B484600F068FBD8F8003075
S31500001330D3F8A011E3690229C3F30A022FD0019B57
S315000013402265E3624FF0FF332246E3670E21304603
S31500001350B369A463A5629847002845D16B6BB3B9FE
S315000013606C63BEE7FF201FB0BDE8F08F54201FB0AE
S31500001370BDE8F08F00201FB0BDE8F08F022052229A
S31500001380072100F01BFB5220EDE71220EBE7009F40
S315000013901A465B6A002BFBD100975462A1E7A1694C
S315000013A0C907CCD513F4C0531CBFDB0A03FB0222CA
S315000013B0C5E724220AA905F10C0000F047FB6B697A
S315000013C0D8F80020583352F823305BB11A6C4AB172
S315000013D006215A6C15951B93C3F8105113A8139147
S315000013E09047C0E75720BEE700232360BBE700BF56
S315000013F00000002020000020640C002018000020BF
S3150000140038B5194B10F003001D6809D002280FD01B
S3150000141014212846AB6905F15C029847002038BDC7
S315000014200129FCD1D5F8A831DBB1C5F8AC0138BD2E
S31500001430D5F810110029EBD04C6B14B90DE0646A95
S315000014405CB163699342FAD1AB6922461021284602
S31500001450984700231846636038BD096B0029EBD115
S31500001460D6E7542038BD00BF640C00202DE9F04FAC
S315000014708046A1B0DFF830922022002104A814F0A3
S3150000148004FCD9F80070D7F8EC30434500F094809E
S31500001490D7E94A46002E7ED0DFF804A202E0761B8A
S315000014A02C4478D063782578022BF8D104AB2046FB
S315000014B00822514600F0A2FA089B4345EFD1D7F81F
S315000014C0EC30002B7DD10025012213213846BB6963
S315000014D0C7F8EC503A629847B8F1000F6CD07049E3
S315000014E0082207F1F0032046C7F8EC8000F086FAE0
S315000014F00A9BD9F8002013F0400F14BF02210121E6
S31500001500069EC3F34013C2E96913BEB1CDE9018556
S31500001510AA46AB46A84604E0042B1AD0761B2C44F8
S315000015200CD0637825780B2BF6D1761B94F80280C5
S3150000153094F803A04FF0010B2C44F2D103220025AE
S3150000154013213846BB693A629847284621B0BDE860
S31500001550F08F0CAB09222046524900F04FFA0F9B40
S31500001560002BDBD1BBF1000F4ED00E9A424572D054
S31500001570D9F800300299583243F82210BAF1010A1C
S3150000158014BF4FF0010B4FF0000B002231462046EE
S3150000159000F0F0F8C2E7B8F1000F5AD1D7F8EC50D6
S315000015A045B3D7F810518DB9012213213846BB69CE
S315000015B0C7F8EC803A6298470025284621B0BDE876
S315000015C0F08FD7F81051002D3FF47DAF4FF0030A8E
S315000015D000E035466B68CDF854A017951D9313B1FE
S315000015E05B6C15A898472E6B284600F09BF8002EDA
S315000015F0EFD168E7012213213846BB693A62984762
S31500001600284621B0BDE8F08FD9F80010D1E956037D
S31500001610002843D05A468E46DDF838C0039403E0CE
S31500001620824203F58A7312D0196C01320129F7D16F
S31500001630D3F808118C45F3D1D3F80C11019CA142C3
S31500001640EED10CF1580C039C4EF82C309DE7039C10
S315000016509BE7FF25B1E7D9F80010D1E9560200282B
S315000016608CD08E46A44603E0834202F58A7213D0DC
S31500001670116C01330129F7D1D2F808114145F3D194
S31500001680D2F80C11019CA142EED108F15803644630
S315000016904EF82320029271E764466FE7834674E7AB
S315000016A00000002020000020640C00202DE9F041FD
S315000016B0DFF86C808CB0D8F80060376A032F10D042
S315000016C0012F23D03246FF240023D2F8C421C6F8C6
S315000016D0EC3033620AB10A20904720460CB0BDE8D0
S315000016E0F081D6F810410CB90EE02C4663680197DC
S315000016F00394099313B15B6C01A89847256B2046A8
S3150000170000F010F8002DF0D10123336206F15C02DF
S315000017100F213046B3699847D8F800200446D3E72E
S31500001720640C00202DE9F843DFF84480446B07463B
S31500001730D8F800908CB14846002502E03446D8F827
S315000017400000666A22460F2183699847C4E900555E
S31500001750C4E90955E562002EF0D100203B6BC9F8BB
S315000017601031C7E90100C7E90C003860BDE8F8830D
S31500001770640C00202DE9F04FDFF828A183B0DAF8D9
S315000017800080D8E94543002B3AD006460F4603E0D1
S31500001790013B04F1380433D02268002AF8D12346ED
S315000017A00122304643F80C2B3D49092200F026F968
S315000017B0D8F81031002B62D01A461B6B002BFBD1D8
S315000017C0146331787F1A0E4414D008F12003CDE952
S315000017D00073DFF8D4B0737896F80090042B09D024
S315000017E0052B11D0022B05D0009B4E44B3EB090309
S315000017F00093F0D1204603B0BDE8F04F00F056B894
S31500001800122003B0BDE8F08FD8E94753002BF7D07C
S31500001810009F03E0013B05F19005F1D02A68002AFC
S31500001820F8D12B46009701270622594643F80C7B30
S31500001830304600F0E3F8DAF80030D3F8A011EB698F
S315000018400229C3F30A021DD0019B2A65EB624FF001
S31500001850FF332A46EB670E214046D8F81830AD63B1
S31500001860AC629847C0B9636B0BB96563BCE7009F70
S315000018701A465B6A002BFBD100975562B4E7C8F89D
S3150000188010419EE7A969C907DED513F4C0531CBFF2
S31500001890DB0A03FB0222D7E700232B60B1E700BF78
S315000018A020000020640C002018000020154B30B5E5
S315000018B01A6843698DB0583352F823509DB10123FD
S315000018C0016A04460691416A03900791816A019371
S315000018D008916B6CD2E91012C5F81001CDE904210C
S315000018E001A8984710B157200DB030BD02226B6C8D
S315000018F001A80995019298470028F5D165600DB0B9
S3150000190030BD00BF640C0020184B10F0030010B56A
S315000019101C6809D002280BD014212046A36904F1C3
S315000019205C029847002010BD012918D0542010BD34
S31500001930D4F810010028EFD0436B13B90BE05B6AB3
S315000019404BB159699142FAD11A4614212046A3692E
S315000019509847002010BD006B0028EDD1DCE7D4F8D5
S31500001960A831002BE2D0C4F8AC1110BD640C0020E5
S315000019700E4B70B51E684162EFF3108572B60368B0
S31500001980012B03D085F31088002070BD0246044663
S315000019900D213046B369984785F310880423204605
S315000019A040F8303B00F05CF8002070BD640C00206D
S315000019B008B53030FFF7DCFF002008BD074B10B438
S315000019C01B685C6D1A6501345C659C6D1CB1234611
S315000019D05DF8044B18475DF8044B7047680C00200F
S315000019E04FF47A7202FB00F0034BA3FB0030800930
S315000019F0013000F089BE00BFD34D621012B3F8B5B6
S31500001A0006460C461D468F1808E0304600F01CF8C6
S31500001A1004362860BC4205F104050CD014F8013BDD
S31500001A20022B09D0042BF0D016F8013BBC422B60E8
S31500001A3005F10405F2D1F8BD304600F013F8023680
S31500001A402860E7E7704700BF006870473AB1013881
S31500001A500A4411F8013B914200F8013FF9D1704761
S31500001A6001F082BB0088704701F06CBC38B5EFF31B
S31500001A70108C72B683685BB10269013B8360131DEB
S31500001A800B601368036110608CF31088002038BD6A
S31500001A900B603AB3174B1C6824BB174C174D2468D0
S31500001AA0E167D4F8AC10E0660131C4F8AC10416AC5
S31500001AB0A5664D1C4562C9B1016A486F216760671A
S31500001AC004674C67E2641A68082101321A60012330
S31500001AD02163A3638CF31088204600F017FFD4F827
S31500001AE0840038BD8CF31088102038BD0462C4E928
S31500001AF01C44E7E7A40C0020940C0020011B000006
S31500001B0010B5EFF3108372B61A4A846E944202D06F
S31500001B1083F3108810BDD0F8AC208A42F8D1C26E8B
S31500001B20002AF5D0144914688C42F1D1516A002973
S31500001B30EED00024013984665162C1B1D0E91C148B
S31500001B404C672167146A844211D0026B082ADFD1E0
S31500001B5010240A49C0F884400A6801320A6083F3F7
S31500001B60108800F059FEEFF3108372B6D0E71162C9
S31500001B70EBE700BF011B0000434F4C42A40C0020C2
S31500001B802DE9F041144606461D46884630220021BE
S31500001B90069F14F07AF8E21C22F0030227F00307EE
S31500001BA0131DBB42B7FBF3FEC6E90557C6F8048012
S31500001BB0F26105EB030034D800218C460CF1010CD0
S31500001BC04418E6456C501944F8D8BB420EF1FF3173
S31500001BD088BF002103FB010394BF714601216FF00A
S31500001BE00300C6E902110021821A99503561EFF30C
S31500001BF0108072B60C4A0D49136831600C4963B106
S31500001C000968CC6ACE62A662C6E90A14013313607B
S31500001C1080F310880020BDE8F081B6620E60F6629F
S31500001C20F4E70520BDE8F0816C0C0020434F4C42E0
S31500001C30700C00202DE9F041EFF3108172B60024FC
S31500001C401F4A13680460013B136073BB1D4A13608F
S31500001C500027D0E908451C4EC0E9087733680133F0
S31500001C60336081F310889DB14FF00108013DEFF319
S31500001C70108272B6336820460133A766C4F88480A2
S31500001C803360246F82F3108800F0C6FD002DEDD17D
S31500001C90EFF3108272B63368013B336082F310882B
S31500001CA000F09CFD0020BDE8F081064CD0E90A3228
S31500001CB0DA6293622268824208BF2360C8E700BFE7
S31500001CC06C0C0020700C0020A40C002038B5EFF33B
S31500001CD0108C72B650F8042C136ADBB1516A0139C4
S31500001CE05162A9B1196F11625A6F4A6711670021D3
S31500001CF00E4CDD6F22689966013228602260C3F8B7
S31500001D0084108CF31088184600F086FD002038BD3C
S31500001D101162ECE793681169013340F8041D106104
S31500001D2093608CF31088002038BD00BFA40C0020FF
S31500001D3008B500F071FCBDE8084000F0D3BF00BF55
S31500001D4010B50E4C236813F10F3F0AD04FF0F03355
S31500001D50236001F089FCFFF7EBFF094A13680133A2
S31500001D6013604FF0F033074A23601068FFF7A2F9BB
S31500001D7000232360BDE8104001F000BD2C000020C8
S31500001D80A40C0020740C002010B5EFF3108372B67B
S31500001D901C4A846E944202D083F3108810BDD0F89A
S31500001DA0AC208A42F8D1C26E002AF5D016491468D2
S31500001DB08C42F1D1D16A0029EED000240139846623
S31500001DC0D162E1B1D0E91C144C672167946A844260
S31500001DD015D0016B0529DFD112690C49002A14BF01
S31500001DE00B240A240A68C0F8844001320A6083F38F
S31500001DF0108800F011FDEFF3108372B6CCE7916204
S31500001E00E7E700BF891D000055455551A40C002089
S31500001E10F8B5044616460F46382200211D4613F033
S31500001E2034FF069BA660B600B3FBF6F3C4E908557B
S31500001E30A56103FB065567606361E360E561EFF347
S31500001E40108172B60A4A0B48136820600A4843B9E3
S31500001E502463046064630133136081F310880020F7
S31500001E60F8BD0068456B44632C63C4E90C05F2E7D2
S31500001E70780C0020554555517C0C00202DE9F04189
S31500001E80EFF3108172B600241F4A13680460013B09
S31500001E90136073BB1D4A13600027D0E90A451C4E28
S31500001EA0C0E90A7733680133336081F310889DB146
S31500001EB04FF00108013DEFF3108272B633682046F9
S31500001EC00133A766C4F884803360246F82F31088D8
S31500001ED000F0A2FC002DEDD1EFF3108272B633684C
S31500001EE0013B336082F3108800F078FC0020BDE8E7
S31500001EF0F081064CD0E90C325A63136322688242A1
S31500001F0008BF2360C8E700BF780C00207C0C0020C7
S31500001F10A40C00202DE9F8430346EFF3108E72B6A9
S31500001F201D69C06A15B300284AD11E6A9F6856F813
S31500001F30044B012F0C600BD9013F8C463A463146C3
S31500001F4051F8044B013A4CF8044FF9D106EB8706D9
S31500001F50DA695969B24208BF9E69013D01311E62C4
S31500001F601D6159618EF31088BDE8F883002A7BD085
S31500001F70554D2E68002E77D1544C2468C4E91F169F
S31500001F80D4F8AC10E3660131C4F8AC105049A16630
S31500001F9000286ED19C62C4E91C440130D8622B68CB
S31500001FA0052101332B600123E2642163A3638EF3D1
S31500001FB01088204600F0AAFCD4F88400BDE8F88317
S31500001FC09E6AD6F88020012A5AD01F6AD3F8089054
S31500001FD057F8042BB9F1010F0A600BD909F1FF3844
S31500001FE042463C4654F8045B013A41F8045FF9D195
S31500001FF007EB8807D3F81C805C6AB84508BF9F6961
S31500002000314D1F6227462A68F16F01322A602A681D
S31500002010B9F1010F02F1FF322A600A6847F8042B72
S315000020200BD909F1FF394A46043151F804CB013A7C
S3150000203044F804CFF9D107EB8907B84508BF9F6973
S3150000204001385F6238D198620024D8622B68013368
S315000020502B60B466C6F884408EF31088304600F0D4
S31500002060DBFB2046BDE8F8838EF310880A20BDE826
S31500002070F883996A4E6F2167666734674C678CE709
S31500002080F46F9A682568012A0D6007D90434013A6D
S3150000209054F8045B013A41F8045FF9D1013811D0D4
S315000020A0326F716F9A6251670A67074AD86213687E
S315000020B0002401331360CCE7326F716F9A62516767
S315000020C00A67C1E79862F0E7A40C0020940C002090
S315000020D0891D000070B5EFF3108E72B64469C36AAD
S315000020E01CB3002B4ED10269866801320261426A36
S315000020F0013C154644610C68012E45F8044B0BD98A
S31500002100013E94463246043151F8044B013A4CF8EC
S31500002110044FF9D105EB8605C269AA4208BF856955
S3150000212045628EF31088184670BD002A52D02F4D96
S315000021302E68002E4ED12E4C2468C4E91F16D4F802
S31500002140AC10E0660131C4F8AC102A49A166002B38
S3150000215047D0816A4E6F2167666734674C670133E3
S31500002160C3622B68052101332B600123E2642163DE
S31500002170A3638EF31088204600F0C8FBD4F88430A1
S31500002180184670BD013B856A29D02A6F6C6F826242
S31500002190546722670024C3628368EA6F0868012BCC
S315000021A0AC66106007D90431013B51F8044B013B82
S315000021B042F8044FF9D100240C4BC5F884401A6844
S315000021C001321A608EF31088284600F025FB23465C
S315000021D0184670BD8EF310880B23184670BD8362B7
S315000021E0D8E78462C4E91C44B9E700BFA40C002008
S315000021F0940C0020891D000010B5EFF3108372B611
S315000022001A4A846E944202D083F3108810BDD0F827
S31500002210AC208A42F8D1C26E002AF5D0144914685F
S315000022208C42F1D111690029EED00024013984666F
S315000022301161C1B1D0E91C144C672167D46884428E
S3150000224011D0026B062ADFD10D240A49C0F884405A
S315000022500A6801320A6083F3108800F0DDFAEFF3B2
S31500002260108372B6D0E7D160EBE700BFF92100001A
S31500002270414D4553A40C0020002330B4C0E901129F
S315000022800360C360036143618361EFF3108172B63B
S315000022900B4A0C4C136804600B4C4BB94061206030
S315000022A080610133136081F31088002030BC7047D1
S315000022B02468A569A0616861C0E90545F1E700BF2A
S315000022C0800C0020414D4553840C00202DE9F0413F
S315000022D0EFF3108172B600241F4A13680460013BB5
S315000022E0136073BB1D4A13600027D0E903451C4EDB
S315000022F0C0E9037733680133336081F310889DB1F9
S315000023004FF00108013DEFF3108272B633682046A4
S315000023100133A766C4F884803360246F82F3108883
S3150000232000F07AFA002DEDD1EFF3108272B6336821
S31500002330013B336082F3108800F050FA0020BDE8BC
S31500002340F081064CD0E905329A61536122688242D7
S3150000235008BF2360C8E700BF800C0020840C002063
S31500002360A40C0020F8B5EFF3108272B683682BB187
S31500002370013B836082F310880020F8BD31B3174B10
S315000023801C681CBB164C2468D4F8AC50E0660135BA
S31500002390C4F8AC50134DA5660569DDB1C668776F04
S315000023A0266767673C67746701350561E1641968EC
S315000023B006200131196001232063A36382F310888C
S315000023C0204600F0A3FAD4F88400F8BD82F3108802
S315000023D00D20F8BDC460C4E91C44E5E7A40C002048
S315000023E0940C0020F921000070B4DDE90354EFF3EA
S315000023F0108C72B609B146680E600AB18168116028
S315000024000BB1C2681A600DB103692B600CB1436948
S3150000241023608CF31088002070BC704738B5EFF34A
S31500002420108172B6036933B983680133836081F31F
S315000024301088002038BD013BC26814D0146F556F58
S31500002440C46065672C6700240361084894660368C6
S31500002450C2F884400133036081F31088104600F00F
S31500002460DBF9002038BDC360EDE700BFA40C0020F7
S315000024702DE9F84F0446DDE90A568A469146EF21D2
S31500002480324628460C9F9846DDF838B013F0FDFB1F
S31500002490B0220021204613F0F8FB2023C4F89C301C
S315000024A00D9B384A9F424FF00303666106F1FF36E3
S315000024B0E56035442046C4E91198C4E906BBC4E981
S315000024C015243149C4F828A02561E762C4F8947040
S315000024D004BFE763C4F89870236301F0A3F9EFF330
S315000024E0108072B6294B2A4A236013686BBB2949B0
S315000024F0C4E922440C6001331360274A1368013390
S3150000250013600F9B012B2BD1EFF30582234B1B6826
S315000025101343B3F1F03F07D280F31088204600F052
S315000025207BF90020BDE8F88F1D4B1D683DB3EB6AB3
S31500002530EE6BEB6380F31088204600F06DF9002DFA
S31500002540EFD00020EE63BDE8F88F12490968D1F894
S315000025508C50C1F88C40C5F88840C4E92215CAE7FA
S3150000256080F31088EFF3108172B61368013B136095
S3150000257081F3108800F032F90020BDE8F88F2E466E
S31500002580D8E700BFAD2B0000B126000044524854E6
S315000025908C0C0020900C0020A40C00202C000020A5
S315000025A0980C0020EFF3108272B6036B013B012BEF
S315000025B003D982F310881120704710B400240F4904
S315000025C00B680460013B0B6083B1D0E922310C4CEF
S315000025D0C3F88C10C1F888302168814208BF236097
S315000025E082F3108800205DF8044B704704490B60A5
S315000025F082F3108800205DF8044B70478C0C002095
S31500002600900C0020EFF3108372B6024A106883F331
S3150000261010887047940C00202020044A044913684F
S31500002620086043F0C7731360704700BF880C002032
S315000026309C0C002008B5D0F894308B4218BF0021BE
S31500002640EFF3108C72B6D0F894308B4226D3D0F8C4
S3150000265098301360D0F89C30124A8B4228BF0B4644
S315000026601268C363C36AC0F89810934203D8002067
S315000026708CF3108808BD8A42F9D20B4B1968814247
S31500002680F5D10A4951F822201A608CF3108800F01F
S31500002690A5F8EFF3108C72B60020E9E718208CF34A
S315000026A0108808BD9C0C0020980C0020A80C002067
S315000026B038B5124B1C68D4E911309847104B1B688B
S315000026C00BB120469847EFF3108072B60122002521
S315000026D00C4922630B68A26313440B60E56480F324
S315000026E01088EFF3148323F0040383F31488BFF3F5
S315000026F06F8F2046BDE8384000F008B9940C0020E2
S31500002700A00C0020A40C002010B5EFF3108272B6C6
S31500002710124B1C6864B1EFF30583114909680B433A
S3150000272006D110B982F3108810BD0E4B196819B185
S3150000273082F31088132010BDC4F884101968E06471
S3150000274001311960042101232163A36382F31088F8
S31500002750204600F0DBF8D4F8840010BD940C00206D
S315000027602C000020A40C002038B5EFF3108372B6BD
S31500002770046B7CB1621E012A07D9032C24D00122E6
S315000027800024426302E00A687AB1142483F31088B5
S31500002790204638BDEFF305820D4909680A4315D175
S315000027A00C4A0D4912688242EDD001250322856349
S315000027B0002502630A68C56401320A6083F3108843
S315000027C000F0A4F8204638BD0024DFE70249ECE714
S315000027D02C000020940C0020A40C00200A4B1B683F
S315000027E08BB90A4A0A4B12681B689A420BD04FF003
S315000027F08052084B5A60EFF3058323B9EFF3108339
S3150000280062B683F310887047A40C0020940C002055
S31500002810980C002000ED00E0F8B50446EFF31085B3
S3150000282072B6436E002B5BD04C3000F0A1FA304AF2
S31500002830A16B1368013B1360236B002945D15BB97B
S315000028402C492D4B1B6885F310880968994202D0E4
S315000028501368002B2BD0F8BD636B002B3AD1E06ACE
S315000028602649236351F8203033B1596A0C625C6201
S31500002870616223621F49E4E741F820400121204EAE
S31500002880204F336881400B4333603B68C4E90844FA
S315000028908342D5D9174938600B683BB3DB6B83425B
S315000028A0CFD90C6085F310881368002BD3D14FF075
S315000028B08052154B5A60EFF30583002BCBD1EFF313
S315000028C0108362B683F31088F8BD013B012BB7D99C
S315000028D0636B3BB1002003230649C4E90C30B0E723
S315000028E0C364A4E70349A3632363AAE70C60A8E7CC
S315000028F0A40C0020980C0020940C0020A80C0020AA
S31500002900280D00209C0C002000ED00E0F8B5374BA8
S3150000291004461D68EFF3108672B685423BD0344AF2
S315000029201368013B1360A36B012B08D0314B86F370
S3150000293010881B68AB4201D01368F3B1F8BD4FF0A5
S31500002940000C216AE06A8C42C4F838C032D0636A4F
S31500002950294F4B62196257F82030A34227D0254BE6
S315000029601968A142E3D12549096857F82110196071
S3150000297086F310881368002BE0D14FF08052204B6D
S315000029805A60EFF30583002BD8D1EFF3108362B6BC
S3150000299083F31088F8BDEB6C013B033303D805F1D4
S315000029A04C0000F0B9F9174BE2691A60B7E747F82F
S315000029B02010D4E71449104F834047F820C0086818
S315000029C020EA03030B6033B193FAA3F3B3FA83F35C
S315000029D00A490B60C3E720200849064C08602360BB
S315000029E086F310881368002BC7D0F8BD940C00201E
S315000029F0A40C0020980C0020A80C00209C0C0020A1
S31500002A0000ED00E0D00D0020280D002070B5044632
S31500002A10EFF3108672B64C3000F0AAF9236B022B46
S31500002A203CD0012B3AD0424D2A6801322A60002B55
S31500002A303AD1E3642B68022201332B60012322631F
S31500002A40A36386F31088EFF305833A4A12681343AB
S31500002A505BD04FF0E023D3F8343FD80705D5EFF32A
S31500002A601483B0EE400A590753D52046FFF74EFFB0
S31500002A70EFF3108372B683F310882F4B1B680BB1EC
S31500002A8020469847EFF3108272B62B68013B2B6005
S31500002A9082F31088FFF7A2FE002070BD86F310882F
S31500002AA0FFF79CFE002070BD02200122A36ED4F821
S31500002AB0AC102063A26386F310880BB120469847BA
S31500002AC0EFF3108372B60022A26383F31088EFF34C
S31500002AD00583184A1268134324D04FF0E023D3F835
S31500002AE0343FDA070DD5EFF31483B0EE400A5B07E7
S31500002AF007D4EFF3148323F0040383F31488BFF39E
S31500002B006F8FEFF3108372B6B5E70C4B1B68A342C9
S31500002B109FD1EFF3148323F0040383F31488BFF3E8
S31500002B206F8FA2E7054B1B68A342D6D1E1E700BF32
S31500002B30A40C00202C000020A00C0020940C0020E7
S31500002B40144B1B68EFF3108272B60020124908601E
S31500002B5093B1196B81B9186A10B4D9690F4C9842B0
S31500002B609961216003D0D96ADB6B994207D082F361
S31500002B7010885DF8044B704782F310887047084C44
S31500002B80084B246843F8210053F8243006490B60AB
S31500002B90EDE700BF940C0020380D0020D00D00207A
S31500002BA09C0C0020A80C0020980C0020EFF3108C41
S31500002BB072B6026B042A07D0826ED0F8AC108CF382
S31500002BC0108802B110477047034A13680133136037
S31500002BD08CF31088FFF720BEA40C00202DE9F04FDF
S31500002BE083B0EFF3108A72B6384A1768002F5ED1A9
S31500002BF0374E3368002B5AD00123DFF8DC80DFF82C
S31500002C00DCB0DFF8DC901360324B1B68186800906C
S31500002C1008B1C0F818D0D8F800002E4A43F8047B53
S31500002C208342136008BFDBF80030376008BF1360CB
S31500002C308AF31088EFF3108A72B6009C002C31D00C
S31500002C4001AD12E0203B2360A56124610194C9F81F
S31500002C5000408AF31088EFF3108A72B6019BC9F818
S31500002C6000709C422CD0009CE4B1236901979C42E1
S31500002C7022D06069009358610361C3F818D02368B5
S31500002C80202BDFD8D4E9023062682260B2B1A56198
S31500002C9024610194C9F800408AF31088002BDAD029
S31500002CA09847D8E73368002BAED1084A13608AF3F9
S31500002CB0108803B0BDE8F08F0097E0E7A261E9E76E
S31500002CC02046A76100F028F8CDE700BFC80D002018
S31500002CD0340D0020300D0020C00D0020C40D002052
S31500002CE03C0D00200021074B074A10B4074C136027
S31500002CF00748084A236080335DF8044B036011607F
S31500002D00704700BF400D0020300D0020C40D00208C
S31500002D10C00D0020C80D00200268531ED91C01D822
S31500002D20816901B17047202A88BF7C230D4A0E496C
S31500002D30126898BF9B0009681344994208D91A681B
S31500002D405AB1516908615061C0E904218361E9E71C
S31500002D50064A5B1A12681344F1E7C0E904001860DA
S31500002D60F4E700BF300D0020C00D0020C40D002088
S31500002D70836963B1026990420AD0416951610A616F
S31500002D801968814204BF93611A600023836170470A
S31500002D901A688242F9D100221A60F6E7B0B110B47F
S31500002DA00C4B04689C4203D002205DF8044B70472C
S31500002DB071B12AB1EFF30583074C2468234303D18D
S31500002DC05DF8044BFEF752BE0420EEE70220704782
S31500002DD00320EAE7434F4C422C0000202DE9F04740
S31500002DE0DDE9087408B1302C02D00220BDE8F08776
S31500002DF0884691461E460546EFF3108172B6234B70
S31500002E001A6801321A6081F31088214A1068214A33
S31500002E10146858B1A54209D04FF0000C01E0A54254
S31500002E2004D00CF1010C8445A46AF8D1EFF31081AB
S31500002E3072B61A68013A1A6081F31088FFF7CEFC61
S31500002E40A542D2D0F6B129F00303043327F00302DA
S31500002E50934215D8EFF305830F4A11680B4306D04A
S31500002E60EFF3058113680B43B3F1F03F0CD3334600
S31500002E704A46414628460897BDE8F047FEF780BE19
S31500002E800520B3E70320B1E71320AFE7A40C002029
S31500002E906C0C0020700C00202C00002018B1084A91
S31500002EA00368934201D002207047EFF30583054A79
S31500002EB01268134301D013207047FEF7BBBE00BF54
S31500002EC0434F4C422C00002030B150F8043C1BB15B
S31500002ED0034A1B68934201D003207047FEF7F6BEF3
S31500002EE0434F4C422DE9F047DDE9087408B1382C10
S31500002EF002D00920BDE8F087884691461E46054661
S31500002F00EFF3108172B6244B1A6801321A6081F30E
S31500002F101088224A1068224A146858B1A54209D07E
S31500002F204FF0000C01E0A54204D00CF1010C8445E1
S31500002F30246BF8D1EFF3108172B61A68013A1A6061
S31500002F4081F31088FFF74AFCA542D2D00EB309F1EF
S31500002F50FF330F2B11D8B9EB970F0ED8EFF305827D
S31500002F60104B19680A430BD0EFF305821B68134315
S31500002F70B3F1F03F04D21320BCE70520BDE8F0878B
S31500002F8033464A46414628460897BDE8F047FEF7CD
S31500002F903FBF0320AEE700BFA40C0020780C002042
S31500002FA07C0C00202C00002018B1084A03689342CC
S31500002FB001D009207047EFF30583054A12681343D1
S31500002FC001D013207047FEF759BF00BF5545555134
S31500002FD02C000020B0B110B40C4B04689C4203D006
S31500002FE009205DF8044B704771B12AB1EFF30583F0
S31500002FF0074C2468234303D15DF8044BFEF78ABFD0
S315000030000420EEE7092070470320EAE755455551AD
S315000030102C000020B0B110B40C4B04689C4203D0C5
S3150000302009205DF8044B704771B12AB1EFF30583AF
S31500003030074C2468234303D15DF8044BFFF74AB8D5
S315000030400420EEE7092070470320EAE7554555516D
S315000030502C00002008B11C2B01D00C2070472DE954
S31500003060F04180460F461646EFF3108172B61D4AB0
S3150000307013680133136081F310881B4B1C681B4BCC
S315000030801D684DB1A04207D0002301E0A04503D042
S315000030900133AB426469F9D1EFF3108172B613685C
S315000030A0013B136081F31088FFF798FBA04513D00E
S315000030B0EFF305820E4B19680A4306D0EFF305823B
S315000030C01B681343B3F1F03F09D3324639464046F5
S315000030D0BDE8F041FFF7D0B80C20BDE8F081132021
S315000030E0FBE700BFA40C0020840C0020800C00200D
S315000030F02C00002018B1084A0368934201D00C2026
S315000031007047EFF30583054A1268134301D0132075
S315000031107047FFF7DBB800BF414D45532C00002038
S3150000312018B1084B02689A4201D00C20704729B1A9
S31500003130EFF30583044A1268134301D1FFF712B96E
S3150000314004207047414D45532C000020F0B418B1BF
S315000031500568044CA54202D0F0BC0C207047F0BCB8
S31500003160FFF742B9414D455318B1044A03689342EB
S3150000317001D00C207047FFF751B900BF414D4553B0
S315000031802DE9F04F85B0DDE910940194129CDDE93C
S315000031900E580394139C0294149C08B1B02C03D0CF
S315000031A00E2005B0BDE8F08F8B4617469A460646B8
S315000031B0EFF3108272B6DFF810C1DCF8003001338D
S315000031C0CCF8003082F310883C4B08F1FF301A68C7
S315000031D03B4B28441C68BAB1A64215D00021009783
S315000031E0E368AB4259D82769AF4256D94FF0010E72
S315000031F00025834201F1010144D82369834241D964
S315000032000025009FD4F88840EFF3108272B6DCF8F0
S315000032100030013BCCF8003082F31088FFF7DEFA6D
S31500003220A642BDD0002D3DD0002F3BD0B8F1C70F30
S3150000323036D9B9F11F0F3BD8019B99453AD3029B6A
S31500003240012B33D8EFF305821E4B19680A4306D0CB
S31500003250EFF305821B681343B3F1F03F2CD3029BB7
S315000032603A461393039B59461293019B3046CDE988
S3150000327010935346CDF83C800E9505B0BDE8F04F4F
S31500003280FFF7F6B89142D4F8884004D0A64202D09F
S31500003290BEF1000FA4D0009FB6E74FF0000EA8E7DE
S315000032A005207EE7032005B0BDE8F08F102078E703
S315000032B00F2076E7182074E7132072E78C0C0020A5
S315000032C0900C00202C000020A40C0020EFF30582B7
S315000032D0074909680A4306D118B1064A03689342AA
S315000032E003D00E20704713207047FFF75BB900BF6D
S315000032F02C00002044524854C0B170B40F4D0668EB
S31500003300AE4202D00E2070BC7047A2B1EFF3058426
S315000033100B4D2D682C430BD1D0F894308B4202D242
S3150000332070BC1820704770BCFFF784B90E20704738
S31500003330132070BC70470320E5E700BF4452485491
S315000033402C00002018B1044A0368934201D00E20D5
S315000033507047FFF709BA00BF4452485418B1084AEB
S315000033600368934201D00E207047EFF30583054AA8
S315000033701268134301D013207047FFF747BB00BF05
S31500003380445248542C00002038B50446458C0F4B57
S31500003390C5EBC50003EB8000FFF7E6FE2946204695
S315000033A001F07AF8204601F08FF8C30605D5084BE0
S315000033B0E26853F825301A6038BD054AD4E903316E
S315000033C052F825205B1A136038BD00BFA81A0020EA
S315000033D0D40D0020002370B59CB005930368F3B1AB
S315000033E00469684B0A39E41AB4FA84F464098DF85E
S315000033F050400B2916D8DFE801F00D1518390F0DCE
S315000034000F0D1557060F50690BA9002840F09F8035
S3150000341001F062FD0023059305981CB070BD552090
S315000034201CB070BD54230593F6E7936858690028CD
S315000034305ED1554802F1180351690360936A032B64
S315000034403FD0524B33F814309BB2022BE4D1504B91
S3150000345001241B880846012B04BF232305934D4BEB
S31500003460D1680BAA1C8002F0C3FAD5E793685C69A1
S31500003470002C61D1484D0AAA09ABCDE90032284695
S3150000348008AB07AA06A9FFF761FE099B012BC3D16A
S31500003490082120460BAA01F079FD0898FEF7E4FA08
S315000034A02846FFF761FEB7E7082A56D0032AB1D1AE
S315000034B03A4B1B68D3F8C431002BABD01046984763
S315000034C0A8E79DF85000314B33F810309BB2022B21
S315000034D0A2D12F4B01241B880846012B04BF2323AE
S315000034E005932C4BD1680BAA1C8002F03DFA93E79A
S315000034F00BA980B2039202F0CBFF039A224E02F18F
S3150000350018030546516946F82030002896D0D3683E
S315000035100BA80D93224B0E91ADF84E500F910C93C4
S3150000352002F0E0FD40BB1F49039A4B5D3BB32323EA
S315000035304855059053626FE7A0B20BA902F0A8FFA9
S31500003540154DC0EBC003044605EB830593E780B237
S31500003550039102F09DFF03995AE7204600F04CFEC6
S3150000356000F0700070287FF457AF0520FEF738FA98
S31500003570204601F0B3FD4FE7232305934CE7536242
S31500003580059349E700101140D40D00209028002033
S315000035907C200020AC200020A81A0020640C00200B
S315000035A089330000FC0D002001460122054B10B4B2
S315000035B01B68054C00209C6119615DF8044B1A607C
S315000035C0704700BF640C0020D5330000084B9842BA
S315000035D003D0A3F50123984207D10023054A1846D4
S315000035E01268136013619361704740F2DC507047B4
S315000035F000101140640C002070B542F21076184D90
S315000036000E222C681749D4F8A031012B0CBFD4E93F
S315000036104C03D4E94E03C4E94A0304F12403FEF73C
S31500003620EDF9D4F89820E36BC4F89C2004F15C0211
S315000036300E21A367C4F89420C4F8A0302046A369DD
S31500003640C4F8D8609847002102222B68D3F8C43109
S315000036502166C4F8B4200BB101209847002070BD44
S31500003660640C00200800002010B472B6164B174AEE
S31500003670174819681060174B174A196013681749DD
S3150000368043F0010313600B68154AA2FB03239B0951
S31500003690013BB3F1807F0BD24FF0E0224FF0F00CEC
S315000036A0002007210F4C536184F823C090611161FB
S315000036B0F02200210B4B83F82310DA7783F82220BF
S315000036C05DF8044B704700BF00000000740C00203A
S315000036D0BCA200202C0D0020001000E0802A002053
S315000036E0D34D621000ED00E070B472B61D4D1E4C55
S315000036F02868206000282DD14AF2025C1B4A1C492A
S315000037001C4E8B899BB213801388180409D5B1F817
S31500003710FE339BB23360A1F8FEC31388C3F30E03D6
S315000037208B81BFF34F8F30BFBFF36F8F13881B049E
S3150000373008D513889BB28B81336843F425439BB22B
S31500003740A1F8FE3362B6BFF36F8F72B628682060A9
S315000037500028D6D04FF00062074B5A6062B670BCA4
S31500003760704700BF980C0020940C0020180E002013
S3150000377000E00140140E002000ED00E00022074B9F
S315000037801A60EFF3148C2CF0040C8CF3148862B6D8
S315000037904FF08052024B5A60FEE700BFA40C002097
S315000037A000ED00E01B48016800292DD0EFF30983E6
S315000037B023E9F00F1EF0100F01D123ED108A43F814
S315000037C004ED8B60144C236813B18B6100232360D6
S315000037D0124E3668D6B10660706801307060B06906
S315000037E02060F16801F1280181F30B88B36853F872
S315000037F004EB1EF0100F01D1B3EC108AB3E8F00F02
S3150000380083F309887047FEE7034CE1E7FFF76CFF97
S315000038100646E1E7940C0020D00D0020980C00200D
S3150000382000F01CB86FF0020370B504690D4624F071
S315000038300704A4F144068660342244F8443C00217F
S31500003840A4F1400012F021FA4FF0FF324FF08073DE
S3150000385044E9032544F8043C70BD00BF24492548CB
S315000038600A680368013210B50A6013B1013B0360B0
S31500003870DBB1214A214C136820681968F1B1012295
S315000038801F4B1A60FFF7AAF9236813BB1D4B1B6871
S3150000389053B11D4A1268934206D01C4B1B681BB9D4
S315000038A04FF080521A4B5A6010BD0123134C124A36
S315000038B018462360136819680029E0D115490433B6
S315000038C0096813608B420AD00D4B1B6820B1002B90
S315000038D0D8D1FFF735F9D9E7002BD7D0D2E70E4973
S315000038E0074B09681B6811600028F0D1F4E700BF98
S315000038F0CC0D0020D00D0020300D0020380D00200A
S31500003900340D0020980C0020940C0020A40C0020FC
S3150000391000ED00E0C00D0020C40D002010B50446E7
S3150000392031B900F041FDC3050AD54FF4807010BDD2
S3150000393000F0B2FD204600F0FBFDC0F30A0010BD0A
S31500003940204600F065FD00F07F0010BD2DE9F04136
S315000039504F4B90F82470044633F817300D469BB24F
S31500003960022B4DD000F0B2FB2946204600F0E8FBC2
S315000039702946204600F022FC2946204601F07CFD1F
S315000039802946204600F088FD642207FB02F2DFF894
S31500003990088105EB850302EB430343445988AE00D7
S315000039A0204600F0ADFD7319642607FB06F606EB0C
S315000039B0430646442046F18800F0D6FD204631896C
S315000039C000F0EAFD2046002100F066FD294620466B
S315000039D000F08CFE2946204601F03AFD2946204695
S315000039E000F026FE2946204600F016FC2946204611
S315000039F000F036FC29462046BDE8F04100F054BCF4
S31500003A00244E56F8211011B1012001F0F7FE0023D3
S31500003A10294646F82530204602F062FD80462946B2
S31500003A20204694F8247000F051FB2946204600F009
S31500003A3087FB2946204600F0C1FB08F1FF382946DE
S31500003A40204601F019FD1FFA88F82946204600F0A5
S31500003A5023FDB8F1010F0FD8642207FB02F2DFF84D
S31500003A60388005EB850302EB430343445988AE00D7
S31500003A7041F48061598093E764230A2207FB03F32C
S31500003A8002FB0533DFF81080AE004344598887E710
S31500003A90902800201C0E0020E80E002070B5354B43
S31500003AA090F82420054633F812300E469BB2022BBE
S31500003AB054D03146284601F0DFFC3146284600F056
S31500003AC005FB3146284600F03BFB3146284600F010
S31500003AD075FB48F22F034FF400420021284600F000
S31500003AE0A3F90021284600F069F910F02F04F8D157
S31500003AF03146284600F0D0FC2146284600F000FD5D
S31500003B002146284600F030FD2146284600F044FDB7
S31500003B102146284600F0C0FC3146284600F0E6FD66
S31500003B203146284601F094FC3146284600F080FDD7
S31500003B303146284600F086FE3146284600F0A0FEB3
S31500003B403146284600F068FB3146284600F088FBDF
S31500003B5031462846BDE8704000F0A6BB064C54F836
S31500003B60211011B1012001F049FE002344F826304E
S31500003B709FE700BF902800201C0E002070B5012290
S31500003B804FF6FF7406460D4600F016FE29463046EF
S31500003B9000F01AFD013C8306A4B200D470BD002CCF
S31500003BA0F4D170BD70B505461646A2B164240BE08B
S31500003BB0284600F05BF8013C284600F071F8A4B2F4
S31500003BC00A2000F0CDFFC4B13146284600F0B4F912
S31500003BD08304EDD570BD41EA0304114648F22F0374
S31500003BE044F4004200F020F90021284600F0E6F8EF
S31500003BF000F02F008442F7D1D8E7FF2070BD00BF48
S31500003C0002B1704738B543EA0104114648F22F0362
S31500003C1044F40042054600F007F90021284600F06A
S31500003C20CDF800F02F039C42F7D138BD30B50446DD
S31500003C300D4683B0019200F023FE29462046019AE4
S31500003C4000F03CFE2946204603B0BDE8304000F0B7
S31500003C50DBBD00BF38B504460D4600F0F3FD29462E
S31500003C602046BDE8384000F00BBE00BF094B90F877
S31500003C70242033F812309BB2022B01D0002070476B
S31500003C801AB9054B188880B27047044B188880B261
S31500003C90704700BF90280020000009400010114026
S31500003CA0094B90F8242033F812309BB2022B01D036
S31500003CB0002070471AB9054B988880B27047044BAC
S31500003CC0988880B2704700BF902800200000094005
S31500003CD000101140094B90F8242033F812309BB2A3
S31500003CE0022B01D0002070471AB9054B188980B203
S31500003CF07047044B188980B2704700BF9028002097
S31500003D000000094000101140094B90F8242033F8B8
S31500003D1012309BB2022B01D0002070470029FBD144
S31500003D20012A0BBF034B044BD88A988A80B270478E
S31500003D309028002000101140000009400D4B90F81B
S31500003D40240033F810309BB2022B05D0012907D08E
S31500003D5002290BD039B170470128FCD00129F7D1CF
S31500003D60054B1A837047044B9A827047024B9A831D
S31500003D70704700BF90280020000009400D4B90F8C6
S31500003D80240033F810309BB2022B05D0012907D04E
S31500003D9002290BD039B170470128FCD00129F7D18F
S31500003DA0054B1A767047044B1A757047024B1A7703
S31500003DB0704700BF9028002000000940134B90F880
S31500003DC0242033F812309BB2022B1CD1012912D0C9
S31500003DD0022907D10E490F4B012A18BF0B46188836
S31500003DE080B2704779B90C490C4B012A18BF0B46B3
S31500003DF0188880B270470A490A4B012A18BF0B4639
S31500003E00188880B2704700231B88FFDE90280020A8
S31500003E102C0009402C1011402000094020101140B0
S31500003E20280009402810114010B5194C90F824E0DC
S31500003E3034F81E0080B2022826D101291CD002299E
S31500003E4007D114491448BEF1010F0CBF8C468446B5
S31500003E5007E0C9B911491248BEF1010F0CBF8C46E3
S31500003E608446BCF8001003EA02008AB222EA030381
S31500003E700343ACF8003010BD0A490B48BEF1010FF0
S31500003E800CBF8C468446ECE700231B88FFDE00BF90
S31500003E90902800202C1011402C00094020101140C1
S31500003EA020000940281011402800094010B41B4C7E
S31500003EB090F8240034F810309BB2022B04D101296B
S31500003EC026D002291ED0B9B1002134F810309BB299
S31500003ED0022B02D05DF8044B70470B8823F4406335
S31500003EE01B041B0C0B80002AF4D00B885DF8044BD6
S31500003EF09BB21A430A80704709490A4B012818BF2A
S31500003F001946E2E70849094B012818BF1946DCE7BC
S31500003F100749084B012818BF1946D6E79028002004
S31500003F2020101140200009402C1011402C0009409F
S31500003F302810114028000940164B90F8242033F829
S31500003F4012309BB2022B21D1012917D0022907D1A9
S31500003F501149124B012A18BF0B46188880B27047C8
S31500003F60A1B903F180430E4903F5881303F5815384
S31500003F70012A18BF0B46188880B2704709490A4BB8
S31500003F80012A18BF0B46188880B2704700231B8889
S31500003F90FFDE00BF902800202E0009402E101140A1
S31500003FA0220009402A0009402A101140144B90F8BB
S31500003FB0242033F812309BB2022B1DD1012915D0D3
S31500003FC0022905D10F49104B012A18BF194605E0F1
S31500003FD091B90E490E4B012A18BF19460B886FEA94
S31500003FE043436FEA53439BB20B80704709490A4B20
S31500003FF0012A18BF1946F1E700231B88FFDE00BF20
S31500004000902800202E1011402E0009402210114049
S31500004010220009402A1011402A000940174B90F847
S31500004020242033F812309BB2022B24D1012919D057
S31500004030022908D1124B1349012A18BF0B464FF427
S3150000404080421A807047B1B903F180430E4903F5E7
S31500004050881303F58153012A18BF0B464FF480429B
S315000040601A807047094B0A49012A18BF0B464FF4BC
S3150000407080421A80704700231B80FFDE90280020B4
S315000040802E1011402E000940220009402A1011402E
S315000040902A0009400A4B90F8242033F812309BB2CC
S315000040A0022B00D0704701233AB1064AD08E03FA9C
S315000040B001F1014389B2D1867047034AF6E700BF92
S315000040C09028002000101140000009400B4B90F88A
S315000040D0242033F812309BB2022B00D070474AB12D
S315000040E001220748C38E02FA01F19BB223EA0101BD
S315000040F0C186704701220348F4E700BF90280020DC
S3150000410000101140000009400A4B90F8242033F8B3
S3150000411012309BB2022B00D0704701233AB1064AF7
S31500004120108F03FA01F1014389B211877047034AE0
S31500004130F6E700BF9028002000101140000009405B
S315000041400B4B90F8242033F812309BB2022B00D090
S3150000415070474AB101220748038F02FA01F19BB268
S3150000416023EA01010187704701220348F4E700BFF3
S315000041709028002000101140000009400C4B90F8D8
S31500004180242033F812309BB2022B00D07047002A4D
S31500004190FCD1012310B4074C074824F81120428FA4
S315000041A003FA01F1114389B25DF8044B4187704768
S315000041B090280020D40E0020000009400B4B90F8F8
S315000041C0242033F812309BB2022B00D070474AB13C
S315000041D001220748438F02FA01F19BB223EA01014B
S315000041E04187704701220348F4E700BF902800206A
S315000041F0001011400000094020B9054BB3F84000FB
S3150000420080B27047034BB3F8400080B2704700BFDE
S3150000421000000940001011400E4B90F8242033F89E
S3150000422012309BB2022B00D07047012342B903FA29
S3150000423001F1C943084AC1F30901A2F846107047C3
S3150000424003FA01F1C943054AC1F30901A2F8461070
S31500004250704700BF90280020000009400010114060
S315000042600E4B90F8242033F812309BB2022B00D06C
S315000042707047012342B903FA01F1C943084AC1F361
S315000042800901A2F84810704703FA01F1C943054A2B
S31500004290C1F30901A2F84810704700BF902800201A
S315000042A000000940001011400E4B90F8242033F80E
S315000042B012309BB2022B00D07047012342B903FA99
S315000042C001F1C943084AC1F30901A2F84A1070472F
S315000042D003FA01F1C943054AC1F30901A2F84A10DC
S315000042E0704700BF902800200000094000101140D0
S315000042F00A4B90F8242033F812309BB2022B01D0DF
S315000043000020704722B9064BB3F84C0080B27047C4
S31500004310044BB3F84C0080B2704700BF90280020D1
S31500004320000009400010114020B9054BB3F85400B5
S3150000433080B27047034BB3F8540080B2704700BF99
S31500004340000009400010114020B9054BB3F8560093
S3150000435080B27047034BB3F8560080B2704700BF77
S31500004360000009400010114020B9054BB3F8580071
S3150000437080B27047034BB3F8580080B2704700BF55
S31500004380000009400010114020B9054BB3F85A004F
S3150000439080B27047034BB3F85A0080B2704700BF33
S315000043A000000940001011400A4B90F8242033F811
S315000043B012309BB2022B01D00020704722B9064B67
S315000043C0B3F85C0080B27047044BB3F85C0080B26F
S315000043D0704700BF902800200000094000101140DF
S315000043E0084B90F8242033F812309BB2022B00D0F1
S315000043F070471AB9044BA3F85C107047034BA3F837
S315000044005C10704790280020000009400010114001
S315000044100A4B90F8242033F812309BB2022B01D0BD
S315000044200020704722B9064BB3F85E0080B2704791
S31500004430044BB3F85E0080B2704700BF902800209E
S315000044400000094000101140084B90F8242033F872
S3150000445012309BB2022B00D070471AB9044BA3F856
S315000044605E107047034BA3F85E107047902800203B
S31500004470000009400010114020B9054BB3F8600058
S3150000448080B27047034BB3F8600080B2704700BF3C
S315000044900000094000101140084B90F8242033F822
S315000044A012309BB2022B00D070471AB9044BA3F806
S315000044B064107047034BA3F86410704790280020DF
S315000044C000000940001011400A4B90F8242033F8F0
S315000044D012309BB2022B01D00020704722B9064B46
S315000044E0B3F8680080B27047044BB3F8680080B236
S315000044F0704700BF902800200000094000101140BE
S31500004500084B90F8242033F812309BB2022B00D0CF
S3150000451070471AB9044BA3F868107047034BA3F809
S3150000452068107047902800200000094000101140D4
S315000045300A4B90F8242033F812309BB2022B01D09C
S315000045400020704722B9064BB3F86C0080B2704762
S31500004550044BB3F86C0080B2704700BF902800206F
S315000045600000094000101140084B90F8242033F851
S3150000457012309BB2022B00D070471AB9044BA3F835
S315000045806C107047034BA3F86C10704790280020FE
S315000045900000094000101140084B90F8242033F821
S315000045A012309BB2022B00D070471AB9044BA3F805
S315000045B06E107047034BA3F86E10704790280020CA
S315000045C000000940001011404FF0000C134B90F80A
S315000045D0242082B0ADF806C033F812309BB2022B0D
S315000045E004D0BDF8060080B202B0704762B181B156
S315000045F00B4B03EB41010B889BB2ADF80630BDF8BF
S31500004600060080B202B0704729B1064B03EB4101A8
S31500004610F1E70549EFE70549EDE700BF90280020DF
S315000046206E1011406E000940601011406000094094
S315000046300B4B90F8242033F812309BB2022B00D09B
S31500004640704742B1074B03EB41010B889BB243F421
S3150000465000530B807047044B03EB4101F5E700BFA5
S31500004660902800206E1011406E0009400D4B90F806
S31500004670242033F812309BB2022B00D0704742B987
S31500004680094A32F811309BB243F4007322F8113014
S315000046907047064A32F811309BB243F4007322F891
S315000046A011307047902800206E0009406E101140AE
S315000046B00B4B90F8242033F812309BB2022B00D01B
S315000046C070474AB1074B03EB41010B8823F4007393
S315000046D01B041B0C0B807047034B03EB4101F4E7F3
S315000046E0902800206E1011406E000940174B90F87C
S315000046F0242033F812309BB2022B00D070474AB9FF
S31500004700D9B9134AB2F860309BB243F48073A2F869
S315000047106030704741B90F4AB2F860309BB243F43B
S315000047208073A2F8603070470B4A32F811309BB2A2
S3150000473043F4807322F81130E0E7084A32F811306A
S315000047409BB243F4807322F8113070479028002002
S3150000475000000940001011406E1011406E00094023
S31500004760104B90F8240033F810309BB2022B00D087
S31500004770704770B191B10C4B03EB41010B8823F0EC
S3150000478003031B041B0C0B800B889BB21A430A8085
S31500004790704729B1054B03EB4101EFE70449EDE70B
S315000047A00449EBE7902800206E1011406E00094086
S315000047B060101140600009400E4B90F8240033F859
S315000047C010309BB2022B00D0704748B169B10A4B3A
S315000047D003EB41010B889BB223EA02020A80704771
S315000047E029B1064B03EB4101F4E70549F2E7054918
S315000047F0F0E700BF902800206E1011406E000940BF
S3150000480060101140600009400B4B90F8242033F8EB
S3150000481012309BB2022B00D0704742B1074A890082
S315000048200A4413889BB243F4007313807047044A0A
S3150000483089000A44F5E700BF902800208C1011403B
S315000048408C0009400B4B90F8242033F812309BB2B1
S31500004850022B00D070474AB1074A89000A441388E0
S3150000486023F400731B041B0C13807047034A890052
S315000048700A44F4E7902800208C1011408C0009406F
S315000048800B4B90F8242033F812309BB2022B00D049
S31500004890704742B1074A89000A4413889BB243F421
S315000048A0807313807047044A89000A44F5E700BF05
S315000048B0902800208C1011408C000940094B90F87C
S315000048C0240033F810309BB2022B00D0704720B181
S315000048D0054B89000B441A807047044B89000B4432
S315000048E0F9E700BF902800208E1011408E00094085
S315000048F0704700BF704700BF124B5A6870B9110568
S315000049001CD5EFF31081012282F310885A6822F435
S3150000491000625A605B6881F310887047D2040DD537
S31500004920EFF31081012282F310885A6822F40062A4
S315000049305A605B6881F310880020704740F2DD50B2
S31500004940704700BF0040084000283BD180223D4B05
S315000049501881A3F86020A3F87000A3F87200A3F8EA
S315000049607400A3F87600A3F87800A3F87A00A3F8F9
S315000049707C00A3F87E00A3F88000D88618875887A5
S3150000498018865886A3F84600A3F84800A3F84A00FC
S315000049901A88002022F010021204120C1A801A88BB
S315000049A022F020021204120C1A801A8822F0400209
S315000049B01204120C1A801A8822F001021204120C38
S315000049C01A807047002280211F4B00201A81A3F80D
S315000049D06010A3F87020A3F87220A3F87420A3F83F
S315000049E07620A3F87820A3F87A20A3F87C20A3F8F1
S315000049F07E20A3F88020DA861A875A871A865A8676
S31500004A00A3F84620A3F84820A3F84A20198821F0E5
S31500004A1010010904090C1980198821F020010904E4
S31500004A20090C1980198821F040010904090C198024
S31500004A30198821F001010904090C1980A3F8022143
S31500004A40704700BF000009400010114010B5044631
S31500004A50FFF77AFFACB9114B5A68110517D45A689B
S31500004A60C2F3C020120515D4EFF31081012282F3A0
S31500004A7010885A6842F400625A605B6881F31088B5
S31500004A8010BD012C40F2E25008BF002010BD40F2DC
S31500004A90DC5010BD4FF4BC6010BD00BF00400840A4
S31500004AA000B17047F0B42A4B2A4DD3F800242A4EA1
S31500004AB060F30412C3F800240A7D91F90D30120147
S31500004AC0264CEF18D2B287F8002303F1C00246F84D
S31500004AD0231054F8227060F3104744F8227054F8FB
S31500004AE02220BFF35F8F4FF0010C5A09920003F0AA
S31500004AF01F0302F1604202F561420CFA03F3C2F8A9
S31500004B0080311360CB7C91F90C201B01DBB215447C
S31500004B1085F8003302F1C00346F8221054F823103A
S31500004B2060F3104144F8231054F82330BFF35F8F2D
S31500004B3053099B0002F01F0203F160430CFA02F2D4
S31500004B4003F56143C3F880211A60F0BC704700BFCB
S31500004B500000094000E100E0F42800200060004069
S31500004B60012103F0DBBC00BFFDF7CEBDEFF30383ED
S31500004B70103B094A5BB2C03352F823106FF3104161
S31500004B8042F8231052F82330044B1B889BB2012BAA
S31500004B9000D1704701F002BC006000409028002060
S31500004BA0EFF30383103B094A5BB203F1C00152F8ED
S31500004BB021006FF3104042F8210052F82120044AE8
S31500004BC052F82330987800F0C1BA00BF0060004068
S31500004BD0F4280020EFF30383103B064A5BB2C03390
S31500004BE052F823106FF3104142F8231052F8233085
S31500004BF0704700BF00600040EFF30383103B064A96
S31500004C005BB2C03352F823106FF3104142F8231001
S31500004C1052F82330704700BF006000402DE9F04392
S31500004C20012A0CBF784B794B0446B3F840E0B3F841
S31500004C304660B3F84880B3F84A70B3F830C0D88EEF
S31500004C401D8F5B8F1FFA85F99DB200231FFA8EFE1A
S31500004C501EF47F4F238083B0B6B21FFA88F8BFB226
S31500004C601FFA8CFC80B20B800ED00EEA0C0313F4F4
S31500004C70804F0CD0012A4BF6FF720CBF624B634B80
S31500004C80A3F840201223238003B0BDE8F08313F479
S31500004C90004F0DD113F4005F17D0012A4DF6FF72B5
S31500004CA00CBF594B594BA3F8402013232380EBE745
S31500004CB0012A47F6FF720CBF534B544BA3F8402012
S31500004CC01123238003B0BDE8F08313F4805F12D173
S31500004CD0304013F480761BD010F0010F18D0012A53
S31500004CE040F2FE320CBF484B484BA3F84620012346
S31500004CF023800B80C8E7012A4EF6FF720CBF424B99
S31500004D00424BA3F8402014232380A1F800E0BBE720
S31500004D1013F4806C07EA05070ED0FD070CD5012AAF
S31500004D2040F2FE320CBF384B384BA3F84A20022221
S31500004D30012322800B80A7E713F4007E08EA090509
S31500004D400FD015F0010F0CD0012A40F2FE320CBF35
S31500004D502D4B2E4BA3F848200322012322800B80E3
S31500004D6092E71B051DD466B1C343012A0CBF264A30
S31500004D70264AC3F30903A2F846300123238008809C
S31500004D8082E7BCF1000F2DD0FB43012A0CBF1E4A5F
S31500004D901E4AC3F30903A2F84A30022323800F8078
S31500004DA072E7104601910092FFF726FA0199009AE0
S31500004DB008804FF2FF70012A0CBF134B134BA3F868
S31500004DC04000152323800B8803F00703062B7FF48E
S31500004DD05BAF1046009100F0C9F9002300992380CB
S31500004DE00B8051E7BEF1000F3FF44EAFEB43012AB3
S31500004DF00CBF054A054AC3F30903A2F8483003234A
S31500004E0023800D8040E700BF0010114000000940DC
S31500004E1010B5044600F0AAF92046FFF785FA0246C7
S31500004E20094B20461A80FFF78FFA0246074B2046A9
S31500004E301A80FFF799FA0246054B20461A80FFF7BB
S31500004E40A3FA044B188010BD902000209220002069
S31500004E50822000208420002008B590F82400FFF767
S31500004E60CBF900F07000A0F13000B0FA80F04009F4
S31500004E7008BD00BFFF220F4B70B51B880E4D012BDE
S31500004E802A8000D070BD044600F050F92046FFF796
S31500004E90B3F910F4804606D14306F3D5204600F058
S31500004EA01DF92E8070BDD52320462B80BDE87040AD
S31500004EB000F04CB97E20002080200020704700BF03
S31500004EC010B5044690F8240000F040F994F8240048
S31500004ED0BDE8104000F02AB90B46022201461846EA
S31500004EE0FFF73EBC02220021FFF73ABC2DE9F04154
S31500004EF0450880460F4614461E4623D002EB45055C
S31500004F0034F8022B39463046FEF718FFAC42F7D18B
S31500004F1018F0010F02D12846BDE8F0813946304627
S31500004F200022FEF7C3FF15F8012B39463046FEF77F
S31500004F3025FF30464FF480623946FEF7B7FF284614
S31500004F40BDE8F0811546E3E72DE9F041450807463F
S31500004F50884614461E4617D002EB450541463046A4
S31500004F60FEF7D2FE24F8020BAC42F7D1FB0702D4BF
S31500004F702846BDE8F08141463046FEF7C5FE05F8F5
S31500004F80010B2846BDE8F0811546EFE72DE9F04113
S31500004F900446154610460F462146FEF7EFFD21460C
S31500004FA02846FFF793F821462846FFF7C9F8214619
S31500004FB02846FFF703F921462846FEF74BFE002157
S31500004FC02846FEF7FBFE00F00F0084422FD0214654
S31500004FD02846DFF86C8000F03BFA21462846FFF7AA
S31500004FE027FB58F8246006B3144B214653F82430A7
S31500004FF0284633613785FFF7E7FA58F824104B68DF
S3150000500070852BB1002208461146984758F824109F
S31500005010012000F0F3FB002348F82430214695F8E0
S315000050202400BDE8F04100F045BCBDE8F081002356
S3150000503028461A461946FEF7E3FDC8E74C0F00203E
S315000050401C0E002010B5064C238803B910BDFFF7CF
S315000050504FFC6420FFF784FD0023238010BD00BFB2
S315000050601A0E002010B5064C238803B910BDFFF7B1
S315000050703FFC6420FFF774FD0023238010BD00BFB2
S315000050801A0E00200122024B1A80FFF733BC00BF24
S315000050901A0E002030B9074A13889BB243F010035A
S315000050A013807047044A13889BB243F010031380A1
S315000050B0704700BF000009400010114038B9054A8A
S315000050C0138823F010031B041B0C13807047024A3D
S315000050D0F6E700BF000009400010114030B9074A4A
S315000050E013899BB243F4807313817047044A138972
S315000050F09BB243F480731381704700BF00000940E0
S315000051000010114030B9074A138E9BB243F4804316
S3150000511013867047044A138E9BB243F4804313866A
S31500005120704700BF000009400010114038B9054A19
S31500005130138E23F480431B041B0C13867047024A0C
S31500005140F6E700BF00000940001011404BF6FF7261
S3150000515018B9044BA3F840207047034BA3F840202E
S31500005160704700BF00000940001011404FF6F7726B
S3150000517018B9044BA3F840207047034BA3F840200E
S31500005180704700BF000009400010114040B9094AAD
S31500005190B2F860309BB243F00403A2F86030704767
S315000051A0054AB2F860309BB243F00403A2F86030BF
S315000051B0704700BF0000094000101140D8B90E4BDF
S315000051C01A8892B242F480621A801A885205FCD577
S315000051D04FF480614FF41D401A8822F02002120419
S315000051E0120C1A801A8892B242F001021A801984AF
S315000051F019859985188670470000094088B90C4AB8
S31500005200B2F8603023F003031B041B0CA2F86030D5
S31500005210B2F860309BB231B943F00103A2F86030B6
S315000052207047044AECE743F00203A2F86030704787
S315000052300000094000101140104B90F800C033F8F0
S315000052401C309BB2022B01D0002070470C4B1B88F0
S31500005250012B10D000B54FF0010E93B0094B10464C
S3150000526001AA8DF828C0A3F800E000F0C1FB0020D9
S3150000527013B05DF804FBD520704700BF90280020CE
S315000052807C200020AC20002030B5224B044600785C
S315000052909BB033F810308DF848009BB2022B02D039
S315000052A000201BB030BD0D4671B11B4B1B88012B76
S315000052B02BD00124194B2946104609AA1C8000F060
S315000052C053FB00201BB030BD002AEED1A38809A8ED
S315000052D0EBB1FFF707FE00259222217803AB0C34D1
S315000052E08DF800108DF8032094E80300029583E8FA
S315000052F00300ADF80450FDF785F90346694608201A
S31500005300059300F0D9F82846CBE7D520C9E700F089
S31500005310ADF8E0E7902800207C200020AC2000209B
S31500005320C378092B17D810B55B0092B00B4C0391CC
S31500005330D9B2615C0A4C90F800C054F8233001A839
S3150000534004928DF828C0ADF826100592029300F05D
S31500005350C9FE12B010BD0020704700BF3C7C0100A2
S31500005360440E0020C378092B17D85B0010B503F153
S31500005370010C144C5FFA8CFC14F80CC092B0BCF112
S31500005380060F0CD1104B0A7803931A720A22497839
S3150000539005925972C3785B0005E0002070470391BF
S315000053A005921FFA8CFC09490133027851F8233023
S315000053B001A88DF82820ADF826C0029300F092FED1
S315000053C012B010BD3C7C010030000020440E0020CD
S315000053D0092900D97047FEF797BE00BF092901D9F0
S315000053E00020704708B5FFF7EFF800F0030008BD8E
S315000053F009290FD810B541B10446FFF74DF82046EC
S31500005400FFF796F8C0F30A0010BDFFF701F8C0F3E6
S315000054100A0010BD00207047092901D900207047F5
S3150000542010B50446FFF738F82046FFF74DF800F0B0
S31500005430100010BD092901D90020704710B5044697
S31500005440FFF72AF82046FFF73FF800F4404010BD6A
S31500005450092900D9704738B50C460546FFF706F905
S3150000546021462846BDE83840FFF722B9092900D968
S3150000547070470122FFF774B9092900D9704738B57A
S315000054800C460546FEF77AFB21462846BDE838401D
S315000054900222FFF791B900BF08B5FEF71BFC00F02A
S315000054A00700013880B2032896BF024B002033F86C
S315000054B0100008BD507C01002DE9F0478E46374D9F
S315000054C0DFF8E8A0B5F80080887108EBC80C0AEB95
S315000054D08C0C0F46441EBEE80F00ACE80F00BEE879
S315000054E00F00ACE80F00DEF8003046464FEAC80968
S315000054F0CCF800300C2C14D8DFE804F00713071F93
