S01D0000454B5F5241364D345F546872656164585F44656D6F2E73726563DB
S31500000000B0170020615100007D4E00006F510000C6
S315000000106F5100006F5100006F5100006F510000DA
S315000000200000000000000000000000006F5100000A
S315000000306F510000000000008541000005420000ED
S31500000040FFFFFFFFFFFFFFFFFFFFFFFFFFFFFFFFBA
S31500000050FFFFFFFFFFFFFFFFFFFFFFFFFFFFFFFFAA
S31500000060FFFFFFFFFFFFFFFFFFFFFFFFFFFFFFFF9A
S31500000070FFFFFFFFFFFFFFFFFFFFFFFFFFFFFFFF8A
S3150000008010B5054C237833B9044B13B1044800E08E
S3150000009000BF0123237010BDF801002000000000FE
S315000000A07089000008B5034B1BB10349034800E003
S315000000B000BF08BD00000000FC01002070890000A0
S315000000C080B584B000AF786039607B68FB603B68C0
S315000000D01B689B681B683A68126810683A68126861
S315000000E0526811469847B860BB68002B01D0BB68C0
S315000000F01EE03B681A7AFB685A723B685A68FB68CE
S315000001001A603B681A68FB685A603B685B7A002B8A
S315000001100DD03B685B684FF0FF321946F86800F077
S31500000120AFF8B860BB68002B01D0BB6800E00023C5
S3150000013018461037BD4680BD80B584B000AF7860E4
S315000001407B68FB60FB685B689B685B68FA68526863
S31500000150126810469847B860BB68002B01D0BB6890
S3150000016000E0002318461037BD4680BD80B58AB032
S3150000017002AFF860B9607A603B60FB68BB613D49DD
S31500000180786800F0F5F90346002B0DD04FF0FF32EA
S31500000190B968B86900F03AFB38613B69002B01D0B9
S315000001A03B6962E0002360E03349786800F0E0F9DB
S315000001B00346002B10D0BB691B681B68002B09D0B7
S315000001C0BB691B681A68BB691A603A687968B869BE
S315000001D000F0EAFB002348E02849786800F0C8F9F7
S315000001E00346002B11D004E0BB691B681A68BB6983
S315000001F01A60BB691B681B68002BF5D13A687968E1
S31500000200B86900F0D1FB00232FE00023FB6126E054
S31500000210BB68DA68FB691B0113441B6819467868DA
S3150000022000F0A6F978617B69002B15DDBB68DA68FA
S31500000230FB691B0113449968BB68DA68FB691B01FB
S315000002401344DA687B6901933B6800937B68B8695D
S3150000025000F0E4FB002308E0FB690133FB61BB68A7
S315000002609B68FA699A42D3D3062318462037BD46BF
S3150000027080BD00BFA47A0000A87A0000AC7A000016
S3150000028080B586B000AFF860B9607A60FB683B6104
S31500000290BB68002B02D03B69BA681A603B691B68D1
S315000002A05B684FF0FF321946386900F09CF84FF052
S315000002B0FF323249386900F096F83B695B689B6803
S315000002C01B693A69526810687A6801219847786113
S315000002D07B69002B01D07B694BE03B6903F10A0186
S315000002E07B688022386900F04FF878617B69002BC3
S315000002F009D03B695B689B685B693A69526812681A
S315000003000121104698477B69002B01D07B6930E0BC
S315000003103B699B7A002B21D03B6919683B6903F145
S315000003200A0280233869FFF721FF78617B69062B73
S3150000033014D14FF0FF321249386900F054F83B6986
S315000003401B685B684FF0FF321946386900F04BF8BE
S315000003504FF0FF320B49386900F045F83B695B689E
S315000003609B685B693A695268126801211046984792
S315000003707B6918461837BD4680BD00BFB07A0000BD
S31500000380B47A0000C47A000080B586B000AFF86089
S31500000390B9607A603B60FB687B617B695B689B68E0
S315000003A01B697A69526810683A6801219847386172
S315000003B03B69002B01D03B6911E03B687A68B9685C
S315000003C0786900F00BFD38617B695B689B685B6947
S315000003D07A69526812680121104698473B691846A7
S315000003E01837BD4680BD90B589B000AFF860B960DA
S315000003F07A60FB68FB61B86805F002FFB861BB690B
S31500000400002B01D1172316E0BB697F2B01D91723D7
S3150000041011E0FB695B689B68DC68FB695B681868D0
S315000004207B68BA69B968A04778617B69002B01D0FF
S315000004307B6900E0002318462437BD4690BDFFFFC8
S3150000044080B588B000AFF860B9607A603B60002381
S31500000450FB6158E0FB69002B06D0FB69013BBA68DB
S3150000046013441B78202B4BD1FB69BA6813441B78C5
S31500000470FB76FB7E01332D4A134493F90030DBB241
S3150000048003F00303022B03D1FB7EA3F1200200E05D
S31500000490FA7EFB681B78BB76BB7E013323490B448F
S315000004A093F90030DBB203F00303022B02D1BB7ECB
S315000004B0203B00E0BB7E9A4222D1FB69BA68134416
S315000004C0F968184600F054F878617B69002B17D05C
S315000004D0FA697B6913443B617B68002B02D07B6819
S315000004E03A691A603B68002B08D03B69BA68134426
S315000004F0184605F01FFB02463B681A60002311E010
S31500000500FB690133FB61FB69BA6813441B78002B56
S31500000510A0D17B684FF0FF321A603B684FF0FF3284
S315000005201A60642318462037BD4680BDBC8500008E
S3150000053080B584B000AF78607B689B68FB607B68A1
S315000005401B68BB60BB68FA681A607B685B681B78CF
S31500000550002B08D07B6818687B685A687B68DB6864
S31500000560F968FFF703FE00BF1037BD4680BDFFFFE9
S3150000057080B489B000AF786039600023FB6132E057
S31500000580FB697A6813441B78BB61BB690133234A54
S31500000590134493F90030DBB203F00303022B02D1BC
S315000005A0BB69203B00E0BB697B61FB693A68134489
S315000005B01B783B613B690133184A134493F90030B9
S315000005C0DBB203F00303022B02D13B69203B00E0C0
S315000005D03B69FB607A69FB689A4201D0002317E009
S315000005E0FB690133FB61FB693A6813441B78002BF6
S315000005F0C6D1FB697A6813441B78002B07D0FB69C8
S315000006007A6813441B78202B01D0002300E0FB6995
S3150000061018462437BD465DF8047B7047BC8500004C
S3150000062080B588B000AFF860B9607A603B603B681F
S315000006301B68FB617A68FB699A4258D2BA687B6884
S315000006401344BB610BE07B680133BA681A44B9688E
S315000006507B680B4412781A707B6801337B60FB69F8
S31500000660013B7A689A42EED3BA687B68134420222B
S315000006701A70BA68FB69134400221A70FB685B7A29
S31500000680002B12D04FF0FF32B969F868FFF7ABFEC6
S3150000069078617B69002B08D1B86905F0B1FD034686
S315000006A01A460021F86800F082F8BA687B6813449D
S315000006B000221A70FB69013BFB613B68FA691A600C
S315000006C0FB69002B13D1FB685B7A002B0FD0FB680C
S315000006D05B689B685B69FA6852681268002110467D
S315000006E0984738613B69002B01D03B6900E0002345
S315000006F018462037BD4680BD80B588B000AFF8608B
S31500000700B9603B601346FB71BA683B681344BB6132
S31500000710BB6AFB610BE0FB69013BBA681A44B96826
S31500000720FB690B4412781A70FB69013BFB61FA699D
S315000007303B689A42EFD8BA683B681344FA791A7054
S31500000740BB6A0133BA68134400221A70FB685B7AED
S31500000750002B27D0BB6A002B10D1FB685B689B6817
S315000007601B69FA68526810684FF0FF3200219847FB
S3150000077078617B69002B01D07B6914E04FF0FF3272
S31500000780B969F868FFF72FFE78617B69002B09D1FC
S31500000790B86905F035FD0346013B1A460021F868A5
S315000007A000F005F8002318462037BD4680BD80B509
S315000007B086B000AFF8600B467A60FB72FB685B7A26
S315000007C0002B1FD01B233B745B237B74FB7A002B0F
S315000007D002D14423BB7401E04323BB740023FB74A2
S315000007E000237B610AE007F110034FF0FF32194640
S315000007F0F868FFF7F8FD7B6901337B617A697B68EE
S315000008009A42F0D300BF1837BD4680BD90B587B079
S3150000081000AFF860B9607A60FB685B689B681B692B
S31500000820FA68526810687A680021984738613B690F
S31500000830002B01D03B69A2E0FB685B689B68DC6823
S31500000840FB685B6818684FF0FF3302224E49A047E9
S31500000850BB685B684FF0FF321946F868FFF7C3FDC7
S315000008604FF0FF324949F868FFF7BDFDFB681B688A
S315000008701B68002B2FD0FB685B689B68DC68FB68F5
S315000008805B6818684FF0FF3304223F49A0474FF0DA
S31500000890FF323F49F868FFF7A6FD4FF0FF323D49AA
S315000008A0F868FFF7A0FDFB685B689B68DC68FB687F
S315000008B05B6818684FF0FF3304223349A0474FF0B6
S315000008C0FF323549F868FFF78EFD4FF0FF323349A6
S315000008D0F868FFF788FD00237B613AE0FB685B68F8
S315000008E09B68DC68FB685B6818684FF0FF3304227E
S315000008F02549A047BB68DA687B691B0113441B685E
S315000009004FF0FF321946F868FFF76DFDBB68DA68ED
S315000009107B691B0113445B68002B11D04FF0FF323B
S315000009201F49F868FFF75FFDBB68DA687B691B0142
S3150000093013445B684FF0FF321946F868FFF753FD22
S315000009404FF0FF321749F868FFF74DFD7B69013319
S315000009507B61BB689B687A699A42BFD34FF0FF32CE
S315000009601049F868FFF73FFDFB685B689B685B69A9
S31500000970FA68526812680021104698470023184604
S315000009801C37BD4690BD00BF847A0000D07A0000B7
S31500000990AC7A0000E07A0000A87A0000F87A00003D
S315000009A0107B0000147B000080B586B000AFF860B5
S315000009B0B9607A607B68002B2CD0BB681B78002B53
S315000009C028D001237B6102E07B6901337B61BA6831
S315000009D07B6913441B78002B0AD07B69013BBA68FC
S315000009E013441B78202B03D07A697B689A42EBD399
S315000009F0BA687B6913441B78002B0BD0FB68196817
S31500000A00BA687B69D0187A687B69D31A0246F86897
S31500000A10FFF7ACFB00BF1837BD4680BD80B588B078
S31500000A2000AFF860B9607A603B60BB68002B2ED0DF
S31500000A3002E0FB6A0133FB62FB6A3A6813441B78E7
S31500000A40002B09D0FB6A013B3A6813441B78202B24
S31500000A5002D0FB6A7F2BECD9FB683B617B68BB61EC
S31500000A60FB6A3A6813447B61FB6ABA6AD31AFB6174
S31500000A70BB68B3F1E04F05D107F110031846FFF745
S31500000A8057FD04E007F11002BB681046984700BF07
S31500000A902037BD4680BD80B586B000AFF860B9602E
S31500000AA07A603B60FB6803F10A027B681B68B968E1
S31500000AB00B449A422DD1B86805F0A2FB78617B6998
S31500000AC0002B1AD0FB685B7A002B16D0FB685B689C
S31500000AD09B681B69FA68526810684FF0FF32002164
S31500000AE0984738613B69002B01D03B6912E04FF013
S31500000AF0FF32B968F868FFF776FC7B681A687B698D
S31500000B001A447B681A603B681A687B691A443B681A
S31500000B101A60002318461837BD4680BD90B587B0C9
S31500000B2000AFF860B9607A603B6000233B82FB68E7
S31500000B305B689B689C68FB685B68186807F1100136
S31500000B404FF0FF330222A04778617B69002B01D06A
S31500000B507B6946E03B7C5B2B01D0642341E07B7CD8
S31500000B60442B06D0442B34DC412B26D0432B13D008
S31500000B702FE03B681B68002B2DD07B681B68002B81
S31500000B8029D001220021F868FFF711FE7B681B6857
S31500000B905A1E7B681A601EE07B681A683B681B68F1
S31500000BA09A421AD201220121F868FFF700FE7B68FB
S31500000BB01B685A1C7B681A600FE03B687A68B96844
S31500000BC0F868FFF768FF78617B69002B07D07B69BF
S31500000BD007E000BF04E000BF02E000BF00E000BF86
S31500000BE0002318461C37BD4690BDFFFF80B586B072
S31500000BF000AFF860B9607A603B607B681B68002BC9
S31500000C001BD0FB685B7A002B05D04FF0FF320D49F5
S31500000C10F868FFF7E8FB7B681B685A1E7B681A605A
S31500000C207B681A683B68B968F868FFF7F9FC786171
S31500000C307B69002B01D07B6900E00023184618373A
S31500000C40BD4680BD187B000080B584B000AFF8605B
S31500000C50B9607A60FB70FB681B7A0D2B0AD1FB78B2
S31500000C600A2B02D0FB78002B04D1FB68FA781A72A3
S31500000C70002312E0FB68FA781A72FB685B7A002B95
S31500000C8005D04FF0FF320749F868FFF7ACFBBA68AA
S31500000C907B68134400221A70012318461037BD469C
S31500000CA080BD00BF147B000080B588B002AFF8603D
S31500000CB0B9603B601346FB7100237B617B6A0022AF
S31500000CC01A70FB791B2B3FDC002B65DB1B2B63D8D3
S31500000CD001A252F823F000BF810D0000990D00001B
S31500000CE0990D0000990D0000990D0000990D000066
S31500000CF0990D0000990D00005F0D0000990D000090
S31500000D00810D0000990D0000990D0000810D000075
S31500000D10990D0000990D0000990D0000990D000035
S31500000D20990D0000990D0000990D0000990D000025
S31500000D30990D0000990D0000990D0000990D000015
S31500000D40990D00004F0D00007F2B10D024E03B6A68
S31500000D503A68B968F868FFF7E1FE786133E03B6A04
S31500000D603A68B968F868FFF741FF78612BE03B689D
S31500000D701A683B6AB968F868FFF752FC786122E0A6
S31500000D803B6A1A68FB79B968F868FFF75DFF0346A6
S31500000D901A467B6A1A7016E03B6819683B6A1B683C
S31500000DA0FA7900930B46B968F868FFF7A5FC7861F5
S31500000DB03B681B685A1C3B681A603B6A1B685A1CD6
S31500000DC03B6A1A6000BF7B69002B01D07B6900E09B
S31500000DD0002318461837BD4680BD00BF90B58DB0BC
S31500000DE002AFF860B9607A603B6000237B62002343
S31500000DF0FB610023BB61FB685B689B689C68FB68C2
S31500000E005B68186807F123013B680122A0477862F6
S31500000E107B6A002B01D07B6A40E00023FB7597F8C4
S31500000E20232007F11C0107F11703019307F11803AB
S31500000E3000930B46B968F868FFF736FF7862FB7DCA
S31500000E40002B0BD107F11C037A681946F86800F0ED
S31500000E5029F878627B6A002B02D1CCE700BF00E05C
S31500000E6000BF7B6A002B01D07B6A17E0FB685B7AC8
S31500000E70002B12D0FB69002B0FD0FB685B689B68C8
S31500000E805B69FA68526812680021104698477862D2
S31500000E907B6A002B01D07B6A00E0002318462C37C2
S31500000EA0BD4690BD80B586B000AFF860B9607A6087
S31500000EB000237B61BB681A687B68013B9A420FD3AB
S31500000EC0FB685B7A002B09D0FB685B689B685B69F3
S31500000ED0FA68526812680021104698470C237B6115
S31500000EE07B6918461837BD4680BD80B485B000AF13
S31500000EF0786039600023FB60FB6818461437BD46EE
S31500000F005DF8047B704780B485B000AF786000233D
S31500000F10FB60FB6818461437BD465DF8047B7047D6
S31500000F2080B58AB000AFF860B9607A603B60002394
S31500000F30FB61BB687B6200233B6202F0BBFBB861CE
S31500000F4000F008FB78617B69B3F1FF3F08D07B6A4C
S31500000F505A1C7A627A69D2B21A703B6A01333B62D2
S31500000F603A6A7B689A420DD002F0A4FB0246BB693E
S31500000F70D31A3A689A4201D2142305E0012002F0FE
S31500000F806FF8DDE700BFFB6918462837BD4680BD10
S31500000F9080B588B000AFF860B9607A603B60002326
S31500000FA07B61BB68FB610023BB6102F083FB386198
S31500000FB0FB695A1CFA611B785BB21946002000F0E7
S31500000FC073FABB690133BB61BA697B689A420DD07B
S31500000FD002F070FB02463B69D31A3A689A4201D284
S31500000FE0142305E0012002F03BF8E1E700BF7B692E
S31500000FF018462037BD4680BD80B487B000AFF86084
S315000010000B467A60FB7200237B617B6918461C37AE
S31500001010BD465DF8047B704780B485B000AF78604C
S315000010200B46FB700023FB60FB6818461437BD4671
S315000010305DF8047B7047FFFF80B483B000AF244B9C
S315000010407B607B6803221A617B6803225A617B6896
S31500001050204A9A617B68204ADA617B684FF4806295
S315000010601A627B6800229A627B6800225A627B6859
S315000010700022DA627B68174A1A667B68174A5A6644
S315000010807B6810229A667B6800221A677B680022BA
S31500001090DA667B6800225A677B680733104A106855
S315000010A01860BFF35F8F7B680E4A106818609188DE
S315000010B0927999809A71BFF35F8F7B6820229A712B
S315000010C0BFF35F8F00BF0C37BD465DF8047B7047EA
S315000010D014020020347B0000BC020020BC06002065
S315000010E0407B0000447B000080B58AB000AFF8600A
S315000010F0B9607A6000233B62FB68DB68FB61FB68D2
S315000011001B69BB61BA69FB699A4205D9BA69FB6971
S31500001110D31A013B7B6207E0FB689A68B969FB69F1
S31500001120CB1A1344013B7B62FB689A68FB69D31AAE
S315000011307A6A934228BF13467B627A6A7B68934237
S3150000114028BF13467B62FB685A68FB6913447B61C0
S315000011507A6AB968786904F0F7FC3A6A7B6A1344DC
S315000011603B62BA687B6A1344BB607A687B6AD31AAF
S315000011707B60FA697B6A1344FB61FB689B68FA69CA
S315000011809A4201D10023FB61BFF35F8FFB68FA69C6
S31500001190DA607B68002BB2D13B6A18462837BD4619
S315000011A080BD80B588B000AFF860B9607A60FB6832
S315000011B0DB68FB61FB689A68FB69D31ABB61BA6995
S315000011C07B689A4211D9FB685A68FB6913443B61F4
S315000011D07A68B968386904F0B7FCBFF35F8FFA69BB
S315000011E07B681A44FB68DA601FE0BB697B61FB68B9
S315000011F05A68FB6913443B617A69B968386904F037
S31500001200A3FC7A68BB69D31A7B61FB685B683B61A8
S31500001210BA68BB6913447A691946386904F094FCC4
S31500001220BFF35F8FFB687A69DA6000BF2037BD467F
S3150000123080BD80B487B000AF78607B681B693B6176
S315000012407B68DB68FB603A69FB689A4208D87B6872
S315000012509A68FB68D21A3B691344013B7B6104E040
S315000012603A69FB68D31A013B7B617B6918461C37D8
S31500001270BD465DF8047B704780B58CB000AFF86062
S31500001280B9607A603E4B3B623B6A1B785BB2002BCF
S3150000129001D1FFF7D1FEFA6813465B001344DB0069
S315000012A06033374A1344FB61BB687B62FB691B6989
S315000012B0BB62FB69DB68BB610023FB62BA6ABB6980
S315000012C09A422BD9FB699A68BB6AD31A7B617A6901
S315000012D07B68934228BF13467B61FB695A68BB6AE9
S315000012E013443B617A693969786A04F02DFCFA6A1D
S315000012F07B691344FB627A6A7B6913447B627A6872
S315000013007B69D31A7B60BA6A7B691344BB62FB694B
S315000013109B68BA6A9A4201D10023BB62BA69BB6A6A
S31500001320D31A7B617A697B68934228BF13467B6137
S315000013307B69002B19D0FB695A68BB6A13443B6171
S315000013407A693969786A04F0FFFBFA6A7B691344A3
S31500001350FB627A6A7B6913447B627A687B69D31A7B
S315000013607B60BA6A7B691344BB62FB6A002B02D0BE
S31500001370FB69BA6A1A61FB6A18463037BD4680BDFA
S315000013801402002080B586B000AFF860B9607A60BC
S31500001390EFF311834FF0200181F311887B617A68A6
S315000013A0B968F868FFF768FF38617B6983F31188CD
S315000013B03B6918461837BD4680BDFFFF80B588B02B
S315000013C000AFF860B9607A60BB68BB61FB685A1C05
S315000013D013465B001344DB001F4A13447B617B69A1
S315000013E05B69022B29D0022B2ED8002B02D0012BB1
S315000013F013D029E07869FFF71CFF38613A697B68EA
S315000014009A4202D20023FB6121E07B68FB617A6885
S31500001410B9697869FFF7C5FE19E07869FFF709FF32
S3150000142038617A683B69934228BF1346FB61FA69C3
S31500001430B9697869FFF7B5FE09E07A68B96978692C
S31500001440FFF752FEF86102E00023FB6100BFFB6973
S3150000145018462037BD4680BD1402002080B588B0EE
S3150000146000AFF860B9607A600E4BFB61FB691B78D0
S315000014705BB2002B01D1FFF7DFFDEFF311834FF0D5
S31500001480200181F31188BB617A68B968F868FFF7B3
S3150000149095FF7861BB6983F311887B69184620370D
S315000014A0BD4680BD1402002080B588B000AF7860CC
S315000014B00B46FB70264B7B617B691B785BB2002B6E
S315000014C001D1FFF7B9FDEFF311834FF0200181F34E
S315000014D011883B617B685A1C13465B001344DB0092
S315000014E01B4A1344FB60FB68DB680133FB61FB6846
S315000014F09B68FA699A4201D10023FB61FB685B692C
S31500001500022B05D100BFFB681B69FA699A42FAD023
S31500001510FB681B69FA699A4210D0FB685A68FB6837
S31500001520DB681344BB60BB68FA781A70BFF35F8F41
S31500001530FB68FA69DA600123BB6101E00023BB6145
S315000015403B6983F31188BB6918462037BD4680BDC9
S315000015501402002080B582B000AFFB1C01221946A0
S315000015600020FFF70FFF03467B607B68012B04D149
S3150000157097F90330DBB27B6002E04FF0FF337B600C
S315000015807B6818460837BD4680BD80B584B000AF7D
S3150000159078600B46FB707B689B68FB60FB685A1C97
S315000015A07B685B689A420ED87B681A68FB681344AE
S315000015B0FA781A70FB685A1C7B689A607B68DB684D
S315000015C05A1C7B68DA607B689A687B685B689A421B
S315000015D015D17B6818697B6819687B689B681A4611
S315000015E0FFF73CFF02467B689B689A4204D07B6803
S315000015F04FF0FF32DA6002E07B6800229A6000BF9B
S315000016001037BD4680BDFFFF80B58AB000AFF860D9
S31500001610B9607A603B60BB683B6201237B62012351
S31500001620FB6107E03A6A7B68B2FBF3F33B62FB6956
S315000016300133FB613A6A7B689A42F3D23A68FB69E6
S315000016409A4201D93B68FB617B6B03F00103002BD7
S3150000165026D13B6B002B23D07B6B03F00203002BC0
S3150000166005D03B68002B02D13023FB7601E0202316
S31500001670FB760CE03B6B013B3B6397F91B3019464D
S31500001680F868FFF782FFFB68DB68002B07DB3B6B24
S31500001690002B05D0FA693B6B9A42EBD300E000BF02
S315000016A0FB68DB68002B56DB3B68012B03D93B68E4
S315000016B0013B3B6009E0BA687B6AB2FBF3F37B61EE
S315000016C07A697B689A4200D205E07B6A7A6802FBF7
S315000016D003F37B62E8E7BA687B6AB2FBF3F37B61EC
S315000016E07B697A6A02FB03F3BA68D31ABB601C4AA9
S315000016F07B69134493F900301946F868FFF745FFF4
S31500001700FB68DB68002B08DB7A6A7B68B2FBF3F3C5
S315000017107B627B6A002BDED100E000BF7B6B03F0AF
S315000017200103002B17D03B6B002B14D00AE03B6B58
S31500001730013B3B632021F868FFF727FFFB68DB6866
S31500001740002B07DB3B6B002B05D0FA693B6B9A42FB
S31500001750EDD300E000BF00BF2837BD4680BD00BF07
S315000017604C7B000080B588B002AFF860B9607A6043
S315000017703B60BB68002BB8BF5B423B6101237B61CA
S3150000178007E07B683A6992FBF3F33B617B690133BF
S315000017907B617B683A699A42F3DA3A687B699A42D6
S315000017A001D93B687B613B6A002B0AD0BB68002BE2
S315000017B004DB7B6A03F00403002B02D03B6A013B87
S315000017C03B627B6A03F00203002B02D03B68002BCE
S315000017D01CD07B6A03F00103002B17D13B6A002B58
S315000017E014D00AE03B6A013B3B622021F868FFF710
S315000017F0CCFEFB68DB68002B07DB3B6A002B05D0C1
S315000018007A693B6A9A42EDD300E000BFFB68DB6869
S31500001810002B4ADBBB68002B07DABB685B42BB6068
S315000018202D21F868FFF7B1FE08E07B6A03F0040398
S31500001830002B03D02B21F868FFF7A7FEFB68DB68B7
S31500001840002B32DB7B6A03F00203002B1FD07B6A7E
S3150000185003F00103002B1AD13B68002B17D13B6A1A
S31500001860002B14D00AE03B6A013B3B623021F8684A
S31500001870FFF78BFEFB68DB68002B07DB3B6A002B60
S3150000188005D07A693B6A9A42EDD300E000BFFB6857
S31500001890DB68002B09DBB9687B6A01933B6A00931E
S315000018A03B687A68F868FFF7AFFE00BF1837BD4699
S315000018B080BDFFFF80B5A2B002AFF860B9607A6064
S315000018C007F110033B6540237B650023BB65FB687E
S315000018D03B660023FB65BB681B7887F87F30BB68D7
S315000018E00133BB6097F97F30002B00F09F8197F999
S315000018F07F30252B40F08D8100233B670123BB679A
S31500001900BB681B7887F87F3097F97F30233B0D2B18
S315000019103ED801A252F823F0811900009119000067
S315000019209119000091190000911900009119000009
S315000019309119000091190000711900009119000019
S315000019405119000091190000911900006119000059
S315000019503B6F43F001033B67BB680133BB601AE092
S315000019603B6F43F002033B67BB680133BB6012E089
S315000019703B6F43F004033B67BB680133BB600AE07F
S315000019803B6F43F008033B67BB680133BB6002E073
S315000019900023BB6700BFBB6F002BB1D10023FB66E2
S315000019A0BB681B7887F87F3097F97F302F2B12DDC5
S315000019B097F97F30392B0EDCBB680133BB60FA6EBA
S315000019C013469B0013445B001A4697F97F30134475
S315000019D0303BFB66E4E700237B67BB681B7887F830
S315000019E07F3097F97F302E2B1DD1BB680133BB604A
S315000019F0BB681B7887F87F3097F97F302F2B12DD75
S31500001A0097F97F30392B0EDCBB680133BB607A6FE8
S31500001A1013469B0013445B001A4697F97F30134424
S31500001A20303B7B67E4E7BB681B7887F87F3097F924
S31500001A307F306C2B03D097F97F30682B07D1BB68BA
S31500001A400133BB60BB681B7887F87F30EFE797F9F7
S31500001A507F30252B00F0D180252BC0F2D580782B46
S31500001A6000F3D280582BC0F2CF80583B202B00F2D7
S31500001A70CB8001A252F823F06F1B0000091C000066
S31500001A80091C0000091C0000091C0000091C0000BC
S31500001A90091C0000091C0000091C0000091C0000AC
S31500001AA0091C0000FD1A0000231B0000091C000091
S31500001AB0091C0000091C0000091C0000091C00008C
S31500001AC0091C0000091C0000091C0000091C00007C
S31500001AD0091C0000091C0000D51B0000091C0000A1
S31500001AE0091C0000951B0000091C0000491B000092
S31500001AF0091C0000091C00006F1B00007B681B68A6
S31500001B00191D7A6811601B68BB67BB6F87F8673061
S31500001B1097F9672007F1500311461846FFF735FD80
S31500001B2073E07B681B68191D7A6811601B68BB67C8
S31500001B3007F150003B6F0193FB6E00937B6F0A2207
S31500001B40B96FFFF70FFE60E07B681B68191D7A68A6
S31500001B5011601B68BB67B96F07F150003B6F0193BB
S31500001B60FB6E00937B6F0A22FFF74EFD4DE07B680C
S31500001B701B68191D7A6811601B68BB67B96F07F18E
S31500001B8050003B6F0193FB6E00937B6F1022FFF7B3
S31500001B903BFD3AE07B681B68191D7A6811601B687B
S31500001BA0BB66BB6E1B7887F87F30BB6E0133BB66A6
S31500001BB097F97F30002B0BD097F97F2007F1500360
S31500001BC011461846FFF7E1FCFB6D002BE9DA1CE035
S31500001BD000BF1AE07B681B68191D7A6811601B68D4
S31500001BE0BB67B96F07F150000023019308230093E8
S31500001BF008231022FFF708FD07E007F1500325210F
S31500001C001846FFF7C2FC00E000BFBB680133BB60AB
S31500001C1007E097F97F2007F1500311461846FFF7B2
S31500001C20B4FCFB6D002BBFF656AE00E000BFFB6DAB
S31500001C30002B0DDDBB6D002B06D0BA6D07F110032E
S31500001C401946F868FFF70AFCFB6DBA6D1344FB658D
S31500001C50FB6D18468037BD4680BD00BF0EB480B50B
S31500001C6085B000AF786007F12003BB6007F1080379
S31500001C701A46F9697868FFF71DFEF860FB68184692
S31500001C801437BD46BDE8804003B07047F0B58DB04F
S31500001C9008AF78600023FB6023490020FFF7DEFFD2
S31500001CA0224B03F1E401224B9A6A0023786801F083
S31500001CB0B1FEF860FB68002B04D0FA681D490020CD
S31500001CC0FFF7CCFF194B03F13404194B9C46184B14
S31500001CD01D6A174B5E6A154BD3F8E4303B60144A15
S31500001CE0926A1349C96A1248006BB023069301230E
S31500001CF00593002304930390029101923B6800939D
S31500001D0033462A466146204602F052F8F860FB68E0
S31500001D10002B04D0FA6808490020FFF79FFF00BF98
S31500001D201437BD46F0BD00BF147C0000CC06002071
S31500001D30AC7B0000347C0000707C000080B483B073
S31500001D4000AF7860054A7B68D2F8E8201A6000BFC9
S31500001D500C37BD465DF8047B704700BFCC060020FB
S31500001D602DE9B04388B000AF78601E490020FFF728
S31500001D7075FF4FF000024FF00003C7E9022307F199
S31500001D800803184604F0D0FAD7E90201164BD3E946
S31500001D900023B0EB020861EB0309C7E9068901F0ED
S31500001DA089FC0246114B1B68D31A7B617B69B3F52C
S31500001DB07A7F10D30D4B1A687B6913440B4A136064
S31500001DC0094BD3E90001D7E90623841841EB030543
S31500001DD0054BC3E900457B69C3F57A73184601F0E4
S31500001DE03FF9C6E7AC7C0000B8070020C00700201A
S31500001DF080B400AF00BFBD465DF8047B7047FFFFAF
S31500001E00F0B58DB008AF78600023FB602149002053
S31500001E10FFF724FF204B03F1B001204B9A6A002301
S31500001E20786801F0F7FDF860FB68002B04D0FA68CB
S31500001E301B490020FFF712FF174B9C46174B9E4687
S31500001E40164B1C6A154B5D6A134BD3F8B030134A18
S31500001E50926A1249C96A1148006BB0260696012695
S31500001E6005960026049603900291019200932B4654
S31500001E7022467146604601F09BFFF860FB68002B26
S31500001E8004D0FA6807490020FFF7E8FE00BF1437C0
S31500001E90BD46F0BDBC7D0000500800201880000043
S31500001EA0D87D0000147E000080B483B000AF786057
S31500001EB0054A7B68D2F8B4201A6000BF0C37BD46CD
S31500001EC05DF8047B704700BF5008002080B584B0E1
S31500001ED000AF78600023FB60204B5B6BBB60204942
S31500001EE00020FFF7BBFEBB689B681B68BA681068DA
S31500001EF0BA68526811469847F860FB68002B04D010
S31500001F00FA6818490020FFF7A9FEBB689B685B6961
S31500001F10BA681068642214499847F860FB68002B79
S31500001F2004D0FA6811490020FFF798FEBB689B6849
S31500001F309B68BA681068BA68526851684FF0FF32F9
S31500001F409847F860FB68002BF0D0FB68142BEDD0A7
S31500001F50FA6807490020FFF781FEE7E718800000CE
S31500001F60507E0000647E0000AC7E00000C7F000006
S31500001F70547F000080B582B000AF7860074900202A
S31500001F80FFF76CFE642001F06BF805490020FFF7AF
S31500001F9065FE00BF0837BD4680BD00BF508000000B
S31500001FA06480000080B586B000AF786020490020CC
S31500001FB0FFF754FE1F4B5B68DB6D3B610023FB6044
S31500001FC01D490020FFF74AFE1C490020FFF746FE88
S31500001FD000237B611FE0174B5B68996D7A69134696
S31500001FE09B001344DB000B445B6A07F10C021046AE
S31500001FF09847104B5B68996D7A6913469B001344AA
S31500002000DB000B441A46FB680D490020FFF726FE4D
S315000020107B6901337B617A693B699A42DBD3094963
S315000020200020FFF71BFE00BF1837BD4680BD00BF6E
S31500002030808000000C7C00009C800000D0800000A6
S315000020400481000064800000B0B592B004AF7860EF
S3150000205060A3D3E90023C7E908234FF000024FF03D
S315000020608043C7E906234FF00002534BD7E9060128
S3150000207003F0F0FB02460B46C7E9042344A3D3E969
S315000020800023C7E90C234D490020FFF7E7FD4C4923
S315000020900020FFF7E3FD4B490020FFF7DFFDD7E9FE
S315000020A00423C7E90A235FE03BA3D3E90023C7E97A
S315000020B00C2345E0D7E90A23D7E9080103F0A0FA83
S315000020C002460B4614461D4635A3D3E90023D7E93D
S315000020D00C0103F095FA02460B462046294603F00A
S315000020E0B9FB02460B46104619462FA3D3E9002337
S315000020F003F086FA02460B46C7E902234FF00002B8
S31500002100314BD7E90C0103F07BFA02460B46104629
S315000021101946D7E90A23CDE90223CDE90001D7E91B
S3150000212002232A490020FFF799FD1BA3D3E90023C8
S31500002130D7E90C0103F0AEF802460B46C7E90C23BB
S315000021401BA3D3E90023D7E90C0103F0CBFC03461C
S31500002150002BAFD1D7E90423D7E90A0103F09AF897
S3150000216002460B46C7E90A23D7E90623D7E90A013F
S3150000217003F0B8FC0346002B96D115490020FFF763
S315000021806DFD00BF3837BD46B0BD00BFAFF3008060
S315000021907B14AE47E17A743F2D431CEBE2361A3FBF
S315000021A0182D4454FB2119400000000080842E4164
S315000021B0FCA9F1D24D62503F000024401881000076
S315000021C0348100005C81000000408F408481000063
S315000021D064800000CBF6990F3715B53E80B582B006
S315000021E000AF0346FB71FB79022B05D1044B5B68FC
S315000021F01946044802F02CF900BF0837BD4680BDD9
S31500002200F8810000B809002080B586B002AF78607A
S315000022100023BB601B4B1B6818461A4B5B6803F117
S315000022203401184B5B685B6D342200927A6801F0CA
S3150000223055FCB860BB68002B05D0BA68124900206F
S31500002240FFF70CFD19E00023FB6010E00D4B5B6807
S31500002250996DFA6813469B001344DB000B441B6A16
S31500002260084A126810469847FB680133FB60054B25
S315000022705B68DB6DFA689A42E8D300BF1037BD464B
S3150000228080BD00BF0C7C0000A081000080B58AB034
S3150000229008AF134B1B680133114A1360B023069332
S315000022A0012305930123049302230393022302933C
S315000022B04FF4806301930B4B009300230A4A0B49AA
S315000022C00B4801F075FD78607B68002B03D0002178
S315000022D0074800F053F800BF0837BD4680BD00BF71
S315000022E0C0090020B0170020F5220000E881000098
S315000022F00809002080B582B000AF786000F04AF887
S31500002300FFF776FD00BF0837BD4680BD80B400AF3D
S3150000231000BFBD465DF8047B704780B500AFFFF790
S31500002320F5FF00BF80BDFFFF80B584B000AF7860C9
S315000023300E4B00221A600E4B00221A701C2301223B
S315000023400C490D4801F05CFCF860FB68002B03D0DB
S315000023500021094800F012F8FFF798FF7868FFF7A8
S3150000236053FF00BF1037BD4680BD00BFC009002027
S31500002370C409002004820000C809002080B483B08C
S3150000238000AF7860396000BE00BF0C37BD465DF80F
S31500002390047B704780B582B000AF4FF0FF311A481A
S315000023A001F0B4FC78607B68002B03D0002116484E
S315000023B0FFF7E4FF154B1B7883F00103DBB2002B1C
S315000023C01ED0124B01221A70FFF7A7FF104B1B6895
S315000023D0013B0F4A13600FE00B4801F0CBFC78601D
S315000023E07B68002B03D000210748FFF7C7FF084B87
S315000023F01B68013B064A1360054B1B68002BEBD19B
S3150000240000BF0837BD4680BDC8090020C4090020AA
S31500002410C009002080B500AF00F0ECFA0023184692
S3150000242080BDFFFF80B594B000AFF860B9607A60F8
S315000024303B607B68033323F003037B60EFF3108379
S31500002440FB62FB6AFB6472B600BF554B1B683B64BC
S3150000245000237B64FB683A6C1A62FB6C7B627B6AC6
S3150000246083F3108800BF7968F86800F0AFF9F86365
S31500002470EFF31083BB62BB6AFB6472B600BFFB6BF3
S31500002480002B02D001237B6406E0FB681B6A3A6CD2
S315000024909A4201D101237B647B6C002BDAD0BB68A6
S315000024A0FA6B1A60FB6B002B08D0FB6C3B623B6A35
S315000024B083F3108800BF0023BB646CE03B68002BED
S315000024C061D0384B1B68002B07D01023BB64FB6C14
S315000024D0FB61FB6983F310885DE03B6C324A9A66C8
S315000024E03B6CFA68DA663B6CBA68DA673B6C7A680A
S315000024F09A673B6CD3F8AC305A1C3B6CC3F8AC20E3
S31500002500FB689B6ABB63FB689B6A5A1CFB689A6202
S31500002510BB6B002B09D1FB683A6C5A623B6C3A6C78
S315000025201A673B6C3A6C5A6711E0FB685B6A7B631F
S315000025303B6C7A6B1A677B6B5B6F3B633B6C3A6BEE
S315000025405A673B6B3A6C1A677B6B3A6C5A673B6C03
S3150000255009221A633B6C01229A633B6C3A68DA647F
S31500002560104B1B6801330F4A1360FB6CBB61BB69E0
S3150000257083F3108800BF386C00F036FF3B6CD3F84D
S315000025808430BB6407E0FB6C7B617B6983F3108856
S3150000259000BF1023BB64BB6C18465037BD4680BDD8
S315000025A0FC090020940A0020AD25000080B58CB0FF
S315000025B000AF78603960EFF31083BB61BB69FB62E3
S315000025C072B600BF7B689B6E324A934257D17B68D6
S315000025D0D3F8AC303A689A4251D17B68DB6EBB6265
S315000025E0BB6A002B4BD0BB6A1B682B4A934246D171
S315000025F0BB6A9B6A002B42D07B6800229A66BB6A44
S315000026009B6A5A1EBB6A9A62BB6A9B6A7B627B6A3A
S31500002610002B03D1BB6A00225A6213E07B681B6F52
S315000026203B627B685B6FFB613B6AFA695A67FB69D1
S315000026303A6A1A67BB6A5B6A7A689A4202D1BB6ACF
S315000026403A6A5A627B681B6B092B18D17B68102289
S31500002650C3F88420114B1B680133104A1360FB6AD0
S315000026603B613B6983F3108800BF786800F0CCFDBE
S31500002670EFF310837B617B69FB6272B600BFFB6A76
S31500002680FB60FB6883F3108800BF00BF3037BD4690
S3150000269080BD00BFAD25000045545942940A002074
S315000026A080B58EB000AFF860B9607A603B603422C6
S315000026B00021F86803F055FA3B6823F003033B60FA
S315000026C0FB68BA685A60FB687A689A61FB683A6880
S315000026D0DA61FB687A681A61FB687A685A613B6856
S315000026E0A3F10802FB689A60FB680222DA607B6845
S315000026F07B637A6B3B6813447B637B6B043B7B6336
S31500002700FB683B637B6BFB62FB6A3A6B1A607B6B15
S31500002710043B7B637B6BFB62FB6A7A681A607B68AF
S315000027203B633B6BFB62FB6A7A6B1A607B687B637D
S315000027307B6B04337B637B6BBB62BB6A1F4A1A608D
S31500002740FB6800221A62EFF31083BB61BB697B62F0
S3150000275072B600BFFB681A4A1A601A4B1B68002B38
S3150000276009D1194AFB681360FB68FA68DA62FB68EC
S31500002770FA681A6311E0144B1B683B623B6A1B6BD9
S31500002780FB613B6AFA681A63FB69FA68DA62FB68FE
S31500002790FA691A63FB683A6ADA620A4B1B68013304
S315000027A0084A13607B6A7B617B6983F3108800BFEC
S315000027B0002318463837BD4680BD00BFEEEEFFFF4A
S315000027C045545942F0090020EC09002080B495B028
S315000027D000AF786039600023FB63EFF31083FB6181
S315000027E0FB69FB6472B600BF7B689A687B68DB682E
S315000027F0023BDB001344BB633A68BB6B9A4208D3C7
S31500002800FB6CBB61BB6983F3108800BF0023BB640C
S31500002810DCE0724B1B687B637B687A6B1A627B68B1
S315000028205B69BB647B68DB6801333B6400237B64C4
S31500002830BB6C04333B633B6BFB62FB6A1B68684AF9
S31500002840934243D1FB6B002B04D17B68BA6C5A616F
S315000028500123FB63BB6CBB62BB6A1B687B627A6A43
S31500002860BB6CD31A7B647B6C083B7B647A6C3B68DD
S315000028709A4256D200237B647B6A04333B633B6BEC
S31500002880FB62FB6A1B68564A934213D17B6A3B6222
S315000028903B6A1A68BB6A1A607B68DB685A1E7B68EB
S315000028A0DA607B685B697A6A9A4214D17B68BA6C93
S315000028B05A6110E07B6A3B623B6A1B68BB643B6CF7
S315000028C0002B08D03B6C013B3B6404E0BB6CBB6255
S315000028D0BB6A1B68BB643B6C002B02D03B6C013BA4
S315000028E03B64FB6C3B613B6983F3108800BFEFF3ED
S315000028F010837B617B69FB6472B600BF7B681B6AD1
S315000029007A6B9A4209D07B685B69BB647B68DB683B
S3150000291001333B647B687A6B1A623B6C002B87D170
S3150000292000E000BF7B6C002B48D07A6C3B68D31A62
S31500002930132B1ED93B680833BA6C13447B627B6A3F
S315000029403B62BB6CBB62BB6A1A683B6A1A607B6AF5
S3150000295004333B633B6BFB62FB6A214A1A607B686C
S31500002960DB685A1C7B68DA60BB6A7A6A1A603B6865
S315000029707B64BB6C04333B633B6BBB62BB6A7A68AC
S315000029801A607B689A687B6CD31AA3F108027B688D
S315000029909A607B685B69BA6C9A4205D1BB6CBB6274
S315000029A0BB6A1A687B685A61FB6CFB60FB6883F341
S315000029B0108800BFBB6C0833BB6407E0FB6CBB60D0
S315000029C0BB6883F3108800BF0023BB64BB6C18464A
S315000029D05437BD465DF8047B704700BFFC090020F4
S315000029E0EEEEFFFF80B500AF00F0D8FA00F054FF1E
S315000029F000BF80BD80B500AF104B1B6813F10F3FC1
S31500002A000CD00E4B4FF0F0321A6001F001FBFFF7CD
S31500002A10E9FF0B4B1B680133094A1360074B4FF064
S31500002A20F0321A60074B1B681846FFF77DFC034B14
S31500002A3000221A6001F090FB00BF80BD000000205C
S31500002A40940A0020F409002080B58CB000AF7860AD
S31500002A503960EFF31083BB61BB69FB6272B600BFDE
S31500002A607B689B6E324A934257D17B68D3F8AC3071
S31500002A703A689A4251D17B68DB6EBB62BB6A002B17
S31500002A804BD0BB6A1B682B4A934246D1BB6A1B6973
S31500002A90002B42D07B6800229A66BB6A1B695A1ECD
S31500002AA0BB6A1A61BB6A1B697B627B6A002B03D116
S31500002AB0BB6A0022DA6013E07B681B6F3B627B68AF
S31500002AC05B6FFB613B6AFA695A67FB693A6A1A6788
S31500002AD0BB6ADB687A689A4202D1BB6A3A6ADA60F4
S31500002AE07B681B6B062B18D17B680D22C3F88420EC
S31500002AF0114B1B680133104A1360FB6A3B613B694B
S31500002B0083F3108800BF786800F07EFBEFF3108334
S31500002B107B617B69FB6272B600BFFB6AFB60FB6888
S31500002B2083F3108800BF00BF3037BD4680BD00BFAD
S31500002B30492A0000414D4553940A002080B58AB0C9
S31500002B4000AFF860B9607A601C220021F86803F0D3
S31500002B5008F8FB68BA685A60FB687A689A60EFF30F
S31500002B601083BB61BB697B6272B600BFFB68194A02
S31500002B701A60194B1B68002B09D1184AFB681360B1
S31500002B80FB68FA685A61FB68FA689A6111E0134BB0
S31500002B901B683B623B6A9B69FB613B6AFA689A6108
S31500002BA0FB69FA685A61FB68FA699A61FB683A6AD6
S31500002BB05A61094B1B680133074A13607B6A7B61C4
S31500002BC07B6983F3108800BF002318462837BD466B
S31500002BD080BD00BF414D4553E8090020E4090020AF
S31500002BE080B58CB000AF786039600023FB62EFF3EC
S31500002BF01083BB61BB69BB6272B600BF7B689B6812
S31500002C00002B0AD07B689B685A1E7B689A60BB6A59
S31500002C107B617B6983F3108868E03B68002B5DD09D
S31500002C20354B1B68002B08D0BB6A3B613B6983F3BD
S31500002C30108800BF0D23FB6258E0304B1B687B6297
S31500002C407B6A2F4A9A667B6A7A68DA667B6AD3F869
S31500002C50AC305A1C7B6AC3F8AC207B681B69002B1E
S31500002C6009D17B687A6ADA607B6A7A6A1A677B6A54
S31500002C707A6A5A6711E07B68DB683B627B6A3A6A6C
S31500002C801A673B6A5B6FFB617B6AFA695A67FB6985
S31500002C907A6A1A673B6A7A6A5A677B681B695A1CA2
S31500002CA07B681A617B6A06221A637B6A01229A6331
S31500002CB07B6A3A68DA64104B1B6801330E4A13606C
S31500002CC0BB6AFB60FB6883F3108800BF786A00F07C
S31500002CD08BFB7B6AD3F88430FB6207E0BB6ABB6080
S31500002CE0BB6883F3108800BF0D23FB62FB6A18469E
S31500002CF03037BD4680BD00BF940A0020FC09002085
S31500002D00492A000080B58AB000AF7860EFF31083DF
S31500002D103B613B697B6272B600BF7B681B693B62A5
S31500002D203B6A002B0AD17B689B685A1C7B689A60B9
S31500002D307B6AFB60FB6883F3108833E07B68DB68A3
S31500002D40FB613B6A013B3B623B6A002B03D17B681C
S31500002D500022DA600EE0FB691B6FBB617B68BA6913
S31500002D60DA60FB695B6F7B61BB697A695A677B696D
S31500002D70BA691A677B683A6A1A61FB6900229A6621
S31500002D80FB690022C3F88420094B1B680133084AFB
S31500002D9013607B6ABB60BB6883F3108800BFF86969
S31500002DA000F032FA002318462837BD4680BD00BF22
S31500002DB0940A002080B590B000AFF860B9607A60E0
S31500002DC03B600023BB63FA6CEF21B86C02F0C9FECE
S31500002DD0B0220021F86802F0C4FEFB68BA689A6265
S31500002DE0FB687A685A64FB683A689A64FB68BA6C4E
S31500002DF0DA60FB68FA6C5A61FB683A6DDA62FB6866
S31500002E003A6DC3F89420FB68BA6D9A61FB68BA6D97
S31500002E10DA61FB682022C3F89C20BB6C7B63FB6CE9
S31500002E20013B7A6B13447B63FB687A6B1A613A6DDC
S31500002E307B6D9A4207D0FB680022DA63FB680022AA
S31500002E40C3F8982006E0FB683A6DDA63FB683A6DD2
S31500002E50C3F89820FB6803221A63FB68474A5A6541
S31500002E60FA68FB689A654649F86801F0D1F9EFF30C
S31500002E7010837B627B6A3B6372B600BFFB68414A84
S31500002E801A60414B1B68002B0BD1404AFB6813604C
S31500002E90FB68FA68C3F88820FB68FA68C3F88C20D8
S31500002EA016E03A4B1B68FB62FB6AD3F88C30BB62B8
S31500002EB0FB6AFA68C3F88C20BB6AFA68C3F88820F4
S31500002EC0FB68BA6AC3F88C20FB68FA6AC3F88820E4
S31500002ED02D4B1B6801332C4A13602D4B1B680133A5
S31500002EE02B4A1360FB6D012B29D1EFF305833B625F
S31500002EF03A6A284B1B681343B3F1F03F0DD3264BB8
S31500002F001B68FB63FB6B002B09D0FB6BDB6BBB63A6
S31500002F10FB6BDA6AFB6BDA6301E00023FB633B6B56
S31500002F20FB61FB6983F3108800BFF86800F06CF959
S31500002F30FB6B002B1DD0FB6BBA6BDA6319E03B6BA6
S31500002F403B613B6983F3108800BFEFF310837B611D
S31500002F507B693B6372B600BF0D4B1B68013B0C4A95
S31500002F6013603B6BBB61BB6983F3108800BF00F045
S31500002F7009F9002318464037BD4680BD413600009A
S31500002F80C52F000044524854080A0020040A0020B5
S31500002F90940A002000000020000A002080B400AF40
S31500002FA0064B20221A60064B1B6843F0C773044A7F
S31500002FB0136000BFBD465DF8047B7047100A002011
S31500002FC09C0A002080B588B000AF224B1B68FB61CD
S31500002FD0FB695B6CFA69926C104698471E4B1B683E
S31500002FE0002B03D01C4B1B68F8699847EFF310833E
S31500002FF07B607B68BB6172B600BFFB6901221A6306
S31500003000FB6901229A63FB690022DA64134B1B6891
S315000030100133124A1360BB69BB60BB6883F3108837
S3150000302000BFEFF31483FB60FB687B617B6923F0D1
S3150000303004037B617B693B613B6983F31488BFF3BF
S315000030406F8F00BF00BFF86900F0CEF900BF2037D0
S31500003050BD4680BDFC090020980A0020940A002085
S3150000306080B58CB000AF7860EFF310833B623B6AAB
S31500003070BB6272B600BF2F4B1B687B627B6A002B5C
S3150000308008D1BB6AFB61FB6983F3108800BF132379
S31500003090FB6249E0EFF30583BB61BA69264B1B6807
S315000030A01343002B08D0BB6A7B617B6983F31088CE
S315000030B000BF1323FB6237E07B68002B08D1BB6A95
S315000030C03B613B6983F3108800BF0023FB622BE062
S315000030D01A4B1B68002B08D0BB6AFB60FB6883F3A6
S315000030E0108800BF1323FB621EE07B6A04221A636A
S315000030F07B6A01229A637B6A0022C3F884207B6A7A
S315000031007A68DA640D4B1B6801330C4A1360BB6A9C
S31500003110BB60BB6883F3108800BF786A00F064F96F
S315000031207B6AD3F88430FB62FB6A18463037BD46AB
S3150000313080BD00BFFC09002000000020940A00208A
S3150000314080B485B000AF0E4B4FF080525A60EFF35B
S315000031500583BB60BB68002B0CD1EFF310833B608B
S315000031603B68FB6062B600BFFB687B607B6883F3ED
S31500003170108800BF00BF1437BD465DF8047B70475A
S3150000318000ED00E080B584B000AF0B4B1B68FB6020
S31500003190FB68002B0BD1094B1B68BB60084B1B68F7
S315000031A07B60BA687B689A4201D0FFF7C9FF00BF0F
S315000031B01037BD4680BD00BF940A0020FC090020E0
S315000031C0000A002080B485B000AF0E4B4FF080524D
S315000031D05A60EFF30583BB60BB68002B0CD1EFF39D
S315000031E010833B603B68FB6062B600BFFB687B6098
S315000031F07B6883F3108800BF00BF1437BD465DF8B7
S31500003200047B704700ED00E080B58EB000AF7860BB
S31500003210EFF310837B617B697B6372B600BF7B68CB
S315000032205B6E002B05D07B684C33184600F0BAFB6A
S3150000323002E07B680022DA64544B1B68013B534A68
S3150000324013607B689B6B002B6CD17B681B6B002B20
S3150000325000F081807B685B6B002B5CD17B68002271
S315000032601A637B68DB6A3B63494A3B6B52F823303F
S31500003270FB62FB6A002B3ED145493B6B7A6841F8FD
S3150000328023207B687A681A627B687A685A62012210
S315000032903B6B02FA03F37B623E4B1A687B6A13436D
S315000032A03C4A13603C4B1B683A6B9A4253D23A4AEB
S315000032B03B6B1360394B1B683B623B6A002B03D1A7
S315000032C0364A7B68136046E03B6ADB6B3A6B9A4290
S315000032D041D2324A7B6813607B6B3B613B6983F367
S315000032E0108800BF294B1B68FB61FB69002B49D185
S315000032F0FFF768FF46E0FB6A5B6ABB62BB6A7A68F7
S315000033001A62FB6A7A685A627B68BA6A5A627B6892
S31500003310FA6A1A621FE07B6800225A637B680322FE
S315000033201A6318E07B681B6B012B14D07B681B6B40
S31500003330022B10D07B685B6B002B06D17B680022CA
S315000033409A637B6800221A6305E07B6800225A6351
S315000033507B6803221A63124B1B68BB617B6BFB60A5
S31500003360FB6883F3108800BF0C4B1B68BA699A424E
S3150000337009D0064B1B68FB61FB69002B03D1FFF7E5
S3150000338021FF00E000BF3837BD4680BD940A00200B
S31500003390140A00200C0A0020100A0020000A00204F
S315000033A0FC09002080B485B000AF0E4B4FF0805270
S315000033B05A60EFF30583BB60BB68002B0CD1EFF3BB
S315000033C010833B603B68FB6062B600BFFB687B60B6
S315000033D07B6883F3108800BF00BF1437BD465DF8D5
S315000033E0047B704700ED00E080B594B000AF7860D4
S315000033F0644B1B68FB64EFF310837B627B6ABB64E0
S3150000340072B600BF7A68FB6C9A4212D17B68DB6C9D
S315000034107B647B6C002B08D07B6CB3F1FF3F04D040
S315000034207B684C33184600F05BFA7B68DB69564ACA
S315000034301360564B1B68013B544A13607B689B6BB9
S31500003440012B40F083807B6800229A637B68DB6AED
S315000034503B647B681B6AFB63FA6B7B689A4215D0F8
S315000034607B685B6ABB62FB6BBA6A5A62BB6AFA6BC1
S315000034701A62474A3B6C52F823307A689A424AD11C
S3150000348043493B6CFA6B41F8232044E0404A3B6CCD
S31500003490002142F8231001223B6C02FA03F3BB63BE
S315000034A03C4B1A68BB6BDB4313403A4A136000235C
S315000034B07B63384B1B683B633B6B002B14D1364B4D
S315000034C020221A60354B00221A60BB6C3B623B6AB5
S315000034D083F3108800BF2D4B1B68FB62FB6A002B31
S315000034E048D1FFF75FFF45E03B6BBB61BB6993FAD1
S315000034F0A3F37B617B69FB61FB69002B01D1202370
S3150000350003E0FB69B3FA83F3DBB2BB637A6BBB6B95
S315000035101344214A1360214B1B687A689A4215D1DD
S315000035201D4B1B681A4A52F823301C4A1360BB6CA9
S315000035303B613B6983F3108800BF144B1B68FB6239
S31500003540FB6A002B18D1FFF72DFF15E0BB6CFB6063
S31500003550FB6883F3108800BF104B1B68FA6C9A4215
S315000035600CD00A4B1B68FB62FB6A002B06D1FFF7E7
S3150000357019FF03E000BF02E000BF00E000BF5037C4
S31500003580BD4680BDFC090020400B0020940A0020A7
S31500003590140A00200C0A0020100A0020000A00204D
S315000035A080B485B000AF204B1B68FB60EFF310833F
S315000035B07B607B68BB6072B600BF1C4B00221A6042
S315000035C0FB68002B24D0FB681B6B002B20D1FB680B
S315000035D0DA69FB689A61FB689B69154A1360FB68A8
S315000035E01B6AFA689A4213D0FB68DA6AFB68DB6BDF
S315000035F09A420DD1FB68DB6AFA68126A0D4941F8F6
S3150000360023200D4B1B680B4A52F823300B4A1360DC
S31500003610BB683B603B6883F3108800BF00BF14376C
S31500003620BD465DF8047B7047FC090020A40A002013
S31500003630400B0020140A0020100A0020000A002077
S3150000364080B58AB000AF78607B687B62EFF3108349
S315000036507B617B693B6272B600BF7B6A1B6B042B86
S315000036600ED1134B1B680133114A13603B6A3B6151
S315000036703B6983F3108800BF786AFFF7C5FD13E046
S315000036807B6A9B6EFB617B6AD3F8AC30BB613B6A9D
S31500003690FB60FB6883F3108800BFFB69002B03D037
S315000036A0FB69B969786A984700BF2837BD4680BD6F
S315000036B0940A002080B485B000AFEFF310833B601E
S315000036C03B68FB6072B600BF074B1B68BB60FB68BC
S315000036D07B607B6883F3108800BFBB68184614378D
S315000036E0BD465DF8047B7047A00A002080B58EB009
S315000036F000AF0023FB62EFF31083FB61FB697B6382
S3150000370072B600BF5E4B1B68002B40F0AF805D4B6E
S315000037101B68002B00F0AA80594B01221A605A4BF5
S315000037201B681B687B607B68002B02D07B683A1D98
S315000037309A61554B1B6800221A60534B1B68043371
S31500003740514A1360504B1A68504B1B689A4203D17A
S315000037504F4B1B684C4A13604A4B00221A607B6B26
S315000037607B617B6983F3108800BFEFF31083BB6135
S31500003770BB697B6372B600BF6DE07B68BB627B682A
S315000037801B697B6200233B60BA6A7B6A9A4202D15C
S3150000379000237B600DE0BB6A5B693B627B6A3A6A29
S315000037A05A613B6A7A6A1A617B6A3A1D9A617B6A38
S315000037B07B60BB6A1B68202B10D9BB6A1B68A3F110
S315000037C02002BB6A1A6000233B63BB6A3A469A61D1
S315000037D0BB6ABA6A1A61BB6A3B6019E0BB6A9B683E
S315000037E03B63BB6ADB68FB62BB6A5A68BB6A1A60EA
S315000037F0BB6A1B68002B08D0BB6A3A469A61BB6A53
S31500003800BA6A1A61BB6A3B6002E0BB6A00229A612F
S31500003810204ABB6A13607B6B3B613B6983F310886C
S3150000382000BF3B6B002B02D03B6BF86A9847EFF367
S315000038301083FB60FB687B6372B600BF154B0022EA
S315000038401A603B68BA6A9A4205D1BB6A00229A613D
S31500003850B86A00F045F87B68002B8ED1094B1B68CF
S31500003860002B7FF45CAF064B00221A607B6BBB60BB
S31500003870BB6883F3108800BF00BF3837BD4680BDE4
S315000038803C0B0020340B0020300B00202C0B0020BA
S31500003890280B0020380B002080B400AF0A4B0B4ADF
S315000038A01A600B4B094A1A600A4B0B4A1A60094BFD
S315000038B01B680433074A1360084B00221A6000BFD6
S315000038C0BD465DF8047B7047280B0020A80A00203F
S315000038D0300B00202C0B0020240B00203C0B00207A
S315000038E080B489B000AF78607B681B687B617B69B8
S315000038F0002B4AD07B69B3F1FF3F46D07B689B69BA
S31500003900002B42D17B69202B02D91F23BB6102E029
S315000039107B69013BBB61204B1A68BB699B00134462
S31500003920FB611E4B1B68FA699A420BD31B4B1B6843
S31500003930FA69D31A9B103B61194B1A683B699B00C5
S315000039401344FB61FB691B68002B09D17B687A680D
S315000039501A617B687A685A61FB697A681A6011E0B5
S31500003960FB691B68FB60FB685B69BB60BB687A68C8
S315000039701A61FB687A685A617B68FA681A617B6823
S31500003980BA685A617B68FA699A6100BF2437BD46F6
S315000039905DF8047B704700BF300B00202C0B002025
S315000039A0280B002080B487B000AF78607B689B69E5
S315000039B07B617B69002B26D07B681B693B617A683B
S315000039C03B699A4208D17B691B687A689A4217D18B
S315000039D07B6900221A6013E07B685B69FB603B69C8
S315000039E0FA685A61FB683A691A617B691B687A68EA
S315000039F09A4205D13B697A699A617B693A691A608C
S31500003A007B6800229A6100BF1C37BD465DF8047BC7
S31500003A107047FFFF80B588B000AFF860B9607A6084
S31500003A203B600023FB61FB68002B02D10223FB6194
S31500003A3029E0FB681B68274A934202D00223FB61F8
S31500003A4021E0BB68002B02D10323FB611BE07B68EE
S31500003A50002B02D10523FB6115E0FB68DB697A6860
S31500003A609A4202D90523FB610DE03B68002B0AD080
S31500003A70EFF30583BB61BA69174B1B681343002B31
S31500003A8001D00423FB61FB69002B14D1EFF30583FE
S31500003A907B617A69104B1B681343002B0BD0EFF345
S31500003AA005833B613A690C4B1B681343B3F1F03F46
S31500003AB001D21323FB61FB69002B06D13B687A68B0
S31500003AC0B968F868FEF7AEFCF861FB69184620375E
S31500003AD0BD4680BD455459420000002080B58EB0D9
S31500003AE000AFF860B9607A603B6000237B63FB68D7
S31500003AF0002B02D102237B636AE03B6C342B02D09D
S31500003B0002237B6364E0EFF310833B623B6ABB6294
S31500003B1072B600BF364B1B680133354A1360BB6A69
S31500003B207B627B6A83F3108800BF324B1B68FB62A3
S31500003B3000233B6309E0FA68FB6A9A420BD0FB6AF2
S31500003B40DB6AFB623B6B01333B632B4B1B683A6BB7
S31500003B509A42F0D300E000BFEFF31083BB61BB696C
S31500003B60BB6272B600BF224B1B68013B204A136042
S31500003B70BB6AFB61FB6983F3108800BFFFF702FB9A
S31500003B80FA68FB6A9A4202D102237B6320E07B68D3
S31500003B90002B02D103237B631AE03B68632B02D818
S31500003BA005237B6314E0EFF305837B617A69134B8E
S31500003BB01B681343002B0BD0EFF305833B613A6977
S31500003BC00E4B1B681343B3F1F03F01D213237B6303
S31500003BD07B6B002B06D13B687A68B968F868FEF7FC
S31500003BE05FFD78637B6B18463837BD4680BD00BFE6
S31500003BF0940A0020EC090020F009002000000020B3
S31500003C0080B58EB000AFF860B9607A603B60002383
S31500003C107B63FB68002B02D10C237B6348E03B6887
S31500003C201C2B02D00C237B6342E0EFF310833B6234
S31500003C303B6ABB6272B600BF304B1B6801332F4A2A
S31500003C401360BB6A7B627B6A83F3108800BF2C4BD0
S31500003C501B68FB6200233B6309E0FA68FB6A9A4231
S31500003C600BD0FB6A5B69FB623B6B01333B63254B05
S31500003C701B683A6B9A42F0D300E000BFEFF3108363
S31500003C80BB61BB69BB6272B600BF1C4B1B68013BC4
S31500003C901A4A1360BB6AFB61FB6983F3108800BF95
S31500003CA0FFF770FAFA68FB6A9A4201D10C237B632C
S31500003CB07B6B002B14D1EFF305837B617A69124B82
S31500003CC01B681343002B0BD0EFF305833B613A6966
S31500003CD00D4B1B681343B3F1F03F01D213237B63F3
S31500003CE07B6B002B05D17A68B968F868FEF726FF6A
S31500003CF078637B6B18463837BD4680BD940A002032
S31500003D00E4090020E80900200000002080B584B006
S31500003D1000AF786039600023FB607B68002B02D11E
S31500003D200C23FB6015E07B681B68104A934202D0A7
S31500003D300C23FB600DE03B68002B0AD0EFF30583F4
S31500003D40BB60BA680A4B1B681343002B01D00423DF
S31500003D50FB60FB68002B04D139687868FEF740FFEA
S31500003D60F860FB6818461037BD4680BD414D455387
S31500003D700000002080B584B000AF78607B68002B1F
S31500003D8002D10C23FB600BE07B681B68074A934259
S31500003D9002D00C23FB6003E07868FEF7B3FFF860FF
S31500003DA0FB6818461037BD4680BD00BF414D4553E0
S31500003DB080B598B006AFF860B9607A603B600023C2
S31500003DC07B64FB68002B02D10E237B64B0E0BB6EE4
S31500003DD0B02B02D00E237B64AAE0EFF310837B6244
S31500003DE07B6A7B6372B600BF5F4B1B6801335E4A1A
S31500003DF013607B6BBB62BB6A83F3108800BF002332
S31500003E003B645A4B1B68BB633B6D3B637B6D013B5D
S31500003E103A6B13443B633B6BFB620023FB632BE073
S31500003E20FA68BB6B9A4201D101233B643B6C012BC0
S31500003E3028D0BB6BDB683A6D9A4208D3BB6B1B6913
S31500003E403A6D9A4203D200233B6501233B64BB6B68
S31500003E50DB68FA6A9A4208D3BB6B1B69FA6A9A4214
S31500003E6003D200233B6501233B64BB6BD3F8883048
S31500003E70BB63FB6B0133FB633D4B1B68FA6B9A42DA
S31500003E80CED300E000BFEFF31083FB61FB697B63D9
S31500003E9072B600BF344B1B68013B334A13607B6B21
S31500003EA03B623B6A83F3108800BFFFF76BF9FA6841
S31500003EB0BB6B9A4202D10E237B6439E03B6D002B2B
S31500003EC002D103237B6433E07B68002B02D10323FA
S31500003ED07B642DE07B6DC72B02D805237B6427E02E
S31500003EE0BB6D1F2B02D90F237B6421E0FA6DBB6DDE
S31500003EF09A4202D918237B641AE07B6E012B02D901
S31500003F0010237B6414E0EFF30583BB61BA69194B98
S31500003F101B681343002B0BD0EFF305837B617A6993
S31500003F20144B1B681343B3F1F03F01D213237B6498
S31500003F307B6C002B12D17B6E05933B6E0493FB6D5D
S31500003F400393BB6D02937B6D01933B6D00933B68BE
S31500003F507A68B968F868FEF72DFF78647B6C1846B6
S31500003F604837BD4680BD00BF940A0020040A0020E1
S31500003F70080A00200000002080B483B000AF03468A
S31500003F803960FB7197F90730002B0ADB3B68DAB220
S31500003F900C4997F907301201D2B20B4483F800237B
S31500003FA00AE03B68DAB20849FB7903F00F03043BE9
S31500003FB01201D2B20B441A7600BF0C37BD465DF82B
S31500003FC0047B704700E100E000ED00E080B582B0C0
S31500003FD000AF78607B68013BB3F1807F01D301239A
S31500003FE00FE00A4A7B68013B53600F214FF0FF3018
S31500003FF0FFF7C2FF054B00229A60044B07221A60A6
S31500004000002318460837BD4680BD00BF10E000E01B
S3150000401080B500AF72B600BF134A144B1A60144B3A
S315000040201B68144A1360144B1B68134A43F00103C0
S315000040301360124B1B68124AA2FB03239B09184606
S31500004040FFF7C4FF00214FF0FF30FFF795FFFF2178
S315000040506FF00400FFF790FFFF216FF00100FFF7FC
S315000040608BFF00BF80BD00BFB41B0020F4090020F9
S3150000407000000000F8090020001000E09C0B002062
S31500004080D34D621080B483B000AF72B600BF2B4B25
S315000040901B687B602A4A7B6813607B68002B06D00E
S315000040A0284B4FF000625A6062B600BF3FE0264BD5
S315000040B09B899AB2254B1A80244B1B889BB21BB254
S315000040C0002B13DA204BB3F8FE339BB21A46204B73
S315000040D01A601D4B4AF20252A3F8FE231B4B1B88A3
S315000040E09BB2194AC3F30E039BB29381BFF34F8F62
S315000040F000BF30BFBFF36F8F00BF144B1B889BB24E
S315000041001BB2002B0DDA104B104A128892B29A811C
S315000041100F4B1B689AB20C490E4B13439BB2A1F886
S31500004120FE3362B600BFBFF36F8F00BFADE77B689B
S3150000413018460C37BD465DF8047B7047000A002020
S31500004140FC09002000ED00E000E00140440B0020E7
S31500004150480B002000A5FFFF80B400AF074B0022EC
S315000041601A60EFF3148C2CF0040C8CF3148862B6EE
S3150000417000BF034B4FF080525A60FEE7940A0020BE
S3150000418000ED00E01C48016800292DD0EFF30983FB
S3150000419023E9F00F1EF0100F01D123ED108A43F82A
S315000041A004ED8B60154C236813B18B6100232360EB
S315000041B0134E3668D6B10660706801307060B0691B
S315000041C02060F16801F1280181F30B88B36853F888
S315000041D004EB1EF0100F01D1B3EC108AB3E8F00F18
S315000041E083F309887047FEE7044CE1E7FFF74AFFCF
S315000041F00646E1E700BF0000FC090020400B002056
S31500004200000A002080B500AF00F034F800BF80BD82
S3150000421080B584B000AF786039607B681B6923F095
S315000042200703FB60FB68403BFB60FB68043BFB60ED
S315000042307B68FA689A60FB686FF002021A60FB6896
S315000042400433FB6034220021F86801F08AFCFB6825
S3150000425034334FF0FF321A60FB6838333A681A601D
S31500004260FB683C334FF080721A6000BF1037BD46C2
S3150000427080BDFFFF80B500AF2A4B1B680133294A7A
S315000042801360294B1B68002B0BD0274B1B68013B87
S31500004290254A1360244B1B68002B02D1234B0122B5
S315000042A01A60234B1B681B68002B03D0214B01228D
S315000042B01A600EE01E4B1B6804331D4A13601C4B2C
S315000042C01A681D4B1B689A4203D11C4B1B68184A7F
S315000042D01360164B1B68002B03D1164B1B68002B73
S315000042E00BD0144B1B68002B01D0FFF7FFF90F4BC7
S315000042F01B68002B01D0FFF753F9114B1B68002BED
S315000043000DD0104B1A680E4B1B689A4207D00E4B05
S315000043101B68002B03D10D4B4FF080525A6000BF33
S3150000432080BD00BFA00A0020400B0020A40A002088
S31500004330300B0020340B00202C0B0020280B002013
S31500004340000A0020FC090020940A002000ED00E08D
S3150000435080B483B000AF0346FB800A49FB881B0A82
S315000043609BB21A46FB88DBB21201134451F8233084
S31500004370C3F34003DBB218460C37BD465DF8047B39
S31500004380704700BF0008084080B485B000AF002326
S31500004390FB60EFF310837B607B68FB600123BB60EF
S315000043A0BB6883F3108800BF0D4B1B68002B05D13B
S315000043B00C4B0022DA700B4B4022DA70084B1B685C
S315000043C00133074A1360FB683B603B6883F3108840
S315000043D000BF00BF1437BD465DF8047B704700BFC1
S315000043E08C0B0020000D084080B485B000AF002380
S315000043F0FB60EFF310837B607B68FB600123BB608F
S31500004400BB6883F3108800BF0F4B1B68002B04D0DA
S315000044100D4B1B68013B0C4A13600B4B1B68002BB2
S3150000442005D10A4B0022DA70084B8022DA70FB684D
S315000044303B603B6883F3108800BF00BF1437BD465E
S315000044405DF8047B704700BF8C0B0020000D084010
S3150000445080B584B000AF786039607B68FB60FB682C
S31500004460044A1A60386800F0C9F900231846103764
S31500004470BD4680BD54524F5080B485B000AF7860C1
S315000044807B68FB60FB6800221A600023184614371D
S31500004490BD465DF8047B704780B582B000AF78609A
S315000044A03960386800F0AAF9002318460837BD4677
S315000044B080BD80B588B000AFF8600B467A607B811E
S315000044C07B89BB827B683B6101233B8307F1100339
S315000044D0FB6107F11803184600F03CFAFFF754FF9A
S315000044E07B897968184600F0F9F9FFF77DFF00230C
S315000044F018462037BD4680BD80B584B000AFF86051
S315000045000B467A607B817B891846FFF721FF0346BD
S31500004510DAB27B681A70002318461037BD4680BD94
S3150000452080B487B000AFF8600B467A607B817B89E8
S315000045301B0A9BB2DBB25B0103F1804303F5002348
S315000045407B617B695B689AB27B681A800023184698
S315000045501C37BD465DF8047B704780B487B000AF5A
S31500004560F860084611461A4603467B810B463B8196
S315000045701346FB803A89FB881340FB82B7F9083063
S31500004580DB431AB2B7F9063013401BB2BB827B89F4
S315000045901B0A9BB2DBB25B0103F1804303F50023E8
S315000045A03B61BB8A1A04FB8A1A433B699A60002363
S315000045B018461C37BD465DF8047B704780B487B04B
S315000045C000AF78600B467B8013467B700023FB822E
S315000045D00023BB827B8823F0FF037B827B88DBB2D0
S315000045E03B823B8A012202FA03F3FB817B78002B94
S315000045F002D1FB89BB8201E0FB89FB827B8A1B0A15
S315000046009BB2DBB25B0103F1804303F50023BB6081
S31500004610BB8A1A04FB8A1A43BB689A6000231846B1
S315000046201C37BD465DF8047B704780B48BB000AF85
S31500004630F860084611461A4603467B810B463B81C5
S315000046401346FB807B891B0A9BB2DBB25B0103F13D
S31500004650804303F500237B627B6A1B683B623A89D1
S31500004660FB8813409BB2FB613B89DA43FB8813400E
S31500004670BB613B6A7B617A69FB6913437B61BB69FA
S31500004680DB437A6913407B617B6A7A691A6000238F
S3150000469018462C37BD465DF8047B704780B487B05A
S315000046A000AFF8600B467A607B817B891B0A9BB260
S315000046B0DBB25B0103F1804303F500237B617B6979
S315000046C05B68C3F30F439AB27B681A8000231846CF
S315000046D01C37BD465DF8047B704780B487B000AFD9
S315000046E0F8600B467A607B817B891B0A9BB2DBB242
S315000046F05B0103F1804303F500237B617B695B6803
S31500004700C3F30F437B827B89DBB2012202FA03F3F8
S315000047103B827A8A3B8A13409BB23A8A9A4203D1F9
S315000047207B6801221A7002E07B6800221A7000235F
S3150000473018461C37BD465DF8047B704780B487B0C9
S3150000474000AFF860084611461A4603467B810B46C1
S315000047503B811346FB803A89FB881340FB82B7F9FD
S315000047600830DB431AB2B7F9063013401BB2BB82DE
S315000047707B891B0A9BB2DBB25B0103F1804303F525
S3150000478000233B61BB8A1A04FB8A1A433B69DA6041
S31500004790002318461C37BD465DF8047B704780B57C
S315000047A084B000AF78600B467B8013467B707B88B5
S315000047B07B817B8923F0FF037B817B893B810023FF
S315000047C0FB810023BB817B78012B06D17B88DBB282
S315000047D0012202FA03F3FB8105E07B88DBB20122AA
S315000047E002FA03F3BB817B78BA89F989388900F02C
S315000047F030F8002318461037BD4680BD80B584B01A
S3150000480000AF7860786800F0A5F87B68BB60FFF7BA
S31500004810BBFD0023FB8111E0BB685A68FB89DB0006
S3150000482013449888BB685A68FB89DB0013441B68ED
S31500004830194600F053F8FB890133FB81BB681B88DE
S31500004840FA899A42E8D3FFF7CFFD00BF1037BD467D
S3150000485080BD90B484B000AF0446084611461A469F
S315000048602346FB800346BB800B467B8013467B704A
S315000048700023FB60FB881B0A9BB2DBB25B0103F1E2
S31500004880804303F50023BB60BB68DB68FB607B7875
S31500004890012B0DD1BB88FA681343FB607B881B0490
S315000048A06FEA13436FEA0343FA681340FB600CE0B8
S315000048B07B881B04FA681343FB60BB886FEA0343DB
S315000048C06FEA1343FA681340FB60BB68FA68DA6064
S315000048D000BF1037BD4690BC7047FFFF80B483B061
S315000048E000AF03463960FB803B6803F48033002B3E
S315000048F01CD01749FB881B0A9BB21A46FB88DBB201
S3150000490012011A4451F822306FF3104341F8223055
S315000049100F48FB881B0A9BB21946FB88DBB23A6834
S3150000492022F4803209010B4440F823200849FB8811
S315000049301B0A9BB21A46FB88DBB2120113443A6883
S3150000494041F8232000BF0C37BD465DF8047B704755
S315000049500008084080B586B000AF786000237B6110
S315000049606DE000233B6164E07B685A687B69DB008D
S3150000497013449A8837493B6931F813309A4255D126
S315000049807B685A687B69DB0013441B6803F0F853A5
S31500004990FB60FB68B3F1807F03D0FB68B3F1106F57
S315000049A021D12D4B93F8BB34DAB201213B6901FAD0
S315000049B003F3DBB21340DBB2002B37D1012000F04A
S315000049C051FB254B93F8BB34DAB201213B6901FA5E
S315000049D003F3DBB220491343DBB281F8BB34012079
S315000049E000F0F0FA22E01C4B93F8BB34DAB2012156
S315000049F03B6901FA03F3DBB21340DBB2002B15D09F
S31500004A00012000F02FFB144B93F8BB34DAB20121DE
S31500004A103B6901FA03F3DBB2DB43DBB20E49134019
S31500004A20DBB281F8BB34012000F0CCFA3B690133DC
S31500004A303B613B69022B97D97B6901337B617B68BC
S31500004A401B881A467B6993428BD300BF00BF183779
S31500004A50BD4680BDEC84000000E0014080B400AF9C
S31500004A600C4B0122A3F8042100BF0A4BB3F8043112
S31500004A709BB2002BF9D1074B0122A3F80021064B6C
S31500004A8001229A60044B01221A6000BFBD465DF800
S31500004A90047B704700C001400070004080B483B0C2
S31500004AA000AF0B4B93F82630DBB27B60094A7B687C
S31500004AB052F82330064A126AC2F30262D2B2D340D7
S31500004AC0054A136000BF0C37BD465DF8047B70478E
S31500004AD000E00140DC0100209C0B002080B500AF07
S31500004AE0074B032283F81C21064B074A1A62054B23
S31500004AF0052283F82620FFF7D1FF00BF80BD00BF47
S31500004B0000C0014000E001402112012080B500AF45
S31500004B100B4B0C4A1A600A4B0B4A5A60084B4FF46F
S31500004B2000429A60064B094ADA60054B4FF4004290
S31500004B301A61034B064A5A61FFF7B0FF00BF80BDFA
S31500004B40DC010020002D310100127A0000366E01D2
S31500004B5000B0710B80B500AF3D4B4AF20352A3F88B
S31500004B60FE23FFF77BFFFFF7D1FF394B002283F8C7
S31500004B701324374B092283F8A220354B93F880344F
S31500004B80DBB2002B08D1324B012283F880240121AD
S31500004B9040F2C44000F0A2F82D4B002283F8812495
S31500004BA02B4B002283F88024294B002283F83220E5
S31500004BB000BF274B93F83C30C3F3C003DBB2012B95
S31500004BC0F7D1234B42F602721A85214B002283F855
S31500004BD02A2000BF1E4B93F83C30C3F34013DBB2D0
S31500004BE0012BF7D1FFF77AFF194B012283F830200A
S31500004BF0174B012283F85220154A92F8743043F07D
S31500004C00400382F8743000BF114B93F87430C3F33D
S31500004C10C013DBB2012BF7D10D4B022283F86C20B7
S31500004C200B4B452283F87420094B052283F8742028
S31500004C3000BF074B93F87430C3F3C013DBB2002BED
S31500004C40F7D1034B4FF42542A3F8FE2300BF80BDE6
S31500004C5000E0014080B500AF194B002283F8282000
S31500004C600121C82000F03AF8154B002283F82420D1
S31500004C7000BF134B93F82430DBB2002BF9D1104A56
S31500004C8092F8243043F0020382F8243000BF0C4B24
S31500004C9093F82430C3F34003DBB2002BF7D1084B63
S31500004CA0002283F82220012000F0DCF9054B0022C7
S31500004CB083F8BB24012000F085F900BF80BD00BF4A
S31500004CC00030084000E0014080B485B000AFF860D5
S31500004CD0B9607A603B6000BEFEE7FFFF2DE9B04F8A
S31500004CE090B000AFF861B9610023FB63FB69BA6954
S31500004CF002FB03F3BB63504B1B687B634F4A7B6B22
S31500004D00B2FBF3F33B63BB6B00223B617A61D7E9ED
S31500004D1004234FF000004FF00001590141EAD2612F
S31500004D20500102460B463969B2EB0108796963EB1B
S31500004D3001094FF000024FF000034FEA890343EAEE
S31500004D4098734FEA880290469946D7E904120B46B3
S31500004D5018EB03033B60134649EB03037B604FF0FC
S31500004D6000024FF00003D7E900894946CB004146CF
S31500004D7043EA51734146CA00C7E90A23D7E90A2321
S31500004D80012B08D2BA6A3B6BB2FBF3F37B627B6AF8
S31500004D909B08FB6344E03B6B9B00BA6BB2FBF3F3EF
S31500004DA0BB63BB6B0022BB60FA60D7E9028942464F
S31500004DB04B464FF000004FF00001590141EAD26125
S31500004DC0500102460B464146541A494663EB01051B
S31500004DD04FF000024FF00003AB0043EA9473A200C9
S31500004DE014461D46434614EB030A4B4645EB030B9C
S31500004DF04FF000024FF000034FEACB0343EA5A7329
S31500004E004FEACA0292469B46C7E90AABD7E90A238C
S31500004E10012B02D2BB6AFB6302E04FF0FF33FB6358
S31500004E20FB6B002B02D0F86B00F00AF800BF40378E
S31500004E30BD46BDE8B08F00BF9C0B002000CA9A3B60
S31500004E40A0F101000028FBD1704700BF80B582B0F9
S31500004E5000AF0346FB71FB79074A52F82330002B5B
S31500004E6006D0FB79044A52F82330FA79104698475F
S31500004E7000BF0837BD4680BD4C0B002080B582B010
S31500004E8000AF104BB3F84031BB800023FB710EE03E
S31500004E90BA88FB7922FA03F303F00103002B03D04F
S31500004EA0FB791846FFF7D2FFFB790133FB71FB79DB
S31500004EB00F2BEDD9034ABB88A2F8303100BF083763
S31500004EC0BD4680BD0060004080B58AB000AF0320BB
S31500004ED000F0C8F8364B6FF0FF029A643B1D0C22B7
S31500004EE0FF21184600F03DFE00237B6221E0314A97
S31500004EF07B6A32F81330002B18D07B6A5B097B6122
S31500004F007B6A03F01F033B617B699B0028333B44AC
S31500004F1053F8242C01213B6901FA03F3DB431A40C1
S31500004F207B699B0028333B4443F8242C7B6A01337E
S31500004F307B627B6A5F2BDAD91F4BBB6100233B6226
S31500004F4018E03B6A9B00BA691A443B6A9B00283307
S31500004F503B4453F8243C136018493B6A9B002833B2
S31500004F603B4453F8242C3B6AA03341F823203B6A88
S31500004F7001333B623B6A022BE3D9032000F022F89F
S31500004F800023FB610CE00B4AFB6932F813300C4A34
S31500004F901946FB69C03342F82310FB690133FB61F4
S31500004FA0FB695F2BEFD900BF00BF2837BD4680BD28
S31500004FB000800040F48400007080004000E100E0C2
S31500004FC00060004080B487B000AF0346FB71002349
S31500004FD07B61EFF31083FB60FB687B6101233B6120
S31500004FE03B6983F3108800BFFB791A4A32F8133005
S31500004FF09BB2002B09D0FB79164A32F8132092B2E5
S31500005000013A91B2134A22F81310FB79114A32F889
S3150000501013309BB2002B11D10F4BB3F8FE339AB26B
S315000050200E4B13439AB2FB790D4931F81330DB432B
S315000050309BB2094913409BB2A1F8FE337B69BB6062
S31500005040BB6883F3108800BF00BF1C37BD465DF800
S31500005050047B7047900B002000E0014000A5FFFF95
S31500005060B485000080B487B000AF0346FB7100230F
S315000050707B61EFF31083FB60FB687B6101233B617F
S315000050803B6983F3108800BFFB79164A32F8133068
S315000050909BB2002B0FD1144BB3F8FE339AB2FB79B7
S315000050A0124931F8133013439AB20F49104B134388
S315000050B09BB2A1F8FE33FB790A4A32F8132092B26A
S315000050C0013291B2074A22F813107B69BB60BB68B4
S315000050D083F3108800BF00BF1C37BD465DF8047B14
S315000050E0704700BF900B002000E00140B48500002F
S315000050F000A5FFFF80B584B000AF78607B68FB60D9
S31500005100144B1B68002B02D1124B134A1A60114B29
S315000051101B68BB60FB68033323F00303FB600D4B86
S315000051201A68FB6813440D4A934207D900F006FD3E
S3150000513003460C221A604FF0FF3306E0054B1A684F
S31500005140FB681344034A1360BB6818461037BD4614
S3150000515080BD00BF980B0020B00B0020B0130020CC
S3150000516080B500AF00F00CF8FDF754F9FEE780B407
S3150000517000AF00BE00BFBD465DF8047B7047FFFF71
S3150000518080B584B000AF314B4FF47002C3F888206D
S315000051902E4B2F4A9A600020FDF720F8FFF7DAFC25
S315000051A00120FDF71BF82A4B1B68A3F580633B60C3
S315000051B03B6883F30A8800BF264A274BD31A1A4650
S315000051C00021254800F0CDFC244A254BD31A1A4667
S315000051D02449234800F0B8FC234A244BD31A9B10D9
S315000051E07B600023FB6007E0204AFB6852F823300F
S315000051F09847FB680133FB60FA687B689A42F3DBE9
S31500005200FFF74CFCFFF726FD0320FFF72BFF0023DB
S31500005210BB6009E0164ABB6808334FF6FF7122F8F7
S315000052201310BB680133BB60BB68082BF2D903209F
S31500005230FFF7C8FE0220FCF7D1FFFFF745FE00206E
S3150000524000F018F800BF1037BD4680BD00ED00E045
S3150000525000000000B00B0020F8010020DC01002057
S315000052600000002074890000D8010020D40100202D
S31500005270000D084080B483B000AF786000BF0C37E3
S31500005280BD465DF8047B704781F0004102E000BF37
S3150000529083F0004330B54FEA41044FEA430594EAF0
S315000052A0050F08BF90EA020F1FBF54EA000C55EA2B
S315000052B0020C7FEA645C7FEA655C00F0E2804FEAFC
S315000052C05454D4EB5555B8BF6D420CDD2C4480EADE
S315000052D0020281EA030382EA000083EA010180EA0E
S315000052E0020281EA0303362D88BF30BD11F0004F5C
S315000052F04FEA01314FF4801C4CEA113102D0404292
S3150000530061EB410113F0004F4FEA03334CEA1333CC
S3150000531002D0524263EB430394EA050F00F0A780E4
S31500005320A4F10104D5F1200E0DDB02FA0EFC22FADF
S3150000533005F2801841F1000103FA0EF2801843FAD3
S3150000534005F359410EE0A5F120050EF1200E012AC4
S3150000535003FA0EFC28BF4CF0020C43FA05F3C01802
S3150000536051EBE37101F0004507D54FF0000EDCF17B
S31500005370000C7EEB00006EEB0101B1F5801F1BD324
S31500005380B1F5001F0CD349085FEA30004FEA3C0C28
S3150000539004F101044FEA445212F5800F80F09A801E
S315000053A0BCF1004F08BF5FEA500C50F1000041EB22
S315000053B0045141EA050130BD5FEA4C0C404141EB26
S315000053C00101013C28BFB1F5801FE9D291F0000F21
S315000053D004BF01460020B1FA81F308BF2033A3F1D0
S315000053E00B03B3F120020CDA0C3208DD02F1140CC7
S315000053F0C2F10C0201FA0CF021FA02F10CE002F102
S315000054001402D8BFC2F1200C01FA02F120FA0CFCFA
S31500005410DCBF41EA0C019040E41AA2BF01EB045143
S31500005420294330BD6FEA04041F3C1CDA0C340EDC41
S3150000543004F11404C4F1200220FA04F001FA02F384
S3150000544040EA030021FA04F345EA030130BDC4F142
S315000054500C04C4F1200220FA02F001FA04F340EA37
S315000054600300294630BD21FA04F0294630BD94F0E8
S31500005470000F83F4801306BF81F480110134013DCF
S315000054804EE77FEA645C18BF7FEA655C29D094EA40
S31500005490050F08BF90EA020F05D054EA000C04BFBE
S315000054A01946104630BD91EA030F1EBF00210020A9
S315000054B030BD5FEA545C05D14000494128BF41F048
S315000054C0004130BD14F580043CBF01F5801130BDAC
S315000054D001F0004545F0FE4141F470014FF0000037
S315000054E030BD7FEA645C1ABF194610467FEA655CE8
S315000054F01CBF0B46024650EA013406BF52EA03358A
