S01D0000454B5F5241364D345F546872656164585F44656D6F2E73726563DB
S31500000000281E0020E9800000E97D0000F98000003C
S31500000010F9800000F9800000F9800000F9800000F6
S31500000020000000000000000000000000F980000051
S31500000030F980000000000000DD6400005D6500003E
S31500000040AB700000D36F000077710000CF71000025
S31500000050AB700000D36F000077710000CF71000015
S31500000060AB700000D36F000077710000CF71000005
S31500000070000000000000000000000000000000007A
S31500000080000000000000000000000000000000006A
S31500000090000000000000000000000000000000005A
S315000000A0000000000000000000000000000000004A
S315000000B0000000000000000000000000000000003A
S315000000C0000000000000000000000000000000002A
S315000000D0000000000000000000000000000000001A
S315000000E0000000000000000000000000000000000A
S315000000F000000000000000000000000000000000FA
S3150000010000000000000000000000000000000000E9
S3150000011000000000000000000000000000000000D9
S3150000012000000000000000000000000000000000C9
S3150000013000000000000000000000000000000000B9
S3150000014000000000000000000000000000000000A9
S315000001500000000000000000000000000000000099
S315000001600000000000000000000000000000000089
S315000001700000000000000000000000000000000079
S315000001800000000000000000000000000000000069
S315000001900000000000000000000000000000000059
S315000001A00000000000000000000000000000000049
S315000001B00000000000000000000000000000000039
S315000001C00348044B834202D0034B03B118477047E0
S315000001D0600300206003002000000000064B074972
S315000001E0C91A891048BF0131491003D0044B0BB11D
S315000001F001481847704700BF6003002060030020D5
S315000002000000000010B5064C237843B9FFF7D8FF6D
S31500000210044B13B10448AFF300800123237010BDD3
S315000002208003002000000000A0C5000008B5054BB3
S315000002301BB105490548AFF30080BDE80840FFF74C
S31500000240CDBF00BF0000000084030020A0C5000051
S3150000025080B584B000AF786039607B68FB603B682E
S315000002601B689B681B683A68126810683A681268CF
S31500000270526811469847B860BB68002B01D0BB682E
S315000002801DE03B681A7AFB685A723B685A68FB683D
S315000002901A603B681A68FB685A603B685B7A002BF9
S315000002A00CD03B68596801230022F86800F0AEF8CC
S315000002B0B860BB68002B01D0BB6800E0002318467D
S315000002C01037BD4680BD80B584B000AF78607B68CE
S315000002D0FB60FB685B689B685B68FA68526812683B
S315000002E010469847B860BB68002B01D0BB6800E099
S315000002F0002318461037BD4680BDFFFF80B58AB083
S3150000030002AFF860B9607A603B60FB68BB613C494C
S31500000310786800F0F1F90346002B0CD00022B9688A
S31500000320B86900F033FB38613B69002B01D03B69AB
S3150000033062E0002360E03349786800F0DDF90346A7
S31500000340002B10D0BB691B681B68002B09D0BB694A
S315000003501B681A68BB691A603A687968B86900F060
S31500000360D3FB002348E02849786800F0C5F9034626
S31500000370002B11D004E0BB691B681A68BB691A60C0
S31500000380BB691B681B68002BF5D13A687968B869A8
S3150000039000F0BAFB00232FE00023FB6126E0BB68D8
S315000003A0DA68FB691B0113441B681946786800F07C
S315000003B0A3F978617B69002B15DDBB68DA68FB69F8
S315000003C01B0113449968BB68DA68FB691B01134477
S315000003D0DA687B6901933B6800937B68B86900F033
S315000003E0CDFB002308E0FB690133FB61BB689B681A
S315000003F0FA699A42D3D3062318462037BD4680BDF4
S3150000040074B0000078B000007CB0000080B586B003
S3150000041000AFF860B9607A60FB70FB683B61BB684F
S31500000420002B02D03B69BA681A60FB78002B0CD00F
S315000004303B691B685B6800221946386900F097F82B
S3150000044000223049386900F092F83B695B689B6886
S315000004501B693A69526810687A6801219847786181
S315000004607B69002B01D07B6948E03B6903F10A01F7
S315000004707B688022386900F04BF878617B69002B35
S3150000048009D03B695B689B685B693A695268126888
S315000004900121104698477B69002B01D07B692DE02E
S315000004A03B699B7A002B1ED03B6919683B6903F1B7
S315000004B00A0280233869FFF721FF78617B69062BE2
S315000004C011D100221049386900F051F83B691B68C8
S315000004D05B6800221946386900F049F800220B498A
S315000004E0386900F044F83B695B689B685B693A6968
S315000004F0526812680121104698477B6918461837DA
S31500000500BD4680BD80B0000084B0000094B00000FD
S3150000051080B586B000AFF860B9607A603B60FB6872
S315000005207B617B695B689B681B697A6952681068A6
S315000005303A680121984738613B69002B01D03B6935
S3150000054011E03B687A68B968786900F0F1FC3861B7
S315000005507B695B689B685B697A69526812680121EE
S31500000560104698473B6918461837BD4680BD90B57A
S3150000057089B000AFF860B9607A60FB68FB61B86863
S3150000058009F021F8B861BB69002B01D1172316E0E9
S31500000590BB697F2B01D9172311E0FB695B689B6858
S315000005A0DC68FB695B6818687B68BA69B968A0474C
S315000005B078617B69002B01D07B6900E00023184637
S315000005C02437BD4690BDFFFF80B588B000AFF86008
S315000005D0B9607A603B600023FB6158E0FB69002B41
S315000005E006D0FB69013BBA6813441B78202B4BD11C
S315000005F0FB69BA6813441B78FB76FB7E01332D4AF0
S31500000600134493F90030DBB203F00303022B03D14A
S31500000610FB7EA3F1200200E0FA7EFB681B78BB7626
S31500000620BB7E013323490B4493F90030DBB203F060
S315000006300303022B02D1BB7E203B00E0BB7E9A4225
S3150000064022D1FB69BA681344F968184600F054F8D9
S3150000065078617B69002B17D0FA697B6913443B618B
S315000006607B68002B02D07B683A691A603B68002BD6
S3150000067008D03B69BA681344184608F033FA0246B4
S315000006803B681A60002311E0FB690133FB61FB69DB
S31500000690BA6813441B78002BA0D17B684FF0FF3259
S315000006A01A603B684FF0FF321A6064231846203701
S315000006B0BD4680BD68C2000080B584B000AF7860DA
S315000006C07B689B68FB607B681B68BB60BB68FA68DD
S315000006D01A607B685B681B78002B08D07B681868FB
S315000006E07B685A687B68DB68F968FFF707FE00BF1E
S315000006F01037BD4680BDFFFF80B489B000AF78607B
S3150000070039600023FB6132E0FB697A6813441B7889
S31500000710BB61BB690133234A134493F90030DBB252
S3150000072003F00303022B02D1BB69203B00E0BB6947
S315000007307B61FB693A6813441B783B613B69013373
S31500000740184A134493F90030DBB203F00303022B7B
S3150000075002D13B69203B00E03B69FB607A69FB689C
S315000007609A4201D0002317E0FB690133FB61FB6964
S315000007703A6813441B78002BC6D1FB697A68134488
S315000007801B78002B07D0FB697A6813441B78202B53
S3150000079001D0002300E0FB6918462437BD465DF80A
S315000007A0047B704768C2000080B588B000AFF8606F
S315000007B0B9607A603B603B681B68FB617A68FB69DD
S315000007C09A4257D2BA687B681344BB610BE07B68D8
S315000007D00133BA681A44B9687B680B4412781A70F8
S315000007E07B6801337B60FB69013B7A689A42EED3F2
S315000007F0BA687B68134420221A70BA68FB691344EE
S3150000080000221A70FB685B7A002B11D00022B969AE
S31500000810F868FFF7ACFE78617B69002B08D1B869F0
S3150000082008F0D1FE03461A460021F86800F080F869
S31500000830BA687B68134400221A70FB69013BFB61AE
S315000008403B68FA691A60FB69002B13D1FB685B7A77
S31500000850002B0FD0FB685B689B685B69FA6852687F
S31500000860126800211046984738613B69002B01D079
S315000008703B6900E0002318462037BD4680BD80B5A1
S3150000088088B000AFF860B9603B601346FB71BA6888
S315000008903B681344BB61BB6AFB610BE0FB69013B30
S315000008A0BA681A44B968FB690B4412781A70FB6976
S315000008B0013BFB61FA693B689A42EFD8BA683B682C
S315000008C01344FA791A70BB6A0133BA6813440022DA
S315000008D01A70FB685B7A002B25D0BB6A002B0FD100
S315000008E0FB685B689B681B69FA685268106800229F
S315000008F00021984778617B69002B01D07B6913E062
S315000009000022B969F868FFF732FE78617B69002B2F
S3150000091009D1B86908F057FE0346013B1A46002183
S31500000920F86800F005F8002318462037BD4680BD5C
S3150000093080B586B000AFF8600B467A60FB72FB6844
S315000009405B7A002B1ED01B233B745B237B74FB7AE4
S31500000950002B02D14423BB7401E04323BB74002364
S31500000960FB7400237B6109E007F11003002219469E
S31500000970F868FFF7FCFD7B6901337B617A697B6868
S315000009809A42F1D300BF1837BD4680BD90B587B0F7
S3150000099000AFF860B9607A60FB685B689B681B69AA
S315000009A0FA68526810687A680021984738613B698E
S315000009B0002B01D03B6993E0FB685B689B68DC68B1
S315000009C0FB685B681868002302224749A047BB689A
S315000009D05B6800221946F868FFF7C9FD0022434903
S315000009E0F868FFF7C4FDFB681B681B68002B29D05D
S315000009F0FB685B689B68DC68FB685B6818680023BB
S31500000A0004223949A04700223949F868FFF7AFFDAB
S31500000A1000223849F868FFF7AAFDFB685B689B6807
S31500000A20DC68FB685B681868002304222E49A0472F
S31500000A3000223149F868FFF79AFD00222F49F8682D
S31500000A40FFF795FD00237B6135E0FB685B689B68DB
S31500000A50DC68FB685B681868002304222249A0470B
S31500000A60BB68DA687B691B0113441B6800221946C0
S31500000A70F868FFF77CFDBB68DA687B691B011344E5
S31500000A805B68002B0FD000221D49F868FFF76FFD49
S31500000A90BB68DA687B691B0113445B680022194650
S31500000AA0F868FFF764FD00221649F868FFF75FFD56
S31500000AB07B6901337B61BB689B687A699A42C4D3C0
S31500000AC000221049F868FFF752FDFB685B689B68D7
S31500000AD05B69FA685268126800211046984700233D
S31500000AE018461C37BD4690BD54B00000A0B00000AB
S31500000AF07CB00000B0B0000078B00000C8B00000C4
S31500000B00E0B00000E4B0000080B586B000AFF86049
S31500000B10B9607A607B68002B2CD0BB681B78002BF1
S31500000B2028D001237B6102E07B6901337B61BA68CF
S31500000B307B6913441B78002B0AD07B69013BBA689A
S31500000B4013441B78202B03D07A697B689A42EBD337
S31500000B50BA687B6913441B78002B0BD0FB681968B5
S31500000B60BA687B69D0187A687B69D31A0246F86836
S31500000B70FFF7C4FB00BF1837BD4680BD80B588B0FF
S31500000B8000AFF860B9607A603B60BB68002B2ED07E
S31500000B9002E0FB6A0133FB62FB6A3A6813441B7886
S31500000BA0002B09D0FB6A013B3A6813441B78202BC3
S31500000BB002D0FB6A7F2BECD9FB683B617B68BB618B
S31500000BC0FB6A3A6813447B61FB6ABA6AD31AFB6113
S31500000BD0BB68B3F1E04F05D107F110031846FFF7E4
S31500000BE06BFD04E007F11002BB681046984700BF92
S31500000BF02037BD4680BD80B586B000AFF860B960CD
S31500000C007A603B60FB6803F10A027B681B68B9687F
S31500000C100B449A422BD1B86808F0D5FC78617B6901
S31500000C20002B18D0FB685B7A002B14D0FB685B683E
S31500000C309B681B69FA685268106800220021984771
S31500000C4038613B69002B01D03B6911E00022B9688D
S31500000C50F868FFF78CFC7B681A687B691A447B6826
S31500000C601A603B681A687B691A443B681A6000235D
S31500000C7018461837BD4680BD90B587B000AFF860FE
S31500000C80B9607A603B6000233B82FB685B689B68C7
S31500000C909C68FB685B68186807F110010023022254
S31500000CA0A04778617B69002B01D07B6946E03B7CDD
S31500000CB05B2B01D0642341E07B7C442B06D0442B84
S31500000CC034DC412B26D0432B13D02FE03B681B6826
S31500000CD0002B2DD07B681B68002B29D00122002118
S31500000CE0F868FFF725FE7B681B685A1E7B681A604A
S31500000CF01EE07B681A683B681B689A421AD201227A
S31500000D000121F868FFF714FE7B681B685A1C7B6894
S31500000D101A600FE03B687A68B968F868FFF76BFFFE
S31500000D2078617B69002B07D07B6907E000BF04E090
S31500000D3000BF02E000BF00E000BF002318461C37DA
S31500000D40BD4690BD80B586B000AFF860B9607A60E8
S31500000D503B607B681B68002B1AD0FB685B7A002B14
S31500000D6004D000220D49F868FFF701FC7B681B6878
S31500000D705A1E7B681A607B681A683B68B968F8680F
S31500000D80FFF712FD78617B69002B01D07B6900E0DB
S31500000D90002318461837BD4680BD00BFE8B00000E6
S31500000DA080B584B000AFF860B9607A60FB70FB680C
S31500000DB01B7A0D2B0AD1FB780A2B02D0FB78002B6D
S31500000DC004D1FB68FA781A72002311E0FB68FA78FE
S31500000DD01A72FB685B7A002B04D000220649F86879
S31500000DE0FFF7C5FBBA687B68134400221A7001231B
S31500000DF018461037BD4680BDE4B0000080B588B007
S31500000E0002AFF860B9603B601346FB7100237B615B
S31500000E107B6A00221A70FB791B2B3FDC002B65DBFB
S31500000E201B2B63D801A252F823F000BFD50E000099
S31500000E30ED0E0000ED0E0000ED0E0000ED0E0000C0
S31500000E40ED0E0000ED0E0000ED0E0000B30E0000EA
S31500000E50ED0E0000D50E0000ED0E0000ED0E0000B8
S31500000E60D50E0000ED0E0000ED0E0000ED0E0000A8
S31500000E70ED0E0000ED0E0000ED0E0000ED0E000080
S31500000E80ED0E0000ED0E0000ED0E0000ED0E000070
S31500000E90ED0E0000ED0E0000A30E00007F2B10D01B
S31500000EA024E03B6A3A68B968F868FFF7E5FE7861BE
S31500000EB033E03B6A3A68B968F868FFF743FF786140
S31500000EC02BE03B681A683B6AB968F868FFF76CFC68
S31500000ED0786122E03B6A1A68FB79B968F868FFF71F
S31500000EE05FFF03461A467B6A1A7016E03B6819686C
S31500000EF03B6A1B68FA7900930B46B968F868FFF7F6
S31500000F00BEFC78613B681B685A1C3B681A603B6AEA
S31500000F101B685A1C3B6A1A6000BF7B69002B01D014
S31500000F207B6900E0002318461837BD4680BD00BF28
S31500000F3090B58DB002AFF860B9607A603B6000236F
S31500000F407B620023FB610023BB61FB685B689B68D7
S31500000F509C68FB685B68186807F123013B680122FF
S31500000F60A04778627B6A002B01D07B6A40E00023B1
S31500000F70FB7597F8232007F11C0107F1170301936E
S31500000F8007F1180300930B46B968F868FFF736FFB8
S31500000F907862FB7D002B0BD107F11C037A6819469A
S31500000FA0F86800F029F878627B6A002B02D1CCE75A
S31500000FB000BF00E000BF7B6A002B01D07B6A17E010
S31500000FC0FB685B7A002B12D0FB69002B0FD0FB6805
S31500000FD05B689B685B69FA68526812680021104674
S31500000FE0984778627B6A002B01D07B6A00E0002379
S31500000FF018462C37BD4690BD80B586B000AFF86068
S31500001000B9607A6000237B61BB681A687B68013B24
S315000010109A420FD3FB685B7A002B09D0FB685B68AA
S315000010209B685B69FA685268126800211046984707
S315000010300C237B617B6918461837BD4680BD80B49A
S3150000104085B000AF786039600023FB60FB68184606
S315000010501437BD465DF8047B704780B485B000AF99
S3150000106078600023FB60FB6818461437BD465DF8C0
S31500001070047B704780B588B000AFF860B9607A60CD
S315000010803B600023FB61BB68BB6100237B6100F012
S31500001090F1FA38613B69B3F1FF3F08D0BB695A1CCE
S315000010A0BA613A69D2B21A707B6901337B617A6997
S315000010B07B689A4206D03B69B3F1FF3FE7D1142320
S315000010C0FB6100E000BFFB6918462037BD4680BDC6
S315000010D080B588B000AFF860B9607A603B600023E5
S315000010E07B61BB68FB610023BB61FB695A1CFA612B
S315000010F01B785BB21946002000F066FABB69013323
S31500001100BB61BA697B689A4200D0EEE700BF7B6993
S3150000111018462037BD4680BD80B487B000AFF86062
S315000011200B467A60FB7200237B617B6918461C378D
S31500001130BD465DF8047B704780B485B000AF78602B
S315000011400B46FB700023FB60FB6818461437BD4650
S315000011505DF8047B7047FFFF80B483B000AF244B7B
S315000011607B607B6803221A617B6803225A617B6875
S31500001170204A9A617B68204ADA617B684FF4806274
S315000011801A627B6800229A627B6800225A627B6838
S315000011900022DA627B68174A1A667B68174A5A6623
S315000011A07B6810229A667B6800221A677B68002299
S315000011B0DA667B6800225A677B680733104A106834
S315000011C01860BFF35F8F7B680E4A106818609188BD
S315000011D0927999809A71BFF35F8F7B6820229A710A
S315000011E0BFF35F8F00BF0C37BD465DF8047B7047C9
S315000011F09C03002004B100004404002044080020A1
S3150000120010B1000014B1000080B58AB000AFF860DC
S31500001210B9607A6000233B62FB68DB68FB61FB68B0
S315000012201B69BB61BA69FB699A4205D9BA69FB6950
S31500001230D31A013B7B6207E0FB689A68B969FB69D0
S31500001240CB1A1344013B7B62FB689A68FB69D31A8D
S315000012507A6A934228BF13467B627A6A7B68934216
S3150000126028BF13467B62FB685A68FB6913447B619F
S315000012707A6AB968786908F099F93A6A7B6A134418
S315000012803B62BA687B6A1344BB607A687B6AD31A8E
S315000012907B60FA697B6A1344FB61FB689B68FA69A9
S315000012A09A4201D10023FB61BFF35F8FFB68FA69A5
S315000012B0DA607B68002BB2D13B6A18462837BD46F8
S315000012C080BD80B588B000AFF860B9607A60FB6811
S315000012D0DB68FB61FB689A68FB69D31ABB61BA6974
S315000012E07B689A4211D9FB685A68FB6913443B61D3
S315000012F07A68B968386908F059F9BFF35F8FFA69F7
S315000013007B681A44FB68DA601FE0BB697B61FB6897
S315000013105A68FB6913443B617A69B968386908F011
S3150000132045F97A68BB69D31A7B61FB685B683B61E8
S31500001330BA68BB6913447A691946386908F036F900
S31500001340BFF35F8FFB687A69DA6000BF2037BD465E
S3150000135080BD80B487B000AF78607B681B693B6155
S315000013607B68DB68FB603A69FB689A4208D87B6851
S315000013709A68FB68D21A3B691344013B7B6104E01F
S315000013803A69FB68D31A013B7B617B6918461C37B7
S31500001390BD465DF8047B704780B58CB000AFF86041
S315000013A0B9607A603E4B3B623B6A1B785BB2002BAE
S315000013B001D1FFF7D1FEFA6813465B001344DB0048
S315000013C06033374A1344FB61BB687B62FB691B6968
S315000013D0BB62FB69DB68BB610023FB62BA6ABB695F
S315000013E09A422BD9FB699A68BB6AD31A7B617A69E0
S315000013F07B68934228BF13467B61FB695A68BB6AC8
S3150000140013443B617A693969786A08F0CFF8FA6A59
S315000014107B691344FB627A6A7B6913447B627A6850
S315000014207B69D31A7B60BA6A7B691344BB62FB692A
S315000014309B68BA6A9A4201D10023BB62BA69BB6A49
S31500001440D31A7B617A697B68934228BF13467B6116
S315000014507B69002B19D0FB695A68BB6A13443B6150
S315000014607A693969786A08F0A1F8FA6A7B691344DF
S31500001470FB627A6A7B6913447B627A687B69D31A5A
S315000014807B60BA6A7B691344BB62FB6A002B02D09D
S31500001490FB69BA6A1A61FB6A18463037BD4680BDD9
S315000014A09C03002080B586B000AFF860B9607A6012
S315000014B0EFF311834FF0200181F311887B617A6885
S315000014C0B968F868FFF768FF38617B6983F31188AC
S315000014D03B6918461837BD4680BDFFFF80B588B00A
S315000014E000AFF860B9607A60BB68BB61FB685A1CE4
S315000014F013465B001344DB001F4A13447B617B6980
S315000015005B69022B29D0022B2ED8002B02D0012B8F
S3150000151013D029E07869FFF71CFF38613A697B68C8
S315000015209A4202D20023FB6121E07B68FB617A6864
S31500001530B9697869FFF7C5FE19E07869FFF709FF11
S3150000154038617A683B69934228BF1346FB61FA69A2
S31500001550B9697869FFF7B5FE09E07A68B96978690B
S31500001560FFF752FEF86102E00023FB6100BFFB6952
S3150000157018462037BD4680BD9C03002080B588B044
S3150000158000AFF860B9607A600E4BFB61FB691B78AF
S315000015905BB2002B01D1FFF7DFFDEFF311834FF0B4
S315000015A0200181F31188BB617A68B968F868FFF792
S315000015B095FF7861BB6983F311887B6918462037EC
S315000015C0BD4680BD9C03002080B588B000AF786022
S315000015D00B46FB70264B7B617B691B785BB2002B4D
S315000015E001D1FFF7B9FDEFF311834FF0200181F32D
S315000015F011883B617B685A1C13465B001344DB0071
S315000016001B4A1344FB60FB68DB680133FB61FB6824
S315000016109B68FA699A4201D10023FB61FB685B690A
S31500001620022B05D100BFFB681B69FA699A42FAD002
S31500001630FB681B69FA699A4210D0FB685A68FB6816
S31500001640DB681344BB60BB68FA781A70BFF35F8F20
S31500001650FB68FA69DA600123BB6101E00023BB6124
S315000016603B6983F31188BB6918462037BD4680BDA8
S315000016709C03002080B582B000AFFB1C01221946F6
S315000016800020FFF70FFF03467B607B68012B04D128
S3150000169097F90330DBB27B6002E04FF0FF337B60EB
S315000016A07B6818460837BD4680BD80B584B000AF5C
S315000016B078600B46FB707B689B68FB60FB685A1C76
S315000016C07B685B689A420ED87B681A68FB6813448D
S315000016D0FA781A70FB685A1C7B689A607B68DB682C
S315000016E05A1C7B68DA607B689A687B685B689A42FA
S315000016F015D17B6818697B6819687B689B681A46F0
S31500001700FFF73CFF02467B689B689A4204D07B68E1
S315000017104FF0FF32DA6002E07B6800229A6000BF79
S315000017201037BD4680BDFFFF80B58AB000AFF860B8
S31500001730B9607A603B60BB683B6201237B62012330
S31500001740FB6107E03A6A7B68B2FBF3F33B62FB6935
S315000017500133FB613A6A7B689A42F3D23A68FB69C5
S315000017609A4201D93B68FB617B6B03F00103002BB6
S3150000177026D13B6B002B23D07B6B03F00203002B9F
S3150000178005D03B68002B02D13023FB7601E02023F5
S31500001790FB760CE03B6B013B3B6397F91B3019462C
S315000017A0F868FFF782FFFB68DB68002B07DB3B6B03
S315000017B0002B05D0FA693B6B9A42EBD300E000BFE1
S315000017C0FB68DB68002B56DB3B68012B03D93B68C3
S315000017D0013B3B6009E0BA687B6AB2FBF3F37B61CD
S315000017E07A697B689A4200D205E07B6A7A6802FBD6
S315000017F003F37B62E8E7BA687B6AB2FBF3F37B61CB
S315000018007B697A6A02FB03F3BA68D31ABB601C4A87
S315000018107B69134493F900301946F868FFF745FFD2
S31500001820FB68DB68002B08DB7A6A7B68B2FBF3F3A4
S315000018307B627B6A002BDED100E000BF7B6B03F08E
S315000018400103002B17D03B6B002B14D00AE03B6B37
S31500001850013B3B632021F868FFF727FFFB68DB6845
S31500001860002B07DB3B6B002B05D0FA693B6B9A42DA
S31500001870EDD300E000BF00BF2837BD4680BD00BFE6
S315000018801CB1000080B588B002AFF860B9607A601C
S315000018903B60BB68002BB8BF5B423B6101237B61A9
S315000018A007E07B683A6992FBF3F33B617B6901339E
S315000018B07B617B683A699A42F3DA3A687B699A42B5
S315000018C001D93B687B613B6A002B0AD0BB68002BC1
S315000018D004DB7B6A03F00403002B02D03B6A013B66
S315000018E03B627B6A03F00203002B02D03B68002BAD
S315000018F01CD07B6A03F00103002B17D13B6A002B37
S3150000190014D00AE03B6A013B3B622021F868FFF7EE
S31500001910CCFEFB68DB68002B07DB3B6A002B05D09F
S315000019207A693B6A9A42EDD300E000BFFB68DB6848
S31500001930002B4ADBBB68002B07DABB685B42BB6047
S315000019402D21F868FFF7B1FE08E07B6A03F0040377
S31500001950002B03D02B21F868FFF7A7FEFB68DB6896
S31500001960002B32DB7B6A03F00203002B1FD07B6A5D
S3150000197003F00103002B1AD13B68002B17D13B6AF9
S31500001980002B14D00AE03B6A013B3B623021F86829
S31500001990FFF78BFEFB68DB68002B07DB3B6A002B3F
S315000019A005D07A693B6A9A42EDD300E000BFFB6836
S315000019B0DB68002B09DBB9687B6A01933B6A0093FD
S315000019C03B687A68F868FFF7AFFE00BF1837BD4678
S315000019D080BDFFFF80B5A2B002AFF860B9607A6043
S315000019E007F110033B6540237B650023BB65FB685D
S315000019F03B660023FB65BB681B7887F87F30BB68B6
S31500001A000133BB6097F97F30002B00F09F8197F977
S31500001A107F30252B40F08D8100233B670123BB6778
S31500001A20BB681B7887F87F3097F97F30233B0D2BF7
S31500001A303ED801A252F823F0A11A0000B11A000004
S31500001A40B11A0000B11A0000B11A0000B11A000064
S31500001A50B11A0000B11A0000911A0000B11A000074
S31500001A60711A0000B11A0000B11A0000811A0000B4
S31500001A703B6F43F001033B67BB680133BB601AE071
S31500001A803B6F43F002033B67BB680133BB6012E068
S31500001A903B6F43F004033B67BB680133BB600AE05E
S31500001AA03B6F43F008033B67BB680133BB6002E052
S31500001AB00023BB6700BFBB6F002BB1D10023FB66C1
S31500001AC0BB681B7887F87F3097F97F302F2B12DDA4
S31500001AD097F97F30392B0EDCBB680133BB60FA6E99
S31500001AE013469B0013445B001A4697F97F30134454
S31500001AF0303BFB66E4E700237B67BB681B7887F80F
S31500001B007F3097F97F302E2B1DD1BB680133BB6028
S31500001B10BB681B7887F87F3097F97F302F2B12DD53
S31500001B2097F97F30392B0EDCBB680133BB607A6FC7
S31500001B3013469B0013445B001A4697F97F30134403
S31500001B40303B7B67E4E7BB681B7887F87F3097F903
S31500001B507F306C2B03D097F97F30682B07D1BB6899
S31500001B600133BB60BB681B7887F87F30EFE797F9D6
S31500001B707F30252B00F0D180252BC0F2D580782B25
S31500001B8000F3D280582BC0F2CF80583B202B00F2B6
S31500001B90CB8001A252F823F08F1C0000291D000003
S31500001BA0291D0000291D0000291D0000291D000017
S31500001BB0291D0000291D0000291D0000291D000007
S31500001BC0291D00001D1C0000431C0000291D0000EB
S31500001BD0291D0000291D0000291D0000291D0000E7
S31500001BE0291D0000291D0000291D0000291D0000D7
S31500001BF0291D0000291D0000F51C0000291D0000FC
S31500001C00291D0000B51C0000291D0000691C0000EC
S31500001C10291D0000291D00008F1C00007B681B6821
S31500001C20191D7A6811601B68BB67BB6F87F8673040
S31500001C3097F9672007F1500311461846FFF735FD5F
S31500001C4073E07B681B68191D7A6811601B68BB67A7
S31500001C5007F150003B6F0193FB6E00937B6F0A22E6
S31500001C60B96FFFF70FFE60E07B681B68191D7A6885
S31500001C7011601B68BB67B96F07F150003B6F01939A
S31500001C80FB6E00937B6F0A22FFF74EFD4DE07B68EB
S31500001C901B68191D7A6811601B68BB67B96F07F16D
S31500001CA050003B6F0193FB6E00937B6F1022FFF792
S31500001CB03BFD3AE07B681B68191D7A6811601B685A
S31500001CC0BB66BB6E1B7887F87F30BB6E0133BB6685
S31500001CD097F97F30002B0BD097F97F2007F150033F
S31500001CE011461846FFF7E1FCFB6D002BE9DA1CE014
S31500001CF000BF1AE07B681B68191D7A6811601B68B3
S31500001D00BB67B96F07F150000023019308230093C6
S31500001D1008231022FFF708FD07E007F150032521ED
S31500001D201846FFF7C2FC00E000BFBB680133BB608A
S31500001D3007E097F97F2007F1500311461846FFF791
S31500001D40B4FCFB6D002BBFF656AE00E000BFFB6D8A
S31500001D50002B0DDDBB6D002B06D0BA6D07F110030D
S31500001D601946F868FFF70AFCFB6DBA6D1344FB656C
S31500001D70FB6D18468037BD4680BD00BF0EB480B5EA
S31500001D8085B000AF786007F12003BB6007F1080358
S31500001D901A46F9697868FFF71DFEF860FB68184671
S31500001DA01437BD46BDE8804003B07047F0B591B02A
S31500001DB008AFF860B9600023FB6107F11003002249
S31500001DC01A605A609A603A490020FFF7D7FF394AED
S31500001DD0BB68C2F81431374B03F58871364B9A6AE3
S31500001DE00023F86803F09EFDF861FB69002B04D020
S31500001DF0FA6932490020FFF7C1FF2E4B03F1600458
S31500001E002D4B9C462C4B1D6A2B4B5E6A294BD3F8F7
S31500001E1010317B60284A926A2749C96A2648006BB6
S31500001E20B0230693012305930023049303900291A4
S31500001E3001927B68009333462A466146204604F0A9
S31500001E4089F8F861FB69002B04D0FA691C49002067
S31500001E50FFF794FF00233B61164BD3F8143107F1CB
S31500001E6010010022184603F061FFF861FB69002BA0
S31500001E7004D0FA6913490020FFF780FF0D4B03F1E8
S31500001E8034000D4B03F134012C23039301230293F9
S31500001E9041F28833019341F28833009300230A4AC2
S31500001EA004F05AF9F86100BF2437BD46F0BD00BF03
S31500001EB0B0B10000540800202CB10000D0B10000E1
S31500001EC01CB2000058B200009D20000090B585B0FD
S31500001ED000AF78600023FB60154BD3F81C31002B54
S31500001EE010D1134B0122C3F82021114B1846104B79
S31500001EF003F58E710E4BD3F820319A00002303F0C0
S31500001F0011FDF860FB68002B0ED1094A084BD3F887
S31500001F101C3160321A60064B7A68144603F58C73DE
S31500001F2093E8070084E8070000BF1437BD4690BD5C
S31500001F30540800202DE9F0438DB000AF78600023EF
S31500001F40BB6207F1100300221A605A609A604C4B7C
S31500001F50D3F8143107F110014FF0FF32184603F0A1
S31500001F60A9FE3B69022B28D0022B4FD8002B02D0AA
S31500001F70012B0BD04AE0434B00221A6042494FF036
S31500001F8000024FF00003C1E9002342E002233B6157
S31500001F903E4B7B613A4BD3F8143107F11001002216
S31500001FA0184603F0C3FEB862BB6A002B30D0BA6A8B
S31500001FB037490020FFF7E2FE2AE00023FB621FE01C
S31500001FC07969344B586FFA6A13465B0113449B00D8
S31500001FD003445B6A994210D12E4B596FFA6A134635
S31500001FE05B0113449B000B441E4603F0B1F9034604
S31500001FF0324629490020FFF7C1FEFB6A0133FB6226
S31500002000244B9B6FFA6A9A42DAD302E000BF00E0E3
S3150000201000BF07F110030C220021184607F076FADC
S315000020204FF000024FF00003C7E9022307F108034F
S31500002030184607F073FAD7E90201134BD3E90023D8
S31500002040B0EB020861EB0309C7E9088903F080F9E0
S3150000205002460C4B1B68D31AFB610A4B1A68FB69D4
S315000020601344084A1360084BD3E90001D7E9082353
S31500002070841841EB0305044BC3E9004567E700BF3D
S31500002080540800207809002080090020CD1E000099
S3150000209090B200002CB10000E0B2000080B588B01C
S315000020A000AF78600023BB6107F10C0300221A60C1
S315000020B05A609A600023FB611CE00123FB60124B0F
S315000020C0596FFA6913465B0113449B000B4428338E
S315000020D007F10C010022184603F028FEB861BB691F
S315000020E0002B04D0BA6909490020FFF747FEFB69B7
S315000020F00133FB61044B9B6FFA699A42DDD300BF43
S3150000210000BF2037BD4680BD2CB1000090B2000054
S3150000211080B400AF00BFBD465DF8047B7047FFFF8B
S31500002120F0B58FB008AF7860396000237B6107F1A6
S31500002130080300221A605A609A6039490020FFF7A6
S315000021401DFE384A7B68C2F8B830364A3B68C2F88A
S31500002150B430344B03F1B001334B9A6A00237868EC
S3150000216003F0E0FB78617B69002B04D07A692F4984
S315000021700020FFF703FE2B4B9C462B4B9E462A4B1B
S315000021801C6A294B5D6A274BD3F8B030264A926AFF
S315000021902549C96A2448006BB0260696012605968D
S315000021A00026049603900291019200932B46224644
S315000021B07146604603F0CEFE78617B69002B04D041
S315000021C07A691B490020FFF7D9FD164B03F1BC00C5
S315000021D0154B03F134012C2303930023029364234C
S315000021E00193642300930023124A03F0B5FF78613C
S315000021F00023BB600B4BD3F8B43007F10801002273
S31500002200184603F093FD78617B69002B04D07A6948
S3150000221009490020FFF7B2FD00BF1C37BD46F0BDDF
S31500002220F0B30000140A002020B700000CB4000030
S3150000223044B40000412400007CB4000090B585B091
S3150000224000AF78600023FB60154BD3F8EC30002B11
S3150000225011D1134B0122C3F8F020114BD3F8B8006B
S315000022600F4B03F1EC010E4BD3F8F0309A0000232C
S3150000227003F058FBF860FB68002B0CD1084A084BAA
S31500002280D3F8EC301A60064B7A681446E83393E8C4
S31500002290070084E8070000BF1437BD4690BD00BFA5
S315000022A0140A002090B589B000AF78600023FB6166
S315000022B0594B5B6DBB6100237B6107F1080300226C
S315000022C01A605A609A60554BD3F8B43007F108018A
S315000022D04FF0FF32184603F0EDFCBB68032B68D0C5
S315000022E0032B00F29180002B02D0012B49D08BE00A
S315000022F0BB699B681B68BA691068BA69526811465F
S315000023009847F861FB69002B04D0FA69444900201C
S31500002310FFF734FDBB699B685B69BA691068642284
S3150000232040499847F861FB69002B04D0FA693E4999
S315000023300020FFF723FDBB699B689C68BB69186892
S31500002340BB695B68596801230022A047F861FB69F5
S31500002350002B07D0FB69142B04D0FA6933490020FF
S31500002360FFF70CFD2D4BBC33184603F0D7FE786102
S315000023707B69002B4AD07A692D490020FFF7FEFCC5
S3150000238044E00223BB602B4BFB602B4B1B68D3F84E
S31500002390143107F108010022184603F0C7FC7861E2
S315000023A07B69002B34D07A6924490020FFF7E6FCCC
S315000023B02EE01A4BBC33184603F06AFFBB699B68D4
S315000023C09C68BB691868BB695B6859680023002272
S315000023D0A047F861FB69002B07D0FB69142B04D0DA
S315000023E0FA6912490020FFF7C9FC0C4BBC331846AA
S315000023F003F094FE78617B69002B0BD07A690C4957
S315000024000020FFF7BBFC05E000BF5CE700BF5AE712
S3150000241000BF58E700BF56E720B70000140A0020A7
S31500002420B0B40000F8B4000058B50000A0B5000034
S31500002430ECB500003D220000A8B100002CB600005B
S3150000244080B586B000AF786000237B6107F1080392
S3150000245000221A605A609A600323BB600A4BD3F8C5
S31500002460B43007F108010022184603F05FFC7861DA
S315000024707B69002B04D07A6904490020FFF77EFCB3
S3150000248000BF1837BD4680BD140A002068B600009C
S3150000249080B582B000AF786007490020FFF76EFC78
S315000024A0642002F069F805490020FFF767FC00BFC9
S315000024B00837BD4680BD00BF80B7000094B7000056
S315000024C0F0B591B006AF78600023FB6100237B6115
S315000024D094490020FFF752FC934B5B689B6FBB61EE
S315000024E007F1080300221A605A609A608F4900209B
S315000024F0FFF744FC8E490020FFF740FC8D4B1B681C
S31500002500D3F8B80007F114010023802203F00AFA79
S31500002510F861FB69002B20D17869834B1B68DA6967
S31500002520814B1B689B68D31A7F4A1268D269019255
S315000025300093814B814A802106F0B4FF7C697B6958
S31500002540184607F040F803461A4621460020FFF7D2
S3150000255015F87B69184603F0DBFA00237B62D4E0AA
S31500002560744B1B68D3F8B80007F1140100238022CE
S3150000257003F0D8F9F861FB69002B40F0C3806A4B81
S315000025805B68596F7A6A13465B0113449B000B44E0
S315000025905B6A07F1080210469847FB68002B1FD1BB
S315000025A07869614B5B68596F7A6A13465B0113441D
S315000025B09B000B441946BB68614A019200930B4687
S315000025C0604A802106F06EFF7C697B69184606F03A
S315000025D0FAFF03461A4621460020FEF7CFFF33E0F6
S315000025E07D69514B5B68596F7A6A13465B011344E8
S315000025F09B000B441E46BB68FA681268926AF9682B
S315000026000968C96AF868006800690446F8680068DD
S31500002610D0F8A800201AFC68246864690494039022
S315000026200291019200933346474A8021284606F0DC
S3150000263039FF7C697B69184606F0C5FF03461A46D2
S3150000264021460020FEF79AFF3B69012B56D901234C
S3150000265087F823304DE0374B1B68D3F8B80007F1F5
S3150000266014010023802203F05DF9F861FB69002B59
S315000026703AD17C69FA6897F823309B0013441B68AB
S315000026809D6AFA6897F823309B0013441B68DB6A3F
S31500002690F96897F8232092000A44126812691046D6
S315000026A0F96897F8232092000A441268D2F8A82005
S315000026B0821AF86897F82310890001440968496965
S315000026C00291019200932B46204A8021204606F073
S315000026D0E9FE7C697B69184606F075FF03461A46D3
S315000026E021460020FEF74AFF97F82330013387F88A
S315000026F0233097F823203B699A42ACD37B6918466E
S3150000270003F006FA7B6A01337B627A6ABB699A42F6
S31500002710FFF426AF0E490020FFF730FB00BF2C3731
S31500002720BD46F0BDB0B70000A8B10000CCB70000B0
S3150000273038B8000078B70000A4B80000BCB80000A4
S3150000274034B9000004B9000040B900006CB90000BB
S3150000275094B70000FFFFFFFFB0B592B004AF7860FA
S3150000276060A3D3E90023C7E908234FF000024FF026
S315000027708043C7E906234FF00002534BD7E9060111
S3150000278006F040F802460B46C7E9042344A3D3E902
S315000027900023C7E90C234D490020FFF7EFFA4C4907
S315000027A00020FFF7EBFA4B490020FFF7E7FAD7E9DD
S315000027B00423C7E90A235FE03BA3D3E90023C7E963
S315000027C00C2345E0D7E90A23D7E9080105F0F0FE16
S315000027D002460B4614461D4635A3D3E90023D7E926
S315000027E00C0105F0E5FE02460B462046294606F09A
S315000027F009F802460B46104619462FA3D3E90023D3
S3150000280005F0D6FE02460B46C7E902234FF000024A
S31500002810314BD7E90C0105F0CBFE02460B461046BC
S315000028201946D7E90A23CDE90223CDE90001D7E904
S3150000283002232A490020FFF7A1FA1BA3D3E90023AC
S31500002840D7E90C0105F0FEFC02460B46C7E90C234E
S315000028501BA3D3E90023D7E90C0106F01BF90346B5
S31500002860002BAFD1D7E90423D7E90A0105F0EAFC2A
S3150000287002460B46C7E90A23D7E90623D7E90A0128
S3150000288006F008F90346002B96D115490020FFF7FC
S3150000289075FA00BF3837BD46B0BD00BFAFF3008044
S315000028A07B14AE47E17A743F2D431CEBE2361A3FA8
S315000028B0182D4454FB2119400000000080842E414D
S315000028C0FCA9F1D24D62503F00002440BCB9000083
S315000028D0D8B9000000BA000000408F4028BA0000B6
S315000028E094B70000CBF6990F3715B53E80B582B088
S315000028F000AF0346FB71FB79022B05D1044B5B68E5
S315000029001946044804F03EFD00BF0837BD4680BDA9
S31500002910BCBD0000D00C002090B587B002AF786037
S315000029200023BB60434B1B681846424B5B6803F1B0
S3150000293054017B68C3F1005303F5802334220092CF
S315000029407A6803F053F8B860BB68002B05D0BA6804
S3150000295039490020FFF712FA68E00023FB605FE0C8
S31500002960344B1B681846334B5B68596FFA6813463D
S315000029705B0113449B000B4403F1600100232222F8
S3150000298002F0D0FFB860BB68002B04D0BA682B49B0
S315000029900020FFF7F3F9274B5B68596FFA68134677
S315000029A05B0113449B000B4403F12800214B5B6839
S315000029B0596FFA6813465B0113449B000B4403F1FD
S315000029C064041C4B5B68596FFA6813465B01134439
S315000029D09B000B441B6E3822019222220092032296
S315000029E0214603F0C5F8B860124B5B68596FFA6868
S315000029F013465B0113449B000B441C6A0D4B1B687A
S31500002A0018460C4B5B68596FFA6813465B01134412
S31500002A109B000B4428331946A047FB680133FB6033
S31500002A20044B5B689B6FFA689A4299D300BF1437D0
S31500002A30BD4690BDA8B1000044BA00008CBA0000A3
S31500002A40F0B58FB008AF7860396000237B6107F17D
S31500002A50080300221A605A609A6030490020FFF786
S31500002A608DF92F4A7B68C2F8B8302D4A3B68C2F808
S31500002A70B4302B4B03F1B0012A4B9A6A00237868D5
S31500002A8002F050FF78617B69002B04D07A692649F1
S31500002A900020FFF773F9224B9C46224B9E46214BA2
S31500002AA01C6A204B5D6A1E4BD3F8B0301D4A926AF1
S31500002AB01C49C96A1B48006BB02606960126059676
S31500002AC00026049603900291019200932B4622461B
S31500002AD07146604603F03EFA78617B69002B04D0AC
S31500002AE07A6912490020FFF749F90023BB600C4BB5
S31500002AF0D3F8B43007F108010022184603F016F99E
S31500002B0078617B69002B04D07A6909490020FFF7B8
S31500002B1035F900BF1C37BD46F0BD00BF44BB000001
S31500002B20080B0020E8BA000064BB0000A0BB000050
S31500002B30DCBB000090B585B000AF78600023FB6079
S31500002B40154BD3F81031002B11D1134B0122C3F8CA
S31500002B501421114BD3F8B8000F4B03F588710E4BB7
S31500002B60D3F814319A00002302F0DCFEF860FB680B
S31500002B70002B0DD1084A084BD3F810311A60064BCA
S31500002B807A68144603F5867393E8070084E807001D
S31500002B9000BF1437BD4690BD080B002080B58AB033
S31500002BA000AF786000233B620023FB610023BB611A
S31500002BB007F10C0300221A605A609A603C4BD3F866
S31500002BC0B43007F10C014FF0FF32184603F072F8EB
S31500002BD0FB68032B4BD0032B66D8002B02D0012BAE
S31500002BE02DD061E0002387F8273023E0314A97F89B
S31500002BF027300C339B0013445B68FB61FB69002B99
S31500002C0013D0FB699B681B68FA691068FA695268F9
S31500002C101146984738623B6A002B06D097F8272062
S31500002C203B6A25490020FFF7A9F897F827300133BA
S31500002C3087F8273097F82730092BD7D937E00223B2
S31500002C40FB601E4B3B611E4B1B68D3F8143107F12A
S31500002C500C010022184603F069F8B861BB69002B25
S31500002C6024D0BA6917490020FFF788F81EE0114AF8
S31500002C703B7C0C339B0013445B68FB61FB699B68E0
S31500002C809B68FA69106879697A8A984738623B6A5C
S31500002C90002B04D03A6A0C490020FFF76FF87B69D5
S31500002CA0184602F035FF02E000BF87E700BF85E760
S31500002CB0080B0020E8BA000018BC0000352B000005
S31500002CC0A8B1000070BC0000B0BC000080B586B0A2
S31500002CD000AF786000237B617B681B68092B37D8BF
S31500002CE07B681B7903F00403DBB2002B30D01A4A51
S31500002CF07B681B682E339B0013445B68002B27D030
S31500002D0007F1080300221A605A609A60124A7B682B
S31500002D101B6838339B0013445B68BB607B689B6809
S31500002D20DBB23B730C4A7B681B682E339B00134453
S31500002D305B6807F108010022184602F0F7FF786188
S31500002D407B69002B04D07A6904490020FFF716F846
S31500002D5000BF1837BD4680BD080B0020F8BC000038
S31500002D6080B58AB008AF134B1B680133114A136054
S31500002D70B0230693012305930123049302230393AF
S31500002D80022302934FF4806301930B4B00930023BD
S31500002D900A4A0B490B4803F0DDF878607B68002B84
S31500002DA003D00021074800F053F800BF0837BD469E
S31500002DB080BD00BF680D0020281E0020C92D000020
S31500002DC0ACBD0000200C002080B582B000AF78605A
S31500002DD000F04AF8FFF79CF900BF0837BD4680BDF2
S31500002DE080B400AF00BFBD465DF8047B704780B578
S31500002DF000AFFFF7F5FF00BF80BDFFFF80B584B0D1
S31500002E0000AF78600E4B00221A600E4B00221A703B
S31500002E101C2301220C490D4802F0C4FFF860FB6830
S31500002E20002B03D00021094800F012F8FFF798FFA5
S31500002E307868FFF771FD00BF1037BD4680BD00BF43
S31500002E40680D00206C0D002088BE0000700D00206B
S31500002E5080B483B000AF7860396000BE00BF0C3725
S31500002E60BD465DF8047B704780B582B000AF4FF079
S31500002E70FF311A4803F01CF878607B68002B03D0FA
S31500002E8000211648FFF7E4FF154B1B7883F001037A
S31500002E90DBB2002B1ED0124B01221A70FFF7A7FFE0
S31500002EA0104B1B68013B0F4A13600FE00B4803F001
S31500002EB033F878607B68002B03D000210748FFF7C2
S31500002EC0C7FF084B1B68013B064A1360054B1B688E
S31500002ED0002BEBD100BF0837BD4680BD700D00202A
S31500002EE06C0D0020680D002080B500AF00F00CFCD2
S31500002EF00023184680BDFFFF80B594B000AFF86090
S31500002F00B9607A603B607B68033323F003037B6020
S31500002F10EFF31083FB62FB6AFB6472B600BF554B8E
S31500002F201B683B6400237B64FB683A6C1A62FB6C8B
S31500002F307B627B6A83F3108800BF7968F86800F0CB
S31500002F40AFF9F863EFF31083BB62BB6AFB6472B63A
S31500002F5000BFFB6B002B02D001237B6406E0FB68FD
S31500002F601B6A3A6C9A4201D101237B647B6C002B6D
S31500002F70DAD0BB68FA6B1A60FB6B002B08D0FB6CCF
S31500002F803B623B6A83F3108800BF0023BB646CE09E
S31500002F903B68002B61D0384B1B68002B07D01023F1
S31500002FA0BB64FB6CFB61FB6983F310885DE03B6CE3
S31500002FB0324A9A663B6CFA68DA663B6CBA68DA673C
S31500002FC03B6C7A689A673B6CD3F8AC305A1C3B6C06
S31500002FD0C3F8AC20FB689B6ABB63FB689B6A5A1C00
S31500002FE0FB689A62BB6B002B09D1FB683A6C5A628C
S31500002FF03B6C3A6C1A673B6C3A6C5A6711E0FB689B
S315000030005B6A7B633B6C7A6B1A677B6B5B6F3B63BC
S315000030103B6C3A6B5A673B6B3A6C1A677B6B3A6C44
S315000030205A673B6C09221A633B6C01229A633B6C1C
S315000030303A68DA64104B1B6801330F4A1360FB6C65
S31500003040BB61BB6983F3108800BF386C01F084FE56
S315000030503B6CD3F88430BB6407E0FB6C7B617B6917
S3150000306083F3108800BF1023BB64BB6C184650372F
S31500003070BD4680BDAC0D0020440E0020813000000E
S3150000308080B58CB000AF78603960EFF31083BB6118
S31500003090BB69FB6272B600BF7B689B6E324A934285
S315000030A057D17B68D3F8AC303A689A4251D17B68E5
S315000030B0DB6EBB62BB6A002B4BD0BB6A1B682B4A1C
S315000030C0934246D1BB6A9B6A002B42D07B680022A2
S315000030D09A66BB6A9B6A5A1EBB6A9A62BB6A9B6AFD
S315000030E07B627B6A002B03D1BB6A00225A6213E023
S315000030F07B681B6F3B627B685B6FFB613B6AFA69AF
S315000031005A67FB693A6A1A67BB6A5B6A7A689A42C7
S3150000311002D1BB6A3A6A5A627B681B6B092B18D1CB
S315000031207B681022C3F88420114B1B680133104AB8
S315000031301360FB6A3B613B6983F3108800BF7868C4
S3150000314001F0E2FBEFF310837B617B69FB6272B6F1
S3150000315000BFFB6AFB60FB6883F3108800BF00BFFB
S315000031603037BD4680BD00BF81300000455459420E
S31500003170440E002080B58EB000AFF860B9607A606A
S315000031803B6034220021F86806F0C0F93B6823F062
S3150000319003033B60FB68BA685A60FB687A689A6109
S315000031A0FB683A68DA61FB687A681A61FB687A68D4
S315000031B05A613B68A3F10802FB689A60FB68022229
S315000031C0DA607B687B637A6B3B6813447B637B6B5B
S315000031D0043B7B63FB683B637B6BFB62FB6A3A6B7E
S315000031E01A607B6B043B7B637B6BFB62FB6A7A68D2
S315000031F01A607B683B633B6BFB62FB6A7A6B1A6007
S315000032007B687B637B6B04337B637B6BBB62BB6AD4
S315000032101F4A1A60FB6800221A62EFF31083BB6133
S31500003220BB697B6272B600BFFB681A4A1A601A4B0A
S315000032301B68002B09D1194AFB681360FB68FA6802
S31500003240DA62FB68FA681A6311E0144B1B683B628A
S315000032503B6A1B6BFB613B6AFA681A63FB69FA6897
S31500003260DA62FB68FA691A63FB683A6ADA620A4B41
S315000032701B680133084A13607B6A7B617B6983F3B1
S31500003280108800BF002318463837BD4680BD00BFF2
S31500003290EEEEFFFF45545942A00D00209C0D002084
S315000032A080B495B000AF786039600023FB63EFF31C
S315000032B01083FB61FB69FB6472B600BF7B689A688A
S315000032C07B68DB68023BDB001344BB633A68BB6B7D
S315000032D09A4208D3FB6CBB61BB6983F3108800BFBD
S315000032E00023BB64DCE0724B1B687B637B687A6BF4
S315000032F01A627B685B69BB647B68DB6801333B648D
S3150000330000237B64BB6C04333B633B6BFB62FB6A51
S315000033101B68684A934243D1FB6B002B04D17B6840
S31500003320BA6C5A610123FB63BB6CBB62BB6A1B6848
S315000033307B627A6ABB6CD31A7B647B6C083B7B64CA
S315000033407A6C3B689A4256D200237B647B6A0433CC
S315000033503B633B6BFB62FB6A1B68564A934213D185
S315000033607B6A3B623B6A1A68BB6A1A607B68DB68E9
S315000033705A1E7B68DA607B685B697A6A9A4214D166
S315000033807B68BA6C5A6110E07B6A3B623B6A1B68D9
S31500003390BB643B6C002B08D03B6C013B3B6404E0F8
S315000033A0BB6CBB62BB6A1B68BB643B6C002B02D068
S315000033B03B6C013B3B64FB6C3B613B6983F31088D0
S315000033C000BFEFF310837B617B69FB6472B600BFBD
S315000033D07B681B6A7A6B9A4209D07B685B69BB641F
S315000033E07B68DB6801333B647B687A6B1A623B6CF3
S315000033F0002B87D100E000BF7B6C002B48D07A6C95
S315000034003B68D31A132B1ED93B680833BA6C134496
S315000034107B627B6A3B62BB6CBB62BB6A1A683B6AB7
S315000034201A607B6A04333B633B6BFB62FB6A214A8F
S315000034301A607B68DB685A1C7B68DA60BB6A7A6A4A
S315000034401A603B687B64BB6C04333B633B6BBB62BB
S31500003450BB6A7A681A607B689A687B6CD31AA3F198
S3150000346008027B689A607B685B69BA6C9A4205D1F0
S31500003470BB6CBB62BB6A1A687B685A61FB6CFB60FB
S31500003480FB6883F3108800BFBB6C0833BB6407E09E
S31500003490FB6CBB60BB6883F3108800BF0023BB6472
S315000034A0BB6C18465437BD465DF8047B704700BFB9
S315000034B0AC0D0020EEEEFFFF80B59AB000AF78604D
S315000034C000233B660023FB65EFF310837B627B6A78
S315000034D07B6672B600BF7B68BB65BB6D002B27D0D1
S315000034E0BB6D083BBB65BB6D04337B657B6D3B6584
S315000034F03B6D1B687C4A934217D0BB6D04337B65DA
S315000035007B6DFB64FB6C1B68FB65FB6D002B02D1BE
S3150000351003233B660EE0FB6D1B68744A934209D099
S3150000352003233B660023FB6504E003233B6601E0BF
S3150000353003233B66FB6D002B05D17B6E3B623B6A2A
S3150000354083F31088CBE06A4B1B68BB64FB6DBA6CD7
S315000035501A62BB6D04337B657B6D3B653B6D624ACE
S315000035601A60BB6D7B647B6C1B683B64FB6D9B6860
S31500003570396CBA6D8A1A1A44FB6D9A60FB6D5B69E9
S31500003580BA6D9A4202D2FB6DBA6D5A61FB6D9B6AA7
S31500003590002B00F09E808CE0FB6D5B6AFB63FB6B8F
S315000035A09B6FBB637B6EBB61BB6983F3108800BFF7
S315000035B0B96BF86DFFF774FEB865EFF31083FB6126
S315000035C0FB697B6672B600BFFB6DBA6C1A62BB6D97
S315000035D0002B74D0FB6D5B6AFA6B9A4246D1FB6B8B
S315000035E09B6FBA6B9A4241D1FB6D9B6A5A1EFB6D6B
S315000035F09A62FB6D9B6A7B637B6B002B03D1FB6D31
S3150000360000225A620EE0FB6B1B6F3B63FB6D3A6B4D
S315000036105A62FB6B5B6FFB623B6BFA6A5A67FB6A2B
S315000036203A6B1A67FB6B00229A66FB6BDB6FBB6219
S31500003630BB6ABA6D1A600023BB65FB6B0022C3F838
S3150000364084202C4B1B6801332A4A13607B6E3B6136
S315000036503B6983F3108800BFF86B01F055F9EFF36F
S3150000366010837B617B697B6672B600BFBB6D002BE6
S315000036701FD0BB6D083BBB65BB6D04337B657B6DA3
S315000036803B653B6D184A1A60BB6D7B647B6C1B689F
S315000036903B64FB6D9B68396CBA6D8A1A1A44FB6DE4
S315000036A09A60FB6D5B69BA6D9A4202D2FB6DBA6D88
S315000036B05A61FB6D9B6A002B7FF46EAF00E000BF82
S315000036C07B6EFB60FB6883F3108800BF01F07CF81B
S315000036D005E07B6EBB60BB6883F3108800BF3B6E62
S315000036E018466837BD4680BDEEEEFFFF4554594289
S315000036F0AC0D0020440E002080B500AF00F0DAFECD
S3150000370002F052F800BF80BD80B500AF104B1B68B9
S3150000371013F10F3F0CD00E4B4FF0F0321A6002F04F
S3150000372021FEFFF7E9FF0B4B1B680133094A1360C3
S31500003730074B4FF0F0321A60074B1B681846FFF72D
S315000037405DFB034B00221A6002F0B0FE00BF80BD95
S3150000375098010020440E0020A40D002080B58CB0F6
S3150000376000AF78603960EFF31083BB61BB69FB6221
S3150000377072B600BF7B689B6E364A934260D17B6807
S31500003780D3F8AC303A689A425AD17B68DB6EBB629A
S31500003790BB6A002B54D0BB6A1B682F4A93424FD199
S315000037A0BB6ADB6A002B4BD07B6800229A66BB6A39
S315000037B0DB6A5A1EBB6ADA62BB6ADB6A7B627B6AB9
S315000037C0002B03D1BB6A00229A6213E07B681B6F51
S315000037D03B627B685B6FFB613B6AFA695A67FB6910
S315000037E03A6A1A67BB6A9B6A7A689A4202D1BB6ACE
S315000037F03A6A9A627B681B6B052B21D1BB6A1B69EF
S31500003800002B04D07B680B22C3F8842003E07B687E
S315000038100A22C3F88420114B1B6801330F4A136038
S31500003820FB6A3B613B6983F3108800BF786801F04F
S315000038306BF8EFF310837B617B69FB6272B600BFA6
S31500003840FB6AFB60FB6883F3108800BF00BF30375C
S31500003850BD4680BD5D37000055455551440E0020DC
S3150000386080B58CB000AFF860B9607A603B603822F2
S315000038700021F86805F04AFEFB68BA685A60FB68E2
S315000038807A689A607B689B00BA6BB2FBF3F3FB62C3
S31500003890FB6A7A6802FB03F3BB62FB683A689A61CB
S315000038A0FB689A69BB6A9B001A44FB68DA61FB688D
S315000038B03A681A62FB683A685A62FB68FA6A5A61A1
S315000038C0FB68FA6ADA60EFF31083BB61BB697B625F
S315000038D072B600BFFB68194A1A60194B1B68002BA9
S315000038E009D1184AFB681360FB68FA681A63FB681B
S315000038F0FA685A6311E0134B1B683B623B6A5B6BC9
S31500003900FB613B6AFA685A63FB69FA681A63FB68EB
S31500003910FA695A63FB683A6A1A63094B1B680133F2
S31500003920074A13607B6A7B617B6983F3108800BF5B
S31500003930002318463037BD4680BD00BF554555515A
S31500003940980D0020940D002080B594B000AFF8606B
S31500003950B9607A6000233B64EFF31083BB62BB6AF5
S31500003960FB6372B600BFFB68DB6ABB63FB681B695F
S31500003970002B00F03681BB6B002B3CD1FB681B6A29
S31500003980FB64BB68BB64FB689B687B64FA6C131DB5
S31500003990FB64BB6C191DB96412681A607B6C012B41
S315000039A00ED907E0FA6C131DFB64BB6C191DB964D4
S315000039B012681A607B6C013B7B647B6C002BF1D137
S315000039C0FB68DB69FA6C9A4202D1FB689B69FB646F
S315000039D0FB68FA6C1A62FB685B695A1CFB685A61E1
S315000039E0FB681B695A1EFB681A61FB6B7B627B6A6C
S315000039F083F3108863E1FB689B6A7B637B6BD3F878
S31500003A008030012B53D17B6BDB6FFB64BB68BB64DF
S31500003A10FB689B687B64FA6C131DFB64BB6C191D09
S31500003A20B96412681A607B6C012B0ED907E0FA6C38
S31500003A30131DFB64BB6C191DB96412681A607B6C9C
S31500003A40013B7B647B6C002BF1D1BB6B013BBB6301
S31500003A50BB6B002B03D1FB6800229A620EE07B6BE6
S31500003A601B6F3B63FB683A6B9A627B6B5B6FFB6217
S31500003A703B6BFA6A5A67FB6A3A6B1A67FB68BA6B62
S31500003A80DA627B6B00229A667B6B0022C3F8842085
S31500003A908D4B1B6801338C4A1360FB6B3B623B6AA0
S31500003AA083F3108800BF786B00F02EFF07E1FB68F8
S31500003AB01B6AFB64BB68BB64FB689B687B64FA6C2F
S31500003AC0131DFB64BB6C191DB96412681A607B6C0C
S31500003AD0012B0ED907E0FA6C131DFB64BB6C191D94
S31500003AE0B96412681A607B6C013B7B647B6C002BAB
S31500003AF0F1D1FB68DB69FA6C9A4202D1FB689B69DB
S31500003B00FB64FB68FA6C1A626F4B1B6801336E4AE2
S31500003B1013606D4B1B68013B6B4A13607B6BDB6F5D
S31500003B20FB64FB685B6ABB64FB689B687B64FA6C3E
S31500003B30131DFB64BB6C191DB96412681A607B6C9B
S31500003B40012B0ED907E0FA6C131DFB64BB6C191D23
S31500003B50B96412681A607B6C013B7B647B6C002B3A
S31500003B60F1D1FB68DB69BA6C9A4202D1FB689B69AA
S31500003B70BB64FB68BA6C5A62FB689B6A7B63BB6B6F
S31500003B80013BBB63BB6B002B03D1FB6800229A622F
S31500003B900EE07B6B1B6F3B63FB683A6B9A627B6B39
S31500003BA05B6FFB623B6BFA6A5A67FB6A3A6B1A6792
S31500003BB0FB68BA6BDA627B6B00229A667B6B00222B
S31500003BC0C3F88420404B1B6801333F4A1360FB6BEC
S31500003BD0FB61FB6983F3108800BF786B00F094FEED
S31500003BE06DE07B68002B62D0374B1B68002B08D03A
S31500003BF0FB6BBB61BB6983F3108800BF0A233B6480
S31500003C005DE0324B1B687B637B6B314A9A667B6B4C
S31500003C10FA68DA667B6BBA68DA677B6B0022C3F8F0
S31500003C2080207B6BD3F8AC305A1C7B6BC3F8AC207E
S31500003C30BB6B002B09D1FB687A6B9A627B6B7A6B44
S31500003C401A677B6B7A6B5A6711E0FB689B6A3B636A
S31500003C507B6B3A6B1A673B6B5B6FFB627B6BFA6A3B
S31500003C605A67FB6A7A6B1A673B6B7A6B5A67BB6B50
S31500003C705A1CFB68DA627B6B05221A637B6B012296
S31500003C809A637B6B7A68DA640F4B1B6801330E4AC2
S31500003C901360FB6B7B617B6983F3108800BF786BD5
S31500003CA001F05AF87B6BD3F884303B6407E0FB6B7A
S31500003CB03B613B6983F3108800BF0A233B643B6C7E
S31500003CC018465037BD4680BD440E0020AC0D00207E
S31500003CD05D37000080B594B000AFF860B9607A60D7
S31500003CE000233B64EFF31083BB62BB6AFB6372B6CF
S31500003CF000BFFB68DB6ABB63FB685B69002B00F0F7
S31500003D009B80BB6B002B3CD1FB685B695A1EFB6832
S31500003D105A61FB681B695A1CFB681A61BB68FB6425
S31500003D20FB685B6ABB64FB689B687B64FA6C131D6B
S31500003D30FB64BB6C191DB96412681A607B6C012B9D
S31500003D400ED907E0FA6C131DFB64BB6C191DB96430
S31500003D5012681A607B6C013B7B647B6C002BF1D193
S31500003D60FB68DB69BA6C9A4202D1FB689B69BB644B
S31500003D70FB68BA6C5A62FB6B7B627B6A83F31088C2
S31500003D80C8E0FB689B6A7B63BB6B013BBB63BB6B99
S31500003D90002B03D1FB6800229A6212E07B6B1A6F3C
S31500003DA0FB689A627B6B1B6F3B63FB683A6B9A629C
S31500003DB07B6B5B6FFB623B6BFA6A5A67FB6A3A6B1B
S31500003DC01A67FB68BA6BDA627B6B00229A66BB687D
S31500003DD0FB647B6BDB6FBB64FB689B687B64FA6C84
S31500003DE0131DFB64BB6C191DB96412681A607B6CE9
S31500003DF0012B0ED907E0FA6C131DFB64BB6C191D71
S31500003E00B96412681A607B6C013B7B647B6C002B87
S31500003E10F1D17B6B0022C3F88420414B1B68013330
S31500003E203F4A1360FB6B3B623B6A83F3108800BF1B
S31500003E30786B00F069FD6DE07B68002B62D0384B33
S31500003E401B68002B08D0FB6BFB61FB6983F31088B2
S31500003E5000BF0B233B645DE0324B1B687B637B6BCF
S31500003E60314A9A667B6BFA68DA667B6BBA68DA6700
S31500003E707B6B0022C3F880207B6BD3F8AC305A1CD6
S31500003E807B6BC3F8AC20BB6B002B09D1FB687A6B4C
S31500003E909A627B6B7A6B1A677B6B7A6B5A6711E057
S31500003EA0FB689B6A3B637B6B3A6B1A673B6B5B6F8A
S31500003EB0FB627B6BFA6A5A67FB6A7A6B1A673B6B23
S31500003EC07A6B5A67BB6B5A1CFB68DA627B6B0522FE
S31500003ED01A637B6B01229A637B6B7A68DA64104BF8
S31500003EE01B6801330E4A1360FB6BBB61BB6983F32E
S31500003EF0108800BF786B00F02FFF7B6BD3F88430FF
S31500003F003B6407E0FB6B7B617B6983F3108800BF32
S31500003F100B233B643B6C18465037BD4680BD00BF43
S31500003F20440E0020AC0D00205D37000080B58CB03B
S31500003F3000AF78603960EFF31083BB61BB69FB6249
S31500003F4072B600BF7B689B6E324A934257D17B683C
S31500003F50D3F8AC303A689A4251D17B68DB6EBB62CB
S31500003F60BB6A002B4BD0BB6A1B682B4A934246D1D7
S31500003F70BB6A1B69002B42D07B6800229A66BB6A2B
S31500003F801B695A1EBB6A1A61BB6A1B697B627B6A24
S31500003F90002B03D1BB6A0022DA6013E07B681B6F3B
S31500003FA03B627B685B6FFB613B6AFA695A67FB6938
S31500003FB03A6A1A67BB6ADB687A689A4202D1BB6AB8
S31500003FC03A6ADA607B681B6B062B18D17B680D2278
S31500003FD0C3F88420114B1B680133104A1360FB6A37
S31500003FE03B613B6983F3108800BF786800F08CFC66
S31500003FF0EFF310837B617B69FB6272B600BFFB6ADD
S31500004000FB60FB6883F3108800BF00BF3037BD46F6
S3150000401080BD00BF2D3F0000414D4553440E00209A
S3150000402080B58AB000AFF860B9607A601C220021C2
S31500004030F86805F06BFAFB68BA685A60FB687A683C
S315000040409A60EFF31083BB61BB697B6272B600BFF7
S31500004050FB68194A1A60194B1B68002B09D1184ACC
S31500004060FB681360FB68FA685A61FB68FA689A6134
S3150000407011E0134B1B683B623B6A9B69FB613B6A21
S31500004080FA689A61FB69FA685A61FB68FA699A618B
S31500004090FB683A6A5A61094B1B680133074A136089
S315000040A07B6A7B617B6983F3108800BF0023184617
S315000040B02837BD4680BD00BF414D4553900D0020B9
S315000040C08C0D002080B58CB000AF7860396000237D
S315000040D0FB62EFF31083BB61BB69BB6272B600BFC4
S315000040E07B689B68002B0AD07B689B685A1E7B689E
S315000040F09A60BB6A7B617B6983F3108868E03B68E2
S31500004100002B5DD0354B1B68002B08D0BB6A3B618A
S315000041103B6983F3108800BF0D23FB6258E0304BE8
S315000041201B687B627B6A2F4A9A667B6A7A68DA66C4
S315000041307B6AD3F8AC305A1C7B6AC3F8AC207B6828
S315000041401B69002B09D17B687A6ADA607B6A7A6A16
S315000041501A677B6A7A6A5A6711E07B68DB683B629A
S315000041607B6A3A6A1A673B6A5B6FFB617B6AFA692C
S315000041705A67FB697A6A1A673B6A7A6A5A677B6882
S315000041801B695A1C7B681A617B6A06221A637B6A62
S3150000419001229A637B6A3A68DA64104B1B68013322
S315000041A00E4A1360BB6AFB60FB6883F3108800BF8E
S315000041B0786A00F0D1FD7B6AD3F88430FB6207E0B1
S315000041C0BB6ABB60BB6883F3108800BF0D23FB622C
S315000041D0FB6A18463037BD4680BD00BF440E00203E
S315000041E0AC0D00202D3F000080B58AB000AF78608E
S315000041F0EFF310833B613B697B6272B600BF7B685D
S315000042001B693B623B6A002B0AD17B689B685A1C80
S315000042107B689A607B6AFB60FB6883F3108833E0F7
S315000042207B68DB68FB613B6A013B3B623B6A002BB8
S3150000423003D17B680022DA600EE0FB691B6FBB616D
S315000042407B68BA69DA60FB695B6F7B61BB697A6917
S315000042505A677B69BA691A677B683A6A1A61FB69A9
S3150000426000229A66FB690022C3F88420094B1B686A
S315000042700133084A13607B6ABB60BB6883F310880E
S3150000428000BFF86900F040FB002318462837BD46FA
S3150000429080BD00BF440E002080B592B000AFF8602C
S315000042A0B9607A603B6000233B647A6DEF21386D1C
S315000042B005F02CF97B6D23F00303043B7B653B6D16
S315000042C0FB63FB6B033323F00303BB63FA6BBB6B2C
S315000042D09A4202D07B6D043B7B65BB6B3B65B0228B
S315000042E00021F86805F012F9FB68BA689A62FB6863
S315000042F07A685A64FB683A689A64FB683A6DDA60D1
S31500004300FB687A6D5A61FB68BA6DDA62FB68BA6D52
S31500004310C3F89420FB683A6E9A61FB683A6EDA61DC
S31500004320FB682022C3F89C203B6D7B637B6D013BC1
S315000043307A6B13447B63FB687A6B1A61BA6DFB6D0B
S315000043409A4207D0FB680022DA63FB680022C3F8B2
S31500004350982006E0FB68BA6DDA63FB68BA6DC3F8AD
S315000043609820FB6803221A63FB684A4A5A65FA6872
S31500004370FB689A654849F86802F0F6F8FB689A689F
S31500004380FB68C3F8A820EFF310837B627B6A3B636C
S3150000439072B600BFFB68414A1A60414B1B68002B8E
S315000043A00BD1404AFB681360FB68FA68C3F88820A3
S315000043B0FB68FA68C3F88C2016E03A4B1B68FB6270
S315000043C0FB6AD3F88C30BB62FB6AFA68C3F88C20B0
S315000043D0BB6AFA68C3F88820FB68BA6AC3F88C20FF
S315000043E0FB68FA6AC3F888202D4B1B6801332C4AF8
S315000043F013602D4B1B6801332B4A13607B6E012B18
S3150000440029D1EFF305833B623A6A284B1B681343B5
S31500004410B3F1F03F0DD3264B1B687B647B6C002BFE
S3150000442009D07B6CDB6B3B647B6CDA6A7B6CDA6392
S3150000443001E000237B643B6BFB61FB6983F310881F
S3150000444000BFF86800F060FA7B6C002B1DD07B6C17
S315000044503A6CDA6319E03B6B3B613B6983F3108886
S3150000446000BFEFF310837B617B693B6372B600BFCD
S315000044700D4B1B68013B0C4A13603B6BBB61BB6970
S3150000448083F3108800BF00F09FF9002318464837D1
S31500004490BD4680BDDD520000DD4400004452485454
S315000044A0B80D0020B40D0020440E00209801002015
S315000044B0B00D002080B400AF064B20221A60064BD8
S315000044C01B6843F0CF73044A136000BFBD465DF816
S315000044D0047B7047C00D00204C0E002080B588B0CC
S315000044E000AF224B1B68FB61FB695B6CFA69926C3F
S315000044F0104698471E4B1B68002B03D01C4B1B68AD
S31500004500F8699847EFF310837B607B68BB6172B6EE
S3150000451000BFFB6901221A63FB6901229A63FB69EA
S315000045200022DA64134B1B680133124A1360BB691D
S31500004530BB60BB6883F3108800BFEFF31483FB6096
S31500004540FB687B617B6923F004037B617B693B61CC
S315000045503B6983F31488BFF36F8F00BF00BFF86910
S3150000456000F0FAFB00BF2037BD4680BDAC0D002031
S31500004570480E0020440E002080B58CB000AF786055
S31500004580EFF310833B623B6ABB6272B600BF2F4BF0
S315000045901B687B627B6A002B08D1BB6AFB61FB69E7
S315000045A083F3108800BF1323FB6249E0EFF3058312
S315000045B0BB61BA69264B1B681343002B08D0BB6A44
S315000045C07B617B6983F3108800BF1323FB6237E0AE
S315000045D07B68002B08D1BB6A3B613B6983F310887B
S315000045E000BF0023FB622BE01A4B1B68002B08D090
S315000045F0BB6AFB60FB6883F3108800BF1323FB6272
S315000046001EE07B6A04221A637B6A01229A637B6A34
S315000046100022C3F884207B6A7A68DA640D4B1B6833
S3150000462001330C4A1360BB6ABB60BB6883F3108816
S3150000463000BF786A00F090FB7B6AD3F88430FB6297
S31500004640FB6A18463037BD4680BD00BFAC0D002062
S3150000465098010020440E002080B48DB000AF786031
S31500004660EFF31083BB61BB69FB6272B600BF7B6868
S31500004670002B58D07B681B68314A934253D17B6824
S31500004680DB687B627B6A002B4DD07B68D3F8A83051
S315000046903B623B6A002B46D0FB6A7B617B6983F3F6
S315000046A0108800BF3A6A7B6AD31A9B105B08FB61CD
S315000046B0FB699B007A6A1344BB62BB6A1B68B3F151
S315000046C0EF3F02D0BB6A3B6201E0BB6A7B62FB69DB
S315000046D0012BE7D802E0BB6A0433BB62BB6A1B68E6
S315000046E0B3F1EF3FF7D0EFF310833B613B69FB6219
S315000046F072B600BF7B681B68114A934213D17B6870
S31500004700DB68BA6A9A420ED97B68D3F8A830BA6ACF
S315000047109A4208D2BB6A1B68B3F1EF3F03D07B68AD
S31500004720BA6AC3F8A820FB6AFB60FB6883F31088AB
S3150000473000BF00BF3437BD465DF8047B704700BF3D
S315000047404452485480B586B000AF7860EFF31083CA
S315000047503B613B697B6172B600BF094B1B68002B4E
S3150000476003D0074B1B68786898477B69FB60FB683A
S3150000477083F3108800BF00BF1837BD4680BD00BF59
S31500004780500E002080B485B000AF0E4B4FF0805223
S315000047905A60EFF30583BB60BB68002B0CD1EFF3C7
S315000047A010833B603B68FB6062B600BFFB687B60C2
S315000047B07B6883F3108800BF00BF1437BD465DF8E1
S315000047C0047B704700ED00E080B58AB000AF394B3E
S315000047D01B683B623B6A002B68D1374B1B68FB6149
S315000047E0364B1B68BB61FA69BB699A425ED0EFF330
S315000047F010837B617B697B6272B600BFBB69002B4D
S315000048004CD0BB691B682E4A934247D1BB699A6854
S31500004810BB69D3F8A8309A4204D2BB699A68BB69CF
S31500004820C3F8A820BB69DB681B68B3F1EF3F0DD165
S31500004830BB691B6901331B68B3F1EF3F06D1BB6946
S31500004840D3F8A820BB69DB689A420FD27B6AFB606B
S31500004850FB6883F3108800BFB869FFF773FFEFF3B7
S3150000486010833B613B697B6272B600BFBB69D3F8BC
S31500004870A830043B1B68B3F1EF3F0FD07B6A7B6027
S315000048807B6883F3108800BFB869FFF7E5FEEFF396
S315000048901083BB60BB687B6272B600BF7B6A3B60FD
S315000048A03B6883F3108800BFFFF76CFF00BF283713
S315000048B0BD4680BD440E0020AC0D0020B00D00208A
S315000048C04452485480B485B000AF0E4B4FF080522E
S315000048D05A60EFF30583BB60BB68002B0CD1EFF386
S315000048E010833B603B68FB6062B600BFFB687B6081
S315000048F07B6883F3108800BF00BF1437BD465DF8A0
S31500004900047B704700ED00E080B5A2B000AF786090
S31500004910EFF31083BB65BB6DC7F8843072B600BF7A
S315000049207B68002B50D07B681B689A4A93424BD118
S315000049307B689A687B68D3F8A8309A4204D27B6871
S315000049409A687B68C3F8A8207B68DB681B68B3F1AC
S31500004950EF3F0DD17B681B6901331B68B3F1EF3F55
S3150000496006D17B68D3F8A8207B68DB689A4211D20F
S31500004970D7F884303B653B6D83F3108800BF7868B9
S31500004980FFF7E0FEEFF310837B657B6DC7F884309D
S3150000499072B600BF7B68D3F8A830043B1B68B3F13E
S315000049A0EF3F11D0D7F88430BB64BB6C83F310881B
S315000049B000BF7868FFF750FEEFF31083FB64FB6CD3
S315000049C0C7F8843072B600BFD7F884303B643B6CBE
S315000049D083F3108800BFEFF310837B647B6CBB67A7
S315000049E072B600BF7B685B6E002B05D07B684C33CC
S315000049F0184600F05FFF02E07B680022DA64664B2F
S31500004A001B68013B644A13607B689B6B002B40F07C
S31500004A10E4807B681B6B002B00F0F8807B685B6B87
S31500004A20002B40F0D3807B6800221A637B68DB6A28
S31500004A307B675A4A7B6F52F823303B673B6F002BEC
S31500004A4040F0B48055497B6F7A6841F823207B6833
S31500004A507A681A627B687A685A6201227B6F02FA68
S31500004A6003F3BB664E4B1A68BB6E13434C4A136086
S31500004A704C4B1B687A6F9A4280F0C880494A7B6F1C
S31500004A801360494B1B687B667B6E002B03D1464A3D
S31500004A907B681360BAE07B6EDB6B7A6F9A4280F0BC
S31500004AA0B580414A7B681360BB6FBB63BB6B83F306
S31500004AB0108800BF3C4B1B687B60EFF31083FB63E1
S31500004AC0FB6BC7F8803072B600BF7B68002B50D0F6
S31500004AD07B681B682F4A93424BD17B689A687B6838
S31500004AE0D3F8A8309A4204D27B689A687B68C3F8E8
S31500004AF0A8207B68DB681B68B3F1EF3F0DD17B68AC
S31500004B001B6901331B68B3F1EF3F06D17B68D3F80D
S31500004B10A8207B68DB689A4211D2D7F880303B63C5
S31500004B203B6B83F3108800BF7868FFF70BFEEFF34B
S31500004B3010837B637B6BC7F8803072B600BF7B68DF
S31500004B40D3F8A830043B1B68B3F1EF3F11D0D7F878
S31500004B508030BB62BB6A83F3108800BF7868FFF7BA
S31500004B607BFDEFF31083FB62FB6AC7F8803072B6F9
S31500004B7000BFD7F880307B627B6A83F3108800BF62
S31500004B80054B1B683B663B6E002B40F0B680FFF77B
S31500004B9099FEB2E044524854440E0020C40D002051
S31500004BA0BC0D0020C00D0020B00D00203B6F5B6ADD
S31500004BB0FB66FB6E7A681A623B6F7A685A627B689C
S31500004BC0FA6E5A627B683A6F1A621FE07B680022AF
S31500004BD05A637B6803221A6318E07B681B6B012B00
S31500004BE014D07B681B6B022B10D07B685B6B002B91
S31500004BF006D17B6800229A637B6800221A6305E06F
S31500004C007B6800225A637B6803221A633D4B1B684C
S31500004C10FB65BB6F3B623B6A83F3108800BF3A4B70
S31500004C201B68FA6D9A4269D0374B1B687B60EFF3BD
S31500004C301083FB61FB69FB6772B600BF7B68002BC4
S31500004C404CD07B681B68314A934247D17B689A688F
S31500004C507B68D3F8A8309A4204D27B689A687B684E
S31500004C60C3F8A8207B68DB681B68B3F1EF3F0DD162
S31500004C707B681B6901331B68B3F1EF3F06D17B6884
S31500004C80D3F8A8207B68DB689A420FD2FB6F7B6162
S31500004C907B6983F3108800BF7868FFF753FDEFF355
S31500004CA01083BB61BB69FB6772B600BF7B68D3F834
S31500004CB0A830043B1B68B3F1EF3F0FD0FB6FFB60DE
S31500004CC0FB6883F3108800BF7868FFF7C5FCEFF335
S31500004CD010833B613B69FB6772B600BFFB6FBB602D
S31500004CE0BB6883F3108800BF094B1B683B663B6EAD
S31500004CF0002B03D1FFF7E6FD00E000BF8837BD4675
S31500004D0080BD00BFAC0D0020B00D002044524854B9
S31500004D10440E002080B485B000AF0E4B4FF0805299
S31500004D205A60EFF30583BB60BB68002B0CD1EFF331
S31500004D3010833B603B68FB6062B600BFFB687B602C
S31500004D407B6883F3108800BF00BF1437BD465DF84B
S31500004D50047B704700ED00E080B5A2B000AF78603C
S31500004D60894B1B68FB67EFF310837B657B6DC7F888
S31500004D70843072B600BF7B68002B50D07B681B68FE
S31500004D80824A93424BD17B689A687B68D3F8A830F5
S31500004D909A4204D27B689A687B68C3F8A8207B682D
S31500004DA0DB681B68B3F1EF3F0DD17B681B690133EC
S31500004DB01B68B3F1EF3F06D17B68D3F8A8207B6868
S31500004DC0DB689A4211D2D7F88430FB64FB6C83F31C
S31500004DD0108800BF7868FFF7B5FCEFF310833B65DA
S31500004DE03B6DC7F8843072B600BF7B68D3F8A83035
S31500004DF0043B1B68B3F1EF3F11D0D7F884307B64D6
S31500004E007B6C83F3108800BF7868FFF725FCEFF30F
S31500004E101083BB64BB6CC7F8843072B600BFD7F88A
S31500004E208430FB63FB6B83F3108800BFEFF31083C2
S31500004E303B643B6CBB6772B600BF7A68FB6F9A42F5
S31500004E4012D17B68DB6C7B677B6F002B08D07B6F96
S31500004E50B3F1FF3F04D07B684C33184600F0C8FC22
S31500004E607B68DB694A4A13604A4B1B68013B494A27
S31500004E7013607B689B6B012B40F096807B68002259
S31500004E809A637B68DB6A3B677B681B6AFB66FA6E24
S31500004E907B689A4215D07B685B6ABB65FB6EBA6D10
S31500004EA05A62BB6DFA6E1A623B4A3B6F52F8233068
S31500004EB07A689A424BD138493B6FFA6E41F8232003
S31500004EC045E0354A3B6F002142F8231001223B6F33
S31500004ED002FA03F3BB66314B1A68BB6EDB43134021
S31500004EE02E4A136000237B662C4B1B683B663B6E89
S31500004EF0002B15D12A4B20221A602A4B00221A6059
S31500004F00BB6FBB63BB6B83F3108800BF214B1B6871
S31500004F10FB65FB6D002B40F0C180FFF7FBFEBDE09B
S31500004F203B6E3B633B6B93FAA3F3FB62FB6A7B63CB
S31500004F307B6B002B01D1202303E07B6BB3FA83F359
S31500004F40DBB2BB667A6EBB6E1344154A1360154B13
S31500004F501B687A689A4227D1114B1B680E4A52F891
S31500004F602330104A1360BB6FBB62BB6A83F31088A1
S31500004F7000BF084B1B68FB65FB6D002B40F0908063
S31500004F80FFF7C8FE8CE000BFAC0D00204452485429
S31500004F90FC0E0020440E0020C40D0020BC0D002095
S31500004FA0C00D0020B00D0020BB6F7B627B6A83F3CF
S31500004FB0108800BF3D4B1B68FA6F9A4272D03B4B7C
S31500004FC01B687B60EFF310833B623B6AC7F8803057
S31500004FD072B600BF7B68002B50D07B681B68344AD2
S31500004FE093424BD17B689A687B68D3F8A8309A4283
S31500004FF004D27B689A687B68C3F8A8207B68DB6864
S315000050001B68B3F1EF3F0DD17B681B6901331B6849
S31500005010B3F1EF3F06D17B68D3F8A8207B68DB6845
S315000050209A4211D2D7F88030BB61BB6983F31088EE
S3150000503000BF7868FFF786FBEFF31083FB61FB691F
S31500005040C7F8803072B600BF7B68D3F8A830043B3F
S315000050501B68B3F1EF3F11D0D7F880303B613B6955
S3150000506083F3108800BF7868FFF7F6FAEFF3108332
S315000050707B617B69C7F8803072B600BFD7F8803095
S31500005080FB60FB6883F3108800BF0A4B1B68FB6557
S31500005090FB6D002B06D1FFF73DFE03E000BF02E0EB
S315000050A000BF00E000BF8837BD4680BDB00D0020C0
S315000050B044524854440E002080B594B000AF804B53
S315000050C01B683B64EFF31083BB63BB6BBB6472B6B8
S315000050D000BF3B6C002B4CD03B6C1B68794A93425B
S315000050E047D13B6C9A683B6CD3F8A8309A4204D2FD
S315000050F03B6C9A683B6CC3F8A8203B6CDB681B686A
S31500005100B3F1EF3F0DD13B6C1B6901331B68B3F163
S31500005110EF3F06D13B6CD3F8A8203B6CDB689A4284
S315000051200FD2BB6C3B633B6B83F3108800BF386CBC
S31500005130FFF708FBEFF310837B637B6BBB6472B6F0
S3150000514000BF3B6CD3F8A830043B1B68B3F1EF3FBC
S315000051500FD0BB6CBB62BB6A83F3108800BF386C90
S31500005160FFF77AFAEFF31083FB62FB6ABB6472B651
S3150000517000BFBB6C3B623B6A83F3108800BF002311
S31500005180FB64EFF310837B627B6AFB6372B600BF3E
S315000051904D4B00221A603B6C002B27D03B6C1B6BDF
S315000051A0002B23D13B6CDA693B6C9A613B6C9B69A3
S315000051B0464A13603B6C1B6A3A6C9A4216D03B6CAB
S315000051C0DA6A3B6CDB6B9A4210D13B6CDB6A3A6C59
S315000051D0126A3F4941F823203E4B1B683C4A52F86D
S315000051E023303D4A13603C4B1B68FB64FB6BFB6141
S315000051F0FB6983F3108800BFFB6C002B5CD0EFF3D8
S315000052001083BB61BB697B6472B600BFFB6C002B6D
S315000052104CD0FB6C1B682B4A934247D1FB6C9A68B7
S31500005220FB6CD3F8A8309A4204D2FB6C9A68FB6CEC
S31500005230C3F8A820FB6CDB681B68B3F1EF3F0DD108
S31500005240FB6C1B6901331B68B3F1EF3F06D1FB6CA6
S31500005250D3F8A820FB6CDB689A420FD27B6C3B61CB
S315000052603B6983F3108800BFF86CFFF76BFAEFF326
S3150000527010837B617B697B6472B600BFFB6CD3F8DD
S31500005280A830043B1B68B3F1EF3F0FD07B6CBB60CB
S31500005290BB6883F3108800BFF86CFFF7DDF9EFF306
S315000052A01083FB60FB687B6472B600BF7B6C7B601F
S315000052B07B6883F3108800BF00BF5037BD4680BDB2
S315000052C0AC0D002044524854580E0020FC0E00201D
S315000052D0C40D0020C00D0020B00D002080B58AB09E
S315000052E000AF78607B687B62EFF310837B617B693C
S315000052F03B6272B600BF7B6A1B6B042B0ED1134B4D
S315000053001B680133114A13603B6A3B613B6983F3B7
S31500005310108800BF786AFFF7F7FA13E07B6A9B6E86
S31500005320FB617B6AD3F8AC30BB613B6AFB60FB6810
S3150000533083F3108800BFFB69002B03D0FB69B969B2
S31500005340786A984700BF2837BD4680BD440E0020C6
S3150000535080B485B000AFEFF310833B603B68FB6021
S3150000536072B600BF074B1B68BB60FB687B607B683F
S3150000537083F3108800BFBB6818461437BD465DF836
S31500005380047B7047540E002080B586B000AF78606D
S31500005390EFF31083FB60FB683B6172B600BF7B686E
S315000053A01B6A002B02D017237B610DE07B689B688C
S315000053B0002B02D117237B6106E07B680833184671
S315000053C000F016FA00237B613B69BB60BB6883F380
S315000053D0108800BF7B6918461837BD4680BDFFFFA1
S315000053E080B58AB000AFF860B9607A603B602C2265
S315000053F00021F86804F08AF8FB68BA685A60FB680E
S315000054003A6B9A60FB687A6BDA60FB687A681A61B5
S31500005410FB683A685A61EFF31083BB61BB697B6234
S3150000542072B600BFFB681D4A1A601D4B1B68002B35
S3150000543009D11C4AFB681360FB68FA685A62FB686C
S31500005440FA689A6211E0174B1B683B623B6A9B6ADB
S31500005450FB613B6AFA689A62FB69FA685A62FB6802
S31500005460FA699A62FB683A6A5A620D4B1B68013305
S315000054700B4A1360BB6B012B04D1FB68083318463B
S3150000548000F0B6F97B6A7B617B6983F3108800BF05
S31500005490002318462837BD4680BD00BF4D495441FC
S315000054A0F00E0020EC0E002080B48DB000AF7860C6
S315000054B07B6808337B62EFF310833B613B693B6299
S315000054C072B600BF7B6A9B69FB61FB69002B7FD0CC
S315000054D00023BB62454B1B68FA699A4206D3444BCC
S315000054E01B68FA699A4201D20123BB62BB6A012B8F
S315000054F02ED1404B1B68FA699A4207D33D4B1B6875
