S01D0000454B5F5241364D345F4D6963726F524F535F5553422E7372656338
S3150000000048820020618E00007D8B00006F8E00000C
S315000000106F8E00006F8E00006F8E00006F8E0000E6
S315000000200000000000000000000000006F8E0000CD
S315000000306F8E0000000000006F8E00006F8E0000C3
S3150000004059860000A3360000C7360000FD360000C2
S315000000501D37000000000000000000000000000046
S31500000060000000000000000000000000000000008A
S31500000070000000000000000000000000000000007A
S31500000080000000000000000000000000000000006A
S31500000090000000000000000000000000000000005A
S315000000A0000000000000000000000000000000004A
S315000000B0000000000000000000000000000000003A
S315000000C0000000000000000000000000000000002A
S315000000D0000000000000000000000000000000001A
S315000000E0000000000000000000000000000000000A
S315000000F000000000000000000000000000000000FA
S3150000010000000000000000000000000000000000E9
S3150000011000000000000000000000000000000000D9
S3150000012000000000000000000000000000000000C9
S3150000013000000000000000000000000000000000B9
S3150000014000000000000000000000000000000000A9
S315000001500000000000000000000000000000000099
S315000001600000000000000000000000000000000089
S315000001700000000000000000000000000000000079
S315000001800000000000000000000000000000000069
S315000001900000000000000000000000000000000059
S315000001A00000000000000000000000000000000049
S315000001B00000000000000000000000000000000039
S315000001C0FFFFFFFFFFFFFFFFFFFFFFFFFFFFFFFF39
S315000001D0FFFFFFFFFFFFFFFFFFFFFFFFFFFFFFFF29
S315000001E0FFFFFFFFFFFFFFFFFFFFFFFFFFFFFFFF19
S315000001F0FFFFFFFFFFFFFFFFFFFFFFFFFFFFFFFF09
S3150000020010B5054C237833B9044B13B1044800E00C
S3150000021000BF0123237010BD48030020000000002A
S315000002203891010008B5034B1BB10349034800E0B0
S3150000023000BF08BD000000004C03002038910100FB
S3150000024080B483B000AF244B7B607B6803221A61C5
S315000002507B6803225A617B68204A9A617B68204A40
S31500000260DA617B684FF480621A627B6800229A62C8
S315000002707B6800225A627B680022DA627B68174A32
S315000002801A667B68174A5A667B6810229A667B68EC
S3150000029000221A677B680022DA667B6800225A67AA
S315000002A07B680733104A10681860BFF35F8F7B685E
S315000002B00E4A106818609188927999809A71BFF3F6
S315000002C05F8F7B6820229A71BFF35F8F00BF0C3768
S315000002D0BD465DF8047B704764030020F07C010096
S315000002E00C0400200C080020FC7C0100007D0100AD
S315000002F080B58AB000AFF860B9607A6000233B62CF
S31500000300FB68DB68FB61FB681B69BB61BA69FB695B
S315000003109A4205D9BA69FB69D31A013B7B6207E0A9
S31500000320FB689A68B969FB69CB1A1344013B7B6287
S31500000330FB689A68FB69D31A7A6A934228BF134608
S315000003407B627A6A7B68934228BF13467B62FB68AE
S315000003505A68FB6913447B617A6AB968786916F052
S3150000036019F83A6A7B6A13443B62BA687B6A13449B
S31500000370BB607A687B6AD31A7B60FA697B6A13442E
S31500000380FB61FB689B68FA699A4201D10023FB6115
S31500000390BFF35F8FFB68FA69DA607B68002BB2D126
S315000003A03B6A18462837BD4680BD80B588B000AF89
S315000003B0F860B9607A60FB68DB68FB61FB689A6885
S315000003C0FB69D31ABB61BA697B689A4211D9FB688B
S315000003D05A68FB6913443B617A68B968386915F055
S315000003E0D9FFBFF35F8FFA697B681A44FB68DA604E
S315000003F01FE0BB697B61FB685A68FB6913443B617C
S315000004007A69B968386915F0C5FF7A68BB69D31A85
S315000004107B61FB685B683B61BA68BB6913447A69B8
S315000004201946386915F0B6FFBFF35F8FFB687A6926
S31500000430DA6000BF2037BD4680BD80B487B000AF0C
S3150000044078607B681B693B617B68DB68FB603A69A7
S31500000450FB689A4208D87B689A68FB68D21A3B699F
S315000004601344013B7B6104E03A69FB68D31A013B04
S315000004707B617B6918461C37BD465DF8047B704777
S3150000048080B588B000AFF860B9607A60BB68BB61C0
S31500000490FB685A1C13465B001344DB001F4A1344D7
S315000004A07B617B695B69022B29D0022B2ED8002B3E
S315000004B002D0012B13D029E07869FFF7BEFF38611F
S315000004C03A697B689A4202D20023FB6121E07B688D
S315000004D0FB617A68B9697869FFF767FF19E078699F
S315000004E0FFF7ABFF38617A683B69934228BF134632
S315000004F0FB61FA69B9697869FFF757FF09E07A681D
S31500000500B9697869FFF7F4FEF86102E00023FB6140
S3150000051000BFFB6918462037BD4680BD6403002036
S3150000052080B588B000AFF860B9607A600E4BFB61A9
S31500000530FB691B785BB2002B01D1FFF781FEEFF35D
S3150000054011834FF0200181F31188BB617A68B96885
S31500000550F868FFF795FF7861BB6983F311887B69BB
S3150000056018462037BD4680BD6403002080B584B0A0
S3150000057000AF78600B46FB707B689B68FB60FB688E
S315000005805A1C7B685B689A420ED87B681A68FB68BF
S315000005901344FA781A70FB685A1C7B689A607B6869
S315000005A0DB685A1C7B68DA607B689A687B685B68E4
S315000005B09A4215D17B6818697B6819687B689B68C5
S315000005C01A46FFF7ADFF02467B689B689A4204D045
S315000005D07B684FF0FF32DA6002E07B6800229A60A7
S315000005E000BF1037BD4680BD80B58AB000AFF86049
S315000005F0B9607A603B60BB683B6201237B62012382
S31500000600FB6107E03A6A7B68B2FBF3F33B62FB6986
S315000006100133FB613A6A7B689A42F3D23A68FB6916
S315000006209A4201D93B68FB617B6B03F00103002B07
S3150000063026D13B6B002B23D07B6B03F00203002BF0
S3150000064005D03B68002B02D13023FB7601E0202346
S31500000650FB760CE03B6B013B3B6397F91B3019467D
S31500000660F868FFF783FFFB68DB68002B07DB3B6B53
S31500000670002B05D0FA693B6B9A42EBD300E000BF32
S31500000680FB68DB68002B56DB3B68012B03D93B6814
S31500000690013B3B6009E0BA687B6AB2FBF3F37B611E
S315000006A07A697B689A4200D205E07B6A7A6802FB27
S315000006B003F37B62E8E7BA687B6AB2FBF3F37B611C
S315000006C07B697A6A02FB03F3BA68D31ABB601C4AD9
S315000006D07B69134493F900301946F868FFF746FF23
S315000006E0FB68DB68002B08DB7A6A7B68B2FBF3F3F6
S315000006F07B627B6A002BDED100E000BF7B6B03F0E0
S315000007000103002B17D03B6B002B14D00AE03B6B88
S31500000710013B3B632021F868FFF728FFFB68DB6895
S31500000720002B07DB3B6B002B05D0FA693B6B9A422B
S31500000730EDD300E000BF00BF2837BD4680BD00BF37
S31500000740087D010080B588B002AFF860B9607A60B4
S315000007503B60BB68002BB8BF5B423B6101237B61FA
S3150000076007E07B683A6992FBF3F33B617B690133EF
S315000007707B617B683A699A42F3DA3A687B699A4206
S3150000078001D93B687B613B6A002B0AD0BB68002B12
S3150000079004DB7B6A03F00403002B02D03B6A013BB7
S315000007A03B627B6A03F00203002B02D03B68002BFE
S315000007B01CD07B6A03F00103002B17D13B6A002B88
S315000007C014D00AE03B6A013B3B622021F868FFF740
S315000007D0CDFEFB68DB68002B07DB3B6A002B05D0F0
S315000007E07A693B6A9A42EDD300E000BFFB68DB689A
S315000007F0002B4ADBBB68002B07DABB685B42BB6099
S315000008002D21F868FFF7B2FE08E07B6A03F00403C7
S31500000810002B03D02B21F868FFF7A8FEFB68DB68E6
S31500000820002B32DB7B6A03F00203002B1FD07B6AAE
S3150000083003F00103002B1AD13B68002B17D13B6A4A
S31500000840002B14D00AE03B6A013B3B623021F8687A
S31500000850FFF78CFEFB68DB68002B07DB3B6A002B8F
S3150000086005D07A693B6A9A42EDD300E000BFFB6887
S31500000870DB68002B09DBB9687B6A01933B6A00934E
S315000008803B687A68F868FFF7AFFE00BF1837BD46C9
S3150000089080BDFFFF80B5A2B002AFF860B9607A6094
S315000008A007F110033B6540237B650023BB65FB68AE
S315000008B03B660023FB65BB681B7887F87F30BB6807
S315000008C00133BB6097F97F30002B00F09F8197F9C9
S315000008D07F30252B40F08D8100233B670123BB67CA
S315000008E0BB681B7887F87F3097F97F30233B0D2B49
S315000008F03ED801A252F823F06109000071090000F8
S3150000090071090000710900007109000071090000F9
S315000009107109000071090000510900007109000009
S315000009203109000071090000710900004109000049
S315000009303B6F43F001033B67BB680133BB601AE0C2
S315000009403B6F43F002033B67BB680133BB6012E0B9
S315000009503B6F43F004033B67BB680133BB600AE0AF
S315000009603B6F43F008033B67BB680133BB6002E0A3
S315000009700023BB6700BFBB6F002BB1D10023FB6612
S31500000980BB681B7887F87F3097F97F302F2B12DDF5
S3150000099097F97F30392B0EDCBB680133BB60FA6EEA
S315000009A013469B0013445B001A4697F97F301344A5
S315000009B0303BFB66E4E700237B67BB681B7887F860
S315000009C07F3097F97F302E2B1DD1BB680133BB607A
S315000009D0BB681B7887F87F3097F97F302F2B12DDA5
S315000009E097F97F30392B0EDCBB680133BB607A6F19
S315000009F013469B0013445B001A4697F97F30134455
S31500000A00303B7B67E4E7BB681B7887F87F3097F954
S31500000A107F306C2B03D097F97F30682B07D1BB68EA
S31500000A200133BB60BB681B7887F87F30EFE797F927
S31500000A307F30252B00F0D180252BC0F2D580782B76
S31500000A4000F3D280582BC0F2CF80583B202B00F207
S31500000A50CB8001A252F823F04F0B0000E90B0000F7
S31500000A60E90B0000E90B0000E90B0000E90B0000B0
S31500000A70E90B0000E90B0000E90B0000E90B0000A0
S31500000A80E90B0000DD0A0000030B0000E90B000083
S31500000A90E90B0000E90B0000E90B0000E90B000080
S31500000AA0E90B0000E90B0000E90B0000E90B000070
S31500000AB0E90B0000E90B0000B50B0000E90B000094
S31500000AC0E90B0000750B0000E90B0000290B000084
S31500000AD0E90B0000E90B00004F0B00007B681B6868
S31500000AE0191D7A6811601B68BB67BB6F87F8673092
S31500000AF097F9672007F1500311461846FFF736FDB0
S31500000B0073E07B681B68191D7A6811601B68BB67F8
S31500000B1007F150003B6F0193FB6E00937B6F0A2237
S31500000B20B96FFFF70FFE60E07B681B68191D7A68D6
S31500000B3011601B68BB67B96F07F150003B6F0193EB
S31500000B40FB6E00937B6F0A22FFF74EFD4DE07B683C
S31500000B501B68191D7A6811601B68BB67B96F07F1BE
S31500000B6050003B6F0193FB6E00937B6F1022FFF7E3
S31500000B703BFD3AE07B681B68191D7A6811601B68AB
S31500000B80BB66BB6E1B7887F87F30BB6E0133BB66D6
S31500000B9097F97F30002B0BD097F97F2007F1500390
S31500000BA011461846FFF7E2FCFB6D002BE9DA1CE064
S31500000BB000BF1AE07B681B68191D7A6811601B6804
S31500000BC0BB67B96F07F15000002301930823009318
S31500000BD008231022FFF708FD07E007F1500325213F
S31500000BE01846FFF7C3FC00E000BFBB680133BB60DB
S31500000BF007E097F97F2007F1500311461846FFF7E3
S31500000C00B5FCFB6D002BBFF656AE00E000BFFB6DDA
S31500000C10002B0DDDBB6D002B06D0BA6D07F110035E
S31500000C201946F868FFF77CFCFB6DBA6D1344FB654B
S31500000C30FB6D18468037BD4680BD00BF0EB480B53B
S31500000C4085B000AF786007F12003BB6007F10803A9
S31500000C501A46F9697868FFF71DFEF860FB681846C2
S31500000C601437BD46BDE8804003B0704780B485B0F8
S31500000C7000AF03460A46FB8013467B711449FB8886
S31500000C801B0A9BB21A46FB88DBB21201134451F8C9
S31500000C902330FB60FB6823F0011323F44043FB6021
S31500000CA07B79FA681343BB600948FB881B0A9BB231
S31500000CB01946FB88DBB2BA6842F0040209010B440C
S31500000CC040F8232000BF1437BD465DF8047B70470B
S31500000CD00008084080B485B000AF0023FB60EFF346
S31500000CE010837B607B68FB600123BB60BB6883F37A
S31500000CF0108800BF0D4B1B68002B05D10C4B002242
S31500000D00DA700B4B4022DA70084B1B680133074A36
S31500000D101360FB683B603B6883F3108800BF00BF2D
S31500000D201437BD465DF8047B704700BF841400206D
S31500000D30000D084080B582B000AF03460A46FB713D
S31500000D401346BB71FFF7C6FF074B5A68FB795B007A
S31500000D5013441B88BA7911461846FFF787FF00BF70
S31500000D600837BD4680BD00BF9C83010080B588B0B2
S31500000D7002AF174B0193174B0093174B174A0021ED
S31500000D80012009F01DFA3B1D184609F04BF9144BDA
S31500000D907B60144BBB60144BFB60144B3B613B1DEB
S31500000DA0184609F04FF9034683F00103DBB2002B26
S31500000DB003D02B210E4815F013FC01210020FFF76C
S31500000DC0B9FF00F0F3F800BF1837BD4680BD00BF7D
S31500000DD08916000065160000491600002516000059
S31500000DE01D0E00003B0E0000530E0000730E0000A7
S31500000DF0187D010080B582B000AF0346FB71FB7918
S31500000E00022B03D10349044807F0C4F800BF083792
S31500000E10BD4680BDA88201003C0C002080B584B090
S31500000E2000AF78603960786815F094FA0346FB6085
S31500000E30FB6818461037BD4680BD80B582B000AF4E
S31500000E4078603960786815F08DFA00BF0837BD46BE
S31500000E5080BD80B586B000AFF860B9607A60B968C9
S31500000E60F86815F041FC78617B6918461837BD466D
S31500000E7080BD80B586B000AFF860B9607A60FB6867
S31500000E80BA6802FB03F3184615F064FA03467B6161
S31500000E90FB68BA6802FB03F31A460021786915F06D
S31500000EA0A0FA7B6918461837BD4680BD80B485B068
S31500000EB000AF03460A46FB8013467B711449FB8844
S31500000EC01B0A9BB21A46FB88DBB21201134451F887
S31500000ED02330FB60FB6823F0011323F44043FB60DF
S31500000EE07B79FA681343BB600948FB881B0A9BB2EF
S31500000EF01946FB88DBB2BA6842F0040209010B44CA
S31500000F0040F8232000BF1437BD465DF8047B7047C8
S31500000F100008084080B485B000AF0023FB60EFF303
S31500000F2010837B607B68FB600123BB60BB6883F337
S31500000F30108800BF0D4B1B68002B05D10C4B0022FF
S31500000F40DA700B4B4022DA70084B1B680133074AF4
S31500000F501360FB683B603B6883F3108800BF00BFEB
S31500000F601437BD465DF8047B704700BF841400202B
S31500000F70000D084080B582B000AF03460A46FB71FB
S31500000F801346BB71FFF7C6FF074B5A68FB795B0038
S31500000F9013441B88BA7911461846FFF787FF00BF2E
S31500000FA00837BD4680BD00BF9C83010080B5C0B038
S31500000FB002AF0023C7F8EC3007F1D803184609F052
S31500000FC05FF80023C7F8D4300023C7F8D03007F104
S31500000FD04803184608F066FC00237B6400233B6444
S31500000FE007F1D80307F10C000022002108F024FFC6
S31500000FF007F10C03381DA64AA64908F067FFC7F893
S31500001000EC00D7F8EC30002B26D0D7F8EC20A2491C
S315000010100020FFF713FE012387F8F73097F8F73023
S31500001020002B14BF01230023DBB283F00103DBB2E4
S3150000103087F8F73097F8F73003F0010387F8F730B1
S3150000104097F8F73019460220FFF794FF4FF47A71AC
S31500001050642007F0C3FCE1E790490020FFF7EEFDAE
S3150000106009F0D6FD0246391D07F1D4008C4B08F075
S3150000107069FFC7F8EC00D7F8EC30002B26D0D7F87C
S31500001080EC2088490020FFF7D9FD012387F8F630C8
S3150000109097F8F630002B14BF01230023DBB283F050
S315000010A00103DBB287F8F63097F8F63003F0010358
S315000010B087F8F63097F8F63019460220FFF75AFF00
S315000010C04FF47A71642007F089FCE1E77649002045
S315000010D0FFF7B4FD09F09CFD0246391D07F1D0006B
S315000010E0724B08F063FFC7F8EC00D7F8EC30002B22
S315000010F026D0D7F8EC206E490020FFF79FFD01238C
S3150000110087F8F53097F8F530002B14BF012300233C
S31500001110DBB283F00103DBB287F8F53097F8F530E0
S3150000112003F0010387F8F53097F8F53019460220E9
S31500001130FFF720FF4FF47A71642007F04FFCE1E7D8
S315000011405C490020FFF77AFD07F1D80307F10C018F
S3150000115007F14800012208F0AFFBC7F8EC00D7F80A
S31500001160EC30002B26D0D7F8EC2053490020FFF7AF
S3150000117065FD012387F8F43097F8F430002B14BF8F
S3150000118001230023DBB283F00103DBB287F8F430DE
S3150000119097F8F43003F0010387F8F43097F8F43049
S315000011A019460220FFF7E6FE4FF47A71642007F035
S315000011B015FCE1E741490020FFF740FD07F1400239
S315000011C007F1D00107F14800002300933C4B08F0DB
S315000011D0DFFBC7F8EC00D7F8EC30002B26D0D7F8A9
S315000011E0EC2038490020FFF729FD012387F8F3306A
S315000011F097F8F330002B14BF01230023DBB283F0F2
S315000012000103DBB287F8F33097F8F33003F00103FC
S3150000121087F8F33097F8F33019460220FFF7AAFE55
S315000012204FF47A71642007F0D9FBE1E726490020E4
S31500001230FFF704FD07F14801244A4FF00003084672
S3150000124008F0C2FD224B1B78002B04D0204B002255
S315000012501A703B6C7B6407F1440107F1D40300224A
S31500001260184607F08FFFC7F8EC00D7F8EC30002BD4
S3150000127005D0D7F8EC2017490020FFF7DFFC7B6C80
S3150000128001337B644FF47A71642007F0A7FBD1E742
S31500001290407D0100447D0100547D01008C7D0100EC
S315000012A0B07D0100C07D0100007E0100287E0100A6
S315000012B0387E0100787E0100A47E0100D87E010000
S315000012C0D9120000F87E0100387F010040420F006D
S315000012D01C080020647F010080B584B000AF7860F0
S315000012E07B68FB60FB681B681A4605490020FFF710
S315000012F0A5FC044B01221A7000BF1037BD4680BD05
S31500001300947F01001C080020B0B483B000AF786061
S31500001310064BD3E90023541C43F10005034BC3E9F4
S31500001320004500BF0C37BD46B0BC70472008002002
S315000013302DE9B04F8EB000AF78623962584B1B78FA
S3150000134083F00103DBB2002B41D05649564807F023
S3150000135003F8554807F09AF8524B1B7A1A460123B0
S315000013609340184614F006FB47A3D3E9002314F074
S3150000137095FC02460B461046194645A3D3E90023C1
S3150000138014F062FB02460B461046194614F0D6FDD1
S3150000139002460B464549C1E90023424B5B680022E1
S315000013A0BB61FA61414BD3E90023F96902FB01F005
S315000013B0B96901FB03F10144B869A0FB02454B1969
S315000013C01D463B4BC3E90045354B01221A7007F118
S315000013D028031946344807F07FF8324B5A68BB6A2F
S315000013E0D31A00223B617A61304BD3E90023D7E957
S315000013F00445294602FB01F0214601FB03F10144A5
S315000014002046A0FB028901EB09039946294BD3E943
S315000014100001274BD3E9002302FB01F500FB03F48F
S315000014202C44A0FB02AB04EB0B039B4618EB0A0310
S315000014303B6049EB0B037B60D7E90034C7E90C340A
S31500001440D7E90C0114A3D3E9002314F05FFD02468B
S315000014500B461346DA17BB60FA603B6AD7E90212FD
S31500001460C3E90012D7E90C010BA3D3E9002314F05A
S315000014704DFD3B6A9A60002318463837BD46BDE8E5
S31500001480B08F00BFAFF300800000000084D7874113
S315000014900000000065CDCD4100CA9A3B0000000067
S315000014A01D080020F07F0100680C0020280800209D
S315000014B030080020200800202DE9B0438AB000AF94
S315000014C0B9607A603B600346FB730023FB7500231B
S315000014D07B62FB7B012B08D14D4B1B787A68B96880
S315000014E04C4806F051FB78620BE0FB7B022B08D1DF
S315000014F0474B1B784FF47A724749464806F004FB7F
S31500001500786207F041FDC7E9060168E007F11703B5
S315000015101946404806F0C4F978627B6A002B01D070
S31500001520002370E0FB7D033B072B57D801A252F83E
S3150000153023F000BF55150000DD150000DD15000085
S31500001540DD1500006B150000DD1500005F150000BD
S3150000155055150000FB7B012B41D17B6853E0FB7BDB
S31500001560022B3CD12B4B9B684DE02C49294806F0B9
S3150000157098FC2A4B1B8803F47F43B3F5005F0AD11E
S3150000158007222749234806F0E1FB78627B6A002B95
S3150000159025D0002337E0214B1B8803F47F43B3F5A6
S315000015A0045F0AD107221E491A4806F00CFC78622D
S315000015B07B6A002B13D0002325E0184B1B8803F40D
S315000015C07F43B3F5085F0AD10021124806F038FCC4
S315000015D078627B6A002B02D0002314E000BF3B68D0
S315000015E0B3F1FF3F92D007F0CFFCD7E90623841A68
S315000015F061EB03053B68DA1798469146444575EB5F
S31500001600090383DB002318462837BD46BDE8B083AF
S3150000161038080020440C00204C0800203C0800201C
S315000016204408002080B582B000AF786004490548C0
S3150000163006F07AF9012318460837BD4680BD00BF7B
S31500001640BC7F0100440C002080B582B000AF7860FA
S31500001650034806F017FA012318460837BD4680BD31
S31500001660440C002080B584B000AFF860B9607A60A1
S315000016703B6064237A68B9680120FFF71DFF0346C3
S3150000168018461037BD4680BD80B586B000AFF860FD
S31500001690B9607A603B6000237B611C4B1B68002BA2
S315000016A01CD13B68002200210220FFF705FF0346FC
S315000016B0164A1360164B00221A600FE0144B1A6884
S315000016C0B9687B690B4413498A5C1A70104B1B6816
S315000016D001330F4A13607B6901337B610C4B1A6837
S315000016E00A4B1B689A4203D27A697B689A42E5D311
S315000016F0074B1A68054B1B689A4202D1034B00221E
S315000017001A607B6918461837BD4680BD340C002028
S31500001710380C00204C08002080B500AFFFF726FBF0
S315000017200023184680BDFFFF80B58CB000AF7860FF
S315000017300B467B8013463B801E4B1B88012B35D105
S315000017407B68DA687B681B69D31A7B617B68DB8BF5
S31500001750DBB2BB73BB7B022B02D18023FB7301E0A0
S315000017608223FB737B689B8C052B0DD0052B0FDC2E
S31500001770032B02D0042B03D00AE000233B820BE0AC
S3150000178040F2DE533B8207E040F2DF533B8203E048
S3150000179040F2DC533B8200BF7B6893F820303B73FA
S315000017A007F10C031946092002F03CFF00BF303751
S315000017B0BD4680BDE80F002080B58CB000AF7860D4
S315000017C00B467B8013463B80194B1B88012B2BD184
S315000017D07B68DB8BDBB2BB73BB7B012B02D1802327
S315000017E0FB730DE0BB7B002B02D18223FB7307E06A
S315000017F0BB7B002B02D18323FB7301E08123FB73A8
S315000018007B689B8C012B02D100233B8202E040F2D5
S31500001810DC533B827B6893F820303B7307F10C0363
S3150000182019460A2002F0FEFE00BF3037BD4680BDD5
S31500001830E80F002080B584B000AF78600B467B804F
S315000018407B88002B17D1786800F0ACFF0346BB817C
S31500001850BB8903F48073002B03D04FF48073FB81A4
S3150000186017E0786800F0F4FF0346BB81BB8903F0FC
S315000018707F03FB810DE07B881946786801F05AF8F2
S31500001880786801F0D7F80346BB81BB89C3F30A0326
S31500001890FB81FB8918461037BD4680BD90B585B0E3
S315000018A000AF78600B467B800023FB817B6893F852
S315000018B02030BB81BB89584A32F813309BB2022BC9
S315000018C00FD17B88554A002142F823107B881946A0
S315000018D0786803F049FF0346FB817B6893F8203064
S315000018E0BB817B881946786800F0B0FC7B88194676
S315000018F0786800F02BFD7B881946786800F09CFD1F
S315000019007B881946786802F043FE7B88194678681A
S3150000191001F010F8FB89012B02D0FB89022B1FD1A5
S31500001920B9897A883E4813469B0013445B006422BB
S3150000193001FB02F21344034402331B88B9897A88F7
S3150000194043F480639CB2364813469B0013445B0005
S31500001950642201FB02F213440344023322461A8036
S31500001960B9897A882E4813469B0013445B0064228B
S3150000197001FB02F21344034402331B8819467868BC
S3150000198001F02EF8B9897A88254813469B0013443E
S315000019905B00642201FB02F21344034406331B88F6
S315000019A01946786801F072F8B9897A881C48134696
S315000019B09B0013445B00642201FB02F213440344C0
S315000019C008331B881946786801F08AF80021786880
S315000019D000F0B0FF7B881946786801F099F97B889A
S315000019E01946786802F0A8FD7B881946786801F0E8
S315000019F0E9F87B881946786800F07CFD7B881946F3
S31500001A00786800F0B3FD7B881946786800F0EAFD37
S31500001A1000BF1437BD4690BD20140020D80C00200E
S31500001A20000D002080B582B000AF78600B467B8049
S31500001A307B6893F820301A46304B33F812309BB24D
S31500001A40022B04D17B882E4A002142F823107B8882
S31500001A501946786802F09CFD7B881946786800F084
S31500001A60F5FB7B881946786800F070FC7B88194680
S31500001A70786800F0E1FC002300220021786800F07D
S31500001A80A8F87B881946786800F054FF002178682A
S31500001A9000F0A6FF0021786800F0F8FF00217868C2
S31500001AA001F01EF80021786800F044FF7B88194693
S31500001AB0786801F02DF97B881946786802F03CFDBC
S31500001AC07B881946786801F07DF87B881946786826
S31500001AD000F0CFF87B881946786800F00BFD7B880C
S31500001AE01946786800F042FD7B881946786800F050
S31500001AF079FD00BF0837BD4680BD00BF2014002019
S31500001B00D80C002080B584B000AF78600B467B808F
S31500001B107B8801221946786801F0B6F90023FB811B
S31500001B2011E07B881946786801F004F80346BB810A
S31500001B30BB8903F02003002B02D14FF6FE73FB8115
S31500001B40FB890133FB81FB894FF6FF729342E8D193
S31500001B5000BF00BF1037BD4680BD80B586B000AF60
S31500001B60F860084611461A4603467B810B463B81C0
S31500001B701346FB80FB883A897989F86800F029F8D2
S31500001B800023FB821DE03B891946F86800F0D8FA6D
S31500001B900346BB82BB8A03F40053002B01D0BB8AE9
S31500001BA013E0F86800F07AF80346BB82F86800F0A4
S31500001BB09FF80346BB820A2001F03AFDFB8A0133F7
S31500001BC0FB82FB8A632BDED9FF2318461837BD46F6
S31500001BD080BD80B586B000AFF860084611461A464B
S31500001BE003467B810B463B811346FB803B89002BDA
S31500001BF01ED1FA887B8913439BB26FEA43436FEA8F
S31500001C0053439AB248F22F030021F86800F0E1F935
S31500001C100021F86800F0C8F90346FB82FB8A03F04E
S31500001C202F03F9887A890A4392B29342F0D100E0F1
S31500001C3000BF00BF1837BD4680BD80B582B000AF7B
S31500001C4078600B467B8013463B807B881946786814
S31500001C5001F0D8F93A887B881946786801F00AFAC3
S31500001C607B881946786801F05DF900BF0837BD46E4
S31500001C7080BD80B582B000AF78600B467B807B88E4
S31500001C801946786801F086F97B881946786801F06C
S31500001C90B9F900BF0837BD4680BDFFFF80B485B0E7
S31500001CA000AF78600023FB817B6893F820301A46EA
S31500001CB00C4B33F812309BB2022B0BD17B6893F896
S31500001CC02030002B03D1084B1B88FB8102E0074B19
S31500001CD01B88FB81FB8918461437BD465DF8047BDB
S31500001CE0704700BF2014002000000940001011407A
S31500001CF080B485B000AF78600023FB817B6893F8E1
S31500001D0020301A460C4B33F812309BB2022B0BD103
S31500001D107B6893F82030002B03D1084B9B88FB810E
S31500001D2002E0074B9B88FB81FB8918461437BD46AA
S31500001D305DF8047B704700BF2014002000000940B6
S31500001D400010114080B485B000AF78600023FB819D
S31500001D507B6893F820301A460C4B33F812309BB24E
S31500001D60022B0BD17B6893F82030002B03D1084B54
S31500001D701B89FB8102E0074B1B89FB81FB89184607
S31500001D801437BD465DF8047B704700BF2014002061
S31500001D90000009400010114080B485B000AF7860A3
S31500001DA00B467B800023FB817B6893F820301A4624
S31500001DB00E4B33F812309BB2022B10D17B88002BCE
S31500001DC00CD17B6893F82030012B03D1084BDB8ABA
S31500001DD0FB8104E0074B9B8AFB8100E000BFFB8987
S31500001DE018461437BD465DF8047B70472014002062
S31500001DF0001011400000094080B485B000AF786043
S31500001E000B467B8013463B800023FB817B6893F85F
S31500001E1020301A46174B33F812309BB2022B09D1E9
S31500001E207B6893F82030012B02D10123FB8101E06E
S31500001E300023FB81FB89002B16D17B88022B0ED059
S31500001E40022B10DC002B02D0012B04D00BE00A4A37
S31500001E503B88938208E0084A3B88138304E0064ADD
S31500001E603B88938300E000BF00BF1437BD465DF892
S31500001E70047B7047201400200000094080B485B020
S31500001E8000AF78600B467B8013467B700023FB8196
S31500001E907B6893F820301A46174B33F812309BB202
S31500001EA0022B09D17B6893F82030012B02D1012344
S31500001EB0FB8101E00023FB81FB89002B16D17B8887
S31500001EC0022B0ED0022B10DC002B02D0012B04D0EB
S31500001ED00BE00A4A7B78137508E0084A7B7813768C
S31500001EE004E0064A7B78137700E000BF00BF143792
S31500001EF0BD465DF8047B70472014002000000940B1
S31500001F0080B485B000AF78600B467B800023FB6011
S31500001F107B6893F820301A461C4B33F812309BB27C
S31500001F20022B2BD17B88022B1CD0022B25DC002B0D
S31500001F3002D0012B0BD020E07B6893F82030012BD8
S31500001F4002D1134BFB6019E0124BFB6016E07B6875
S31500001F5093F82030012B02D10F4BFB600EE00F4BA4
S31500001F60FB600BE07B6893F82030012B02D10C4B11
S31500001F70FB6003E00B4BFB6000E000BFFB6818460C
S31500001F801437BD465DF8047B704700BF201400205F
S31500001F902010114020000940281011402800094057
S31500001FA02C1011402C00094080B584B000AF786039
S31500001FB00B467B800023FB607B8819467868FFF719
S31500001FC09FFFF860FB681B889BB218461037BD461A
S31500001FD080BD80B586B000AFF860084611461A4647
S31500001FE003467B810B463B811346FB8000237B61C6
S31500001FF07B891946F868FFF783FF78617B691B8840
S315000020007B82B7F90630DB431AB2B7F912301340B8
S315000020101BB27B823A89FB8813409AB27B8A1343B0
S315000020207B827B697A8A1A8000BF1837BD4680BDDD
S3150000203080B584B000AF78600B467B8013463B804A
S315000020400023FB607B8819467868FFF759FFF86024
S315000020507B6893F820301A460E4B33F812309BB249
S31500002060022B12D1FB681B889BB223F440639AB201
S31500002070FB681A803B88002B07D0FB681B889AB246
S315000020803B8813439AB2FB681A8000BF1037BD46DF
S3150000209080BD00BF2014002080B485B000AF7860FA
S315000020A00B467B800023FB607B6893F820301A4642
S315000020B01C4B33F812309BB2022B2BD17B88022BA0
S315000020C01CD0022B25DC002B02D0012B0BD020E0EC
S315000020D07B6893F82030012B02D1134BFB6019E08B
S315000020E0124BFB6016E07B6893F82030012B02D17F
S315000020F00F4BFB600EE00F4BFB600BE07B6893F829
S315000021002030012B02D10C4BFB6003E00B4BFB6034
S3150000211000E000BFFB6818461437BD465DF8047B37
S31500002120704700BF201400202210114022000940F1
S315000021302A1011402A0009402E1011402E00094095
S3150000214080B584B000AF78600B467B800023FB60CF
S315000021507B8819467868FFF79FFFF860FB681B8845
S315000021609BB218461037BD4680BD80B584B000AF1F
S3150000217078600B467B800023FB607B881946786875
S31500002180FFF78AFFF860FB681B889BB26FEA434340
S315000021906FEA53439AB2FB681A8000BF1037BD46F8
S315000021A080BD80B584B000AF78600B467B8000238D
S315000021B0FB607B8819467868FFF76EFFF860FB685E
S315000021C04FF480421A8000BF1037BD4680BDFFFF26
S315000021D080B483B000AF78600B467B807B6893F851
S315000021E020301A46164B33F812309BB2022B21D1FF
S315000021F07B6893F82030002B0ED1124BDB8E9BB2FE
S315000022001AB27B88012101FA03F31BB213431AB2F7
S315000022100C4B92B2DA860DE00B4BDB8E9BB21AB2F8
S315000022207B88012101FA03F31BB213431AB2064B52
S3150000223092B2DA8600BF0C37BD465DF8047B704764
S3150000224020140020000009400010114080B483B023
S3150000225000AF78600B467B807B6893F820301A4687
S31500002260184B33F812309BB2022B25D17B6893F8BA
S315000022702030002B10D1144BDB8E9BB21AB27B8818
S31500002280012101FA03F31BB2DB431BB213401AB25E
S315000022900D4B92B2DA860FE00C4BDB8E9BB21AB274
S315000022A07B88012101FA03F31BB2DB431BB2134007
S315000022B01AB2064B92B2DA8600BF0C37BD465DF8FD
S315000022C0047B7047201400200000094000101140D4
S315000022D080B483B000AF78600B467B807B6893F850
S315000022E020301A46164B33F812309BB2022B21D1FE
S315000022F07B6893F82030002B0ED1124B1B8F9BB2BC
S315000023001AB27B88012101FA03F31BB213431AB2F6
S315000023100C4B92B21A870DE00B4B1B8F9BB21AB275
S315000023207B88012101FA03F31BB213431AB2064B51
S3150000233092B21A8700BF0C37BD465DF8047B704722
S3150000234020140020000009400010114080B483B022
S3150000235000AF78600B467B807B6893F820301A4686
S31500002360184B33F812309BB2022B25D17B6893F8B9
S315000023702030002B10D1144B1B8F9BB21AB27B88D6
S31500002380012101FA03F31BB2DB431BB213401AB25D
S315000023900D4B92B21A870FE00C4B1B8F9BB21AB2F1
S315000023A07B88012101FA03F31BB2DB431BB2134006
S315000023B01AB2064B92B21A8700BF0C37BD465DF8BB
S315000023C0047B7047201400200000094000101140D3
S315000023D080B483B000AF78600B467B807B6893F84F
S315000023E020301A46114B33F812309BB2022B17D10C
S315000023F07B6893F82030002B12D17B880C4A002191
S3150000240022F813100B4B5B8F9BB21AB27B8801210B
S3150000241001FA03F31BB213431AB2064B92B25A8760
S3150000242000BF0C37BD465DF8047B704720140020C2
S31500002430640D00200000094080B483B000AF7860CE
S315000024400B467B807B6893F820301A46184B33F88E
S3150000245012309BB2022B25D17B6893F82030002BDB
S3150000246010D1144B5B8F9BB21AB27B88012101FA03
S3150000247003F31BB2DB431BB213401AB20D4B92B2ED
S315000024805A870FE00C4B5B8F9BB21AB27B880121F7
S3150000249001FA03F31BB2DB431BB213401AB2064B1D
S315000024A092B25A8700BF0C37BD465DF8047B704771
S315000024B020140020000009400010114080B483B0B1
S315000024C000AF0346FB71FB79002B04D1074BB3F831
S315000024D040309BB203E0064BB3F840309BB218463F
S315000024E00C37BD465DF8047B704700BF000009400D
S315000024F00010114080B483B000AF78600B467B803B
S315000025007B6893F820301A46154B33F812309BB28D
S31500002510022B1FD17B6893F82030002B0DD17B88CE
S31500002520012202FA03F39BB2DB439BB20D4AC3F3CB
S3150000253009039BB2A2F846300CE07B88012202FA1E
S3150000254003F39BB2DB439BB2074AC3F309039BB277
S31500002550A2F8463000BF0C37BD465DF8047B7047D5
S3150000256020140020000009400010114080B483B000
S3150000257000AF78600B467B807B6893F820301A4664
S31500002580154B33F812309BB2022B1FD17B6893F8A0
S315000025902030002B0DD17B88012202FA03F39BB277
S315000025A0DB439BB20D4AC3F309039BB2A2F8483042
S315000025B00CE07B88012202FA03F39BB2DB439BB259
S315000025C0074AC3F309039BB2A2F8483000BF0C3791
S315000025D0BD465DF8047B70472014002000000940CA
S315000025E00010114080B483B000AF78600B467B804A
S315000025F07B6893F820301A46154B33F812309BB29D
S31500002600022B1FD17B6893F82030002B0DD17B88DD
S31500002610012202FA03F39BB2DB439BB20D4AC3F3DA
S3150000262009039BB2A2F84A300CE07B88012202FA29
S3150000263003F39BB2DB439BB2074AC3F309039BB286
S31500002640A2F84A3000BF0C37BD465DF8047B7047E0
S3150000265020140020000009400010114080B485B00D
S3150000266000AF78600023FB817B6893F820301A4620
S315000026700D4B33F812309BB2022B0DD17B6893F8C9
S315000026802030002B04D1094BB3F84C30FB8103E01A
S31500002690074BB3F84C30FB81FB8918461437BD460F
S315000026A05DF8047B704700BF20140020000009403D
S315000026B00010114080B485B000AF0346FB710023C3
S315000026C0FB81FB79002B04D1074BB3F85430FB8117
S315000026D003E0064BB3F85430FB81FB8918461437E8
S315000026E0BD465DF8047B70470000094000101140AC
S315000026F080B485B000AF0346FB710023FB81FB79F4
S31500002700002B04D1074BB3F85630FB8103E0064B90
S31500002710B3F85630FB81FB8918461437BD465DF881
S31500002720047B7047000009400010114080B485B05A
S3150000273000AF0346FB710023FB81FB79002B04D11C
S31500002740074BB3F85830FB8103E0064BB3F858301B
S31500002750FB81FB8918461437BD465DF8047B70473C
S31500002760000009400010114080B485B000AF034658
S31500002770FB710023FB81FB79002B04D1074BB3F8D7
S315000027805A30FB8103E0064BB3F85A30FB81FB89D4
S3150000279018461437BD465DF8047B704700000940B3
S315000027A00010114080B485B000AF78600023FB8133
S315000027B07B6893F820301A460D4B33F812309BB2E3
S315000027C0022B0DD17B6893F82030002B04D1094BE6
S315000027D0B3F85C30FB8103E0074BB3F85C30FB8158
S315000027E0FB8918461437BD465DF8047B704700BF69
S315000027F020140020000009400010114080B483B06E
S3150000280000AF78600B467B807B6893F820301A46D1
S315000028100C4B33F812309BB2022B0DD17B6893F828
S315000028202030002B04D1084A7B88A2F85C3003E0F4
S31500002830064A7B88A2F85C3000BF0C37BD465DF8BF
S31500002840047B70472014002000000940001011404E
S3150000285080B485B000AF78600023FB817B6893F875
S3150000286020301A460D4B33F812309BB2022B0DD195
S315000028707B6893F82030002B04D1094BB3F85E3007
S31500002880FB8103E0074BB3F85E30FB81FB891846FA
S315000028901437BD465DF8047B704700BF2014002046
S315000028A0000009400010114080B483B000AF78608A
S315000028B00B467B807B6893F820301A460C4B33F826
S315000028C012309BB2022B0DD17B6893F82030002B7F
S315000028D004D1084A7B88A2F85E3003E0064A7B886A
S315000028E0A2F85E3000BF0C37BD465DF8047B70472A
S315000028F020140020000009400010114080B485B06B
S3150000290000AF0346FB71FB79002B04D1074BB3F8EC
S315000029106030FB8103E0064BB3F86030FB81FB8936
S3150000292018461437BD465DF8047B70470000094021
S315000029300010114080B483B000AF78600B467B80F6
S315000029407B6893F820301A460C4B33F812309BB252
S31500002950022B0DD17B6893F82030002B04D1084A56
S315000029607B88A2F8643003E0064A7B88A2F86430CC
S3150000297000BF0C37BD465DF8047B7047201400206D
S31500002980000009400010114080B485B000AF7860A7
S315000029900023FB817B6893F820301A460D4B33F8F1
S315000029A012309BB2022B0DD17B6893F82030002B9E
S315000029B004D1094BB3F86830FB8103E0074BB3F849
S315000029C06830FB81FB8918461437BD465DF8047BE9
S315000029D0704700BF2014002000000940001011407D
S315000029E080B483B000AF78600B467B807B6893F839
S315000029F020301A460C4B33F812309BB2022B0DD105
S31500002A007B6893F82030002B04D1084A7B88A2F813
S31500002A10683003E0064A7B88A2F8683000BF0C37AE
S31500002A20BD465DF8047B7047201400200000094075
S31500002A300010114080B485B000AF78600023FB81A0
S31500002A407B6893F820301A460D4B33F812309BB250
S31500002A50022B0DD17B6893F82030002B04D1094B53
S31500002A60B3F86C30FB8103E0074BB3F86C30FB81A5
S31500002A70FB8918461437BD465DF8047B704700BFD6
S31500002A8020140020000009400010114080B483B0DB
S31500002A9000AF78600B467B807B6893F820301A463F
S31500002AA00C4B33F812309BB2022B0DD17B6893F896
S31500002AB02030002B04D1084A7B88A2F86C3003E052
S31500002AC0064A7B88A2F86C3000BF0C37BD465DF81D
S31500002AD0047B7047201400200000094000101140BC
S31500002AE080B483B000AF78600B467B807B6893F838
S31500002AF020301A460C4B33F812309BB2022B0DD104
S31500002B007B6893F82030002B04D1084A7B88A2F812
S31500002B106E3003E0064A7B88A2F86E3000BF0C37A1
S31500002B20BD465DF8047B7047201400200000094074
S31500002B300010114080B485B000AF78600B467B80F2
S31500002B4000237B817B6893F820301A46184B33F8B4
S31500002B5012309BB2022B23D17B6893F82030002BD6
S31500002B600FD17B88002B02D1124BFB6004E07B88DF
S31500002B705A00114B1344FB60FB681B889BB27B8198
S31500002B800EE07B88002B02D10C4BFB6004E07B88B7
S31500002B905A000B4B1344FB60FB681B889BB27B817E
S31500002BA07B899BB218461437BD465DF8047B704797
S31500002BB020140020600009406E000940601011409A
S31500002BC06E10114080B485B000AF78600B467B80F4
S31500002BD00023FB607B6893F820301A46114B33F8CC
S31500002BE012309BB2022B17D17B6893F82030002B52
S31500002BF005D17B885A000C4B1344FB6004E07B88AC
S31500002C005A000A4B1344FB60FB681B889BB243F4D3
S31500002C1000539AB2FB681A8000BF1437BD465DF8B0
S31500002C20047B7047201400206E0009406E1011408E
S31500002C3080B485B000AF78600B467B807B6893F8E4
S31500002C4020301A46154B33F812309BB2022B1FD197
S31500002C507B6893F82030002B0DD17B885A00104BEF
S31500002C601344FB60FB681B889BB243F400739AB263
S31500002C70FB681A800CE07B885A000A4B1344FB6001
S31500002C80FB681B889BB243F400739AB2FB681A80F8
S31500002C9000BF1437BD465DF8047B70472014002042
S31500002CA06E0009406E10114080B485B000AF7860A8
S31500002CB00B467B807B6893F820301A46114B33F81D
S31500002CC012309BB2022B17D17B6893F82030002B71
S31500002CD005D17B885A000C4B1344FB6004E07B88CB
S31500002CE05A000A4B1344FB60FB681B889BB223F413
S31500002CF000739AB2FB681A8000BF1437BD465DF8B0
S31500002D00047B7047201400206E0009406E101140AD
S31500002D1080B485B000AF78600B467B807B6893F803
S31500002D2020301A46234B33F812309BB2022B3BD18C
S31500002D307B6893F82030002B1BD17B88002B0AD1AF
S31500002D401D4BB3F860309BB21B4A43F480739BB2B1
S31500002D50A2F8603028E07B885A00184B1344FB60C9
S31500002D60FB681B889BB243F480739AB2FB681A8097
S31500002D701AE07B88002B0AD1114BB3F860309BB266
S31500002D800F4A43F480739BB2A2F860300CE07B8854
S31500002D905A000C4B1344FB60FB681B889BB243F440
S31500002DA080739AB2FB681A8000BF1437BD465DF87F
S31500002DB0047B704720140020000009406E00094083
S31500002DC0001011406E10114080B485B000AF7860DD
S31500002DD00B467B8013463B800023FB607B6893F8A1
S31500002DE020301A46234B33F812309BB2022B3BD1CC
S31500002DF07B6893F82030002B1BD17B88002B02D1F7
S31500002E001D4BFB6004E07B885A001C4B1344FB609F
S31500002E10FB681B889BB223F003039AB2FB681A80F7
S31500002E20FB681B889AB23B8813439AB2FB681A80E8
S31500002E301AE07B88002B02D1114BFB6004E07B88F3
S31500002E405A00104B1344FB60FB681B889BB223F0AF
S31500002E5003039AB2FB681A80FB681B889AB23B8808
S31500002E6013439AB2FB681A8000BF1437BD465DF85B
S31500002E70047B704720140020600009406E00094062
S31500002E80601011406E10114080B485B000AF7860BC
S31500002E900B467B8013463B800023FB607B6893F8E0
S31500002EA020301A461A4B33F812309BB2022B28D127
S31500002EB07B6893F82030002B0BD17B88002B02D146
S31500002EC0144BFB6010E07B885A00134B1344FB60E5
S31500002ED00AE07B88002B02D1104BFB6004E07B8864
S31500002EE05A000F4B1344FB60FB681B889BB21AB257
S31500002EF0B7F90030DB431BB213401BB29AB2FB6832
S31500002F001A8000BF1437BD465DF8047B704700BFCA
S31500002F1020140020600009406E0009406010114036
S31500002F206E10114080B485B000AF78600B467B8090
S31500002F300023FB607B6893F820301A46124B33F867
S31500002F4012309BB2022B19D17B6893F82030002BEC
S31500002F5006D17B88013B9A000C4B1344FB6005E0CD
S31500002F607B88013B9A000A4B1344FB60FB681B8875
S31500002F709BB243F400739AB2FB681A8000BF143701
S31500002F80BD465DF8047B7047201400209000094080
S31500002F909010114080B485B000AF78600B467B80FE
S31500002FA00023FB607B6893F820301A46124B33F8F7
S31500002FB012309BB2022B19D17B6893F82030002B7C
S31500002FC006D17B88013B9A000C4B1344FB6005E05D
S31500002FD07B88013B9A000A4B1344FB60FB681B8805
S31500002FE09BB223F400739AB2FB681A8000BF1437B1
S31500002FF0BD465DF8047B7047201400209000094010
S315000030009010114080B485B000AF78600B467B808D
S315000030100023FB607B6893F820301A46124B33F886
S3150000302012309BB2022B19D17B6893F82030002B0B
S3150000303006D17B88013B9A000C4B1344FB6005E0EC
S315000030407B88013B9A000A4B1344FB60FB681B8894
S315000030509BB243F480739AB2FB681A8000BF1437A0
S31500003060BD465DF8047B704720140020900009409F
S315000030709010114080B485B000AF78600B467B801D
S3150000308013463B800023FB607B6893F820301A468A
S31500003090104B33F812309BB2022B14D17B6893F895
S315000030A02030002B06D17B88013B9A000A4B134443
S315000030B0FB6005E07B88013B9A00084B1344FB60EC
S315000030C0FB683A881A8000BF1437BD465DF8047B5A
S315000030D0704700BF20140020920009409210114052
S315000030E080B483B000AF0346FB7100BF0C37BD460A
S315000030F05DF8047B704780B483B000AF0346FB7174
S3150000310000BF0C37BD465DF8047B704780B483B0C2
S3150000311000AFEFF303837B607B683B603B88C3F3C0
S3150000312008039BB2DBB2103BDBB25BB218460C372E
S31500003130BD465DF8047B704780B483B000AF03469C
S315000031403960FB7197F9073004493A6841F8232042
S3150000315000BF0C37BD465DF8047B7047881400201D
S3150000316080B483B000AF0346FB710B4997F9073073
S3150000317003F1C00251F822306FF3104341F82230B8
S31500003180054A97F90730C03352F8233000BF0C3791
S31500003190BD465DF8047B70470060004080B584B092
S315000031A000AF0346FB7197F907301846FFF7D8FFC3
S315000031B0BFF35F8F00BF97F90730FB60FB6803F032
S315000031C01F02074997F907305B09012000FA02F24E
S315000031D0603341F8232000BF1037BD4680BD00BFD5
S315000031E000E100E080B584B000AF0346B9607A60C4
S315000031F0FB73BB68DAB2094997F90F301201D2B2F4
S315000032000B4483F8002397F90F3079681846FFF7C7
S3150000321093FF00BF1037BD4680BD00BF00E100E050
S3150000322080B485B000AF0346FB7197F90730FB60A9
S31500003230FB6803F01F020749FB685B09012000FADF
S3150000324002F241F8232000BF1437BD465DF8047B27
S31500003250704700BF00E100E080B582B000AF0346D2
S31500003260FB7197F907301846FFF798FF97F9073073
S315000032701846FFF7D5FF00BF0837BD4680BD80B5AD
S3150000328084B000AF0346B9607A60FB7397F90F30DC
S315000032907A68B9681846FFF7A5FF97F90F30184600
S315000032A0FFF7DAFF00BF1037BD4680BD80B483B09C
S315000032B000AF0346FB7197F90730044A52F82330F2
S315000032C018460C37BD465DF8047B7047881400200D
S315000032D080B48BB000AF0346FB71FB79002B24D181
S315000032E0284B5B68C3F3C023DBB2002B02D140F24C
S315000032F0DD5340E000233B62EFF310837B617B6983
S315000033003B620123BB61BB6983F3108800BF1D4B81
S315000033105B681C4A23F4006353601A4B5B683B6A84
S31500003320FB61FB6983F3108824E0164B5B68C3F3EB
S315000033300033DBB2002B02D140F2DD531BE0002349
S315000033407B62EFF31083BB60BB687B620123FB608B
S31500003350FB6883F3108800BF0A4B5B68094A23F4B5
S3150000336000635360074B5B687B6A3B613B6983F391
S31500003370108800BF002318462C37BD465DF8047B35
S31500003380704700BF0040084080B483B000AF0346DA
S31500003390FB71FB79002B66D16B4B00221A816A4BBD
S315000033A08022A3F86020684B0022A3F87020664BA9
S315000033B00022A3F87220644B0022A3F87420624B0B
S315000033C00022A3F87620604B0022A3F878205E4BFB
S315000033D00022A3F87A205C4B0022A3F87C205A4BEB
S315000033E00022A3F87E20584B0022A3F88020564BDB
S315000033F00022DA86544B00221A87534B00225A8742
S31500003400514B00221A86504B00225A864E4B002200
S31500003410A3F846204C4B0022A3F848204A4B002232
S31500003420A3F84A20484B1B889BB2474A23F0100357
S315000034309BB21380444B1B889BB2434A23F0200364
S315000034409BB21380404B1B889BB23F4A23F040033C
S315000034509BB213803C4B1B889BB23B4A23F0010373
S315000034609BB2138069E0394B00221A81374B8022C8
S31500003470A3F86020354B0022A3F87020334B0022BE
S31500003480A3F87220314B0022A3F874202F4B0022A0
S31500003490A3F876202D4B0022A3F878202B4B002290
S315000034A0A3F87A20294B0022A3F87C20274B002280
S315000034B0A3F87E20254B0022A3F88020234B002270
S315000034C0DA86224B00221A87204B00225A871F4B8E
S315000034D000221A861D4B00225A861C4B0022A3F896
S315000034E046201A4B0022A3F84820184B0022A3F8C6
S315000034F04A20164B1B889BB2144A23F010039BB23A
S315000035001380124B1B889BB2104A23F020039BB2F8
S3150000351013800E4B1B889BB20C4A23F040039BB2D0
S3150000352013800A4B1B889BB2084A23F001039BB207
S315000035301380064B0022A3F80221002318460C37FD
S31500003540BD465DF8047B704700000940001011403D
S3150000355080B586B000AF0346FB71FB791846FFF7CE
S3150000356013FFFB79002B2ED11C4B5B68C3F3C023E2
S31500003570DBB2012B02D140F2DC532BE0174B5B6828
S31500003580C3F3C023DBB2002B02D04FF4BC6321E0AF
S3150000359000237B61EFF31083BB60BB687B61012373
S315000035A0FB60FB6883F3108800BF0C4B5B680B4A1B
S315000035B043F400635360094B5B687B693B613B697D
S315000035C083F3108805E0FB79012B02D040F2E25329
S315000035D000E0002318461837BD4680BD004008406D
S315000035E080B582B000AF03463960FB71FB79002BD2
S315000035F018D10E4AD2F800346FF30413C2F800341F
S315000036003B6893F90D003B681B7D3A681946FFF746
S3150000361036FE3B6893F90C003B68DB7C3A6819463A
S31500003620FFF72DFE00BF0837BD4680BD00000940EC
S3150000363080B582B000AF0346FB80FB8801211846A7
S3150000364005F0CCF900BF0837BD4680BD80B582B015
S3150000365000AF0346FB80FB884FF47A71184605F0ED
S31500003660BDF900BF0837BD4680BDFFFF80B500AF7E
S31500003670044B1B889BB2012B01D001F0E1FF00BF78
S3150000368080BD00BF2014002080B582B000AF034685
S31500003690FB71FB79184600F07BFC00BF0837BD467E
S315000036A080BD80B582B000AFFFF730FD0346FB71E9
S315000036B097F907301846FFF753FDFFF7D7FF00BF0E
S315000036C00837BD4680BD80B582B000AFFFF71EFD4E
S315000036D00346FB7197F907301846FFF741FD97F946
S315000036E007301846FFF7E2FD38603B689B781846BE
S315000036F0FFF7CAFF00BF0837BD4680BD80B582B060
S3150000370000AFFFF703FD0346FB7197F90730184634
S31500003710FFF726FD00BF0837BD4680BD80B582B0E5
S3150000372000AFFFF7F3FC0346FB7197F90730184625
S31500003730FFF716FD00BF0837BD4680BD80B58AB0CD
S3150000374000AFF860B9601346FB71FB79012B1CD101
S31500003750A04BB3F84030FB849E4BB3F846307B84D5
S315000037609C4BB3F84830FB839A4BB3F84A307B83C3
S31500003770984B1B8EBB84974BDB8E3B84954B1B8FE4
S31500003780BB83944B5B8F3B831BE0934BB3F840307A
S31500003790FB84914BB3F846307B848F4BB3F84830AB
S315000037A0FB838D4BB3F84A307B838B4B1B8EBB84DC
S315000037B0894BDB8E3B84884B1B8FBB83864B5B8F91
S315000037C03B83FB6800221A80BB6800221A80FA8CB1
S315000037D0BB8C1340FB827A8C3B8C1340BB82FA8BEA
S315000037E0BB8B13407B827A8B3B8B13403B82FB8CDB
S315000037F023F0FF039BB2002B00F05681FB8A03F4F3
S315000038008043002B11D0FB79012B05D1714B4BF670
S31500003810FF72A3F8402004E06F4B4BF6FF72A3F84B
S315000038204020FB6812221A803FE1B7F91630002BC0
S3150000383011DAFB79012B05D1664B47F6FF72A3F827
S31500003840402004E0644B47F6FF72A3F84020FB6873
S3150000385011221A8029E1FB8A03F40053002B11D0B0
S31500003860FB79012B05D15B4B4DF6FF72A3F8402087
S3150000387004E0594B4DF6FF72A3F84020FB68132273
S315000038801A8012E1FB8A03F48053002B14D0FB79D3
S31500003890012B05D14F4B4EF6FF72A3F8402004E0F2
S315000038A04D4B4EF6FF72A3F84020FB6814221A8097
S315000038B0BB68FA8C1A80F8E0FB8A03F48073002B4D
S315000038C019D0BB8A03F00103002B14D0FB79012B1E
S315000038D005D1404B40F2FE32A3F8462004E03E4BB1
S315000038E040F2FE32A3F84620FB6801221A80BB682C
S315000038F001221A80D9E0FB8A03F48063002B19D0D9
S315000039003B8A03F00103002B14D0FB79012B05D170
S31500003910304B40F2FE32A3F84A2004E02E4B40F230
S31500003920FE32A3F84A20FB6802221A80BB680122F5
S315000039301A80BAE0FB8A03F40073002B19D07B8A45
S3150000394003F00103002B14D0FB79012B05D1214B89
S3150000395040F2FE32A3F8482004E01F4B40F2FE324C
S31500003960A3F84820FB6803221A80BB6801221A804C
S315000039709BE0FB8A03F40063002B2FD0FB791846EB
S31500003980FEF79CFD03461A46BB681A80FB79012B9D
S3150000399005D1104B4FF2FF72A3F8402004E00E4B06
S315000039A04FF2FF72A3F84020FB6815221A80BB680D
S315000039B01B88DBB203F00703062B76D1FB7918468A
S315000039C000F004FBFB6800221A80BB6800221A8004
S315000039D06BE000BF0010114000000940FB8A03F4B1
S315000039E08073002B1CD0FB79012B09D1BB8ADB43EA
S315000039F09BB22F4AC3F309039BB2A2F8463008E0F4
S31500003A00BB8ADB439BB22B4AC3F309039BB2A2F8E2
S31500003A104630FB6801221A80BB68BA8A1A8044E0E5
S31500003A20FB8A03F48063002B1CD0FB79012B09D1A0
S31500003A303B8ADB439BB21E4AC3F309039BB2A2F83F
S31500003A404A3008E03B8ADB439BB21A4AC3F30903B8
S31500003A509BB2A2F84A30FB6802221A80BB683A8AF7
S31500003A601A8022E0FB8A03F40073002B1DD0FB7939
S31500003A70012B09D17B8ADB439BB20D4AC3F30903B1
S31500003A809BB2A2F8483008E07B8ADB439BB2094A26
S31500003A90C3F309039BB2A2F84830FB6803221A80DD
S31500003AA0BB687A8A1A8000E000BF2837BD4680BD11
S31500003AB0001011400000094080B582B000AF0346F7
S31500003AC0FB71FB79184600F081FAFB791846FEF780
S31500003AD0F1FD03461A460F4B1A80FB791846FEF78E
S31500003AE007FE03461A460C4B1A80FB791846FEF76A
S31500003AF01DFE03461A46094B1A80FB791846FEF747
S31500003B0033FE03461A46064B1A8000BF0837BD46E9
S31500003B1080BD00BFDC0F0020DE0F0020E00F00207C
S31500003B20E20F002080B584B000AF78607B6893F820
S31500003B3020301846FEF7C2FC0346BB81BB8903F062
S31500003B407003302B02D10123FB8101E00023FB81AE
S31500003B50FB8918461037BD4680BDFFFF80B483B091
S31500003B6000AF78600F4B1B8803F47F43B3F5806F7B
S31500003B700ED0B3F5806F0DDCB3F5407F08D0B3F5FA
S31500003B80407F07DCB3F5807F02D0B3F5007F01E00C
S31500003B9000BF00E000BF00BF0C37BD465DF8047BE8
S31500003BA0704700BF960F002080B582B000AF7860E6
S31500003BB07B6893F82030184600F0EAF97B6893F8A2
S31500003BC02030184600F0C0F900BF0837BD4680BD5A
S31500003BD080B582B000AF03463960FB80FB880222C5
S31500003BE019463868FFF7F0F800BF0837BD4680BDB4
S31500003BF080B582B000AF7860022200217868FFF7B6
S31500003C00E3F800BF0837BD4680BD80B586B000AF7B
S31500003C10BA607B600346FB810B46BB810023BB82F7
S31500003C207B6893F82030002B02D0BB8A002B2FD163
S31500003C30FB895B08FB820CE0BB681A88BB891946C6
S31500003C407868FEF7D9F8BB680233BB60FB8A013B94
S31500003C50FB82FB8A002BEFD1FB8903F00103002BCB
S31500003C6016D0BB89002219467868FEF7E1F9BB68D1
S31500003C701A78BB8919467868FEF700F9BB894FF4B4
S31500003C80806219467868FEF7D3F9BB680133BB60DA
S31500003C90BB6818461837BD4680BD80B586B000AFF4
S31500003CA0BA607B600346FB810B46BB810023BB8267
S31500003CB07B6893F82030002B02D0BB8A002B28D1DA
S31500003CC0FB895B08FB820EE0BB8919467868FEF724
S31500003CD063F803461A46BB681A80BB680233BB60AA
S31500003CE0FB8A013BFB82FB8A002BEDD1FB8903F0AB
S31500003CF00103002B0DD0BB8919467868FEF74CF8F6
S31500003D0003463B613B69DAB2BB681A70BB68013394
S31500003D10BB60BB6818461837BD4680BD90B585B0F8
S31500003D2000AF03463A60FB800B46BB80FB88194612
S31500003D303868FDF7E7FEFB8819463868FEF786FA0D
S31500003D40FB8819463868FEF701FBFB881946386878
S31500003D50FEF772FBFB8819463868FDF78AFF0021DB
S31500003D603868FEF721F90346FB81FB8903F00F0251
S31500003D70FB889A4205D10023002200213868FDF70E
S31500003D8028FFFB881946386800F0D6FBFB881946E1
S31500003D903868FEF717FFFB881D4A52F82330002BC0
S31500003DA031D0FA88FB881A4951F82330194951F85D
S31500003DB022201A61FB88164A52F82330BA889A8460
S31500003DC0FB88134A52F82340FB8819463868FEF7E9
S31500003DD0B1FE0346E384FB880D4A52F823305B6844
S31500003DE0002B0BD0FB880A4A52F823305B68FA880E
S31500003DF0074951F82200002200219847FB88044A0F
S31500003E00002142F8231000BF1437BD4690BD00BF05
S31500003E10D80C0020880C002080B582B000AF034685
S31500003E20FB71094B1B88002B09D0FB791846FFF75D
S31500003E3057F96420FFF7FCFB034B00221A8000BFF2
S31500003E400837BD4680BD00BF840C002080B582B017
S31500003E5000AF0346FB71054B01221A80FB79184619
S31500003E60FFF749F900BF0837BD4680BD840C002026
S31500003E7080B483B000AF0346FB71FB79002B08D1F9
S31500003E800B4B1B889BB20A4A43F010039BB213806C
S31500003E9007E0084B1B889BB2064A43F010039BB20F
S31500003EA0138000BF0C37BD465DF8047B704700BF2A
S31500003EB0000009400010114080B483B000AF0346F3
S31500003EC0FB71FB79002B08D10B4B1B889BB20A4A6E
S31500003ED023F010039BB2138007E0084B1B889BB2AC
S31500003EE0064A23F010039BB2138000BF0C37BD4671
S31500003EF05DF8047B704700BF0000094000101140C8
S31500003F0080B483B000AF0346FB71FB79002B08D168
S31500003F100B4B1B8E9BB20A4A43F480439BB213861B
S31500003F2007E0084B1B8E9BB2064A43F480439BB2C4
S31500003F30138600BF0C37BD465DF8047B704700BF93
S31500003F40000009400010114080B483B000AF034662
S31500003F50FB71FB79002B08D10B4B1B8E9BB20A4AD7
S31500003F6023F480439BB2138607E0084B1B8E9BB25B
S31500003F70064A23F480439BB2138600BF0C37BD4626
S31500003F805DF8047B704700BF000009400010114037
S31500003F9080B483B000AF0346FB71FB79002B05D1DB
S31500003FA0084B4BF6FF72A3F8402004E0064B4BF695
S31500003FB0FF72A3F8402000BF0C37BD465DF8047BB6
S31500003FC0704700BF000009400010114080B483B064
S31500003FD000AF0346FB71FB79002B05D1084B4FF66A
S31500003FE0F772A3F8402004E0064B4FF6F772A3F8E9
S31500003FF0402000BF0C37BD465DF8047B704700BF0C
S31500004000000009400010114080B483B000AF0346A1
S31500004010FB71FB79002B0AD10D4BB3F860309BB2D4
S315000040200B4A43F004039BB2A2F8603009E0094B47
S31500004030B3F860309BB2074A43F004039BB2A2F880
S31500004040603000BF0C37BD465DF8047B704700BF8B
S31500004050000009400010114080B483B000AF034651
S31500004060FB71FB79002B30D11B4B1B889BB21A4A84
S3150000407043F480639BB2138000BF174B1B889BB22F
S3150000408003F48063B3F5806FF7D1134B1B889BB2A3
S31500004090114A23F020039BB213800F4B1B889BB25F
S315000040A00D4A43F001039BB213800B4B4FF4806221
S315000040B01A84094B4FF480621A85074B4FF48062CD
S315000040C09A85054B4FF41D421A8600BF0C37BD4634
S315000040D05DF8047B704700BF0000094080B483B0E0
S315000040E000AF03460A46FB711346BB80FB79002BE3
S315000040F022D1254BB3F860309BB2234A23F0030349
S315000041009BB2A2F86030BB88002B0AD11E4BB3F8D5
S3150000411060309BB21C4A43F001039BB2A2F86030A8
S315000041202CE0194BB3F860309BB2174A43F00203F8
S315000041309BB2A2F8603021E0144BB3F860309BB21A
S31500004140124A23F003039BB2A2F86030BB88002B0F
S315000041500AD10E4BB3F860309BB20C4A43F0010310
S315000041609BB2A2F8603009E0084BB3F860309BB20E
S31500004170064A43F002039BB2A2F8603000BF0C3738
S31500004180BD465DF8047B70470000094000101140F1
S3150000419080B592B000AFF860B9607A60FB681B78B2
S315000041A01A460F4B33F812309BB2022B13D10D4B2C
S315000041B01B88012B01D1D5230EE0FB681B7887F8FD
S315000041C03030094B01221A8007F110031A46B968EC
S315000041D0786800F0B7FA002318464837BD4680BD18
S315000041E020140020E40F0020E60F002080B59CB0CC
S315000041F000AFF860B9607A60FB681B7887F83430E6
S31500004200FB681B781A46264B33F812309BB2022BFA
S3150000421040D1BB68002B2DD17B68002B2AD1FB68CF
S315000042209B88002B06D107F114030021184600F0E5
S315000042309BF904E007F114031846FFF7D9FCFA6866
S3150000424007F158030C3292E8030083E80300FB6889
S315000042501B7887F84C3000237B650023A7F8503085
S31500004260922387F84F3007F14C031946082000F0D7
S31500004270D9F90FE00B4B1B88012B01D1D5230AE09E
S31500004280094B01221A8007F114031A46B9687868A7
S3150000429000F002FA002318467037BD4680BD00BF05
S315000042A020140020E40F0020E60F002080B588B01F
S315000042B000AFF860B9607A600023FB610021F868FE
S315000042C000F08AF80346FB76FB68DB78092B25D8D5
S315000042D0FA7E1346DB009B1ADB00134A13447B610C
S315000042E07B697A68DA60FB681A787B6983F8202034
S315000042F0FB7E9AB27B69DA837B69BA689A607B69CE
S315000043007A681A61FB68DB785B00084A52F823205A
S315000043107B695A60786900F0A1FEF861FB6918466E
S315000043202037BD4680BD00BFF01100207C01002073
S3150000433080B588B000AFF860B9607A600023FB6191
S315000043400121F86800F048F80346FB76FB68DB7845
S31500004350092B35D8FA7E1346DB009B1ADB001B4A75
S3150000436013447B61FB7E062B06D07B69BA689A6094
S315000043707B697A681A610DE0BB681A78144B1A7269
S31500004380BB685A78124B5A727B69114A9A607B69EC
S315000043900A221A61FB681A787B6983F82020FB7E63
S315000043A09AB27B69DA83FB68DB785B000133094AE2
S315000043B052F823207B695A60786900F04FFEF86155
S315000043C0FB6918462037BD4680BD00BFF0110020AE
S315000043D00C0200207C01002080B485B000AF78601C
S315000043E00B46FB700023FB737B68DB78092B0AD82E
S315000043F07B68DB785B00DAB2FB781344BB73BB7B6C
S31500004400044AD35CFB73FB7B18461437BD465DF844
S31500004410047B70477083010080B582B000AF78607E
S315000044200B467B807B88092B05D87B8819467868E4
S31500004430FDF74EFF00E000BF0837BD4680BD80B5E2
S3150000444084B000AF78600B467B807B88092B01D94E
S3150000445000230AE07B8819467868FEF76BFB034663
S31500004460FB81FB8903F003039BB218461037BD4658
S3150000447080BD80B584B000AF78600B467B807B88BA
S31500004480092B01D9002317E07B88002B05D178681A
S31500004490FEF7DEF90346FB8109E07B88194678685A
S315000044A0FEF748FA7868FEF7C5FA0346FB81FB89F2
S315000044B0C3F30A03BB81BB8918461037BD4680BDCE
S315000044C080B584B000AF78600B467B807B88092B73
S315000044D001D900230DE07B8819467868FEF72AFA91
S315000044E07868FEF751FA0346FB81FB8903F0100357
S315000044F09BB218461037BD4680BD80B584B000AF6C
S3150000450078600B467B807B88092B01D900230FE05E
S315000045107B8819467868FEF70DFA7868FEF734FA54
S315000045200346FB81FB8923F47F5323F03F039BB2B1
S3150000453018461037BD4680BD80B582B000AF7860A2
S315000045400B467B807B88092B0AD87B8819467868BE
S31500004550FEF76EFB7B8819467868FEF7A5FB00E040
S3150000456000BF0837BD4680BD80B582B000AF786019
S315000045700B467B807B88092B06D87B88012219464F
S315000045807868FEF721FC00E000BF0837BD4680BD15
S3150000459080B582B000AF78600B467B807B88092BA4
S315000045A00BD87B8819467868FDF7ACFA7B8802221F
S315000045B019467868FEF768FC00E000BF0837BD467C
S315000045C080BDFFFF80B584B000AF78607868FDF7E6
S315000045D0B9FB0346BB81BB8903F00703BB81BB89DB
S315000045E0013B032B16D801A252F823F0094600001E
S315000045F003460000FD4500000F460000C023FB8176
S315000046000BE08023FB8108E04023FB8105E00023CB
S31500004610FB8102E00023FB8100BFFB8918461037AF
S31500004620BD4680BDB0B483B000AF03463960FB71B0
S31500004630154B1B781A46144B1344FA799A70124B91
S315000046401B781946104A0B46DB000B449B001344AB
S3150000465008333A681C1D15460FCD0FC40FCD0FC485
S315000046602B682360084B1B780133DAB2064B1A70AD
S31500004670054B1B78092B02D9034B00221A7000BF89
S315000046800C37BD46B0BC70477810002080B500AF2F
S3150000469000F032FA00BF80BD80B586B000AFF8608A
S315000046A0B9607A60244B01221A80244AFB681360A1
S315000046B0234ABB6813602023002200217868FDF797
S315000046C088FA00217868FDF76CFD00217868FDF70F
S315000046D089FF7A680021002001F0C4F80346FB82B6
S315000046E0FB8AFF2B1FD0FF2B1FDC022B0ED0022BC9
S315000046F01BDC002B0AD0012B17D100217868FFF7AD
S315000047008BFE00217868FFF72FFF0FE00021786805
S31500004710FDF75EFE00217868FFF77EFE00217868CF
S31500004720FFF722FF02E000BF00E000BFFB8A184649
S315000047301837BD4680BD00BFE40F0020880C00205E
S31500004740B00C002080B584B000AFF860B9607A6024
S31500004750114B01221A80114AFB681360104ABB688C
S3150000476013600023002200217868FDF732FA002149
S315000047707868FDF716FD00217868FDF729FD002110
S315000047807868FFF749FE00217868FFF7EDFE00BF65
S315000047901037BD4680BD00BFE40F0020880C002006
S315000047A0B00C002080B582B000AF03463960FB80B4
S315000047B01F4B00221A801F4B00221A8000213868E6
S315000047C0FDF73AFE00213868FDF740FD0021386804
S315000047D0FDF7BCFD3B6893F82030012B06D14FF462
S315000047E0006200213868FDF723FC05E04FF4806283
S315000047F000213868FDF71CFCFB88072B02D0FB88DC
S31500004800052B03D13868FFF7F3F90DE0FB88082B79
S3150000481004D100213868FDF775F905E03B6893F887
S3150000482020301846FFF7F0FB00BF0837BD4680BDB5
S31500004830E40F0020E60F002080B592B000AF0346DB
S315000048403A60FB800B46BB803B689B7887F82C3030
S31500004850FB88152B00F2368101A252F823F000BF27
S31500004860C54A0000B9480000C9480000D948000000
S31500004870C54A0000C54A0000C54A0000C54A0000F6
S31500004880C54A0000C54A0000C54A0000C54A0000E6
S31500004890C54A0000C54A0000C54A0000C54A0000D6
S315000048A0C54A00000B490000E9480000C54A00005F
S315000048B03349000099490000BA8807F10C031146F4
S315000048C0184600F005FE00E1BA8807F10C03114610
S315000048D0184600F055FEF8E0BA8807F10C031146B9
S315000048E0184600F039FEF0E07A4B5B6A002B06D0E2
S315000048F0784B5B6A07F10C0000220021984707F10C
S315000049000C031846FFF750F9DFE097F82C301846ED
S3150000491001F045FE0346402B05D107F10C0318466E
S3150000492001F08AFDD1E007F10C03184601F096FD6F
S31500004930CBE0BB8803F07003702B1FD0702B23DCF9
S31500004940602B1BD0602B1FDC502B17D0502B1BDC91
S31500004950402B13D0402B17DC302B17D0302B13DC19
S31500004960202B15D0202B0FDC002B13D0102B0BD1B6
S3150000497007F10C03184601F035FD0CE007F10C03B6
S31500004980184601F0B7FD06E000BF9EE000BF9CE0C0
S3150000499000BF9AE000BF98E0BB8803F00703A7F8C2
S315000049A04630B7F84630002B09D14B4B1B88012BFC
S315000049B016D107F10C031846FFF7D0F810E0B7F848
S315000049C04630012B07D0B7F84630032B03D0B7F893
S315000049D04630052B04D13B689B781846FFF76CF8E8
S315000049E03E4B1B8803F06003002B4DD1B7F84630D1
S315000049F0062B42D801A252F823F000BF194A000044
S31500004A00314A0000554A00003D4A0000614A000054
S31500004A10494A00006D4A0000314B00221A80314B92
S31500004A2000221A8007F10C03184601F0B9FE48E08F
S31500004A3007F10C03184601F0F1FE42E007F10C0302
S31500004A40184601F029FF3CE007F10C03184601F077
S31500004A503BFF36E007F10C03184601F0A3FF30E0F8
S31500004A6007F10C03184602F00FF82AE007F10C03D1
S31500004A7019460720FFF796FE23E007F10C031946B7
S31500004A800720FFF78FFE1CE0144B1A88164B1A807E
S31500004A90164B1A88144B5A80154B1A88124B9A805B
S31500004AA0144B1A88104BDA800A4BDB6A002B0BD0AA
S31500004AB0084BDB6A07F10C02B7F846100A4898471C
S31500004AC002E001E000BF00E000BF00BF4837BD467E
S31500004AD080BD00BFEC0F0020980F0020DC0F0020E7
S31500004AE0E40F0020E60F002020100020DE0F00203B
S31500004AF0E00F0020E20F002080B500AF164B93F8C0
S31500004B004020154B93F841309A4222D0124B93F82D
S31500004B1041301A46104B33F832000F4B93F84130B0
S31500004B200D4ADB00134459880B4B93F841300A4A6F
S31500004B30DB0013445B681A46FFF77EFE064B93F8CC
S31500004B4041300133DBB203F00703DAB2024B83F8DC
S31500004B50412000BF80BD00BF2810002080B584B072
S31500004B6000AF78607B68DB8BFB81FB8913497A6831
S31500004B7041F823207868FEF7D5FF0346012B11D1B3
S31500004B80FB8919467868FFF79BFC0346002B04D186
S31500004B90FB89184600F024FF0AE0FB89184600F05E
S31500004BA00FFE05E0FB897A6807211846FFF7B6F87D
S31500004BB0002318461037BD4680BD00BFD80C002024
S31500004BC080B483B000AF0023FB8007E0FB88084A6F
S31500004BD0002122F81310FB880133FB80FB88FE2B93
S31500004BE0F4D900BF00BF0C37BD465DF8047B7047A3
S31500004BF07C0D002080B500AF044B00221A80044BC8
S31500004C0000221A80FFF7DCFF00BF80BD780D002070
S31500004C10940F002080B582B000AF0346FB80044AA3
S31500004C20FB881380FFF7CCFF00BF0837BD4680BD69
S31500004C30780D002080B483B000AF0023FB800DE028
S31500004C40FB880B4AFF2122F81310FB88084A103311
S31500004C50FF2122F81310FB880133FB80FB880F2B02
S31500004C60EED900BF00BF0C37BD465DF8047B704728
S31500004C709C0F002080B483B000AF0023FB80064B5E
S31500004C809B6804331B78FB80FB8818460C37BD46AF
S31500004C905DF8047B704700BFEC0F002080B487B03E
S31500004CA000AF0346FB800023BB82284B9B683B6119
S31500004CB03B691B78FB823B691B781A463B691344A8
S31500004CC03B61224B9B6802331B78FB811F4B9B6821
S31500004CD003331B789BB21B029AB2FB891343FB81F9
S31500004CE029E03B6901331B78042B17D13B6902335A
S31500004CF01B789BB2FA889A4203D13B6903331B782F
S31500004D00BB823B691B789AB2FB8A1344FB823B69E0
S31500004D101B781A463B6913443B610CE03B691B78E0
S31500004D209AB2FB8A1344FB823B691B781A463B699D
S31500004D3013443B6100BFFA8AFB899A42D1D3BB8AEE
S31500004D4018461C37BD465DF8047B7047EC0F002003
S31500004D5080B489B000AF03460A46FB801346BB8089
S31500004D604E4B9B68FB61FB691B787B83FB690333B6
S31500004D701B783B823B8A1B023B82FB6902331B7812
S31500004D809AB23B8A13443B82FB691B781A46FB693D
S31500004D901344FB610023FB820023BB8200233B8379
S31500004DA071E0FB6901331B78042B02D0052B28D058
S31500004DB05CE0FB6902331B789BB2FA889A420BD1FE
S31500004DC0FB6903331B789BB2BA889A4204D1FB690C
S31500004DD004331B78BB8206E0FB6904331B789AB266
S31500004DE0FB8A1344FB827B8BDAB2FB691B78134484
S31500004DF0DBB27B83FB691B781A46FB691344FB61B4
S31500004E0041E03A8BBB8A9A4223D2FB6902331B7874
S31500004E10FB81FB8903F08003002B02D001237B82F8
S31500004E2001E000237B82FB8903F00F03FB81FB8AF1
S31500004E30DAB23B8BDBB21344D9B27A8AFB8988B2E9
S31500004E40174912011344024621F813203B8B013304
S31500004E503B83FB691B789AB27B8B13447B83FB698C
S31500004E601B781A46FB691344FB610CE0FB691B784F
S31500004E709AB27B8B13447B83FB691B781A46FB69CA
S31500004E801344FB6100BF7A8B3B8A9A4289D300BFE9
S31500004E9000BF2437BD465DF8047B7047EC0F002049
S31500004EA09C0F002080B483B000AF0C4B1B88002BF6
S31500004EB001D100230CE00A4B9B6807331B78FB717A
S31500004EC0FB7903F02003002B01D0012300E000232F
S31500004ED018460C37BD465DF8047B7047780D0020F8
S31500004EE0EC0F002080B483B000AF0B4B9B680733F8
S31500004EF01B78BB71BB7903F04003002B02D0012362
S31500004F00FB7101E00023FB71FB7918460C37BD46A7
S31500004F105DF8047B704700BFEC0F002080B584B0BD
S31500004F2000AF03463A60FB800B46BB80FF23FB8144
S31500004F30FB88092B40D8B988FB883A68184600F0E8
S31500004F40CBFD0346FB81FB89032B0FDC002B2CDBFF
S31500004F50032B2AD801A252F823F000BF734F00009A
S31500004F60814F0000BD4F00008F4F0000FF2B15D072
S31500004F701BE0FB883A680321184600F055FE1EE048
S31500004F80FB883A680421184600F04EFE17E0FB88BD
S31500004F903A6805211846FEF7C1FE10E0FB883A681C
S31500004FA015211846FEF7BAFE09E0FB883A68072184
S31500004FB01846FEF7B3FE02E000BF00E000BF103760
S31500004FC0BD4680BD80B584B000AF03463A60FB8025
S31500004FD00B46BB80FB88092B3CD8FB8819463868F2
S31500004FE0FDF734F9B988FB883A68184600F03AFCB0
S31500004FF00346FB81FB89FF2B1ED0FF2B23DC012BF5
S3150000500002DC002B0DDA1EE0022B1CD1FB881946B0
S315000050103868FDF7DDF8FB8819463868FFF7FCF9B4
S3150000502019E0FB8819463868FDF7D2F9FB8819465E
S315000050303868FFF7F1F90EE0FB883A681521184643
S31500005040FEF76CFE07E0FB883A6807211846FEF774
S3150000505065FE00E000BF1037BD4680BD80B584B058
S3150000506000AF78607B68DB8BFB81FB89002B01D16D
S31500005070FF231DE0FB89104A52F82330002B0AD08B
S31500005080FB8919467868FFF738FA0346B3F5404FAF
S3150000509001D0D5230CE07868FEF744FD0346012BCA
S315000050A001D0FF2304E07868FFF758FDB860BB68BD
S315000050B018461037BD4680BDD80C002080B485B098
S315000050C000AF78601E4BFB607B681A68FB681A604D
S315000050D07B685A68FB685A607B689A68FB689A60C6
S315000050E07B68DA68FB68DA607B681A69FB681A61B4
S315000050F07B685A69FB685A617B689A69FB689A61A2
S315000051007B68DA69FB68DA617B681A6AFB681A628F
S315000051107B685A6AFB685A627B689A6AFB689A627D
S315000051207B68DA6AFB68DA627B6893F83020FB6892
S3150000513083F8302000BF1437BD465DF8047B704706
S31500005140EC0F002080B483B000AF164B7B607B6809
S3150000515000221A607B6800225A607B6800229A60EF
S315000051607B680022DA607B6800221A617B680E4A3F
S315000051705A617B680C4A9A617B680B4ADA617B68E4
S31500005180094A1A627B68084A5A627B68064A9A622A
S315000051907B68064ADA6200BF0C37BD465DF8047BC1
S315000051A0704700BFEC0F0020B1510000CD51000048
S315000051B080B483B000AF78600B467B8013463B809B
S315000051C000BF0C37BD465DF8047B704780B485B0E0
S315000051D000AFF8600B467A607B8100BF1437BD468E
S315000051E05DF8047B7047FFFF80B590B000AF786034
S315000051F039603B685B681B68FB603B685B68DB6823
S315000052003B613B685B685B68002B04D13B685B686D
S315000052109B687B6103E03B685B685B687B613B681E
S315000052205B689B68BB613B685B681B69FB613B68AD
S315000052305B681B7D87F83C300B4B3B620B4B7B62FC
S315000052400B4BBB620B4BFB620B4B3B630B4B7B630A
S315000052500B4BBB6307F10C031846FFF72FFF00BF8C
S315000052604037BD4680BD00BF85520000E5530000B3
S315000052701D5400005D54000089540000B554000020
S315000052804576000080B58EB000AF78600B467B8017
S3150000529013463B8000222821786800F0BFF87B88FF
S315000052A0C02B15D12B4BDB687B632A4B9B68002BED
S315000052B004D0284B9B68013307221A70254BDB6804
S315000052C0002B1AD0234BDB68013302221A7014E03C
S315000052D0204B9B687B631F4B9B68002B04D01D4BA8
S315000052E09B68013302221A701A4BDB68002B04D02C
S315000052F0184BDB68013307221A707B6B002B00D139
S31500005300FEE77B6B03331B787B867B8E1B027B86DB
S315000053107B6B02331B789AB27B8E13447B867B6849
S3150000532093F82030184600F017FF7A8E79887B684C
S31500005330786B00F011F87B6893F820303B7307F127
S315000053400C0319460120FFF76DF900BF3837BD463B
S3150000535080BD00BFEC0F002080B586B000AFF860BE
S315000053607B600B467B8113463B81FF23BB82002378
S31500005370FB74FB681B78FB822AE0FB8A0133FA6820
S3150000538013441B78042B05D1FB8A0533FA681344B2
S315000053901B78FB74FB8A0133FA6813441B78052BD0
S315000053A00ED1FB8AFA681344FA7C7968184600F035
S315000053B0DBFD0346BB74BB7C002B01D00023BB8204
S315000053C0FB8AFA6813441B789AB2FB8A1344FB8261
S315000053D0FA8A3B899A42D0D3BB8A18461837BD460B
S315000053E080BDFFFF80B58CB000AF78600B467B8038
S315000053F013463B80084B01221A807B6893F82030C5
S315000054003B7307F10C0319460320FFF70BF900BFA6
S315000054103037BD4680BD00BFE80F002080B58CB098
S3150000542000AF78600B467B8013463B800A4B1B8897
S31500005430012B0CD1084B00221A807B6893F8203090
S315000054403B7307F10C0319460620FFF7EBF800BF84
S315000054503037BD4680BD00BFE80F002080B58CB058
S3150000546000AF78600B467B8013463B807B6893F8E1
S3150000547020303B7307F10C0319460420FFF7D2F8DE
S3150000548000BF3037BD4680BD80B58CB000AF7860B8
S315000054900B467B8013463B807B6893F820303B733A
S315000054A007F10C0319460520FFF7BCF800BF30379B
S315000054B0BD4680BD80B483B000AF78600B467B806C
S315000054C013463B8000BF0C37BD465DF8047B704732
S315000054D080B582B000AF78600B467B807B8803F096
S315000054E00103002B2DD07A680021002000F0F4FA89
S315000054F00346FF2B20D0FF2B29DC032B13D0032BD5
