S01D0000454B5F5241364D345F4D6963726F524F535F5553422E7372656338
S31500000000207D0020994B0000C5490000954B00005B
S31500000010954B0000954B0000954B0000954B00005A
S31500000020000000000000000000000000954B0000EA
S31500000030954B000000000000954B0000954B00001A
S31500000040DD460000691A00009D1A0000D11A000062
S31500000050F51A00000000000000000000000000008B
S31500000060000000000000000000000000000000008A
S31500000070000000000000000000000000000000007A
S31500000080000000000000000000000000000000006A
S31500000090000000000000000000000000000000005A
S315000000A0000000000000000000000000000000004A
S315000000B0000000000000000000000000000000003A
S315000000C0000000000000000000000000000000002A
S315000000D0000000000000000000000000000000001A
S315000000E0000000000000000000000000000000000A
S315000000F000000000000000000000000000000000FA
S3150000010000000000000000000000000000000000E9
S3150000011000000000000000000000000000000000D9
S3150000012000000000000000000000000000000000C9
S3150000013000000000000000000000000000000000B9
S3150000014000000000000000000000000000000000A9
S315000001500000000000000000000000000000000099
S315000001600000000000000000000000000000000089
S315000001700000000000000000000000000000000079
S315000001800000000000000000000000000000000069
S315000001900000000000000000000000000000000059
S315000001A00000000000000000000000000000000049
S315000001B00000000000000000000000000000000039
S315000001C0FFFFFFFFFFFFFFFFFFFFFFFFFFFFFFFF39
S315000001D0FFFFFFFFFFFFFFFFFFFFFFFFFFFFFFFF29
S315000001E0FFFFFFFFFFFFFFFFFFFFFFFFFFFFFFFF19
S315000001F0FFFFFFFFFFFFFFFFFFFFFFFFFFFFFFFF09
S3150000020010B5054C237833B9044B13B1044800E00C
S3150000021000BF0123237010BD48030020000000002A
S31500000220BC0E010008B5034B1BB10349034800E0AF
S3150000023000BF08BD000000004C030020BC0E0100FA
S3150000024010B52348234C88B00021CDE90004224B89
S31500000250224A012004F070FF03A804F0EBFE204CB4
S315000002602049214A214B03A8CDE90341CDE90523C5
S3150000027004F0F0FE30B3EFF31081012383F310880E
S315000002801B4B1A681AB940241A48C270C4701A68FF
S3150000029001321A6081F31088174B18495B681A8877
S315000002A0130A1B0153FA82F251F8223023F001138C
S315000002B023F4404343F0050341F8223000F03AF8B6
S315000002C008B010BD2B210E480EF076FAD3E700BF1A
S315000002D0DD060000E5060000CD060000B5060000BC
S315000002E01D03000021030000250300002903000070
S315000002F0CC0F0020000D08403C0301000008084018
S31500000300FCFE0000022800D070470249024804F0B3
S315000003100DB900BFB0FF0000880700200EF030B90D
S315000003200EF036B90EF0CCBA0B46012103FB00F0F5
S315000003300EF0D0B82DE9F04397B004A804F0A8FE5B
S31500000340002204AB114609A804F0B2FD3D4A3E491D
S3150000035009AB02A804F0F6FD68B301253B4CDFF8B3
S31500000360FC903B4FDFF8F8803A4E85F00105EFF33D
S315000003701082012383F31088236813B94021FB7090
S31500000380F97023680133236082F31088D9F80430AA
S315000003904FF47A719A886420130A1B0153FA82F289
S315000003A058F8223033402B4343F0040348F82230F8
S315000003B004F0D4FAD9E705F041FB274B024602A91F
S315000003C0684604F0FBFD68B30127204CDFF88C90EB
S315000003D01F4EDFF88C801F4D87F00107EFF3108268
S315000003E0012383F31088236813B94021F370F17059
S315000003F023680133236082F31088D9F804304FF460
S315000004007A719A886420130A1B0153FA82F258F80B
S3150000041022302B403B4343F0040348F8223004F0DB
S315000004209DFAD9E7019001A90022684604F01CFD57
S31500000430019B4FF47A7101336420019304F08EFA24
S31500000440F1E700BF0808010024FF0000CC0F0020E0
S31500000450000D0840FE3FFEFF34FF00003C03010094
S3150000046000080840044AD2E90031013341F1000195
S31500000470C2E90031704700BF78030020FFFFFFFF8D
S315000004802DE9F0433A4E0D46337883B0002B35D034
S31500000490384B394F5E68394C6946394804F06CF878
S315000004A0D4E90002D7E900370099711A354ED6E92A
S315000004B0004604FB02F200FB0622A3FB0136A4FB66
S315000004C0004001FB07661C19024446EB0206204663
S315000004D021A3D3E9002331460DF02EFE03462B60FF
S315000004E0DB176B6031461CA3D3E9002320460DF0D1
S315000004F023FE0020AA6003B0BDE8F0834FF0010997
S31500000500DFF870801E48414604F048F81C4804F0A5
S3150000051017F898F80800184F09FA00F00DF040FB9C
S315000005200FA3D3E900230DF0CFFC0FA3D3E90023DB
S315000005300DF0A0FB0DF018FE86F80090D8F80460C8
S315000005403860A6FB000306FB01330C4C7960206083
S315000005506360A1E7AFF3008000CA9A3B0000000089
S315000005600000000084D787410000000065CDCD4122
S315000005708003002088FF000070030020680300202D
S31500000580B4070020780300202DE9F04F002483B043
S3150000059001288DF80740804692461C4670D00228F6
S315000005A074D004F063FB05460F463D4EDFF8F49029
S315000005B0DFF8FCB0631C09D004F058FB401B61EB6C
S315000005C00701E317A04271EB030345DA30460DF14C
S315000005D0070103F00DFD00283ED19DF80730033BCF
S315000005E0072BE7D801A252F823F000BF0D06000042
S315000005F0B5050000B5050000B50500002B06000096
S31500000600B50500001B0600000D060000B8F1010F3D
S31500000610D0D1504603B0BDE8F08FB8F1020FC9D172
S315000006201F4B986803B0BDE8F08F30461D4903F0B4
S31500000630D7FCB9F8003003F47F43B3F5005F0FD061
S31500000640B3F5045F14D0B3F5085FB3D1002130468B
S3150000065003F092FE0028ADD0002003B0BDE8F08F75
S3150000066007225946304603F03FFE0028A2D0F3E7A2
S3150000067007225946304603F05BFE00289AD0EBE786
S31500000680094B07481B7803F005FE8AE7064B4FF433
S315000006907A721B780549024803F0D2FD81E700BF54
S315000006A090070020800700208C0300209003002084
S315000006B08403002008B50349034803F0C5FC012064
S315000006C008BD00BF5CFF00009007002008B5024887
S315000006D003F08CFD012008BD900700206423012053
S315000006E0FFF752BFF8B5194D0C462E681746F6B1FE
S315000006F017490B68B34225D237B3E019421E154F8E
S3150000070004F1FF3C01E0944510D06046FB5C0230EA
S315000007100CF8013F0B682E680133B3420B60A0EB67
S315000007200400F0D39E4201D100232B60F8BD314670
S3150000073032460220FFF728FF054933460E6028603F
S315000007400646D7E70020EDE73846F8BD7C070020CF
S31500000750780700209003002008B5FFF771FD002000
S3150000076008BD00BF1B4B1B88012B00D07047837F41
S3150000077010B5022B0CBF802182218AB0C2680469A1
S315000007808DF80630838C121B042B03928DF807100C
S3150000079011D0052B18D0032B12D040F2DC53ADF844
S315000007A0083090F8203001A909208DF8043001F0B6
S315000007B0C7FD0AB010BD40F2DE53ADF80830F0E7D1
S315000007C00023ADF80830ECE740F2DF53ADF808300F
S315000007D0E7E700BFC4080020154B1B88012B00D09B
S315000007E0704700B5837F8BB0012B8DF806301AD089
S315000007F0ABB181238DF80730818C40F2DC5301299F
S3150000080008BF002390F8202001A90A208DF80420B3
S31500000810ADF8083001F094FD0BB05DF804FB8223BF
S315000008208DF80730E8E780238DF80730E4E700BF4E
S31500000830C408002010B5044631B900F031FDC305E7
S315000008400AD54FF4807010BD00F0A2FD204600F0DE
S31500000850EBFDC0F30A0010BD204600F055FD00F088
S315000008607F0010BD2DE9F0414B4B90F820700446F7
S3150000087033F817300D469BB2022B4DD000F0A2FB89
S315000008802946204600F0D8FB2946204600F012FCF7
S315000008902946204601F034FD2946204600F078FD21
S315000008A0642207FB02F2DFF8F88005EB850302EB12
S315000008B0430343445988AE00204600F09DFD73195A
S315000008C0642607FB06F606EB430646442046F188F7
S315000008D000F0C6FD2046318900F0DAFD20460021F1
S315000008E000F056FD2946204600F07CFE29462046AB
S315000008F001F0F2FC2946204600F016FE2946204665
S3150000090000F006FC2946204600F026FC2946204633
S31500000910BDE8F04100F044BC0022204B43F8212002
S3150000092002F04AFA80462946204694F8207000F0E4
S3150000093049FB2946204600F07FFB2946204600F069
S31500000940B9FB08F1FF382946204601F0D9FC1FFA09
S3150000095088F82946204600F01BFDB8F1010F0FD894
S31500000960642207FB02F2DFF8388005EB850302EB11
S31500000970430343445988AE0041F4806159809BE7A4
S3150000098064230A2207FB03F302FB0533DFF810801A
S31500000990AE00434459888FE76C0F0020D40700202F
S315000009A01008002070B5314B90F82020054633F82A
S315000009B012300E469BB2022B03D100222C4B43F879
S315000009C021203146284601F09BFC3146284600F09E
S315000009D0F9FA3146284600F02FFB3146284600F04A
S315000009E069FB48F22F034FF400420021284600F02D
S315000009F097F90021284600F05DF910F02F04F8D190
S31500000A003146284600F0C4FC2146284600F0F4FC96
S31500000A102146284600F024FD2146284600F038FDF0
S31500000A202146284600F0B4FC3146284600F0DAFD9F
S31500000A303146284601F050FC3146284600F074FD48
S31500000A403146284600F07AFE3146284600F094FEEC
S31500000A503146284600F05CFB3146284600F07CFB18
S31500000A6031462846BDE8704000F09ABB6C0F002066
S31500000A70D407002070B501224FF6FF7406460D46D6
S31500000A8000F016FE2946304600F01AFD013C8306AA
S31500000A90A4B200D470BD002CF4D170BD70B505466B
S31500000AA01646A2B164240BE0284600F05BF8013C30
S31500000AB0284600F071F8A4B20A2000F0CDFFC4B1B8
S31500000AC03146284600F0B4F98304EDD570BD41EAFD
S31500000AD00304114648F22F0344F4004200F020F9C3
S31500000AE00021284600F0E6F800F02F008442F7D1F6
S31500000AF0D8E7FF2070BD00BF02B1704738B543EAA2
S31500000B000104114648F22F0344F40042054600F062
S31500000B1007F90021284600F0CDF800F02F039C428B
S31500000B20F7D138BD30B504460D4683B0019200F0CA
S31500000B3023FE29462046019A00F03CFE294620461F
S31500000B4003B0BDE8304000F0DBBD00BF38B5044659
S31500000B500D4600F0F3FD29462046BDE8384000F07A
S31500000B600BBE00BF094B90F8202033F812309BB221
S31500000B70022B01D0002070471AB9054B188880B2A5
S31500000B807047044B188880B2704700BF6C0F002076
S31500000B900000094000101140094B90F8202033F85E
S31500000BA012309BB2022B01D0002070471AB9054BB8
S31500000BB0988880B27047044B988880B2704700BF0F
S31500000BC06C0F00200000094000101140094B90F8FE
S31500000BD0202033F812309BB2022B01D00020704740
S31500000BE01AB9054B188980B27047044B188980B230
S31500000BF0704700BF6C0F0020000009400010114034
S31500000C00094B90F8202033F812309BB2022B01D00A
S31500000C10002070470029FBD1012A0BBF034B044B70
S31500000C20D88A988A80B270476C0F00200010114055
S31500000C30000009400D4B90F8200033F810309BB2AD
S31500000C40022B05D0012907D002290BD039B17047F4
S31500000C500128FCD00129F7D1054B1A837047044BB4
S31500000C609A827047024B9A83704700BF6C0F002030
S31500000C70000009400D4B90F8200033F810309BB26D
S31500000C80022B05D0012907D002290BD039B17047B4
S31500000C900128FCD00129F7D1054B1A767047044B81
S31500000CA01A757047024B1A77704700BF6C0F002009
S31500000CB000000940134B90F8202033F812309BB205
S31500000CC0022B1CD1012912D0022907D10E490F4B44
S31500000CD0012A18BF0B46188880B2704779B90C49AB
S31500000CE00C4B012A18BF0B46188880B270470A4978
S31500000CF00A4B012A18BF0B46188880B2704700239A
S31500000D001B88FFDE6C0F00202C0009402C101140C0
S31500000D1020000940201011402800094028101140E9
S31500000D2010B5194C90F820E034F81E0080B2022865
S31500000D3026D101291CD0022907D114491448BEF135
S31500000D40010F0CBF8C46844607E0C9B91149124809
S31500000D50BEF1010F0CBF8C468446BCF8001003EAB6
S31500000D6002008AB222EA03030343ACF8003010BD46
S31500000D700A490B48BEF1010F0CBF8C468446ECE7CE
S31500000D8000231B88FFDE00BF6C0F00202C101140D3
S31500000D902C00094020101140200009402810114065
S31500000DA02800094010B41B4C90F8200034F810308D
S31500000DB09BB2022B04D1012926D002291ED0B9B13B
S31500000DC0002134F810309BB2022B02D05DF8044BA0
S31500000DD070470B8823F440631B041B0C0B80002A0E
S31500000DE0F4D00B885DF8044B9BB21A430A80704717
S31500000DF009490A4B012818BF1946E2E70849094B79
S31500000E00012818BF1946DCE70749084B012818BF17
S31500000E101946D6E76C0F002020101140200009402B
S31500000E202C1011402C0009402810114028000940C0
S31500000E30164B90F8202033F812309BB2022B21D1AA
S31500000E40012917D0022907D11149124B012A18BFCF
S31500000E500B46188880B27047A1B903F180430E494A
S31500000E6003F5881303F58153012A18BF0B4618882A
S31500000E7080B2704709490A4B012A18BF0B461888E9
S31500000E8080B2704700231B88FFDE00BF6C0F002076
S31500000E902E0009402E101140220009402A00094068
S31500000EA02A101140144B90F8202033F812309BB2D0
S31500000EB0022B1DD1012915D0022905D10F49104B4E
S31500000EC0012A18BF194605E091B90E490E4B012AB1
S31500000ED018BF19460B886FEA43436FEA53439BB228
S31500000EE00B80704709490A4B012A18BF1946F1E7DA
S31500000EF000231B88FFDE00BF6C0F00202E10114060
S31500000F002E00094022101140220009402A101140EB
S31500000F102A000940174B90F8202033F812309BB274
S31500000F20022B24D1012919D0022908D1124B1349C9
S31500000F30012A18BF0B464FF480421A807047B1B998
S31500000F4003F180430E4903F5881303F58153012A03
S31500000F5018BF0B464FF480421A807047094B0A4966
S31500000F60012A18BF0B464FF480421A8070470023AF
S31500000F701B80FFDE6C0F00202E1011402E00094052
S31500000F80220009402A1011402A0009400A4B90F815
S31500000F90202033F812309BB2022B00D07047012379
S31500000FA03AB1064AD08E03FA01F1014389B2D186DD
S31500000FB07047034AF6E700BF6C0F0020001011408F
S31500000FC0000009400B4B90F8202033F812309BB2FA
S31500000FD0022B00D070474AB101220748C38E02FA9D
S31500000FE001F19BB223EA0101C18670470122034841
S31500000FF0F4E700BF6C0F002000101140000009400C
S315000010000A4B90F8202033F812309BB2022B00D006
S31500001010704701233AB1064A108F03FA01F10143E2
S3150000102089B211877047034AF6E700BF6C0F0020AC
S3150000103000101140000009400B4B90F8202033F8B7
S3150000104012309BB2022B00D070474AB101220748EA
S31500001050038F02FA01F19BB223EA0101018770476F
S3150000106001220348F4E700BF6C0F00200010114076
S31500001070000009400C4B90F8202033F812309BB248
S31500001080022B00D07047002AFCD1012310B4074C74
S31500001090074824F81120428F03FA01F1114389B25F
S315000010A05DF8044B418770476C0F0020FC07002059
S315000010B0000009400B4B90F8202033F812309BB209
S315000010C0022B00D070474AB101220748438F02FA2B
S315000010D001F19BB223EA01014187704701220348CF
S315000010E0F4E700BF6C0F002000101140000009401B
S315000010F020B9054BB3F8400080B27047034BB3F8F4
S31500001100400080B2704700BF000009400010114047
S315000011100E4B90F8202033F812309BB2022B00D0F1
S315000011207047012342B903FA01F1C943084AC1F3E2
S315000011300901A2F84610704703FA01F1C943054AAE
S31500001140C1F30901A2F84610704700BF6C0F0020DA
S3150000115000000940001011400E4B90F8202033F893
S3150000116012309BB2022B00D07047012342B903FA1A
S3150000117001F1C943084AC1F30901A2F848107047B2
S3150000118003FA01F1C943054AC1F30901A2F848105F
S31500001190704700BF6C0F002000000940001011408E
S315000011A00E4B90F8202033F812309BB2022B00D061
S315000011B07047012342B903FA01F1C943084AC1F352
S315000011C00901A2F84A10704703FA01F1C943054A1A
S315000011D0C1F30901A2F84A10704700BF6C0F002046
S315000011E000000940001011400A4B90F8202033F807
S315000011F012309BB2022B01D00020704722B9064B59
S31500001200B3F84C0080B27047044BB3F84C0080B280
S31500001210704700BF6C0F002000000940001011400D
S3150000122020B9054BB3F8540080B27047034BB3F8AE
S31500001230540080B2704700BF000009400010114002
S3150000124020B9054BB3F8560080B27047034BB3F88C
S31500001250560080B2704700BF0000094000101140E0
S3150000126020B9054BB3F8580080B27047034BB3F86A
S31500001270580080B2704700BF0000094000101140BE
S3150000128020B9054BB3F85A0080B27047034BB3F848
S315000012905A0080B2704700BF00000940001011409C
S315000012A00A4B90F8202033F812309BB2022B01D063
S315000012B00020704722B9064BB3F85C0080B2704735
S315000012C0044BB3F85C0080B2704700BF6C0F00207F
S315000012D00000094000101140084B90F8202033F818
S315000012E012309BB2022B00D070471AB9044BA3F8F8
S315000012F05C107047034BA3F85C1070476C0F00201E
S3150000130000000940001011400A4B90F8202033F8E5
S3150000131012309BB2022B01D00020704722B9064B37
S31500001320B3F85E0080B27047044BB3F85E0080B23B
S31500001330704700BF6C0F00200000094000101140EC
S31500001340084B90F8202033F812309BB2022B00D0C5
S3150000135070471AB9044BA3F85E107047034BA3F805
S315000013605E1070476C0F002000000940001011400D
S3150000137020B9054BB3F8600080B27047034BB3F851
S31500001380600080B2704700BF0000094000101140A5
S31500001390084B90F8202033F812309BB2022B00D075
S315000013A070471AB9044BA3F864107047034BA3F8AF
S315000013B0641070476C0F00200000094000101140B7
S315000013C00A4B90F8202033F812309BB2022B01D042
S315000013D00020704722B9064BB3F8680080B2704708
S315000013E0044BB3F8680080B2704700BF6C0F002052
S315000013F00000094000101140084B90F8202033F8F7
S3150000140012309BB2022B00D070471AB9044BA3F8D6
S3150000141068107047034BA3F8681070476C0F0020E4
S3150000142000000940001011400A4B90F8202033F8C4
S3150000143012309BB2022B01D00020704722B9064B16
S31500001440B3F86C0080B27047044BB3F86C0080B2FE
S31500001450704700BF6C0F00200000094000101140CB
S31500001460084B90F8202033F812309BB2022B00D0A4
S3150000147070471AB9044BA3F86C107047034BA3F8D6
S315000014806C1070476C0F00200000094000101140DE
S31500001490084B90F8202033F812309BB2022B00D074
S315000014A070471AB9044BA3F86E107047034BA3F8A4
S315000014B06E1070476C0F00200000094000101140AC
S315000014C04FF0000C134B90F8202082B0ADF806C008
S315000014D033F812309BB2022B04D0BDF8060080B25E
S315000014E002B0704762B181B10B4B03EB41010B882F
S315000014F09BB2ADF80630BDF8060080B202B0704768
S3150000150029B1064B03EB4101F1E70549EFE7054930
S31500001510EDE700BF6C0F00206E1011406E00094011
S3150000152060101140600009400B4B90F8202033F802
S3150000153012309BB2022B00D0704742B1074B03EB2F
S3150000154041010B889BB243F400530B807047044B58
S3150000155003EB4101F5E700BF6C0F00206E10114050
S315000015606E0009400D4B90F8202033F812309BB2E4
S31500001570022B00D0704742B9094A32F811309BB2AB
S3150000158043F4007322F811307047064A32F81130DE
S315000015909BB243F4007322F8113070476C0F0020A1
S315000015A06E0009406E1011400B4B90F8202033F866
S315000015B012309BB2022B00D070474AB1074B03EBA7
S315000015C041010B8823F400731B041B0C0B8070472E
S315000015D0034B03EB4101F4E76C0F00206E10114042
S315000015E06E000940174B90F8202033F812309BB25A
S315000015F0022B00D070474AB9D9B9134AB2F8603005
S315000016009BB243F48073A2F86030704741B90F4A29
S31500001610B2F860309BB243F48073A2F86030704732
S315000016200B4A32F811309BB243F4807322F8113022
S31500001630E0E7084A32F811309BB243F4807322F88F
S31500001640113070476C0F0020000009400010114057
S315000016506E1011406E000940104B90F8200033F8D0
S3150000166010309BB2022B00D0704770B191B10C4B79
S3150000167003EB41010B8823F003031B041B0C0B80B7
S315000016800B889BB21A430A80704729B1054B03EBBE
S315000016904101EFE70449EDE70449EBE76C0F002051
S315000016A06E1011406E000940601011406000094044
S315000016B00E4B90F8200033F810309BB2022B00D06E
S315000016C0704748B169B10A4B03EB41010B889BB2E5
S315000016D023EA02020A80704729B1064B03EB410157
S315000016E0F4E70549F2E70549F0E700BF6C0F002073
S315000016F06E1011406E0009406010114060000940F4
S315000017000B4B90F8202033F812309BB2022B00D0FE
S31500001710704742B1074A89000A4413889BB243F4D2
S31500001720007313807047044A89000A44F5E700BF36
S315000017306C0F00208C1011408C0009400B4B90F868
S31500001740202033F812309BB2022B00D070474AB1EA
S31500001750074A89000A44138823F400731B041B0CF0
S3150000176013807047034A89000A44F4E76C0F00208F
S315000017708C1011408C0009400B4B90F8202033F858
S3150000178012309BB2022B00D0704742B1074A890043
S315000017900A4413889BB243F4807313807047044A4B
S315000017A089000A44F5E700BF6C0F00208C10114039
S315000017B08C000940094B90F8200033F810309BB29A
S315000017C0022B00D0704720B1054B89000B441A80CC
S315000017D07047044B89000B44F9E700BF6C0F0020EB
S315000017E08E1011408E000940704700BF704700BF41
S315000017F0124B5A6870B911051CD5EFF310810122FE
S3150000180082F310885A6822F400625A605B6881F39A
S3150000181010887047D2040DD5EFF31081012282F3B0
S3150000182010885A6822F400625A605B6881F3108857
S315000018300020704740F2DD50704700BF004008406E
S3150000184000283BD180223D4B1881A3F86020A3F8E5
S315000018507000A3F87200A3F87400A3F87600A3F84A
S315000018607800A3F87A00A3F87C00A3F87E00A3F81A
S315000018708000D8861887588718865886A3F84600A9
S31500001880A3F84800A3F84A001A88002022F01002A4
S315000018901204120C1A801A8822F020021204120C6A
S315000018A01A801A8822F040021204120C1A801A8832
S315000018B022F001021204120C1A80704700228021C5
S315000018C01F4B00201A81A3F86010A3F87020A3F81C
S315000018D07220A3F87420A3F87620A3F87820A3F842
S315000018E07A20A3F87C20A3F87E20A3F88020DA864D
S315000018F01A875A871A865A86A3F84620A3F84820DC
S31500001900A3F84A20198821F010010904090C19804E
S31500001910198821F020010904090C1980198821F081
S3150000192040010904090C1980198821F001010904F4
S31500001930090C1980A3F80221704700BF0000094076
S315000019400010114010B50446FFF77AFFACB9114BF1
S315000019505A68110517D45A68C2F3C020120515D467
S31500001960EFF31081012282F310885A6842F4006274
S315000019705A605B6881F3108810BD012C40F2E2507A
S3150000198008BF002010BD40F2DC5010BD4FF4BC6013
S3150000199010BD00BF0040084000B17047F0B42A4BAC
S315000019A02A4DD3F800242A4E60F30412C3F800240B
S315000019B00A7D91F90D301201264CEF18D2B287F844
S315000019C0002303F1C00246F8231054F8227060F396
S315000019D0104744F8227054F82220BFF35F8F4FF06F
S315000019E0010C5A09920003F01F0302F1604202F54E
S315000019F061420CFA03F3C2F880311360CB7C91F993
S31500001A000C201B01DBB2154485F8003302F1C0033C
S31500001A1046F8221054F8231060F3104144F82310BE
S31500001A2054F82330BFF35F8F53099B0002F01F0267
S31500001A3003F160430CFA02F203F56143C3F8802117
S31500001A401A60F0BC704700BF0000094000E100E0EA
S31500001A50D00F002000600040012102F07FBF00BFD0
S31500001A604FF47A7102F07ABFEFF30383103B094A11
S31500001A705BB2C03352F823106FF3104142F82310C3
S31500001A8052F82330044B1B889BB2012B00D17047C0
S31500001A9001F00CB9006000406C0F0020EFF30383E7
S31500001AA0103B094A5BB203F1C00152F821006FF303
S31500001AB0104042F8210052F82120044A52F82330FF
S31500001AC0987800F06DBA00BF00600040D00F00208B
S31500001AD0EFF30383103B064A5BB2C03352F8231080
S31500001AE06FF3104142F8231052F82330704700BFBD
S31500001AF000600040EFF30383103B064A5BB2C0333D
S31500001B0052F823106FF3104142F8231052F8233095
S31500001B10704700BF006000402DE9F043012A0CBF6A
S31500001B20784B794B0446B3F840E0B3F84660B3F817
S31500001B304880B3F84A70B3F830C0D88E1D8F5B8FDB
S31500001B401FFA85F99DB200231FFA8EFE1EF47F4F01
S31500001B50238083B0B6B21FFA88F8BFB21FFA8CFC96
S31500001B6080B20B800ED00EEA0C0313F4804F0CD01B
S31500001B70012A4BF6FF720CBF624B634BA3F8402061
S31500001B801223238003B0BDE8F08313F4004F0DD178
S31500001B9013F4005F17D0012A4DF6FF720CBF594BA4
S31500001BA0594BA3F8402013232380EBE7012A47F67D
S31500001BB0FF720CBF534B544BA3F8402011232380D4
S31500001BC003B0BDE8F08313F4805F12D1304013F404
S31500001BD080761BD010F0010F18D0012A40F2FE3299
S31500001BE00CBF484B484BA3F84620012323800B80AB
S31500001BF0C8E7012A4EF6FF720CBF424B424BA3F8D0
S31500001C00402014232380A1F800E0BBE713F4806C86
S31500001C1007EA05070ED0FD070CD5012A40F2FE3271
S31500001C200CBF384B384BA3F84A20022201232280EE
S31500001C300B80A7E713F4007E08EA09050FD015F01C
S31500001C40010F0CD0012A40F2FE320CBF2D4B2E4B59
S31500001C50A3F848200322012322800B8092E71B056C
S31500001C601DD466B1C343012A0CBF264A264AC3F3D4
S31500001C700903A2F8463001232380088082E7BCF1DD
S31500001C80000F2DD0FB43012A0CBF1E4A1E4AC3F388
S31500001C900903A2F84A30022323800F8072E7104618
S31500001CA001910092FFF724FA0199009A08804FF2F9
S31500001CB0FF70012A0CBF134B134BA3F840001523EA
S31500001CC023800B8803F00703062B7FF45BAF1046D7
S31500001CD0009100F075F90023009923800B8051E7ED
S31500001CE0BEF1000F3FF44EAFEB43012A0CBF054A8D
S31500001CF0054AC3F30903A2F84830032323800D8065
S31500001D0040E700BF001011400000094010B504462E
S31500001D1000F056F92046FFF783FA0246094B2046A3
S31500001D201A80FFF78DFA0246074B20461A80FFF706
S31500001D3097FA0246054B20461A80FFF7A1FA044B94
S31500001D40188010BD4C0B00204E0B0020400B0020CD
S31500001D50420B002008B590F82000FFF7C9F900F003
S31500001D607000A0F13000B0FA80F0400908BD00BF55
S31500001D70704700BF10B5044690F8200000F010F937
S31500001D8094F82000BDE8104000F0FAB80B46022295
S31500001D9001461846FFF760BC02220021FFF75CBC33
S31500001DA02DE9F041450880460F4614461E4623D0CD
S31500001DB002EB450534F8022B39463046FEF73AFF6A
S31500001DC0AC42F7D118F0010F02D12846BDE8F081E8
S31500001DD0394630460022FEF7E5FF15F8012B394655
S31500001DE03046FEF747FF30464FF480623946FEF72D
S31500001DF0D9FF2846BDE8F0811546E3E72DE9F04115
S31500001E0045080746884614461E4617D002EB450588
S31500001E1041463046FEF7F4FE24F8020BAC42F7D1F9
S31500001E20FB0702D42846BDE8F08141463046FEF75E
S31500001E30E7FE05F8010B2846BDE8F0811546EFE7F9
S31500001E402DE9F0410446154610460F462146FEF799
S31500001E5011FE21462846FFF7B5F821462846FFF72A
S31500001E60EBF821462846FFF725F921462846FEF7D6
S31500001E706DFE00212846FEF71DFF00F00F0084428C
S31500001E8023D021462846DFF8548000F025FA214663
S31500001E902846FFF749FB58F82460A6B10E4B2146A9
S31500001EA053F8243028463361B784FFF709FB58F806
S31500001EB024104B68F0841BB100220846114698474F
S31500001EC0002348F82430BDE8F081002328461A464E
S31500001ED01946FEF711FED4E774080020D407002047
S31500001EE010B5064C238803B910BDFFF77DFC6420AE
S31500001EF0FFF7B2FD0023238010BD00BFD0070020EE
S31500001F000122024B1A80FFF771BC00BFD0070020E8
S31500001F1030B9074A13889BB243F010031380704709
S31500001F20044A13889BB243F010031380704700BF26
S31500001F30000009400010114038B9054A138823F003
S31500001F4010031B041B0C13807047024AF6E700BF00
S31500001F50000009400010114030B9074A138E9BB2A9
S31500001F6043F4804313867047044A138E9BB243F4AE
S31500001F7080431386704700BF0000094000101140DF
S31500001F8038B9054A138E23F480431B041B0C1386B1
S31500001F907047024AF6E700BF0000094000101140F2
S31500001FA04BF6FF7218B9044BA3F840207047034B59
S31500001FB0A3F84020704700BF000009400010114000
S31500001FC04FF6F77218B9044BA3F840207047034B3D
S31500001FD0A3F84020704700BF0000094000101140E0
S31500001FE040B9094AB2F860309BB243F00403A2F844
S31500001FF060307047054AB2F860309BB243F0040384
S31500002000A2F86030704700BF000009400010114080
S31500002010D8B90E4B1A8892B242F480621A801A8896
S315000020205205FCD54FF480614FF41D401A8822F00A
S3150000203020021204120C1A801A8892B242F001028F
S315000020401A801984198599851886704700000940F9
S3150000205088B90C4AB2F8603023F003031B041B0C4A
S31500002060A2F86030B2F860309BB231B943F0010398
S31500002070A2F860307047044AECE743F00203A2F886
S31500002080603070470000094000101140104B90F876
S3150000209000C033F81C309BB2022B01D000207047E1
S315000020A00C4B1B88012B10D000B54FF0010E8FB0E2
S315000020B0094B10466A468DF820C0A3F800E000F0F0
S315000020C0A7F900200FB05DF804FBD520704700BFCC
S315000020D06C0F00203C0B0020680B002030B5204B15
S315000020E00446007899B033F810308DF848009BB25A
S315000020F0022B02D0002019B030BD0D4671B1194B2C
S315000021001B88012B27D00124174B294610460AAA03
S315000021101C8000F039F9002019B030BD002AEED13C
S31500002120A3880AA8CBB1FFF737FE002592222178B3
S3150000213004AB0C348DF8041094E8030083E8030024
S31500002140082001A90395ADF808508DF8072000F086
S31500002150F7F82846CFE7D520CDE700F0CBF8E4E73F
S315000021606C0F00203C0B0020680B0020C378092B65
S315000021701DD810B54FEA430C0E4C5FFA8CF314F8D9
S3150000218003E00D4CCEEBCE0304EBC303DA6000781C
S315000021901A610A4A83F8200052F82C20A3F81EE0A0
S315000021A01846BDE8104099605A6000F02FBC002028
S315000021B0704700BF100301003C0D00207C01002089
S315000021C0F0B590F803E0BEF1090F3BD84FEA4E0E8A
S315000021D004460EF101031C48DBB210F803C01B4B8A
S315000021E0CCEBCC00BCF1060F03EBC00012D10A27E2
S315000021F091F800E0164E654686F808E04978C3F87F
S3150000220058617172C3F8607194F803E030224FEAA6
S315000022104E0E05E0026181604FEACC021FFA8CF592
S31500002220A2EB0C0C227803EBCC0383F82020094A9E
S315000022300EF1010E52F82E20DD835A60BDE8F04003
S3150000224000F0E4BB0020F0BD100301003C0D0020AF
S315000022500C0200207C010020092900D97047FEF7F6
S31500002260CFBE00BF092901D90020704708B5FFF786
S3150000227027F900F0030008BD09290FD810B541B1B0
S315000022800446FFF785F82046FFF7CEF8C0F30A00AC
S3150000229010BDFFF739F8C0F30A0010BD00207047E3
S315000022A0092901D90020704710B50446FFF770F8D8
S315000022B02046FFF785F800F0100010BD092901D966
S315000022C00020704710B50446FFF762F82046FFF776
S315000022D077F800F4404010BD092900D9704738B599
S315000022E00C460546FFF73EF921462846BDE838402C
S315000022F0FFF75AB9092900D970470122FFF7ACB98F
S31500002300092900D9704738B50C460546FEF7B2FBD9
S3150000231021462846BDE838400222FFF7C9B900BF6A
S3150000232008B5FEF753FC00F00700013880B2032819
S3150000233096BF024B002033F8100008BD24030100AD
S3150000234030B58E460E4D2B7803EBC30CEA1805EB21
S315000023508C0C01330CF10C0C9070DCB2BEE80F0053
S31500002360ACE80F00BEE80F00ACE80F00DEF8003066
S31500002370092CCCF800308ABF00232C702B7030BD9E
S31500002380C40B002000F0F4B870B5012514460022F5
S315000023901C4B1D801C4B18601C48202301601146F5
S315000023A02046FEF7A9FB00212046FEF7B3FD0021DB
S315000023B02046FEF7F5FE00212246084600F032FDD3
S315000023C00128054605D020F00206B6B25EB12846C1
S315000023D070BD20460021FFF73FFF20460021FFF792
S315000023E089FF284670BD31462046FEF743FE31463A
S315000023F02046FFF731FF20463146FFF77BFF284690
S3150000240070BD00BF3C0B0020740800209C08002013
S3150000241038B501240D460F4900230C8014460E4A98
S31500002420194610600D481A4605602046FEF764FB03
S3150000243020460021FEF76EFD20460021FEF7A6FD90
S3150000244020460021FFF708FF2046BDE8384000215E
S31500002450FFF750BF3C0B0020740800209C080020AA
S3150000246038B50C4600210546184A194B20461180FE
S315000024701980FEF71FFE00212046FEF7A3FD00216E
S315000024802046FEF7D9FD94F820300021012B0CBF21
S315000024904FF400624FF480622046FEF783FC25F07D
S315000024A00203052B07D0082D0AD094F82000BDE8BA
S315000024B03840FFF795BD2046BDE83840FFF76CBCB5
S315000024C02046BDE838400021FEF7D4BA3C0B002078
S315000024D0680B0020704700BF704700BF03464FF0EF
S315000024E0010C00B5074A8BB093F82030032001A9F0
S315000024F0A2F800C08DF80430FFF722FF0BB05DF89C
S3150000250004FB00BFC4080020034600B58BB093F857
S315000025102030042001A98DF80430FFF711FF0BB01D
S315000025205DF804FB034600B58BB093F82030052018
S3150000253001A98DF80430FFF703FF0BB05DF804FB2B
S31500002540704700BF094B1A88012A00D07047002245
S3150000255000B58BB090F820C001A906208DF804C004
S315000025601A80FFF7EDFE0BB05DF804FBC4080020EF
S3150000257030B5714C91B094F8413094F840209A42AD
S3150000258001D111B030BD04EBC301486834F83320E3
S315000025908078013A49888DF82800142A1BD8DFE88C
S315000025A002F068625C1A1A1A1A1A1A1A1A1A1A1AEF
S315000025B01A1A520B1A452100604B5B6A002B00F079
S315000025C08280002202A81146019098470198FFF7E1
S315000025D0D1FB94F84130013303F0070384F841300E
S315000025E011B030BD11F0070555D1554B1B88012B95
S315000025F000F08C80534B1B8813F0600F03F06002D1
S3150000260000F088805048514A5149128803800B884F
S31500002610428083804F4A494B1288DB6AC28013B1DD
S31500002620294602AA984794F84130D4E701F070028F
S31500002630402A2AD023D8102ACDD102A800F0F8FECD
S3150000264094F84130C7E700F093FF402802A835D040
S3150000265000F018FF94F84130BDE702A800F0FCFA3C
S3150000266094F84130B7E702A800F0FCFA94F841303C
S31500002670B1E702A800F0C0FA94F84130ABE7602A4F
S3150000268003D001F050015029A5D102A800F03AFF6D
S3150000269094F841309FE701F00503012B33D0052D57
S315000026A031D0284B1B8813F0600FABD1013D042DB0
S315000026B03AD8DFE805F0221C100A160000F0D6FE14
S315000026C094F8413087E702A881E702A801F072FB7F
S315000026D094F841307FE702A801F078F994F8413088
S315000026E079E702A801F074F994F8413073E702A87B
S315000026F001F006FB94F841306DE702A801F018F8E6
S3150000270094F8413067E7FFF701FBCAE702A8FFF735
S315000027102FFB6FE7104B114902A81A800A8000F0C0
S31500002720C7FF94F8413056E7072002A9FFF798FE45
S3150000273094F841304FE700BF700B0020C80A002014
S315000027406A0B00204C0B0020440B00204E0B00208F
S31500002750400B0020420B0020680B00203C0B0020A1
S3150000276038B50F4BC58B044643F82500FFF7F2FA40
S31500002770012806D0284622460721FFF761FB0020E4
S3150000278038BD29462046FFF78BFD20B9284600F0C4
S31500002790D5FB002038BD284600F016FB002038BDCA
S315000027A0D4070020002110B4054C064B21804FF4BD
S315000027B0FF7205485DF8044B19800BF0FEBE00BFA2
S315000027C0C60A00203E0B0020C80800208446044BA1
S315000027D04FF4FF7200210348A3F800C00BF0EDBED2
S315000027E0C60A0020C8080020FF22044B03F120017E
S315000027F023F8022F8B421A84FAD17047FA0A002076
S31500002800014B9B6818797047C80A002000B5134B26
S31500002810996891F800E091F802C00EEB0102C978C0
S315000028204CEA012CE64514D21FFA8EF34FF0000E47
S315000028305178042904D19178814208BF92F803E0C7
S3150000284011780B449BB263450A44F1D370465DF898
S3150000285004FB4FF0000E70465DF804FBC80A00202A
S315000028602DE9F041244B9B68DD7893F802E01C7853
S315000028700EEB052E1FFA8EFE7445234434D2002635
S31500002880A2B2B04634461D4F1BE0BCF1050F12D173
S31500002890B44210D29D7893F902C005F00F054FEAB5
S315000028A0DC7C05EB0C1508EB040C5FFA8CFC0134A0
S315000028B027F815C0A4B21D782A4492B272452B445B
S315000028C012D293F801C0BCF1040FDED19D78854287
S315000028D00CD093F804C0C4441FFA8CF81D782A441F
S315000028E0D2B272452B44ECD3BDE8F081DD788D423F
S315000028F0EFD11E79F2E700BFC80A0020FC0A0020CB
S31500002900044B188820B1044B9B68D879C0F340105B
S31500002910704700BFC60A0020C80A0020024B9B6809
S31500002920D879C0F380107047C80A0020092800D95A
S31500002930704738B50446154600F040FB032807D813
S31500002940431E022B22D8DFE803F00C02130038BD29
S31500002950FF2814D12A462046BDE838401521FFF746
S315000029606FBA2A462046BDE83840042100F09EBBD7
S315000029702A462046BDE838400521FFF761BA2A46B7
S315000029802046BDE838400721FFF75ABA2A462046B6
S31500002990BDE83840032100F089BB00BF092800D9F3
S315000029A0704770B504460E46154601461046FEF7BA
S315000029B009FB2A463146204600F034FA022813D095
S315000029C009D821462846FEF755FB21462846BDE88C
S315000029D07040FFF741BCFF2810D12A462046BDE8CB
S315000029E070401521FFF72CBA21462846FEF7CEFA8D
S315000029F021462846BDE87040FFF72EBC2A462046F1
S31500002A00BDE870400721FFF71BBA00BFC18BC1B1FB
S31500002A100D4B10B553F82130044623B1FFF74EFC99
S31500002A20B0F5404F0BD12046FFF794F9012801D0AD
S31500002A30FF2010BD2046BDE81040FFF791BED5200F
S31500002A4010BDFF20704700BFD40700200021084BAF
S31500002A50084A0948C3E90522C3E90722C3E909224E
S31500002A60C3E90011C3E90211D8621961704700BFBA
S31500002A70C80A0020D5240000D92400004A6830B4D2
S31500002A80D2E90051D468D1B190680E4BC3E9005425
S31500002A90C3E9021015690C4C0C480D49127DC3E9B7
S31500002AA00454C3E906010B4C0B490C48C3E9084121
S31500002AB00B4983F83020C3E90A0130BC704791689E
S31500002AC00846E2E7C80A0020512B0000DD2400007A
S31500002AD045250000092500002525000041250000A8
S31500002AE0F13E00002DE9F047047894422BD20646C9
S31500002AF017469A464FF000094FF0FF0808E0BCF170
S31500002B00050F16D095F800C06444A4B2A7420DD9AB
S31500002B10351995F801C0BCF1040FF0D195F800C045
S31500002B2095F805906444A4B2A742F1D84046BDE8A2
S31500002B30F0874A465146284600F08CFB002818BF0D
S31500002B404FF00008DEE74FF0FF084046BDE8F0878B
S31500002B50F0B5274B04461A880E46012A8DB035D0AB
S31500002B6003AFC02E234B24D09D68002D3AD00222FD
S31500002B706A70DB681BB107225A7005B9FEE7EB786D
S31500002B80AA7894F8200002EB032292B2019200F098
S31500002B90C7FB23463146019A2846FFF7A3FF94F860
S31500002BA02030394601208DF80C30FFF7C9FB0DB0F7
S31500002BB0F0BDD3E90225CAB107215170DB68002BAD
S31500002BC0DBD002225A70002DD8D0D8E7002290F828
S31500002BD0201003AF8DF80C10062039461A80FFF737
S31500002BE0AFFBBEE7DB68002BC5D1C7E72B46E6E7A0
S31500002BF0C4080020C80A0020CB0711D500210246D0
S31500002C0010B50446084600F0D9F9032812D009D8B1
S31500002C10022819D02046BDE810400021FEF7D2B99F
S31500002C2000F04ABAFF2815D12146BDE8104007201A
S31500002C30FFF716BC20460021FEF76CF92146BDE8D9
S31500002C4010400520FFF70CBC2046BDE810400021CF
S31500002C50FFF750BB10BD00BFCB0700D5704700F093
S31500002C605DBA00BFCB0717D50021024610B5044652
S31500002C70084600F0D7F8022811D005D82046BDE84E
S31500002C8010400021FEF716BAFF2807D12146BDE8FD
S31500002C9010400720FFF7E4BB00F06CBA10BD2046D9
S31500002CA0BDE810400021FFF725BB00BF38B5EFF3A4
S31500002CB003830E4A103B5BB252F823500C4CA878A3
S31500002CC0FFF70EF994F84030D80004EBC3035D60BB
S31500002CD0811CAA7818462144FEF71EFF94F840305E
S31500002CE0013303F0070384F8403038BDD00F0020CD
S31500002CF0700B00202DE9F0410446154610460F469C
S31500002D002146FDF7B7FE21462846FEF75BF9214628
S31500002D102846FEF791F9DFF84C8021462846FEF753
S31500002D20C9F921462846FDF711FF58F82460A6B1D7
S31500002D300B4B214653F8243028463361B784FEF7FF
S31500002D40BFFB0022014658F824004368F18411466F
S31500002D50C4839847002348F82430BDE8F08100BFBB
S31500002D6074080020D407002091F820104FEAD00CF8
S31500002D70104A01EB810101EB81010CF0100C00F00F
S31500002D800F00012302EB81024CEA000C03E00A2B40
S31500002D9002F10A020BD0518998B2012903F101030D
S31500002DA0F5D1918901F01F018C45F0D17047FF20C4
S31500002DB0704700BF100800200020704708B5FDF7D7
S31500002DC0D1FEC0F3C01008BD092800D9704770B500
S31500002DD00446114B014653F8205028462E69FDF74C
S31500002DE049FE0E4BAA6843F824600D4B214643F872
S31500002DF024202846FEF7D4F921462846FEF788F90E
S31500002E0020462A460021FFF7C9FD21462846BDE88F
S31500002E107040FFF76FBA00BFD40700207408002087
S31500002E209C0800202DE9F04F092883B058D8154694
S31500002E3050EA010204460E4666D00A4600230146C1
S31500002E402846FDF72BFEFF284AD021462846FDF7E7
S31500002E50F1FC0746DFF8DC9021462846FFF70CFA1E
S31500002E6059F82430BB46BB422AD94FF00208214606
S31500002E702846FFF7F7F90346DFF8BCA021462846A7
S31500002E800193FDF7F7FD2B46314638465AF82420C4
S31500002E90FEF786FF59F824304AF824009B4525D8CA
S31500002EA0DB1B49F8243021462846FEF779F9019BB9
S31500002EB003F00303012B31D0404603B0BDE8F08F89
S31500002EC043B39FB2B7FBF0F800FB18701FFA80F807
S31500002ED0B8F1000F2AD1002C08BF4FF00208C6E750
S31500002EE04FF0FF08404603B0BDE8F08F002331469F
S31500002EF0284649F82430FDF79BFF0304D3D4314616
S31500002F002846FDF7CFFFCEE7202311462846FDF7DA
S31500002F10C5FD98E71F464FF00108A8E72846214659
S31500002F20FFF7E8F9404603B0BDE8F08F4FF001081F
S31500002F309DE700BF740800209C080020092800D9DE
S31500002F4070471B4B70B553F8206004460146304667
S31500002F503569FDF78FFD0023164AB16842F8245003
S31500002F60154A304642F8241021461A46FDF7C4FD9C
S31500002F7021463046FFF780F94DB1B5FBF0F200FB74
S31500002F80125595B92146304692B2FDF7CBFD214642
S31500002F903046FFF7AFF921463046FDF7F7FF2146E9
S31500002FA03046BDE87040FFF757B90132EAE700BF87
S31500002FB0D4070020740800209C08002009282DE969
S31500002FC0F04734D8164604460A4689460023014689
S31500002FD03046FDF763FDFF2829D0324FC0F30B05BD
S31500002FE021463046FFF748F957F82430AA46AB4247
S31500002FF02DD33CD005B3B5FBF0F300FB135080B2E4
S31500003000002847D14FF002082846274D3346494647
S3150000301055F82420FEF7F2FE45F8240057F8243030
S315000030204046A3EB0A0347F82430BDE8F0874FF08B
S31500003030FF084046BDE8F08721463046FDF71AFDF9
S315000030404FF0010849463046FDF764FFE6E72146A2
S315000030503046FDF70FFD57F824304FF003089AB2BB
S31500003060924647F82450002DECD01546CCE74CB9D3
S31500003070B5FBF0F300FB135080B218B92A464FF0A7
S315000030800208F0E721463046FDF7F4FC4FF0000851
S315000030902A46E8E721463046FDF7ECFC4FF00108EA
S315000030A0B2E700BF740800209C080020092800D958
S315000030B07047FFF71FBE00BF2DE9F8430124804685
S315000030C00E462746DFF8509002E001340A2C1AD04B
S315000030D007FA04F31E42A5B2F7D029464046FEF78A
S315000030E05FF859F82430002BEFD029464046FFF709
S315000030F0D7F8102809D04246002128460134FFF7A8
S3150000310015FC0A2CE4D1BDE8F88328464246002186
S31500003110FFF744FCD9E700BFD40700202DE9F843A8
S31500003120012480460D462746DFF8449007FA04F34B
S315000031301D42A6B209D059F8243033B13146404673
S31500003140FFF7BCF8B0F5404F04D001340A2CEDD19E
S31500003150BDE8F8834046FEF747F810F4004F4246B4
S31500003160304614BF05210721FEF76AFEEDE700BFD2
S31500003170D40700202DE9F047012406460D462746D0
S31500003180DFF8C890DFF8C88007FA04F31D421FFA7B
S3150000319084FA25D059F8243013B396F8203003EB7F
S315000031A0830304EB430338F81330012B18D0514640
S315000031B03046FFF757F8820736D451463046FEF7B9
S315000031C07FF9430439D496F82030504603EB830345
S315000031D004EB43033246012128F81370FFF78AFDFA
S315000031E00134062CD0D14FF00108DFF8609008FAC0
S315000031F004F31D42A7B20ED059F824305BB139460C
S315000032003046FFF72FF810F0020F3246384607D047
S315000032100621FEF715FE01340A2CE8D1BDE8F08739
S315000032200121FFF767FDF6E75046324606210134D5
S31500003230FEF706FE062CA7D1D5E7514630460134E7
S31500003240FDF718FF062C9FD1CDE700BFD40700205D
S31500003250FC0700204378052B0AD110B5C37803F08C
S315000032600303022B1DD0032B05D00023184610BDE7
S3150000327000231846704790F9023090F802C0002BE0
S31500003280F3DA022AF1D1642391F82010224A03FBD3
S3150000329001239B8F002BE8D14FF0060E1F4C73467F
S315000032A014E090F902E090F802C0BEF1000F22DBB4
S315000032B00A2ADAD1642491F82010174A04FB012463
S315000032C0A48A002CD1D19E464FF485440CF00F0CF5
S315000032D044EA0C0C642404FB01F101240EEB8E0E6F
S315000032E001EB4E01808854520A440021A2F802C024
S315000032F0D0801181BAE70A2AB7D1642391F8201049
S31500003300054A03FB01235B89002BAED14FF0010E6A
S3150000331044F210247346D9E7100800201080FFFFFE
S3150000332000210B4B00EB800003F15A0200EB8000FA
S3150000333003EB800302EB80005A89012A03D15981ED
S315000033409981198259820A338342F5D1704700BFA9
S31500003350100800202DE9F041012464270546244E7B
S3150000336002E001340A2C2BD095F8202004EB8403CC
S3150000337007FB02F202EB4303F35A012BF1D10021C2
S315000033802846FDF797FC1FFA84F800F00F008045E9
S3150000339018D001212846FDF78DFC00F00F0080456E
S315000033A01ED002212846FDF785FC00F00F0080455F
S315000033B00FD0414628460134FDF754FA0A2CD3D1E2
S315000033C0BDE8F081002328461A461946FDF794FB0E
S315000033D0DFE70023022228461946FDF78DFBE8E7C2
S315000033E00023012228461946FDF786FBD9E700BFD0
S315000033F010080020F8B50124642705460B4E02E0AC
S3150000340001340A2C11D095F8202004EB840307FB25
S3150000341002F202EB4303F35A012BF1D1A1B2284683
S315000034200134FDF7BFFA0A2CEDD1F8BD10080020D3
S3150000343038B504460C4D00F0BBF8FFF7B3F920464B
S31500003440FEF76EFF6B691BB10146002220469847C6
S3150000345020460021FDF740FF2B682046D979BDE8BC
S315000034603840FDF76DBF00BFC80A002010B50446FE
S315000034700A20FEF7F5FA94F82000BDE81040FEF7A2
S3150000348047BD00BF2DE9F041054690F82000FEF744
S3150000349053FD0023174A01241380174A6427174E49
S315000034A0138001E00A2C19D095F8203004EB840132
S315000034B007FB03F303EB4103F35A1FFA84F8012BCE
S315000034C004F10104EED12A4608214046FEF7B8FC75
S315000034D041462846FDF766FA0A2CE5D1084BDB691A
S315000034E02BB12846BDE8F04100221E211847BDE851
S315000034F0F08100BFC60A00203E0B00201008002005
S31500003500C80A002070B5044690F82000FEF724FD96
S3150000351094F82000FDF7ECFD05462046FDF73CFB40
S315000035206B0603D500F00300012809D094F82000AB
S31500003530FEF736FD94F82000BDE87040FEF720BD8A
S3150000354094F82000FEF7DCFC00F034F8054B1B6A0B
S3150000355033B105492046BDE8704000220988184766
S3150000356070BD00BFC80A00203E0B0020FEF714BC49
S3150000357070B506463046FDF7BBFD05460A20FEF748
S315000035806BFA3046FDF7B4FD04460A20FEF764FAEE
S315000035903046FDF7ADFD85EA040344401C4323068F
S315000035A0E8D415F0800F14BF4020432070BD00BF43
S315000035B0704700BF704700BF2DE9F0410E4600215D
S315000035C00C464FF028080546402225480AF0F5FF2C
S315000035D021464FF4FF7223480AF0EFFF224B2146A3
S315000035E01C80224B34221C80214B22481C80224BFB
S315000035F0224F1C80224B1C80224B1C80224B1C809D
S31500003600224B1C80224B1C605C60224B1C600AF023
S31500003610D4FF4246214620480AF0CFFF42462146C3
S315000036201E480AF0CAFF4FF00E3C1D4B424621468B
S315000036301C605C609C60DC601C611A48C7F800C0B6
S31500003640C7F804C0A7F808C00AF0B7FF164A174B18
S315000036503146284614801C80BDE8F041FFF70EBABB
S31500003660FC0A0020C80800206C0B00204C0B002030
S315000036704E0B0020C80A0020400B0020C60B00207D
S31500003680420B00203C0B0020680B0020C4080020E1
S31500003690440B0020500B00209C08002074080020DA
S315000036A0540B0020D4070020C60A00203E0B002041
S315000036B02DE9F0410025174B174A1B88158003F4A6
S315000036C07F43B3F5106F0ED0B3F5306F19D1134B9E
S315000036D09B6AB3B1124A134914882A4631F814106A
S315000036E0BDE8F0411847104E104F04463088B7F831
S315000036F00080FFF76BF83388434502D0074B9B6980
S315000037000BB9BDE8F0812A4620463988BDE8F0416C
S31500003710184700BF4C0B0020680B0020C80A002089
S31500003720400B0020C80800204E0B0020C60A0020CF
S315000037308E4B0246198801F47F43B3F5006F5AD0C9
S3150000374030B583B017D8002B31D0B3F5C06F35D163
S3150000375011F01F0338D1864B19880B0A013BCCB2F6
S31500003760062B2BD8DFE813F07900B500A6002A0057
S315000037702A00C6008600B3F5206F1FD101F01F0195
S3150000378001291BD17A4B1B88C3B97A4B18880128AB
S3150000379014D1794B1B88FE2B10D8784C784934F815
S315000037A013300B7003B0BDE83040FEF7EDBD704B33
S315000037B01B881BB96F4C2488022C30D0104603B0EE
S315000037C0BDE83040FEF7E8BA012BF7D16A4B6D48E9
S315000037D01B88674C674D83806B4B24880180DB6AAE
S315000037E029884480C180002B00F09E80002103B010
S315000037F0BDE83040184760485D4BB0F800C01B88F4
S3150000380001F01F0043EA0C01014389B221B9594B6B
S315000038101888012800F082801046FEF7BDBA5B4C7E
S3150000382001F01F010129238000F0908002297DD03C
S315000038300029C3D1504B1B88002BBFD10190FFF745
S315000038406DF8534B20701B88019A012B04BF40F082
S315000038500200207002204D49A4E7474B1B882343F2
S31500003860ACD14949434B096818880B78834299D8EB
S31500003870184697E70190FFF7A1FA0128019A9DD112
S315000038803D4B1B88234399D11046FEF749FD3E4B1D
S31500003890384CD3E90213C02818BF19462488C878C3
S315000038A08B78019A03EB002398B2A0427FF67AAF99
S315000038B0204677E7344B93F83010A1427FF67EAF6F
S315000038C019692C4B51F8241018880B788342CFD9EC
S315000038D068E7294B1B8823437FF470AF0190FEF7FE
S315000038E01FFD244C284B2488D3E90213C02808BFA7
S315000038F01946D4E70190FFF761FA0128019A7FF48F
S315000039005DAF1D4B1B8823437FF458AF1E49194BEF
S31500003910496818880B788342AAD943E71D4B1E498C
S315000039201B880B70FEF730BD03B030BD124D2B88DF
S315000039301B0733D190F820000192FDF719FD10F016
S31500003940020F019A86D00123237083E70190FEF7C8
S3150000395001FA0128019A7FF431AFFEF751FF064BB9
S31500003960019A1B888342FFF475AF27E74C0B0020B2
S315000039704E0B0020420B0020400B0020C808002000
S31500003980B40B0020440B0020C80A0020BC0B00200A
S315000039903E0B0020C60A0020B80B00200190FEF75F
S315000039A0D9F90128019A7FF409AF11462888FFF753
S315000039B0DBF9FF280146019A3FF400AF1046FEF7F7
S315000039C051FC10F0020F019ABDD143E7FEF7E4B9AE
S315000039D0F0B5AE4D04462A888DB002F47F43B3F5A8
S315000039E0A06F00F085801DD9B3F5106F00F09080B0
S315000039F0B3F5306F09D1FEF7ADF9012805D12B8853
S31500003A0003F01F03012B00F0BB802046FEF7C4F92C
S31500003A109F4E3388012B2AD021460020FEF720FD39
S31500003A200DB0F0BDB3F5807F46D0B3F5407FECD145
S31500003A30984B1B88002BE8D112F01F0200F0DE80A5
S31500003A40022AE2D1944B1B88002BDED1934B1888B7
S31500003A50020707D02146FFF787F9FF28D5D0214670
S31500003A60FEF794F900212046FEF744FCD0E79223A6
S31500003A7000278DF80F3094F8203087498DF80C30E8
S31500003A80864B09881B882A88ADF81C30814BADF817
S31500003A901A101B8803A90820ADF81820ADF81E30AF
S31500003AA00597ADF81070FEF74BFC214600203780D5
S31500003AB0FEF7D6FC0DB0F0BD764B1B88002BA4D1CB
S31500003AC012F01F0200F08480022A9ED1724B1B88DE
S31500003AD0002B9AD1714B1B8813F00F0140F0978091
S31500003AE00191FEF70DFC20460199FEF703FC8FE7D6
S31500003AF06A4B68491B88098802F01F020B431A4368
S31500003B0092B2002A81D1644B1B887F2BAAD97CE70D
S31500003B10D3067FF47AAF624B5F4F9A683B8852793F
S31500003B209A4202D0002B7FF470AF5C4A594B16883C
S31500003B3019880E43B6B2002E7FF467AF3146204691
S31500003B40FEF7D8FB3B88002B3FF462AF554A12883C
S31500003B509A423FF45DAFFEF747FEFEF751FE074679
S31500003B6038B1304600210136FEF77AFEB0B2874200
S31500003B70F8D82046FFF73EFC2046FFF7EBFB47E769
S31500003B80FEF73EFE454E33889842FFF43EAF414A6B
S31500003B901788002F7FF439AF1846FEF737FE3E4BE5
S31500003BA01B889842FFF431AF328839463E4FDBB26C
S31500003BB0204627F81230FEF79DFBFEF715FE3088EB
S31500003BC037F81010FEF74CFE2046FFF7C3FB1FE741
S31500003BD0314B1B88012B7FF418AF304B1E88002E0B
S31500003BE07FF413AFFEF78CFE01287FF40EAF2F4B48
S31500003BF0314620461E80FEF77DFB09E7264B1B88D3
S31500003C00012B5DD0022B2BD0FFF7B0FC00E701465D
S31500003C101846FFF7A9F8FF2806463FF4F6AE014618
S31500003C202046FEF71FFB01283146204659D0FEF7F5
S31500003C3067FB31462046FDF7D5FC00212046FEF7FE
S31500003C4059FB1B4B33F81620012A7FF4E1AE002204
S31500003C50184920460F6823F816201146B847D7E6BC
S31500003C60FEF75EFBC0287FF4D0AE0C4B1B88A3F595
S31500003C70804211047FF5C9AE01260F490F4A0B8019
S31500003C80204600211680FEF735FBC1E64C0B0020CE
S31500003C90680B0020420B00204E0B0020400B00203A
S31500003CA0C80A0020C60A0020C80800203E0B0020D3
S31500003CB0540B0020500B00206C0B00206A0B0020D8
S31500003CC00D4B1E88002E7FF4A0AEFEF719FE0128CC
S31500003CD07FF49BAE094B314618802046FEF70AFB5F
S31500003CE096E6FCF7C7FE31462046FDF77BFC3146DB
S31500003CF02046FEF7FFFAA0E7400B00203E0B00200F
S31500003D00F0B5274E044633888BB003F47F43B3F5F2
S31500003D10006F06D013D9B3F5206F02D0B3F5406F0C
S31500003D2012D1204D00212046FEF7E4FA2B88012B04
S31500003D3011D021460020FEF793FB0BB0F0BD002BFF
S31500003D40EFD0B3F5C06FECD0164D2046FEF724F841
S31500003D502B88012BEDD1922300278DF8073094F89C
S31500003D60203011498DF80430104B09881B883288A1
S31500003D70ADF814300E4BADF812101B8801A90820BF
S31500003D80ADF81020ADF816300397ADF80870FEF7C1
S31500003D90D7FA214600202F80FEF762FB0BB0F0BD5C
S31500003DA04C0B0020680B00204E0B0020400B00201F
S31500003DB0420B0020F0B5204E044633888BB003F446
S31500003DC07F43B3F5E06F0BD01C4DFDF7E5FF2B8865
S31500003DD0012B0CD021460020FEF742FB0BB0F0BDB4
S31500003DE0164D0021FEF786FA2B88012BF2D192237D
S31500003DF000278DF8073094F8203011498DF80430EB
S31500003E00104B09881B883288ADF814300E4BADF87C
S31500003E1012101B8801A90820ADF81020ADF8163045
S31500003E200397ADF80870FEF78BFA214600202F8025
S31500003E30FEF716FB0BB0F0BD4C0B0020680B002004
S31500003E404E0B0020400B0020420B0020024630B5EE
S31500003E5000250C468BB05168006804AB03C32946A5
S31500003E602046FEF747FA922394F8202001A908205D
S31500003E708DF804208DF807300395ADF80850FEF74D
S31500003E805FFA044B214628461D80FEF7E9FA0BB07F
S31500003E9030BD00BF680B0020024630B500250C4639
S31500003EA08BB05168006804AB03C329462046FEF771
S31500003EB021FA92220C49BDF81630086894F82010B1
S31500003EC01B1A8DF80410082001A903938DF807200A
S31500003ED0ADF80850FEF734FA044B214628461D80FB
S31500003EE0FEF7BEFA0BB030BD74080020680B002048
S31500003EF010B5034600888CB000F06000202801D081
S31500003F00402806D105295FD8DFE801F02F1950199E
S31500003F1057354FF0920E92F820C000221868596863
S31500003F2006AB8DF80FE003C3072003A98DF80CC07C
S31500003F300592ADF81020FEF703FA0CB010BD002470
S31500003F404FF0920C1868596892F8202006AB8DF84D
S31500003F500C2003C3072003A90594ADF810408DF883
S31500003F600FC0FEF7EDF90CB010BD00231A491B4A2D
S31500003F700B801380E1E700244FF0920C1868596813
S31500003F8092F820E006AB03C303A9072001928DF83F
S31500003F900CE00594ADF810408DF80FC0FEF7D0F98F
S31500003FA0019A20461146FEF75BFAC6E71146184607
S31500003FB00CB0BDE81040FFF749BF114618460CB0DB
S31500003FC0BDE81040FFF768BF114607200CB0BDE8FA
S31500003FD01040FEF745BA00BF3C0B0020680B0020DE
S31500003FE00A4600F10C0303CB1060516000207047B5
S31500003FF00E2370B5134D0B700E460446FEF7C2F93C
S315000040006B782A789A421BD0A44603EBC30405EBCF
S3150000401084040C3405EB030E0FCCACE80F000FCC78
S31500004020ACE80F009EF802E02368CCF8003086F872
S3150000403000E06B780133DBB2092B88BF00236B707D
S31500004040002070BDC40B0020F8B58A78304E02708F
S31500004050CB7803F07F03C3700B6A8361B35C012BDB
S315000040604BD00B780C46012B054603D00221294B79
S3150000407023F812104FF4BA72002127480AF09DFA6D
S31500004080012200212B782548F254254A254E22F894
S31500004090131046F823104FF40C720AF08EFA2378A8
S315000040A0012B02D100273846F8BD2878FDF7A0FB82
S315000040B007460028F7D121462846FFF77DFA214614
S315000040C02878FDF769FC2878FDF7A2FF2878FFF726
S315000040D04FFA402815D02378012BE3D02B783846A9
S315000040E056F8232042F0010246F8232056F82320F2
S315000040F042F0020246F82320F8BD40F2DD5738466A
S31500004100F8BD0A20FDF7ACFC2878FDF701FFE2E7D1
S31500004110700F00206C0F0020C40B00203C0D002007
S31500004120C00B0020380D00204FF0060C70B52D4A4C
S3150000413003782D4E81F802C00C4632F8131056F85B
S3150000414023108EB000293DD032F813208DF8203090
S3150000415093B2012B02D100200EB070BD0026054699
S3150000416026706846FEF7DCF880282FD0C0280ABFE4
S315000041700223667063702878FCF7BAFF00F07003BC
S31500004180202B29D010D9302B23D02F2B04D8002355
S315000041901846E3700EB070BD602B02D00AD9702BA2
S315000041A0F5D10423A370F2E7CBB1102BEFD1012395
S315000041B0A370ECE700F060004028F2D00023184618
S315000041C0E370E7E740F2DC500EB070BD0123637088
S315000041D0D1E70323A370DAE70223A370D7E7062308
S315000041E0A370D4E76C0F0020380D002070B505468B
S315000041F00078FDF7A7FBC8B90E4A2B780E4ED054AF
S315000042002B78044636F8132092B2012A07D10022F1
S315000042100A49204641F8232026F8132070BDFEF7F0
S3150000422015FC2878FFF77CF82B78F0E74FF4BC6490
S31500004230204670BD700F00206C0F0020380D002046
S31500004240F0B504461646124F027883B037F81200CE
S315000042500D4680B2022804BF03F07F03E3702046B8
S31500004260627801A9FFF760FF9DF80630032B03D0A3
S3150000427040F2DC5003B0F0BD324629462046FDF739
S3150000428075FF0028F6D0D528F2D140F2DD50F1E7CF
S315000042906C0F0020F0B504461646124F027883B024
S315000042A037F812000D4680B2022804BF03F07F03E0
S315000042B0E3702046627801A9FFF736FF9DF80630C5
S315000042C0032B03D040F2DC5003B0F0BD3246294642
S315000042D02046FDF775FF0028F6D0D528F2D140F22A
S315000042E0DD50F1E76C0F0020F0B583B00E4617469F
S315000042F001A942780546FFF717FF18B99DF8063061
S31500004300032B04D040F2DC54204603B0F0BD044633
S315000043103A4631462846FDF7B9FED52804D0FF288F
S31500004320F0D0204603B0F0BD40F2DD54ECE700BF0C
S31500004330F0B583B00E46174601A942780546FFF749
S31500004340F3FE18B99DF80630032B04D040F2DC5476
S31500004350204603B0F0BD04463A4631462846FDF7EE
S31500004360BDFED52804D0FF28F0D0204603B0F0BD0E
S3150000437040F2DD54ECE700BF70B582B00E464278DD
S3150000438001A90546FFF7D0FE18B99DF80630032BA4
S3150000439004D040F2DC54204602B070BD0446B1B2EF
S315000043A02878A980FDF754FE204602B070BD00BFF4
S315000043B02DE9F84F0388002B3DD007464FF0000843
S315000043C0DFF8A4A040F202427B684FEAC8055919FB
S315000043D08988002491424FF00109224E09D0013408
S315000043E0032C23D07B6836F8022B59198988914211
S315000043F0F5D15B5909FA04F203F0B853B3F1807FA3
S315000044005FFA82FB19D09AF8BB341A42E7D0012032
S3150000441000F074FB9AF8BB34012023EA0B0B8AF8F0
S31500004420BBB4013400F03AFB032CDBD13B8808F126
S3150000443001084345C6D8BDE8F88F9AF8BB2409FAA7
S3150000444004F313425FFA83FBC9D1012000F056FB47
S315000044509AF8BB3401204BEA030B8AF8BBB400F090
S315000044601DFBBCE72E03010000E00140F8B5044641
S31500004470FFF79EFFEFF31082012383F31088284E87
S3150000448033681BB92749CB704023CB70336801339F
S31500004490336082F3108823887BB3626803F1FF3EA2
S315000044A01FFA8EFE02F108011F4C01EBCE0E08E04A
S315000044B0D2B21B0113448E450A4644F823001CD091
S315000044C008311068928810F4803F4FEA1223EFD02B
S315000044D0130AD2B202EB031C54F82C701B011344CE
S315000044E020F480356FF310478E4544F82C700A4649
S315000044F044F82C5044F82300E2D1EFF31082012354
S3150000450083F31088336813B13368013B3360336833
S315000045101BB980200349CB70C87082F31088F8BDA0
S31500004520CC0F0020000D08400008084008B5034BDA
S3150000453003600846FFF79AFF002008BD54524F500B
S315000045408268117A01F00101137AC3F3400399429C
S31500004550FAD143681978012908D1C16893F810C0C7
S3150000456004484B1E9BB240F82C101380F123002008
S3150000457013727047740F00208268107A00F00100F1
S31500004580137AC3F340039842FAD1137A0020C3F397
S3150000459040030B7113889BB20B607047F0B50A7C21
S315000045A0416002F5800202F5686212028260EFF352
S315000045B01086012383F3108891F810C0BCF1030F15
S315000045C071D8CCF1030C03FA0CF3DB433E4CE568DF
S315000045D00C342B402360236886F310880023137263
S315000045E0137AC3F3400C9B07FAD4CC6982F80AC04D
S315000045F0E278267883680D7A247902F00702002E85
S315000046004AD1002D58D100261C734C68D0F804E01E
S3150000461004F1FF3C9E731FFA8CFC5A729D72C460B3
S315000046209EF81020A3F800C091F91230274FB3422C
S3150000463047F8224026DB4A7C03F160441201244DF0
S31500004640D2B204F5614484F80023224A03F1C0047F
S3150000465045F8230052F8245066F3104542F82450DA
S3150000466052F82420BFF35F8F01245A09920003F009
S315000046701F0302F1604202F5614204FA03F3C2F835
S31500004680803113600023D1E90541134A0461816139
S31500004690026043611846F0BD502E06BF654642F0E3
S315000046A050023243AFE7084CCCF1130C03FA0CF37B
S315000046B02569DB4310348CE785F0020542EA0512D2
S315000046C0D2B235469FE700BF00400840740F002075
S315000046D0D00F002000600040544741002DE9F04112
S315000046E084B0EFF30383103B1F4A5BB203F1C001B2
S315000046F052F821006FF3104042F8210052F82120B1
S315000047001A4A52F82340D4E901261278337A012A4C
S31500004710DBB204D1F42203F0F00332723372D4F820
S315000047201080B8F1000F15D0656901AFCDB195E8DD
S31500004730070087E807009B0644BF00232B71A36987
S3150000474028462B60C04763691BB197E8070083E8DA
S315000047500700337ADBB203F00F03337204B0BDE80F
S31500004760F0813D46E7E700BF00600040D00F002023
S31500004770064B074993F826001A6A51F82030C2F30F
S3150000478002620449D3400B60704700BF00E001405D
S315000047902C0300205C110020F8B54AF203500123D7
S315000047A04849494AA1F8FE03A2F80431B2F8043197
S315000047B09BB2002BFAD101214FF400454FF0090CB2
S315000047C0424CDFF824E1424EC4F804E0DFF81CE175
S315000047D03C48C4F80CE0A2F80011B1603D4A3160D3
S315000047E0A56025613C4D3D4FC4E90552276090F810
S315000047F02620056A54F82220C5F30265EA40384DA2
S315000048002A6080F8133480F8A2C090F88034002B18
S3150000481051D000232B4981F8813481F8803481F806
S31500004820323091F83C301A07FBD5002342F6027667
S3150000483043F20210234AA1F8486081F84A300885FD
S3150000484081F82A3092F83C309B06FBD503200523DD
S315000048501D4981F81C0101202249116282F8263087
S3150000486092F82630116A54F82330C1F30261CB4026
S315000048702B6082F8300082F8520092F874301149A9
S3150000488043F0400382F8743091F87430DB09FBD0B2
S315000048900224462006230B4A81F86C4081F87400F6
S315000048A081F8743092F87430DB09FBD14FF425435C
S315000048B0A2F8FE33F8BD80F8801440F2C44000F040
S315000048C04DF8A6E700E0014000C001402C0300209F
S315000048D00070004000B0710B00C2EB0B002D3101DF
S315000048E05C1100202112012000127A0000366E01B0
S315000048F038B50025134C0121C82084F8285000F053
S315000049002DF884F8245094F82430002BFBD194F829
S3150000491024300C4A43F0020384F8243092F8243001
S31500004920C3F340049B07F9D4012082F8224000F02B
S31500004930E5F8054B012083F8BB44BDE8384000F09C
S31500004940ADB800BF0030084000E0014000BEFEE701
S31500004950A0F101000028FBD1704700BF10B54FF44D
S315000049607A72164C164B24684FF0000EB3FBF4FC1B
S315000049704FF0FF3300FB01F1A1FB020483427EEB03
S31500004980040407D3B0FBFCF0800880B1BDE81040FA
S31500004990FFF7DEBF4FEA8C0CB1FBFCF1A1FB021264
S315000049A08B427EEB020203D308460028EED110BDEF
S315000049B01846BDE81040FFF7CBBF00BF5C110020D2
S315000049C000CA9A3B70B500240A4B0B4EB3F840510F
S315000049D0ADB225FA04F3DB07E0B203D556F824306E
S315000049E003B198470134102CF3D1024BA3F8305190
S315000049F070BD00BF006000408C0F002030B56FF026
S31500004A00FF0585B0032000F079F84FF0FF311F4C09
S31500004A101F482246856400230125CDE90111039133
S31500004A2004F1C00E32F8020F590960B104A800EB78
S31500004A30810151F80C0C03F01F0C05FA0CFC20EA5E
S31500004A400C0041F80C0C724503F10103EAD10199FF
S31500004A50104B0F4A03201167C3F880120299516761
S31500004A60C3F8841203999167C3F8881200F016F808
S31500004A700023094803F1C00234F8021F0133602BFA
S31500004A8040F82210F6D105B030BD00BF4E0201003D
S31500004A900080004000E100E000600040EFF310817C
S31500004AA0012383F31088124B33F8102092B22AB1F7
S31500004AB033F81020013A92B223F8102033F8103060
S31500004AC09BB293B90B4A10B4B2F8FE330A4C9BB2B0
S31500004AD034F8100043F4254323EA0003A2F8FE331A
S31500004AE081F310885DF8044B704781F31088704796
S31500004AF05011002000E001403403010030B4EFF310
S31500004B001081012383F310880E4A32F810309BB2CD
S31500004B106BB90D4C0D4DB4F8FE3335F810C09BB291
S31500004B2043EA0C0343F425439BB2A4F8FE3332F860
S31500004B30103001339BB222F8103081F3108830BC5C
S31500004B40704700BF5011002000E00140340301000F
S31500004B500D4908B50A6803464AB103330B4823F0EA
S31500004B6003031344834206D810460B6008BD084869
S31500004B7002460860F1E709F0B5FC0C234FF0FF325E
S31500004B800360104608BD00BF58110020206D0020AC
S31500004B90205D002000BE704708B500F003F8FBF763
S31500004BA0DBFDFEE74FF4700270B5254B254CC3F8CC
S31500004BB0882000209C60FBF7A5FBFFF7EDFD012098
S31500004BC0FBF7A0FB2368A3F5805383F30A881E48EE
S31500004BD01E4A0021121A09F0F0FC1D481D4A1E4902
S31500004BE0121A09F0DDFC1D4D1D4B5B1B002B07DD6A
S31500004BF000249E1055F8043B01349847A642F9DC80
S31500004C00FFF7B6FDFFF774FE0320FFF777FF0023DB
S31500004C104FF6FF70134903F108020133092B21F8FF
S31500004C201200F8D10320FFF739FF0220FBF76AFBD9
S31500004C30FFF7E4FEBDE87040002000F015B800BFA5
S31500004C4000ED00E000000000480300201C5D00208D
S31500004C50000000202C030020C80E010020030020C5
S31500004C6028030020000D0840704700BF10B584B02F
S31500004C7069460120FBF704FCDDE900020749029CB6
S31500004C80A0FB010301FB023100194FF00003044AA7
S31500004C9041EBE47109F000FA04B010BD00CA9A3B7A
S31500004CA040420F0010B584B069460120FBF7E8FBCF
S31500004CB0DDE90141054A0098A0FB020302FB04332B
S31500004CC0401843EBE17104B010BD00BF00CA9A3B27
S31500004CD0014B1868704700BF4C0301002DE9F047EF
S31500004CE088B0109D002D68D005F15009044648464D
S31500004CF0884617461E4600F0DBF900285DD0002CDA
S31500004D005BD0D4F800A0BAF1000F04D06426304678
S31500004D1008B0BDE8F087404604F0C0FF002851D037
S31500004D20002F4AD0002E48D0CDE903AA07AB059341
S31500004D3005F1580393E807008DE80700CDF81CA09D
S31500004D40314699E80C00404604F0FCFF0646002870
S31500004D5050D1C8202B6D296E98472060002851D06D
S31500004D60404604F0BDFF05F16403009339462B4627
S31500004D70079A266800F05AFA2168C6F8C400D1F8E6
S31500004D80C40078B3703100F02FFB0646E0B9236803
S31500004D9095F84820294683F8B8201846702209F06D
S31500004DA0FFFBD8F80020C0F8C02007986B6D296E6D
S31500004DB09847304608B0BDE8F0870B26304608B065
S31500004DC0BDE8F087C826A2E72168C9B1D1F8C4308A
S31500004DD043B1404604F084FF2368D3F8C41000F0C2
S31500004DE011FB216808466B6D296E98470023012642
S31500004DF02360DAE76728D8D0692805D00A2801D0C9
S31500004E000126D2E70A26D0E76726CEE770B588B036
S31500004E106E460446124D50221249284609F0C0FB40
S31500004E2002A800F035F90DF1080C05F1500EBCE8AA
S31500004E300F00AEE80F00DCF800303046CEF8003048
S31500004E4000F076F996E8030005F1640383E80300B1
S31500004E5070222946204609F0A3FB204608B070BD03
S31500004E606011002050030100F8B1036870B50446D4
S31500004E70B3B11646D3F8C42092B1D3F8C0000D469C
S31500004E8004F030FB60B12368D3F8C40040B155B1DB
S31500004E903246294600F06AF9003818BF012070BD75
S31500004EA04FF4967070BD0B2070BD4FF4967070472E
S31500004EB02DE9F04186B0C0B31C46B3B30F46904609
S31500004EC0064604F079FC034604F10C0595E8030058
S31500004ED08DE80300059305A894E80E0004F06EFC27
S31500004EE00546E0B902AD284604F0F2FA95E803005B
S31500004EF0334686E8030005AA4146384604F058FBC7
S31500004F000546B8B922460320B46006F10C0105F047
S31500004F10D9F8054670B905A804F0B6FC08B100F04A
S31500004F20EBF8284606B0BDE8F0810B25284606B00A
S31500004F30BDE8F08100F0E0F805A804F0A5FC002823
S31500004F40EFD0ECE7B8B32DE9F0430D46A1B029B395
S31500004F5016461AB31F460BB304460DF11008404619
S31500004F600DF1180904F048FD98E8030084E80300F1
S31500004F70484604F0BBFE404604F03EFDCDF80090E6
S31500004F8098E803003B4684E803003246294620465B
S31500004F9004F03CFD30B921B0BDE8F0830B2021B010
S31500004FA0BDE8F083039000F0A7F800F0A5F8039899
S31500004FB021B0BDE8F0830B20704700BF70B32DE928
S31500004FC0F0410D46A0B029B316461AB31F460BB3DF
S31500004FD00446FFF77DFE03460DF1100823604046A8
S31500004FE0FFF714FF50220E49404609F0D9FA3B4616
S31500004FF0324629462046CDF80080FFF76FFE10B9ED
S3150000500020B0BDE8F081039000F076F8039820B058
S31500005010BDE8F0810B2020B0BDE8F0810B20704781
S31500005020A003010009F056BA09F04ABC09F0B0BA6B
S3150000503009F0A6BA844630B4054C0FCC2568644600
S31500005040ACE80F002046CCF8005030BC704700BFDB
S31500005050F0030100A8B10268A2B14168A1B110B481
S31500005060C46864B1806838B1084B1A600022C3E98D
S3150000507001100120C3E903425DF8044B7047204646
S31500005080FAE7704710467047084670471802002036
S31500005090844630B4054C0FCC25686446ACE80F0056
S315000050A02046CCF8005030BC704700BF18020020E4
S315000050B058B1036843B1436833B1C36823B180680C
S315000050C0003818BF0120704718467047064B1B78FA
S315000050D03BB1064B1A780AB901221A70044B1878AC
S315000050E07047044B18787047D0110020E911002052
S315000050F0E81100200404010000239FED077B084906
S31500005100084A0B700848094982ED027B1380037038
S315000051100B707047AFF30080000000000000000035
S31500005120E8110020D8110020E9110020D01100203C
S31500005130002202600271704770B4DDE9035662B165
S315000051405BB155B14EB1064C2070C4E90112002086
S31500005150C4E90335666170BC70470B2070BC7047AC
S31500005160EC110020C96F02F03DBB00BF002853D0F0
S3150000517070B50D468EB000294BD00446006800F08D
S3150000518043FC002845D06668002E42D0B469284604
S3150000519023699847F369059013B105A898470598C0
S315000051A0D6F880301B690090726903F52870B16FDC
S315000051B006AB03F0EDF8D8B1A368284606A99847D0
S315000051C0336A04460BB106A8984796F87A30012B45
S315000051D0D6F8803022D01869F16F00F5287002F0F9
S315000051E001FB2040C4B284F00100C0B20EB070BD15
S315000051F0D6F880301869059B029600930A4B00F595
S31500005200287001937269B16F06AB03F0F1F80028BC
S31500005210D2D101200EB070BD01207047186900F58B
S31500005220287001F067FFDEE7655100002DE9F04FB9
S3150000523087B0002800F0CC808846002900F0C8809E
S315000052400446006815461F4600F0DEFB002800F005
S31500005250BF80002D00F0BC8095F90030002B00F0D7
S31500005260B780002F00F0B4805C48D4F8049005F0B5
S31500005270ABFC002800F0AC808468C4F8884005F0D8
S31500005280C7FC04F19C0AC4F88400C4F88CA0284624
S3150000529009F081FB01303C2804F1840600F291807C
S315000052A02B463C214E4A504609F022FB4FF47A73B6
S315000052B03946E3675022C4F8809004F1280009F0CB
S315000052C06FF93B7A4046022BD9F8103045490CBF9E
S315000052D0D3F87C33D3F87833A3670023C4E90733C4
S315000052E000F0A0FB00286CD04268A261002A68D0BA
S315000052F029463B46484605F0F5FE6062002864D024
S31500005300D9F81030032103F58053B3F89805062524
S31500005310421CA3F8982501F093FD0246D9F81030F7
S31500005320D4F88010D3F8843308692261009519688F
S315000053302269D9F8143000F5287001F0D7FC02462E
S31500005340D9F81000D0F88C33D0F8841300F0DCFACA
S31500005350B8B3D9F81030052103F58053B3F89A0590
S315000053600DF11008421CA3F89A2501F069FDD4F846
S31500005370803039461F69D9F8103060614046D3F84D
S3150000538084A3D4F824B000F0DBFA039598E8030070
S315000053900190ADF80810DBF8103007F52877009378
S315000053A0D4E90432DAF80010384601F0CFFC0246A0
S315000053B0D9F81000D0F88C33D0F8841300F0A4FA92
S315000053C038B9606A08B100F043FA304600F0E8F9EF
S315000053D00026304607B0BDE8F08F00BFE45A002033
S315000053E03C0401000804010050B149B108B5436806
S315000053F05022084603F1280109F0D2F8002008BD22
S315000054000B207047F8B528B1044600680D4600F039
S31500005410FBFA10B901242046F8BD6368002BF9D0C9
S31500005420002DF7D0286800F0EFFA0028F2D06C685B
S31500005430002CEFD0606AD4F8807005F0A3FED4F893
S31500005440803062691869D0F8883300F528701968C9
S3150000545001F098FB0346D4F88010226908691C46BF
S31500005460D0F8881300F52870096801F08BFB064612
S3150000547038692246D0F89033D0F8881300F044FA01
S31500005480044638693246D0F89033D0F8881300F0D5
S315000054903BFA2CB120B10024284600F081F9BAE786
S315000054A00224F9E7E2B12DE9F041057B0646ADB9E4
S315000054B01746C82340F201120C46A846C0E900551B
S315000054C08281836021463046013505F08DFBAF426F
S315000054D0A46084F80C8004F1C804F3D1BDE8F0811F
S315000054E0704700BFE2B12DE9F041057B0646ADB934
S315000054F01746C82340F201120C46A846C0E90055DB
